{
  "_format": "hh-sol-artifact-1",
  "contractName": "Auction",
  "sourceName": "contracts/Users.sol",
  "abi": [
    {
      "inputs": [
        {
          "internalType": "contract NFT",
          "name": "_nftInstance",
          "type": "address"
        },
        {
          "internalType": "address payable",
          "name": "_owner",
          "type": "address"
        },
        {
          "internalType": "uint256",
          "name": "_nftTokenId",
          "type": "uint256"
        },
        {
          "internalType": "string",
          "name": "_message",
          "type": "string"
        },
        {
          "internalType": "uint256",
          "name": "_startPrice",
          "type": "uint256"
        }
      ],
      "stateMutability": "nonpayable",
      "type": "constructor"
    },
    {
      "anonymous": false,
      "inputs": [
        {
          "indexed": false,
          "internalType": "address",
          "name": "oldOwner",
          "type": "address"
        },
        {
          "indexed": false,
          "internalType": "address",
          "name": "newOwner",
          "type": "address"
        },
        {
          "indexed": false,
          "internalType": "uint256",
          "name": "tokenId",
          "type": "uint256"
        }
      ],
      "name": "AuctionFinalized",
      "type": "event"
    },
    {
      "anonymous": false,
      "inputs": [
        {
          "indexed": false,
          "internalType": "address",
          "name": "bidder",
          "type": "address"
        },
        {
          "indexed": false,
          "internalType": "uint256",
          "name": "value",
          "type": "uint256"
        }
      ],
      "name": "PlaceBid",
      "type": "event"
    },
    {
      "anonymous": false,
      "inputs": [
        {
          "indexed": false,
          "internalType": "address",
          "name": "owner",
          "type": "address"
        },
        {
          "indexed": false,
          "internalType": "address",
          "name": "auction",
          "type": "address"
        }
      ],
      "name": "WhoIsOwner",
      "type": "event"
    },
    {
      "inputs": [],
      "name": "auctionState",
      "outputs": [
        {
          "internalType": "enum Auction.State",
          "name": "",
          "type": "uint8"
        }
      ],
      "stateMutability": "view",
      "type": "function"
    },
    {
      "inputs": [
        {
          "internalType": "uint256",
          "name": "",
          "type": "uint256"
        }
      ],
      "name": "bidders",
      "outputs": [
        {
          "internalType": "address",
          "name": "",
          "type": "address"
        }
      ],
      "stateMutability": "view",
      "type": "function"
    },
    {
      "inputs": [
        {
          "internalType": "address",
          "name": "",
          "type": "address"
        }
      ],
      "name": "bids",
      "outputs": [
        {
          "internalType": "uint256",
          "name": "",
          "type": "uint256"
        }
      ],
      "stateMutability": "view",
      "type": "function"
    },
    {
      "inputs": [],
      "name": "finalizeAuction",
      "outputs": [
        {
          "internalType": "bool",
          "name": "",
          "type": "bool"
        }
      ],
      "stateMutability": "nonpayable",
      "type": "function"
    },
    {
      "inputs": [],
      "name": "getContent",
      "outputs": [
        {
          "components": [
            {
              "internalType": "address",
              "name": "owner",
              "type": "address"
            },
            {
              "internalType": "uint256",
              "name": "nftTokenId",
              "type": "uint256"
            },
            {
              "internalType": "string",
              "name": "message",
              "type": "string"
            },
            {
              "internalType": "uint256",
              "name": "startPrice",
              "type": "uint256"
            }
          ],
          "internalType": "struct AuctionContent",
          "name": "",
          "type": "tuple"
        }
      ],
      "stateMutability": "view",
      "type": "function"
    },
    {
      "inputs": [],
      "name": "highestBidder",
      "outputs": [
        {
          "internalType": "address payable",
          "name": "",
          "type": "address"
        }
      ],
      "stateMutability": "view",
      "type": "function"
    },
    {
      "inputs": [],
      "name": "highestPrice",
      "outputs": [
        {
          "internalType": "uint256",
          "name": "",
          "type": "uint256"
        }
      ],
      "stateMutability": "view",
      "type": "function"
    },
    {
      "inputs": [],
      "name": "message",
      "outputs": [
        {
          "internalType": "string",
          "name": "",
          "type": "string"
        }
      ],
      "stateMutability": "view",
      "type": "function"
    },
    {
      "inputs": [],
      "name": "nftInstance",
      "outputs": [
        {
          "internalType": "contract NFT",
          "name": "",
          "type": "address"
        }
      ],
      "stateMutability": "view",
      "type": "function"
    },
    {
      "inputs": [],
      "name": "nftTokenId",
      "outputs": [
        {
          "internalType": "uint256",
          "name": "",
          "type": "uint256"
        }
      ],
      "stateMutability": "view",
      "type": "function"
    },
    {
      "inputs": [],
      "name": "owner",
      "outputs": [
        {
          "internalType": "address payable",
          "name": "",
          "type": "address"
        }
      ],
      "stateMutability": "view",
      "type": "function"
    },
    {
      "inputs": [
        {
          "internalType": "address payable",
          "name": "_sender",
          "type": "address"
        },
        {
          "internalType": "uint256",
          "name": "_value",
          "type": "uint256"
        }
      ],
      "name": "placeBid",
      "outputs": [
        {
          "internalType": "bool",
          "name": "",
          "type": "bool"
        }
      ],
      "stateMutability": "payable",
      "type": "function"
    },
    {
      "inputs": [],
      "name": "startPrice",
      "outputs": [
        {
          "internalType": "uint256",
          "name": "",
          "type": "uint256"
        }
      ],
      "stateMutability": "view",
      "type": "function"
    },
    {
      "inputs": [],
      "name": "startTime",
      "outputs": [
        {
          "internalType": "uint256",
          "name": "",
          "type": "uint256"
        }
      ],
      "stateMutability": "view",
      "type": "function"
    }
  ],
  "bytecode": "0x60806040523480156200001157600080fd5b5060405162000f1838038062000f18833981016040819052620000349162000140565b600080546001600160a01b0319166001600160a01b03861617905560018390558151620000699060049060208501906200009a565b5060025550504260035550600580546001600160a01b0319166001600160a01b0392909216919091179055620002bd565b828054620000a89062000251565b90600052602060002090601f016020900481019282620000cc576000855562000117565b82601f10620000e757805160ff191683800117855562000117565b8280016001018555821562000117579182015b8281111562000117578251825591602001919060010190620000fa565b506200012592915062000129565b5090565b5b808211156200012557600081556001016200012a565b600080600080600060a0868803121562000158578081fd5b85516200016581620002a4565b809550506020808701516200017a81620002a4565b6040880151606089015191965094506001600160401b03808211156200019e578384fd5b818901915089601f830112620001b2578384fd5b815181811115620001c757620001c76200028e565b604051601f8201601f1916810185018381118282101715620001ed57620001ed6200028e565b60405281815283820185018c101562000204578586fd5b8592505b8183101562000227578383018501518184018601529184019162000208565b818311156200023857858583830101525b8096505050505050608086015190509295509295909350565b6002810460018216806200026657607f821691505b602082108114156200028857634e487b7160e01b600052602260045260246000fd5b50919050565b634e487b7160e01b600052604160045260246000fd5b6001600160a01b0381168114620002ba57600080fd5b50565b610c4b80620002cd6000396000f3fe6080604052600436106100dd5760003560e01c806391f901571161007f578063d98b9bb511610059578063d98b9bb514610207578063e21f37ce14610227578063f1a9af8914610249578063f77282ab1461025e576100dd565b806391f90157146101bd578063ac5e4dd8146101d2578063cff29dfd146101e7576100dd565b806378e97925116100bb57806378e979251461014f5780637e830574146101645780637fb45099146101795780638da5cb5b1461019b576100dd565b80630e8670e0146100e257806359016c791461010d57806362ea82db1461012f575b600080fd5b3480156100ee57600080fd5b506100f7610273565b6040516101049190610b70565b60405180910390f35b34801561011957600080fd5b50610122610279565b6040516101049190610b22565b34801561013b57600080fd5b506100f761014a3660046108e0565b610341565b34801561015b57600080fd5b506100f7610353565b34801561017057600080fd5b506100f7610359565b34801561018557600080fd5b5061018e61035f565b6040516101049190610a07565b3480156101a757600080fd5b506101b061036f565b6040516101049190610991565b3480156101c957600080fd5b506101b061037e565b3480156101de57600080fd5b506101b061038d565b3480156101f357600080fd5b506101b061020236600461092e565b61039c565b61021a610215366004610903565b6103c6565b60405161010491906109fc565b34801561023357600080fd5b5061023c61056e565b6040516101049190610a2f565b34801561025557600080fd5b506100f76105fc565b34801561026a57600080fd5b5061021a610602565b60065481565b6102816108af565b604080516080810182526000546001600160a01b0316815260015460208201526004805491928301916102b390610b91565b80601f01602080910402602001604051908101604052809291908181526020018280546102df90610b91565b801561032c5780601f106103015761010080835404028352916020019161032c565b820191906000526020600020905b81548152906001019060200180831161030f57829003601f168201915b50505050508152602001600254815250905090565b60096020526000908152604090205481565b60035481565b60015481565b600554600160a01b900460ff1681565b6000546001600160a01b031681565b6007546001600160a01b031681565b6005546001600160a01b031681565b600881815481106103ac57600080fd5b6000918252602090912001546001600160a01b0316905081565b600080546001600160a01b03163314156103df57600080fd5b6000600554600160a01b900460ff16600181111561040d57634e487b7160e01b600052602160045260246000fd5b146104335760405162461bcd60e51b815260040161042a90610a77565b60405180910390fd5b6001600160a01b038316600090815260096020526040902054829015610479576001600160a01b0384166000908152600960205260409020546104769082610b79565b90505b600254811161049a5760405162461bcd60e51b815260040161042a90610aae565b60065481116104bb5760405162461bcd60e51b815260040161042a90610a42565b6001600160a01b0384166000818152600960205260408082208490556008805460018101825592527ff3f7a9fe364faab93b216da50a3214154f22a0a2b415b23a84c8169e8b636ee390910180546001600160a01b03199081168417909155600684905560078054909116909217909155517fe694ab314354b7ccad603c48b44dce6ade8b6a57cbebaa8842edd9a2fb2856f89061055c90869084906109e3565b60405180910390a15060019392505050565b6004805461057b90610b91565b80601f01602080910402602001604051908101604052809291908181526020018280546105a790610b91565b80156105f45780601f106105c9576101008083540402835291602001916105f4565b820191906000526020600020905b8154815290600101906020018083116105d757829003601f168201915b505050505081565b60025481565b600080546001600160a01b0316321461062d5760405162461bcd60e51b815260040161042a90610af7565b6000546040517fe5e2bce9e76c912c3d6fc169f304f87b8bf818006a5591a92f6ab225a12acd3d9161066c916001600160a01b039091169030906109a5565b60405180910390a16007546001600160a01b0316156108485760065460055460005460075460015460405163044ed6fd60e31b81526001600160a01b0394851694632276b7e8946106c694908216939116916004016109bf565b600060405180830381600087803b1580156106e057600080fd5b505af11580156106f4573d6000803e3d6000fd5b5050600080546040516001600160a01b03909116935084156108fc0292508491818181858888f19350505050158015610731573d6000803e3d6000fd5b5060005b600854811015610845576008818154811061076057634e487b7160e01b600052603260045260246000fd5b6000918252602090912001546007546001600160a01b0390811691161461083357600881815481106107a257634e487b7160e01b600052603260045260246000fd5b6000918252602082200154600880546001600160a01b03909216926108fc9260099290869081106107e357634e487b7160e01b600052603260045260246000fd5b60009182526020808320909101546001600160a01b03168352820192909252604090810182205490518115909302929091818181858888f19350505050158015610831573d6000803e3d6000fd5b505b8061083d81610bcc565b915050610735565b50505b6005805460ff60a01b1916600160a01b1790556000546007546001546040517f078425ff798039982daf0c9ed140efbe65ee522d10be108feb88e65762bc7aef936108a1936001600160a01b03918216939116916109bf565b60405180910390a150600190565b604051806080016040528060006001600160a01b031681526020016000815260200160608152602001600081525090565b6000602082840312156108f1578081fd5b81356108fc81610bfd565b9392505050565b60008060408385031215610915578081fd5b823561092081610bfd565b946020939093013593505050565b60006020828403121561093f578081fd5b5035919050565b60008151808452815b8181101561096b5760208185018101518683018201520161094f565b8181111561097c5782602083870101525b50601f01601f19169290920160200192915050565b6001600160a01b0391909116815260200190565b6001600160a01b0392831681529116602082015260400190565b6001600160a01b039384168152919092166020820152604081019190915260600190565b6001600160a01b03929092168252602082015260400190565b901515815260200190565b6020810160028310610a2957634e487b7160e01b600052602160045260246000fd5b91905290565b6000602082526108fc6020830184610946565b6020808252818101527f596f75722062696420697320746f6f206c6f772e20496e637265617365206974604082015260600190565b60208082526019908201527f41756374696f6e20697320616c726561647920636c6f73656400000000000000604082015260600190565b60208082526029908201527f596f75206d75737420706179206d6f7265207468616e20746865207374617274604082015268696e6720707269636560b81b606082015260800190565b6020808252601190820152702cb7ba9030b932903737ba1037bbb732b960791b604082015260600190565b60006020825260018060a01b03835116602083015260208301516040830152604083015160806060840152610b5a60a0840182610946565b9050606084015160808401528091505092915050565b90815260200190565b60008219821115610b8c57610b8c610be7565b500190565b600281046001821680610ba557607f821691505b60208210811415610bc657634e487b7160e01b600052602260045260246000fd5b50919050565b6000600019821415610be057610be0610be7565b5060010190565b634e487b7160e01b600052601160045260246000fd5b6001600160a01b0381168114610c1257600080fd5b5056fea2646970667358221220dab7f9004deb900183189b8bff5720a3445f054d50b6feb1f99e3861f5ef296a64736f6c63430008000033",
  "linkReferences": {},
  "deployedLinkReferences": {}
}