{
  "_format": "hh-sol-artifact-1",
  "contractName": "Auction",
  "sourceName": "contracts/Users.sol",
  "abi": [
    {
      "inputs": [
        {
          "internalType": "contract NFT",
          "name": "_nftInstance",
          "type": "address"
        },
        {
          "internalType": "address payable",
          "name": "_owner",
          "type": "address"
        },
        {
          "internalType": "uint256",
          "name": "_nftTokenId",
          "type": "uint256"
        },
        {
          "internalType": "string",
          "name": "_message",
          "type": "string"
        },
        {
          "internalType": "uint256",
          "name": "_startPrice",
          "type": "uint256"
        }
      ],
      "stateMutability": "nonpayable",
      "type": "constructor"
    },
    {
      "anonymous": false,
      "inputs": [
        {
          "indexed": false,
          "internalType": "address",
          "name": "oldOwner",
          "type": "address"
        },
        {
          "indexed": false,
          "internalType": "address",
          "name": "newOwner",
          "type": "address"
        },
        {
          "indexed": false,
          "internalType": "uint256",
          "name": "tokenId",
          "type": "uint256"
        }
      ],
      "name": "AuctionFinalized",
      "type": "event"
    },
    {
      "anonymous": false,
      "inputs": [
        {
          "indexed": false,
          "internalType": "address",
          "name": "bidder",
          "type": "address"
        },
        {
          "indexed": false,
          "internalType": "uint256",
          "name": "value",
          "type": "uint256"
        }
      ],
      "name": "PlaceBid",
      "type": "event"
    },
    {
      "anonymous": false,
      "inputs": [
        {
          "indexed": false,
          "internalType": "address",
          "name": "owner",
          "type": "address"
        },
        {
          "indexed": false,
          "internalType": "address",
          "name": "auction",
          "type": "address"
        }
      ],
      "name": "WhoIsOwner",
      "type": "event"
    },
    {
      "inputs": [],
      "name": "auctionState",
      "outputs": [
        {
          "internalType": "enum Auction.State",
          "name": "",
          "type": "uint8"
        }
      ],
      "stateMutability": "view",
      "type": "function"
    },
    {
      "inputs": [
        {
          "internalType": "uint256",
          "name": "",
          "type": "uint256"
        }
      ],
      "name": "bidders",
      "outputs": [
        {
          "internalType": "address",
          "name": "",
          "type": "address"
        }
      ],
      "stateMutability": "view",
      "type": "function"
    },
    {
      "inputs": [
        {
          "internalType": "address",
          "name": "",
          "type": "address"
        }
      ],
      "name": "bids",
      "outputs": [
        {
          "internalType": "uint256",
          "name": "",
          "type": "uint256"
        }
      ],
      "stateMutability": "view",
      "type": "function"
    },
    {
      "inputs": [],
      "name": "finalizeAuction",
      "outputs": [
        {
          "internalType": "bool",
          "name": "",
          "type": "bool"
        }
      ],
      "stateMutability": "nonpayable",
      "type": "function"
    },
    {
      "inputs": [],
      "name": "getContent",
      "outputs": [
        {
          "components": [
            {
              "internalType": "address",
              "name": "owner",
              "type": "address"
            },
            {
              "internalType": "uint256",
              "name": "nftTokenId",
              "type": "uint256"
            },
            {
              "internalType": "string",
              "name": "message",
              "type": "string"
            },
            {
              "internalType": "uint256",
              "name": "startPrice",
              "type": "uint256"
            },
            {
              "internalType": "uint256",
              "name": "highestPrice",
              "type": "uint256"
            },
            {
              "internalType": "address",
              "name": "highestBidder",
              "type": "address"
            },
            {
              "internalType": "enum Auction.State",
              "name": "auctionState",
              "type": "uint8"
            }
          ],
          "internalType": "struct AuctionContent",
          "name": "",
          "type": "tuple"
        }
      ],
      "stateMutability": "view",
      "type": "function"
    },
    {
      "inputs": [],
      "name": "highestBidder",
      "outputs": [
        {
          "internalType": "address payable",
          "name": "",
          "type": "address"
        }
      ],
      "stateMutability": "view",
      "type": "function"
    },
    {
      "inputs": [],
      "name": "highestPrice",
      "outputs": [
        {
          "internalType": "uint256",
          "name": "",
          "type": "uint256"
        }
      ],
      "stateMutability": "view",
      "type": "function"
    },
    {
      "inputs": [],
      "name": "message",
      "outputs": [
        {
          "internalType": "string",
          "name": "",
          "type": "string"
        }
      ],
      "stateMutability": "view",
      "type": "function"
    },
    {
      "inputs": [],
      "name": "nftInstance",
      "outputs": [
        {
          "internalType": "contract NFT",
          "name": "",
          "type": "address"
        }
      ],
      "stateMutability": "view",
      "type": "function"
    },
    {
      "inputs": [],
      "name": "nftTokenId",
      "outputs": [
        {
          "internalType": "uint256",
          "name": "",
          "type": "uint256"
        }
      ],
      "stateMutability": "view",
      "type": "function"
    },
    {
      "inputs": [],
      "name": "owner",
      "outputs": [
        {
          "internalType": "address payable",
          "name": "",
          "type": "address"
        }
      ],
      "stateMutability": "view",
      "type": "function"
    },
    {
      "inputs": [
        {
          "internalType": "address payable",
          "name": "_sender",
          "type": "address"
        },
        {
          "internalType": "uint256",
          "name": "_value",
          "type": "uint256"
        }
      ],
      "name": "placeBid",
      "outputs": [
        {
          "internalType": "bool",
          "name": "",
          "type": "bool"
        }
      ],
      "stateMutability": "payable",
      "type": "function"
    },
    {
      "inputs": [],
      "name": "startPrice",
      "outputs": [
        {
          "internalType": "uint256",
          "name": "",
          "type": "uint256"
        }
      ],
      "stateMutability": "view",
      "type": "function"
    },
    {
      "inputs": [],
      "name": "startTime",
      "outputs": [
        {
          "internalType": "uint256",
          "name": "",
          "type": "uint256"
        }
      ],
      "stateMutability": "view",
      "type": "function"
    }
  ],
  "bytecode": "0x60806040523480156200001157600080fd5b5060405162000fda38038062000fda833981016040819052620000349162000145565b600080546001600160a01b0319166001600160a01b03861617905560018390558151620000699060049060208501906200009f565b50600255505042600355506000600655600580546001600160a01b0319166001600160a01b0392909216919091179055620002c2565b828054620000ad9062000256565b90600052602060002090601f016020900481019282620000d157600085556200011c565b82601f10620000ec57805160ff19168380011785556200011c565b828001600101855582156200011c579182015b828111156200011c578251825591602001919060010190620000ff565b506200012a9291506200012e565b5090565b5b808211156200012a57600081556001016200012f565b600080600080600060a086880312156200015d578081fd5b85516200016a81620002a9565b809550506020808701516200017f81620002a9565b6040880151606089015191965094506001600160401b0380821115620001a3578384fd5b818901915089601f830112620001b7578384fd5b815181811115620001cc57620001cc62000293565b604051601f8201601f1916810185018381118282101715620001f257620001f262000293565b60405281815283820185018c101562000209578586fd5b8592505b818310156200022c57838301850151818401860152918401916200020d565b818311156200023d57858583830101525b8096505050505050608086015190509295509295909350565b6002810460018216806200026b57607f821691505b602082108114156200028d57634e487b7160e01b600052602260045260246000fd5b50919050565b634e487b7160e01b600052604160045260246000fd5b6001600160a01b0381168114620002bf57600080fd5b50565b610d0880620002d26000396000f3fe6080604052600436106100dd5760003560e01c806391f901571161007f578063d98b9bb511610059578063d98b9bb514610207578063e21f37ce14610227578063f1a9af8914610249578063f77282ab1461025e576100dd565b806391f90157146101bd578063ac5e4dd8146101d2578063cff29dfd146101e7576100dd565b806378e97925116100bb57806378e979251461014f5780637e830574146101645780637fb45099146101795780638da5cb5b1461019b576100dd565b80630e8670e0146100e257806359016c791461010d57806362ea82db1461012f575b600080fd5b3480156100ee57600080fd5b506100f7610273565b6040516101049190610c2d565b60405180910390f35b34801561011957600080fd5b50610122610279565b6040516101049190610bb5565b34801561013b57600080fd5b506100f761014a36600461096b565b61038e565b34801561015b57600080fd5b506100f76103a0565b34801561017057600080fd5b506100f76103a6565b34801561018557600080fd5b5061018e6103ac565b6040516101049190610ab4565b3480156101a757600080fd5b506101b06103bc565b6040516101049190610a3e565b3480156101c957600080fd5b506101b06103cb565b3480156101de57600080fd5b506101b06103da565b3480156101f357600080fd5b506101b06102023660046109b9565b6103e9565b61021a61021536600461098e565b610413565b6040516101049190610aa9565b34801561023357600080fd5b5061023c6105bd565b6040516101049190610ac2565b34801561025557600080fd5b506100f761064b565b34801561026a57600080fd5b5061021a610651565b60065481565b6102816108fe565b6040805160e0810182526000546001600160a01b0316815260015460208201526004805491928301916102b390610c4e565b80601f01602080910402602001604051908101604052809291908181526020018280546102df90610c4e565b801561032c5780601f106103015761010080835404028352916020019161032c565b820191906000526020600020905b81548152906001019060200180831161030f57829003601f168201915b5050509183525050600254602082015260065460408201526007546001600160a01b03166060820152600554608090910190600160a01b900460ff16600181111561038757634e487b7160e01b600052602160045260246000fd5b9052905090565b60096020526000908152604090205481565b60035481565b60015481565b600554600160a01b900460ff1681565b6000546001600160a01b031681565b6007546001600160a01b031681565b6005546001600160a01b031681565b600881815481106103f957600080fd5b6000918252602090912001546001600160a01b0316905081565b600080546001600160a01b031633141561042c57600080fd5b6000600554600160a01b900460ff16600181111561045a57634e487b7160e01b600052602160045260246000fd5b146104805760405162461bcd60e51b815260040161047790610b0a565b60405180910390fd5b6001600160a01b0383166000908152600960205260409020548290156104c6576001600160a01b0384166000908152600960205260409020546104c39082610c36565b90505b60025481116104e75760405162461bcd60e51b815260040161047790610b41565b60065481116105085760405162461bcd60e51b815260040161047790610ad5565b6001600160a01b0384166000818152600960205260408082208490556008805460018101825592527ff3f7a9fe364faab93b216da50a3214154f22a0a2b415b23a84c8169e8b636ee390910180546001600160a01b03199081168417909155600684905560078054909116909217909155517fe694ab314354b7ccad603c48b44dce6ade8b6a57cbebaa8842edd9a2fb2856f8906105a99086908490610a90565b60405180910390a160019150505b92915050565b600480546105ca90610c4e565b80601f01602080910402602001604051908101604052809291908181526020018280546105f690610c4e565b80156106435780601f1061061857610100808354040283529160200191610643565b820191906000526020600020905b81548152906001019060200180831161062657829003601f168201915b505050505081565b60025481565b600080546001600160a01b0316321461067c5760405162461bcd60e51b815260040161047790610b8a565b6000546040517fe5e2bce9e76c912c3d6fc169f304f87b8bf818006a5591a92f6ab225a12acd3d916106bb916001600160a01b03909116903090610a52565b60405180910390a16007546001600160a01b0316156108975760065460055460005460075460015460405163044ed6fd60e31b81526001600160a01b0394851694632276b7e8946107159490821693911691600401610a6c565b600060405180830381600087803b15801561072f57600080fd5b505af1158015610743573d6000803e3d6000fd5b5050600080546040516001600160a01b03909116935084156108fc0292508491818181858888f19350505050158015610780573d6000803e3d6000fd5b5060005b60085481101561089457600881815481106107af57634e487b7160e01b600052603260045260246000fd5b6000918252602090912001546007546001600160a01b0390811691161461088257600881815481106107f157634e487b7160e01b600052603260045260246000fd5b6000918252602082200154600880546001600160a01b03909216926108fc92600992908690811061083257634e487b7160e01b600052603260045260246000fd5b60009182526020808320909101546001600160a01b03168352820192909252604090810182205490518115909302929091818181858888f19350505050158015610880573d6000803e3d6000fd5b505b8061088c81610c89565b915050610784565b50505b6005805460ff60a01b1916600160a01b1790556000546007546001546040517f078425ff798039982daf0c9ed140efbe65ee522d10be108feb88e65762bc7aef936108f0936001600160a01b0391821693911691610a6c565b60405180910390a150600190565b6040518060e0016040528060006001600160a01b031681526020016000815260200160608152602001600081526020016000815260200160006001600160a01b031681526020016000600181111561096657634e487b7160e01b600052602160045260246000fd5b905290565b60006020828403121561097c578081fd5b813561098781610cba565b9392505050565b600080604083850312156109a0578081fd5b82356109ab81610cba565b946020939093013593505050565b6000602082840312156109ca578081fd5b5035919050565b600281106109ef57634e487b7160e01b600052602160045260246000fd5b9052565b60008151808452815b81811015610a18576020818501810151868301820152016109fc565b81811115610a295782602083870101525b50601f01601f19169290920160200192915050565b6001600160a01b0391909116815260200190565b6001600160a01b0392831681529116602082015260400190565b6001600160a01b039384168152919092166020820152604081019190915260600190565b6001600160a01b03929092168252602082015260400190565b901515815260200190565b602081016105b782846109d1565b60006020825261098760208301846109f3565b6020808252818101527f596f75722062696420697320746f6f206c6f772e20496e637265617365206974604082015260600190565b60208082526019908201527f41756374696f6e20697320616c726561647920636c6f73656400000000000000604082015260600190565b60208082526029908201527f596f75206d75737420706179206d6f7265207468616e20746865207374617274604082015268696e6720707269636560b81b606082015260800190565b6020808252601190820152702cb7ba9030b932903737ba1037bbb732b960791b604082015260600190565b60006020825260018060a01b0380845116602084015260208401516040840152604084015160e06060850152610bef6101008501826109f3565b905060608501516080850152608085015160a08501528160a08601511660c085015260c08501519150610c2560e08501836109d1565b949350505050565b90815260200190565b60008219821115610c4957610c49610ca4565b500190565b600281046001821680610c6257607f821691505b60208210811415610c8357634e487b7160e01b600052602260045260246000fd5b50919050565b6000600019821415610c9d57610c9d610ca4565b5060010190565b634e487b7160e01b600052601160045260246000fd5b6001600160a01b0381168114610ccf57600080fd5b5056fea264697066735822122080da1c1b856b76331ea7ceb643172f28f684d921ad91f256404d612eb69872ce64736f6c63430008000033",
  "linkReferences": {},
  "deployedLinkReferences": {}
}