{
  "_format": "hh-sol-artifact-1",
  "contractName": "Auction",
  "sourceName": "contracts/AuctionBox.sol",
  "abi": [
    {
      "inputs": [
        {
          "internalType": "address payable",
          "name": "_owner",
          "type": "address"
        },
        {
          "internalType": "string",
          "name": "_title",
          "type": "string"
        },
        {
          "internalType": "string",
          "name": "_description",
          "type": "string"
        },
        {
          "internalType": "string",
          "name": "_tokenURI",
          "type": "string"
        },
        {
          "internalType": "uint256",
          "name": "_startPrice",
          "type": "uint256"
        },
        {
          "internalType": "uint256",
          "name": "_duration",
          "type": "uint256"
        }
      ],
      "stateMutability": "nonpayable",
      "type": "constructor"
    },
    {
      "anonymous": false,
      "inputs": [
        {
          "indexed": true,
          "internalType": "address",
          "name": "owner",
          "type": "address"
        },
        {
          "indexed": true,
          "internalType": "address",
          "name": "approved",
          "type": "address"
        },
        {
          "indexed": true,
          "internalType": "uint256",
          "name": "tokenId",
          "type": "uint256"
        }
      ],
      "name": "Approval",
      "type": "event"
    },
    {
      "anonymous": false,
      "inputs": [
        {
          "indexed": true,
          "internalType": "address",
          "name": "owner",
          "type": "address"
        },
        {
          "indexed": true,
          "internalType": "address",
          "name": "operator",
          "type": "address"
        },
        {
          "indexed": false,
          "internalType": "bool",
          "name": "approved",
          "type": "bool"
        }
      ],
      "name": "ApprovalForAll",
      "type": "event"
    },
    {
      "anonymous": false,
      "inputs": [
        {
          "indexed": true,
          "internalType": "address",
          "name": "from",
          "type": "address"
        },
        {
          "indexed": true,
          "internalType": "address",
          "name": "to",
          "type": "address"
        },
        {
          "indexed": true,
          "internalType": "uint256",
          "name": "tokenId",
          "type": "uint256"
        }
      ],
      "name": "Transfer",
      "type": "event"
    },
    {
      "inputs": [
        {
          "internalType": "address",
          "name": "to",
          "type": "address"
        },
        {
          "internalType": "uint256",
          "name": "tokenId",
          "type": "uint256"
        }
      ],
      "name": "approve",
      "outputs": [],
      "stateMutability": "nonpayable",
      "type": "function"
    },
    {
      "inputs": [],
      "name": "auctionState",
      "outputs": [
        {
          "internalType": "enum Auction.State",
          "name": "",
          "type": "uint8"
        }
      ],
      "stateMutability": "view",
      "type": "function"
    },
    {
      "inputs": [
        {
          "internalType": "address",
          "name": "owner",
          "type": "address"
        }
      ],
      "name": "balanceOf",
      "outputs": [
        {
          "internalType": "uint256",
          "name": "",
          "type": "uint256"
        }
      ],
      "stateMutability": "view",
      "type": "function"
    },
    {
      "inputs": [
        {
          "internalType": "address",
          "name": "",
          "type": "address"
        }
      ],
      "name": "bids",
      "outputs": [
        {
          "internalType": "uint256",
          "name": "",
          "type": "uint256"
        }
      ],
      "stateMutability": "view",
      "type": "function"
    },
    {
      "inputs": [],
      "name": "descriprion",
      "outputs": [
        {
          "internalType": "string",
          "name": "",
          "type": "string"
        }
      ],
      "stateMutability": "view",
      "type": "function"
    },
    {
      "inputs": [],
      "name": "endTime",
      "outputs": [
        {
          "internalType": "uint256",
          "name": "",
          "type": "uint256"
        }
      ],
      "stateMutability": "view",
      "type": "function"
    },
    {
      "inputs": [
        {
          "internalType": "uint256",
          "name": "tokenId",
          "type": "uint256"
        }
      ],
      "name": "getApproved",
      "outputs": [
        {
          "internalType": "address",
          "name": "",
          "type": "address"
        }
      ],
      "stateMutability": "view",
      "type": "function"
    },
    {
      "inputs": [],
      "name": "getContent",
      "outputs": [
        {
          "components": [
            {
              "internalType": "address",
              "name": "owner",
              "type": "address"
            },
            {
              "internalType": "string",
              "name": "title",
              "type": "string"
            },
            {
              "internalType": "string",
              "name": "description",
              "type": "string"
            },
            {
              "internalType": "uint256",
              "name": "nftTokenId",
              "type": "uint256"
            },
            {
              "internalType": "uint256",
              "name": "startPrice",
              "type": "uint256"
            },
            {
              "internalType": "uint256",
              "name": "endTime",
              "type": "uint256"
            }
          ],
          "internalType": "struct AuctionContent",
          "name": "",
          "type": "tuple"
        }
      ],
      "stateMutability": "view",
      "type": "function"
    },
    {
      "inputs": [],
      "name": "getTitle",
      "outputs": [
        {
          "internalType": "string",
          "name": "",
          "type": "string"
        }
      ],
      "stateMutability": "view",
      "type": "function"
    },
    {
      "inputs": [],
      "name": "highestBidder",
      "outputs": [
        {
          "internalType": "address payable",
          "name": "",
          "type": "address"
        }
      ],
      "stateMutability": "view",
      "type": "function"
    },
    {
      "inputs": [],
      "name": "highestPrice",
      "outputs": [
        {
          "internalType": "uint256",
          "name": "",
          "type": "uint256"
        }
      ],
      "stateMutability": "view",
      "type": "function"
    },
    {
      "inputs": [
        {
          "internalType": "address",
          "name": "owner",
          "type": "address"
        },
        {
          "internalType": "address",
          "name": "operator",
          "type": "address"
        }
      ],
      "name": "isApprovedForAll",
      "outputs": [
        {
          "internalType": "bool",
          "name": "",
          "type": "bool"
        }
      ],
      "stateMutability": "view",
      "type": "function"
    },
    {
      "inputs": [
        {
          "internalType": "string",
          "name": "tokenURI",
          "type": "string"
        }
      ],
      "name": "mintNFT",
      "outputs": [
        {
          "internalType": "uint256",
          "name": "",
          "type": "uint256"
        }
      ],
      "stateMutability": "nonpayable",
      "type": "function"
    },
    {
      "inputs": [],
      "name": "name",
      "outputs": [
        {
          "internalType": "string",
          "name": "",
          "type": "string"
        }
      ],
      "stateMutability": "view",
      "type": "function"
    },
    {
      "inputs": [
        {
          "internalType": "uint256",
          "name": "tokenId",
          "type": "uint256"
        }
      ],
      "name": "ownerOf",
      "outputs": [
        {
          "internalType": "address",
          "name": "",
          "type": "address"
        }
      ],
      "stateMutability": "view",
      "type": "function"
    },
    {
      "inputs": [
        {
          "internalType": "address",
          "name": "from",
          "type": "address"
        },
        {
          "internalType": "address",
          "name": "to",
          "type": "address"
        },
        {
          "internalType": "uint256",
          "name": "tokenId",
          "type": "uint256"
        }
      ],
      "name": "safeTransferFrom",
      "outputs": [],
      "stateMutability": "nonpayable",
      "type": "function"
    },
    {
      "inputs": [
        {
          "internalType": "address",
          "name": "from",
          "type": "address"
        },
        {
          "internalType": "address",
          "name": "to",
          "type": "address"
        },
        {
          "internalType": "uint256",
          "name": "tokenId",
          "type": "uint256"
        },
        {
          "internalType": "bytes",
          "name": "_data",
          "type": "bytes"
        }
      ],
      "name": "safeTransferFrom",
      "outputs": [],
      "stateMutability": "nonpayable",
      "type": "function"
    },
    {
      "inputs": [
        {
          "internalType": "address",
          "name": "operator",
          "type": "address"
        },
        {
          "internalType": "bool",
          "name": "approved",
          "type": "bool"
        }
      ],
      "name": "setApprovalForAll",
      "outputs": [],
      "stateMutability": "nonpayable",
      "type": "function"
    },
    {
      "inputs": [],
      "name": "startPrice",
      "outputs": [
        {
          "internalType": "uint256",
          "name": "",
          "type": "uint256"
        }
      ],
      "stateMutability": "view",
      "type": "function"
    },
    {
      "inputs": [
        {
          "internalType": "bytes4",
          "name": "interfaceId",
          "type": "bytes4"
        }
      ],
      "name": "supportsInterface",
      "outputs": [
        {
          "internalType": "bool",
          "name": "",
          "type": "bool"
        }
      ],
      "stateMutability": "view",
      "type": "function"
    },
    {
      "inputs": [],
      "name": "symbol",
      "outputs": [
        {
          "internalType": "string",
          "name": "",
          "type": "string"
        }
      ],
      "stateMutability": "view",
      "type": "function"
    },
    {
      "inputs": [],
      "name": "title",
      "outputs": [
        {
          "internalType": "string",
          "name": "",
          "type": "string"
        }
      ],
      "stateMutability": "view",
      "type": "function"
    },
    {
      "inputs": [],
      "name": "tokenCounter",
      "outputs": [
        {
          "internalType": "uint256",
          "name": "",
          "type": "uint256"
        }
      ],
      "stateMutability": "view",
      "type": "function"
    },
    {
      "inputs": [
        {
          "internalType": "uint256",
          "name": "tokenId",
          "type": "uint256"
        }
      ],
      "name": "tokenURI",
      "outputs": [
        {
          "internalType": "string",
          "name": "",
          "type": "string"
        }
      ],
      "stateMutability": "view",
      "type": "function"
    },
    {
      "inputs": [
        {
          "internalType": "address",
          "name": "from",
          "type": "address"
        },
        {
          "internalType": "address",
          "name": "to",
          "type": "address"
        },
        {
          "internalType": "uint256",
          "name": "tokenId",
          "type": "uint256"
        }
      ],
      "name": "transferFrom",
      "outputs": [],
      "stateMutability": "nonpayable",
      "type": "function"
    }
  ],
  "bytecode": "0x60806040523480156200001157600080fd5b5060405162003ce438038062003ce4833981810160405281019062000037919062000602565b6040518060400160405280600881526020017f4e696767614e46540000000000000000000000000000000000000000000000008152506040518060400160405280600581526020017f4e696767610000000000000000000000000000000000000000000000000000008152508160009080519060200190620000bb929190620004b2565b508060019080519060200190620000d4929190620004b2565b505050600060078190555085600860006101000a81548173ffffffffffffffffffffffffffffffffffffffff021916908373ffffffffffffffffffffffffffffffffffffffff160217905550846009908051906020019062000138929190620004b2565b5083600c908051906020019062000151929190620004b2565b5081600a819055508042620001679190620008ad565b600b819055506200017e836200018b60201b60201c565b5050505050505062000ac3565b6000806007549050620001a53382620001da60201b60201c565b620001b78184620003c060201b60201c565b60076000815480929190620001cc90620009b4565b919050555080915050919050565b600073ffffffffffffffffffffffffffffffffffffffff168273ffffffffffffffffffffffffffffffffffffffff1614156200024d576040517f08c379a0000000000000000000000000000000000000000000000000000000008152600401620002449062000813565b60405180910390fd5b6200025e816200044160201b60201c565b15620002a1576040517f08c379a00000000000000000000000000000000000000000000000000000000081526004016200029890620007cf565b60405180910390fd5b620002b560008383620004ad60201b60201c565b6001600360008473ffffffffffffffffffffffffffffffffffffffff1673ffffffffffffffffffffffffffffffffffffffff1681526020019081526020016000206000828254620003079190620008ad565b92505081905550816002600083815260200190815260200160002060006101000a81548173ffffffffffffffffffffffffffffffffffffffff021916908373ffffffffffffffffffffffffffffffffffffffff160217905550808273ffffffffffffffffffffffffffffffffffffffff16600073ffffffffffffffffffffffffffffffffffffffff167fddf252ad1be2c89b69c2b068fc378daa952ba7f163c4a11628f55a4df523b3ef60405160405180910390a45050565b620003d1826200044160201b60201c565b62000413576040517f08c379a00000000000000000000000000000000000000000000000000000000081526004016200040a90620007f1565b60405180910390fd5b806006600084815260200190815260200160002090805190602001906200043c929190620004b2565b505050565b60008073ffffffffffffffffffffffffffffffffffffffff166002600084815260200190815260200160002060009054906101000a900473ffffffffffffffffffffffffffffffffffffffff1673ffffffffffffffffffffffffffffffffffffffff1614159050919050565b505050565b828054620004c0906200097e565b90600052602060002090601f016020900481019282620004e4576000855562000530565b82601f10620004ff57805160ff191683800117855562000530565b8280016001018555821562000530579182015b828111156200052f57825182559160200191906001019062000512565b5b5090506200053f919062000543565b5090565b5b808211156200055e57600081600090555060010162000544565b5090565b600062000579620005738462000869565b62000835565b9050828152602081018484840111156200059257600080fd5b6200059f84828562000948565b509392505050565b600081519050620005b88162000a8f565b92915050565b600082601f830112620005d057600080fd5b8151620005e284826020860162000562565b91505092915050565b600081519050620005fc8162000aa9565b92915050565b60008060008060008060c087890312156200061c57600080fd5b60006200062c89828a01620005a7565b965050602087015167ffffffffffffffff8111156200064a57600080fd5b6200065889828a01620005be565b955050604087015167ffffffffffffffff8111156200067657600080fd5b6200068489828a01620005be565b945050606087015167ffffffffffffffff811115620006a257600080fd5b620006b089828a01620005be565b9350506080620006c389828a01620005eb565b92505060a0620006d689828a01620005eb565b9150509295509295509295565b6000620006f2601c836200089c565b91507f4552433732313a20746f6b656e20616c7265616479206d696e746564000000006000830152602082019050919050565b600062000734602e836200089c565b91507f45524337323155524953746f726167653a2055524920736574206f66206e6f6e60008301527f6578697374656e7420746f6b656e0000000000000000000000000000000000006020830152604082019050919050565b60006200079c6020836200089c565b91507f4552433732313a206d696e7420746f20746865207a65726f20616464726573736000830152602082019050919050565b60006020820190508181036000830152620007ea81620006e3565b9050919050565b600060208201905081810360008301526200080c8162000725565b9050919050565b600060208201905081810360008301526200082e816200078d565b9050919050565b6000604051905081810181811067ffffffffffffffff821117156200085f576200085e62000a60565b5b8060405250919050565b600067ffffffffffffffff82111562000887576200088662000a60565b5b601f19601f8301169050602081019050919050565b600082825260208201905092915050565b6000620008ba826200093e565b9150620008c7836200093e565b9250827fffffffffffffffffffffffffffffffffffffffffffffffffffffffffffffffff03821115620008ff57620008fe62000a02565b5b828201905092915050565b600062000917826200091e565b9050919050565b600073ffffffffffffffffffffffffffffffffffffffff82169050919050565b6000819050919050565b60005b83811015620009685780820151818401526020810190506200094b565b8381111562000978576000848401525b50505050565b600060028204905060018216806200099757607f821691505b60208210811415620009ae57620009ad62000a31565b5b50919050565b6000620009c1826200093e565b91507fffffffffffffffffffffffffffffffffffffffffffffffffffffffffffffffff821415620009f757620009f662000a02565b5b600182019050919050565b7f4e487b7100000000000000000000000000000000000000000000000000000000600052601160045260246000fd5b7f4e487b7100000000000000000000000000000000000000000000000000000000600052602260045260246000fd5b7f4e487b7100000000000000000000000000000000000000000000000000000000600052604160045260246000fd5b62000a9a816200090a565b811462000aa657600080fd5b50565b62000ab4816200093e565b811462000ac057600080fd5b50565b6132118062000ad36000396000f3fe608060405234801561001057600080fd5b50600436106101735760003560e01c806369602408116100de578063b88d4fde11610097578063e985e9c511610071578063e985e9c514610450578063f1a9af8914610480578063fb37e8831461049e578063ff3c1a8f146104ce57610173565b8063b88d4fde146103e6578063c87b56dd14610402578063d082e3811461043257610173565b8063696024081461032257806370a08231146103405780637fb450991461037057806391f901571461038e57806395d89b41146103ac578063a22cb465146103ca57610173565b80633197cbb6116101305780633197cbb61461024c57806342842e0e1461026a5780634a79d50c1461028657806359016c79146102a457806362ea82db146102c25780636352211e146102f257610173565b806301ffc9a71461017857806306fdde03146101a8578063081812fc146101c6578063095ea7b3146101f65780630e8670e01461021257806323b872dd14610230575b600080fd5b610192600480360381019061018d919061217c565b6104ec565b60405161019f9190612aa1565b60405180910390f35b6101b06105ce565b6040516101bd9190612ad7565b60405180910390f35b6101e060048036038101906101db919061220f565b610660565b6040516101ed9190612a1f565b60405180910390f35b610210600480360381019061020b9190612140565b6106e5565b005b61021a6107fd565b6040516102279190612d1b565b60405180910390f35b61024a6004803603810190610245919061203a565b610803565b005b610254610863565b6040516102619190612d1b565b60405180910390f35b610284600480360381019061027f919061203a565b610869565b005b61028e610889565b60405161029b9190612ad7565b60405180910390f35b6102ac610917565b6040516102b99190612cf9565b60405180910390f35b6102dc60048036038101906102d79190611fd5565b610aa3565b6040516102e99190612d1b565b60405180910390f35b61030c6004803603810190610307919061220f565b610abb565b6040516103199190612a1f565b60405180910390f35b61032a610b6d565b6040516103379190612ad7565b60405180910390f35b61035a60048036038101906103559190611fd5565b610bfb565b6040516103679190612d1b565b60405180910390f35b610378610cb3565b6040516103859190612abc565b60405180910390f35b610396610cc6565b6040516103a39190612a3a565b60405180910390f35b6103b4610cec565b6040516103c19190612ad7565b60405180910390f35b6103e460048036038101906103df9190612104565b610d7e565b005b61040060048036038101906103fb9190612089565b610d94565b005b61041c6004803603810190610417919061220f565b610df6565b6040516104299190612ad7565b60405180910390f35b61043a610f48565b6040516104479190612d1b565b60405180910390f35b61046a60048036038101906104659190611ffe565b610f4e565b6040516104779190612aa1565b60405180910390f35b610488610fe2565b6040516104959190612d1b565b60405180910390f35b6104b860048036038101906104b391906121ce565b610fe8565b6040516104c59190612d1b565b60405180910390f35b6104d6611025565b6040516104e39190612ad7565b60405180910390f35b60007f80ac58cd000000000000000000000000000000000000000000000000000000007bffffffffffffffffffffffffffffffffffffffffffffffffffffffff1916827bffffffffffffffffffffffffffffffffffffffffffffffffffffffff191614806105b757507f5b5e139f000000000000000000000000000000000000000000000000000000007bffffffffffffffffffffffffffffffffffffffffffffffffffffffff1916827bffffffffffffffffffffffffffffffffffffffffffffffffffffffff1916145b806105c757506105c6826110b7565b5b9050919050565b6060600080546105dd90612fc3565b80601f016020809104026020016040519081016040528092919081815260200182805461060990612fc3565b80156106565780601f1061062b57610100808354040283529160200191610656565b820191906000526020600020905b81548152906001019060200180831161063957829003601f168201915b5050505050905090565b600061066b82611121565b6106aa576040517f08c379a00000000000000000000000000000000000000000000000000000000081526004016106a190612c59565b60405180910390fd5b6004600083815260200190815260200160002060009054906101000a900473ffffffffffffffffffffffffffffffffffffffff169050919050565b60006106f082610abb565b90508073ffffffffffffffffffffffffffffffffffffffff168373ffffffffffffffffffffffffffffffffffffffff161415610761576040517f08c379a000000000000000000000000000000000000000000000000000000000815260040161075890612cb9565b60405180910390fd5b8073ffffffffffffffffffffffffffffffffffffffff1661078061118d565b73ffffffffffffffffffffffffffffffffffffffff1614806107af57506107ae816107a961118d565b610f4e565b5b6107ee576040517f08c379a00000000000000000000000000000000000000000000000000000000081526004016107e590612b99565b60405180910390fd5b6107f88383611195565b505050565b600e5481565b61081461080e61118d565b8261124e565b610853576040517f08c379a000000000000000000000000000000000000000000000000000000000815260040161084a90612cd9565b60405180910390fd5b61085e83838361132c565b505050565b600b5481565b61088483838360405180602001604052806000815250610d94565b505050565b6009805461089690612fc3565b80601f01602080910402602001604051908101604052809291908181526020018280546108c290612fc3565b801561090f5780601f106108e45761010080835404028352916020019161090f565b820191906000526020600020905b8154815290600101906020018083116108f257829003601f168201915b505050505081565b61091f611dad565b6040518060c00160405280600860009054906101000a900473ffffffffffffffffffffffffffffffffffffffff1673ffffffffffffffffffffffffffffffffffffffff1681526020016009805461097590612fc3565b80601f01602080910402602001604051908101604052809291908181526020018280546109a190612fc3565b80156109ee5780601f106109c3576101008083540402835291602001916109ee565b820191906000526020600020905b8154815290600101906020018083116109d157829003601f168201915b50505050508152602001600c8054610a0590612fc3565b80601f0160208091040260200160405190810160405280929190818152602001828054610a3190612fc3565b8015610a7e5780601f10610a5357610100808354040283529160200191610a7e565b820191906000526020600020905b815481529060010190602001808311610a6157829003601f168201915b505050505081526020016007548152602001600a548152602001600b54815250905090565b60106020528060005260406000206000915090505481565b6000806002600084815260200190815260200160002060009054906101000a900473ffffffffffffffffffffffffffffffffffffffff169050600073ffffffffffffffffffffffffffffffffffffffff168173ffffffffffffffffffffffffffffffffffffffff161415610b64576040517f08c379a0000000000000000000000000000000000000000000000000000000008152600401610b5b90612bd9565b60405180910390fd5b80915050919050565b600c8054610b7a90612fc3565b80601f0160208091040260200160405190810160405280929190818152602001828054610ba690612fc3565b8015610bf35780601f10610bc857610100808354040283529160200191610bf3565b820191906000526020600020905b815481529060010190602001808311610bd657829003601f168201915b505050505081565b60008073ffffffffffffffffffffffffffffffffffffffff168273ffffffffffffffffffffffffffffffffffffffff161415610c6c576040517f08c379a0000000000000000000000000000000000000000000000000000000008152600401610c6390612bb9565b60405180910390fd5b600360008373ffffffffffffffffffffffffffffffffffffffff1673ffffffffffffffffffffffffffffffffffffffff168152602001908152602001600020549050919050565b600d60009054906101000a900460ff1681565b600f60009054906101000a900473ffffffffffffffffffffffffffffffffffffffff1681565b606060018054610cfb90612fc3565b80601f0160208091040260200160405190810160405280929190818152602001828054610d2790612fc3565b8015610d745780601f10610d4957610100808354040283529160200191610d74565b820191906000526020600020905b815481529060010190602001808311610d5757829003601f168201915b5050505050905090565b610d90610d8961118d565b8383611588565b5050565b610da5610d9f61118d565b8361124e565b610de4576040517f08c379a0000000000000000000000000000000000000000000000000000000008152600401610ddb90612cd9565b60405180910390fd5b610df0848484846116f5565b50505050565b6060610e0182611121565b610e40576040517f08c379a0000000000000000000000000000000000000000000000000000000008152600401610e3790612c39565b60405180910390fd5b6000600660008481526020019081526020016000208054610e6090612fc3565b80601f0160208091040260200160405190810160405280929190818152602001828054610e8c90612fc3565b8015610ed95780601f10610eae57610100808354040283529160200191610ed9565b820191906000526020600020905b815481529060010190602001808311610ebc57829003601f168201915b505050505090506000610eea611751565b9050600081511415610f00578192505050610f43565b600082511115610f35578082604051602001610f1d9291906129fb565b60405160208183030381529060405292505050610f43565b610f3e84611768565b925050505b919050565b60075481565b6000600560008473ffffffffffffffffffffffffffffffffffffffff1673ffffffffffffffffffffffffffffffffffffffff16815260200190815260200160002060008373ffffffffffffffffffffffffffffffffffffffff1673ffffffffffffffffffffffffffffffffffffffff16815260200190815260200160002060009054906101000a900460ff16905092915050565b600a5481565b6000806007549050610ffa338261180f565b61100481846119dd565b6007600081548092919061101790612ff5565b919050555080915050919050565b60606009805461103490612fc3565b80601f016020809104026020016040519081016040528092919081815260200182805461106090612fc3565b80156110ad5780601f10611082576101008083540402835291602001916110ad565b820191906000526020600020905b81548152906001019060200180831161109057829003601f168201915b5050505050905090565b60007f01ffc9a7000000000000000000000000000000000000000000000000000000007bffffffffffffffffffffffffffffffffffffffffffffffffffffffff1916827bffffffffffffffffffffffffffffffffffffffffffffffffffffffff1916149050919050565b60008073ffffffffffffffffffffffffffffffffffffffff166002600084815260200190815260200160002060009054906101000a900473ffffffffffffffffffffffffffffffffffffffff1673ffffffffffffffffffffffffffffffffffffffff1614159050919050565b600033905090565b816004600083815260200190815260200160002060006101000a81548173ffffffffffffffffffffffffffffffffffffffff021916908373ffffffffffffffffffffffffffffffffffffffff160217905550808273ffffffffffffffffffffffffffffffffffffffff1661120883610abb565b73ffffffffffffffffffffffffffffffffffffffff167f8c5be1e5ebec7d5bd14f71427d1e84f3dd0314c0f7b2291e5b200ac8c7c3b92560405160405180910390a45050565b600061125982611121565b611298576040517f08c379a000000000000000000000000000000000000000000000000000000000815260040161128f90612b79565b60405180910390fd5b60006112a383610abb565b90508073ffffffffffffffffffffffffffffffffffffffff168473ffffffffffffffffffffffffffffffffffffffff16148061131257508373ffffffffffffffffffffffffffffffffffffffff166112fa84610660565b73ffffffffffffffffffffffffffffffffffffffff16145b8061132357506113228185610f4e565b5b91505092915050565b8273ffffffffffffffffffffffffffffffffffffffff1661134c82610abb565b73ffffffffffffffffffffffffffffffffffffffff16146113a2576040517f08c379a000000000000000000000000000000000000000000000000000000000815260040161139990612c79565b60405180910390fd5b600073ffffffffffffffffffffffffffffffffffffffff168273ffffffffffffffffffffffffffffffffffffffff161415611412576040517f08c379a000000000000000000000000000000000000000000000000000000000815260040161140990612b39565b60405180910390fd5b61141d838383611a51565b611428600082611195565b6001600360008573ffffffffffffffffffffffffffffffffffffffff1673ffffffffffffffffffffffffffffffffffffffff16815260200190815260200160002060008282546114789190612ea2565b925050819055506001600360008473ffffffffffffffffffffffffffffffffffffffff1673ffffffffffffffffffffffffffffffffffffffff16815260200190815260200160002060008282546114cf9190612e1b565b92505081905550816002600083815260200190815260200160002060006101000a81548173ffffffffffffffffffffffffffffffffffffffff021916908373ffffffffffffffffffffffffffffffffffffffff160217905550808273ffffffffffffffffffffffffffffffffffffffff168473ffffffffffffffffffffffffffffffffffffffff167fddf252ad1be2c89b69c2b068fc378daa952ba7f163c4a11628f55a4df523b3ef60405160405180910390a4505050565b8173ffffffffffffffffffffffffffffffffffffffff168373ffffffffffffffffffffffffffffffffffffffff1614156115f7576040517f08c379a00000000000000000000000000000000000000000000000000000000081526004016115ee90612b59565b60405180910390fd5b80600560008573ffffffffffffffffffffffffffffffffffffffff1673ffffffffffffffffffffffffffffffffffffffff16815260200190815260200160002060008473ffffffffffffffffffffffffffffffffffffffff1673ffffffffffffffffffffffffffffffffffffffff16815260200190815260200160002060006101000a81548160ff0219169083151502179055508173ffffffffffffffffffffffffffffffffffffffff168373ffffffffffffffffffffffffffffffffffffffff167f17307eab39ab6107e8899845ad3d59bd9653f200f220920489ca2b5937696c31836040516116e89190612aa1565b60405180910390a3505050565b61170084848461132c565b61170c84848484611a56565b61174b576040517f08c379a000000000000000000000000000000000000000000000000000000000815260040161174290612af9565b60405180910390fd5b50505050565b606060405180602001604052806000815250905090565b606061177382611121565b6117b2576040517f08c379a00000000000000000000000000000000000000000000000000000000081526004016117a990612c99565b60405180910390fd5b60006117bc611751565b905060008151116117dc5760405180602001604052806000815250611807565b806117e684611bed565b6040516020016117f79291906129fb565b6040516020818303038152906040525b915050919050565b600073ffffffffffffffffffffffffffffffffffffffff168273ffffffffffffffffffffffffffffffffffffffff16141561187f576040517f08c379a000000000000000000000000000000000000000000000000000000000815260040161187690612c19565b60405180910390fd5b61188881611121565b156118c8576040517f08c379a00000000000000000000000000000000000000000000000000000000081526004016118bf90612b19565b60405180910390fd5b6118d460008383611a51565b6001600360008473ffffffffffffffffffffffffffffffffffffffff1673ffffffffffffffffffffffffffffffffffffffff16815260200190815260200160002060008282546119249190612e1b565b92505081905550816002600083815260200190815260200160002060006101000a81548173ffffffffffffffffffffffffffffffffffffffff021916908373ffffffffffffffffffffffffffffffffffffffff160217905550808273ffffffffffffffffffffffffffffffffffffffff16600073ffffffffffffffffffffffffffffffffffffffff167fddf252ad1be2c89b69c2b068fc378daa952ba7f163c4a11628f55a4df523b3ef60405160405180910390a45050565b6119e682611121565b611a25576040517f08c379a0000000000000000000000000000000000000000000000000000000008152600401611a1c90612bf9565b60405180910390fd5b80600660008481526020019081526020016000209080519060200190611a4c929190611df9565b505050565b505050565b6000611a778473ffffffffffffffffffffffffffffffffffffffff16611d9a565b15611be0578373ffffffffffffffffffffffffffffffffffffffff1663150b7a02611aa061118d565b8786866040518563ffffffff1660e01b8152600401611ac29493929190612a55565b602060405180830381600087803b158015611adc57600080fd5b505af1925050508015611b0d57506040513d601f19601f82011682018060405250810190611b0a91906121a5565b60015b611b90573d8060008114611b3d576040519150601f19603f3d011682016040523d82523d6000602084013e611b42565b606091505b50600081511415611b88576040517f08c379a0000000000000000000000000000000000000000000000000000000008152600401611b7f90612af9565b60405180910390fd5b805181602001fd5b63150b7a0260e01b7bffffffffffffffffffffffffffffffffffffffffffffffffffffffff1916817bffffffffffffffffffffffffffffffffffffffffffffffffffffffff191614915050611be5565b600190505b949350505050565b60606000821415611c35576040518060400160405280600181526020017f30000000000000000000000000000000000000000000000000000000000000008152509050611d95565b600082905060005b60008214611c67578080611c5090612ff5565b915050600a82611c609190612e71565b9150611c3d565b60008167ffffffffffffffff811115611ca9577f4e487b7100000000000000000000000000000000000000000000000000000000600052604160045260246000fd5b6040519080825280601f01601f191660200182016040528015611cdb5781602001600182028036833780820191505090505b5090505b60008514611d8e57600182611cf49190612ea2565b9150600a85611d03919061303e565b6030611d0f9190612e1b565b60f81b818381518110611d4b577f4e487b7100000000000000000000000000000000000000000000000000000000600052603260045260246000fd5b60200101907effffffffffffffffffffffffffffffffffffffffffffffffffffffffffffff1916908160001a905350600a85611d879190612e71565b9450611cdf565b8093505050505b919050565b600080823b905060008111915050919050565b6040518060c00160405280600073ffffffffffffffffffffffffffffffffffffffff16815260200160608152602001606081526020016000815260200160008152602001600081525090565b828054611e0590612fc3565b90600052602060002090601f016020900481019282611e275760008555611e6e565b82601f10611e4057805160ff1916838001178555611e6e565b82800160010185558215611e6e579182015b82811115611e6d578251825591602001919060010190611e52565b5b509050611e7b9190611e7f565b5090565b5b80821115611e98576000816000905550600101611e80565b5090565b6000611eaf611eaa84612d67565b612d36565b905082815260208101848484011115611ec757600080fd5b611ed2848285612f81565b509392505050565b6000611eed611ee884612d97565b612d36565b905082815260208101848484011115611f0557600080fd5b611f10848285612f81565b509392505050565b600081359050611f278161317f565b92915050565b600081359050611f3c81613196565b92915050565b600081359050611f51816131ad565b92915050565b600081519050611f66816131ad565b92915050565b600082601f830112611f7d57600080fd5b8135611f8d848260208601611e9c565b91505092915050565b600082601f830112611fa757600080fd5b8135611fb7848260208601611eda565b91505092915050565b600081359050611fcf816131c4565b92915050565b600060208284031215611fe757600080fd5b6000611ff584828501611f18565b91505092915050565b6000806040838503121561201157600080fd5b600061201f85828601611f18565b925050602061203085828601611f18565b9150509250929050565b60008060006060848603121561204f57600080fd5b600061205d86828701611f18565b935050602061206e86828701611f18565b925050604061207f86828701611fc0565b9150509250925092565b6000806000806080858703121561209f57600080fd5b60006120ad87828801611f18565b94505060206120be87828801611f18565b93505060406120cf87828801611fc0565b925050606085013567ffffffffffffffff8111156120ec57600080fd5b6120f887828801611f6c565b91505092959194509250565b6000806040838503121561211757600080fd5b600061212585828601611f18565b925050602061213685828601611f2d565b9150509250929050565b6000806040838503121561215357600080fd5b600061216185828601611f18565b925050602061217285828601611fc0565b9150509250929050565b60006020828403121561218e57600080fd5b600061219c84828501611f42565b91505092915050565b6000602082840312156121b757600080fd5b60006121c584828501611f57565b91505092915050565b6000602082840312156121e057600080fd5b600082013567ffffffffffffffff8111156121fa57600080fd5b61220684828501611f96565b91505092915050565b60006020828403121561222157600080fd5b600061222f84828501611fc0565b91505092915050565b61224181612ee8565b82525050565b61225081612ed6565b82525050565b61225f81612ed6565b82525050565b61226e81612efa565b82525050565b600061227f82612dc7565b6122898185612ddd565b9350612299818560208601612f90565b6122a28161315a565b840191505092915050565b6122b681612f6f565b82525050565b60006122c782612dd2565b6122d18185612dee565b93506122e1818560208601612f90565b6122ea8161315a565b840191505092915050565b600061230082612dd2565b61230a8185612dff565b935061231a818560208601612f90565b6123238161315a565b840191505092915050565b600061233982612dd2565b6123438185612e10565b9350612353818560208601612f90565b80840191505092915050565b600061236c603283612dff565b91507f4552433732313a207472616e7366657220746f206e6f6e20455243373231526560008301527f63656976657220696d706c656d656e74657200000000000000000000000000006020830152604082019050919050565b60006123d2601c83612dff565b91507f4552433732313a20746f6b656e20616c7265616479206d696e746564000000006000830152602082019050919050565b6000612412602483612dff565b91507f4552433732313a207472616e7366657220746f20746865207a65726f2061646460008301527f72657373000000000000000000000000000000000000000000000000000000006020830152604082019050919050565b6000612478601983612dff565b91507f4552433732313a20617070726f766520746f2063616c6c6572000000000000006000830152602082019050919050565b60006124b8602c83612dff565b91507f4552433732313a206f70657261746f7220717565727920666f72206e6f6e657860008301527f697374656e7420746f6b656e00000000000000000000000000000000000000006020830152604082019050919050565b600061251e603883612dff565b91507f4552433732313a20617070726f76652063616c6c6572206973206e6f74206f7760008301527f6e6572206e6f7220617070726f76656420666f7220616c6c00000000000000006020830152604082019050919050565b6000612584602a83612dff565b91507f4552433732313a2062616c616e636520717565727920666f7220746865207a6560008301527f726f2061646472657373000000000000000000000000000000000000000000006020830152604082019050919050565b60006125ea602983612dff565b91507f4552433732313a206f776e657220717565727920666f72206e6f6e657869737460008301527f656e7420746f6b656e00000000000000000000000000000000000000000000006020830152604082019050919050565b6000612650602e83612dff565b91507f45524337323155524953746f726167653a2055524920736574206f66206e6f6e60008301527f6578697374656e7420746f6b656e0000000000000000000000000000000000006020830152604082019050919050565b60006126b6602083612dff565b91507f4552433732313a206d696e7420746f20746865207a65726f20616464726573736000830152602082019050919050565b60006126f6603183612dff565b91507f45524337323155524953746f726167653a2055524920717565727920666f722060008301527f6e6f6e6578697374656e7420746f6b656e0000000000000000000000000000006020830152604082019050919050565b600061275c602c83612dff565b91507f4552433732313a20617070726f76656420717565727920666f72206e6f6e657860008301527f697374656e7420746f6b656e00000000000000000000000000000000000000006020830152604082019050919050565b60006127c2602983612dff565b91507f4552433732313a207472616e73666572206f6620746f6b656e2074686174206960008301527f73206e6f74206f776e00000000000000000000000000000000000000000000006020830152604082019050919050565b6000612828602f83612dff565b91507f4552433732314d657461646174613a2055524920717565727920666f72206e6f60008301527f6e6578697374656e7420746f6b656e00000000000000000000000000000000006020830152604082019050919050565b600061288e602183612dff565b91507f4552433732313a20617070726f76616c20746f2063757272656e74206f776e6560008301527f72000000000000000000000000000000000000000000000000000000000000006020830152604082019050919050565b60006128f4603183612dff565b91507f4552433732313a207472616e736665722063616c6c6572206973206e6f74206f60008301527f776e6572206e6f7220617070726f7665640000000000000000000000000000006020830152604082019050919050565b600060c0830160008301516129656000860182612247565b506020830151848203602086015261297d82826122bc565b9150506040830151848203604086015261299782826122bc565b91505060608301516129ac60608601826129dd565b5060808301516129bf60808601826129dd565b5060a08301516129d260a08601826129dd565b508091505092915050565b6129e681612f65565b82525050565b6129f581612f65565b82525050565b6000612a07828561232e565b9150612a13828461232e565b91508190509392505050565b6000602082019050612a346000830184612256565b92915050565b6000602082019050612a4f6000830184612238565b92915050565b6000608082019050612a6a6000830187612256565b612a776020830186612256565b612a8460408301856129ec565b8181036060830152612a968184612274565b905095945050505050565b6000602082019050612ab66000830184612265565b92915050565b6000602082019050612ad160008301846122ad565b92915050565b60006020820190508181036000830152612af181846122f5565b905092915050565b60006020820190508181036000830152612b128161235f565b9050919050565b60006020820190508181036000830152612b32816123c5565b9050919050565b60006020820190508181036000830152612b5281612405565b9050919050565b60006020820190508181036000830152612b728161246b565b9050919050565b60006020820190508181036000830152612b92816124ab565b9050919050565b60006020820190508181036000830152612bb281612511565b9050919050565b60006020820190508181036000830152612bd281612577565b9050919050565b60006020820190508181036000830152612bf2816125dd565b9050919050565b60006020820190508181036000830152612c1281612643565b9050919050565b60006020820190508181036000830152612c32816126a9565b9050919050565b60006020820190508181036000830152612c52816126e9565b9050919050565b60006020820190508181036000830152612c728161274f565b9050919050565b60006020820190508181036000830152612c92816127b5565b9050919050565b60006020820190508181036000830152612cb28161281b565b9050919050565b60006020820190508181036000830152612cd281612881565b9050919050565b60006020820190508181036000830152612cf2816128e7565b9050919050565b60006020820190508181036000830152612d13818461294d565b905092915050565b6000602082019050612d3060008301846129ec565b92915050565b6000604051905081810181811067ffffffffffffffff82111715612d5d57612d5c61312b565b5b8060405250919050565b600067ffffffffffffffff821115612d8257612d8161312b565b5b601f19601f8301169050602081019050919050565b600067ffffffffffffffff821115612db257612db161312b565b5b601f19601f8301169050602081019050919050565b600081519050919050565b600081519050919050565b600082825260208201905092915050565b600082825260208201905092915050565b600082825260208201905092915050565b600081905092915050565b6000612e2682612f65565b9150612e3183612f65565b9250827fffffffffffffffffffffffffffffffffffffffffffffffffffffffffffffffff03821115612e6657612e6561306f565b5b828201905092915050565b6000612e7c82612f65565b9150612e8783612f65565b925082612e9757612e9661309e565b5b828204905092915050565b6000612ead82612f65565b9150612eb883612f65565b925082821015612ecb57612eca61306f565b5b828203905092915050565b6000612ee182612f45565b9050919050565b6000612ef382612f45565b9050919050565b60008115159050919050565b60007fffffffff0000000000000000000000000000000000000000000000000000000082169050919050565b6000819050612f408261316b565b919050565b600073ffffffffffffffffffffffffffffffffffffffff82169050919050565b6000819050919050565b6000612f7a82612f32565b9050919050565b82818337600083830152505050565b60005b83811015612fae578082015181840152602081019050612f93565b83811115612fbd576000848401525b50505050565b60006002820490506001821680612fdb57607f821691505b60208210811415612fef57612fee6130fc565b5b50919050565b600061300082612f65565b91507fffffffffffffffffffffffffffffffffffffffffffffffffffffffffffffffff8214156130335761303261306f565b5b600182019050919050565b600061304982612f65565b915061305483612f65565b9250826130645761306361309e565b5b828206905092915050565b7f4e487b7100000000000000000000000000000000000000000000000000000000600052601160045260246000fd5b7f4e487b7100000000000000000000000000000000000000000000000000000000600052601260045260246000fd5b7f4e487b7100000000000000000000000000000000000000000000000000000000600052602160045260246000fd5b7f4e487b7100000000000000000000000000000000000000000000000000000000600052602260045260246000fd5b7f4e487b7100000000000000000000000000000000000000000000000000000000600052604160045260246000fd5b6000601f19601f8301169050919050565b6002811061317c5761317b6130cd565b5b50565b61318881612ed6565b811461319357600080fd5b50565b61319f81612efa565b81146131aa57600080fd5b50565b6131b681612f06565b81146131c157600080fd5b50565b6131cd81612f65565b81146131d857600080fd5b5056fea2646970667358221220548012872497557e349856108ce85dde73b3de689328fc1bfeeb6b0f2e3cc42864736f6c63430008000033",
  "linkReferences": {},
  "deployedLinkReferences": {}
}