{
  "_format": "hh-sol-artifact-1",
  "contractName": "Auction",
  "sourceName": "contracts/AuctionBox.sol",
  "abi": [
    {
      "inputs": [
        {
          "internalType": "address payable",
          "name": "_owner",
          "type": "address"
        },
        {
          "internalType": "string",
          "name": "_title",
          "type": "string"
        },
        {
          "internalType": "string",
          "name": "_description",
          "type": "string"
        },
        {
          "internalType": "string",
          "name": "_svg",
          "type": "string"
        },
        {
          "internalType": "uint256",
          "name": "_startPrice",
          "type": "uint256"
        },
        {
          "internalType": "uint256",
          "name": "_duration",
          "type": "uint256"
        }
      ],
      "stateMutability": "nonpayable",
      "type": "constructor"
    },
    {
      "anonymous": false,
      "inputs": [
        {
          "indexed": true,
          "internalType": "address",
          "name": "owner",
          "type": "address"
        },
        {
          "indexed": true,
          "internalType": "address",
          "name": "approved",
          "type": "address"
        },
        {
          "indexed": true,
          "internalType": "uint256",
          "name": "tokenId",
          "type": "uint256"
        }
      ],
      "name": "Approval",
      "type": "event"
    },
    {
      "anonymous": false,
      "inputs": [
        {
          "indexed": true,
          "internalType": "address",
          "name": "owner",
          "type": "address"
        },
        {
          "indexed": true,
          "internalType": "address",
          "name": "operator",
          "type": "address"
        },
        {
          "indexed": false,
          "internalType": "bool",
          "name": "approved",
          "type": "bool"
        }
      ],
      "name": "ApprovalForAll",
      "type": "event"
    },
    {
      "anonymous": false,
      "inputs": [
        {
          "indexed": true,
          "internalType": "address",
          "name": "from",
          "type": "address"
        },
        {
          "indexed": true,
          "internalType": "address",
          "name": "to",
          "type": "address"
        },
        {
          "indexed": true,
          "internalType": "uint256",
          "name": "tokenId",
          "type": "uint256"
        }
      ],
      "name": "Transfer",
      "type": "event"
    },
    {
      "inputs": [
        {
          "internalType": "address",
          "name": "to",
          "type": "address"
        },
        {
          "internalType": "uint256",
          "name": "tokenId",
          "type": "uint256"
        }
      ],
      "name": "approve",
      "outputs": [],
      "stateMutability": "nonpayable",
      "type": "function"
    },
    {
      "inputs": [],
      "name": "auctionState",
      "outputs": [
        {
          "internalType": "enum Auction.State",
          "name": "",
          "type": "uint8"
        }
      ],
      "stateMutability": "view",
      "type": "function"
    },
    {
      "inputs": [
        {
          "internalType": "address",
          "name": "owner",
          "type": "address"
        }
      ],
      "name": "balanceOf",
      "outputs": [
        {
          "internalType": "uint256",
          "name": "",
          "type": "uint256"
        }
      ],
      "stateMutability": "view",
      "type": "function"
    },
    {
      "inputs": [
        {
          "internalType": "address",
          "name": "",
          "type": "address"
        }
      ],
      "name": "bids",
      "outputs": [
        {
          "internalType": "uint256",
          "name": "",
          "type": "uint256"
        }
      ],
      "stateMutability": "view",
      "type": "function"
    },
    {
      "inputs": [],
      "name": "descriprion",
      "outputs": [
        {
          "internalType": "string",
          "name": "",
          "type": "string"
        }
      ],
      "stateMutability": "view",
      "type": "function"
    },
    {
      "inputs": [],
      "name": "endTime",
      "outputs": [
        {
          "internalType": "uint256",
          "name": "",
          "type": "uint256"
        }
      ],
      "stateMutability": "view",
      "type": "function"
    },
    {
      "inputs": [
        {
          "internalType": "uint256",
          "name": "tokenId",
          "type": "uint256"
        }
      ],
      "name": "getApproved",
      "outputs": [
        {
          "internalType": "address",
          "name": "",
          "type": "address"
        }
      ],
      "stateMutability": "view",
      "type": "function"
    },
    {
      "inputs": [],
      "name": "getContent",
      "outputs": [
        {
          "components": [
            {
              "internalType": "address",
              "name": "owner",
              "type": "address"
            },
            {
              "internalType": "string",
              "name": "title",
              "type": "string"
            },
            {
              "internalType": "string",
              "name": "description",
              "type": "string"
            },
            {
              "internalType": "uint256",
              "name": "nftTokenId",
              "type": "uint256"
            },
            {
              "internalType": "uint256",
              "name": "startPrice",
              "type": "uint256"
            },
            {
              "internalType": "uint256",
              "name": "endTime",
              "type": "uint256"
            }
          ],
          "internalType": "struct AuctionContent",
          "name": "",
          "type": "tuple"
        }
      ],
      "stateMutability": "view",
      "type": "function"
    },
    {
      "inputs": [],
      "name": "getTitle",
      "outputs": [
        {
          "internalType": "string",
          "name": "",
          "type": "string"
        }
      ],
      "stateMutability": "view",
      "type": "function"
    },
    {
      "inputs": [],
      "name": "highestBidder",
      "outputs": [
        {
          "internalType": "address payable",
          "name": "",
          "type": "address"
        }
      ],
      "stateMutability": "view",
      "type": "function"
    },
    {
      "inputs": [],
      "name": "highestPrice",
      "outputs": [
        {
          "internalType": "uint256",
          "name": "",
          "type": "uint256"
        }
      ],
      "stateMutability": "view",
      "type": "function"
    },
    {
      "inputs": [
        {
          "internalType": "address",
          "name": "owner",
          "type": "address"
        },
        {
          "internalType": "address",
          "name": "operator",
          "type": "address"
        }
      ],
      "name": "isApprovedForAll",
      "outputs": [
        {
          "internalType": "bool",
          "name": "",
          "type": "bool"
        }
      ],
      "stateMutability": "view",
      "type": "function"
    },
    {
      "inputs": [
        {
          "internalType": "string",
          "name": "svg",
          "type": "string"
        },
        {
          "internalType": "string",
          "name": "_title",
          "type": "string"
        },
        {
          "internalType": "string",
          "name": "_description",
          "type": "string"
        }
      ],
      "name": "mintNFT",
      "outputs": [
        {
          "internalType": "uint256",
          "name": "",
          "type": "uint256"
        }
      ],
      "stateMutability": "nonpayable",
      "type": "function"
    },
    {
      "inputs": [],
      "name": "name",
      "outputs": [
        {
          "internalType": "string",
          "name": "",
          "type": "string"
        }
      ],
      "stateMutability": "view",
      "type": "function"
    },
    {
      "inputs": [],
      "name": "nftTokenId",
      "outputs": [
        {
          "internalType": "uint256",
          "name": "",
          "type": "uint256"
        }
      ],
      "stateMutability": "view",
      "type": "function"
    },
    {
      "inputs": [
        {
          "internalType": "uint256",
          "name": "tokenId",
          "type": "uint256"
        }
      ],
      "name": "ownerOf",
      "outputs": [
        {
          "internalType": "address",
          "name": "",
          "type": "address"
        }
      ],
      "stateMutability": "view",
      "type": "function"
    },
    {
      "inputs": [
        {
          "internalType": "address",
          "name": "from",
          "type": "address"
        },
        {
          "internalType": "address",
          "name": "to",
          "type": "address"
        },
        {
          "internalType": "uint256",
          "name": "tokenId",
          "type": "uint256"
        }
      ],
      "name": "safeTransferFrom",
      "outputs": [],
      "stateMutability": "nonpayable",
      "type": "function"
    },
    {
      "inputs": [
        {
          "internalType": "address",
          "name": "from",
          "type": "address"
        },
        {
          "internalType": "address",
          "name": "to",
          "type": "address"
        },
        {
          "internalType": "uint256",
          "name": "tokenId",
          "type": "uint256"
        },
        {
          "internalType": "bytes",
          "name": "_data",
          "type": "bytes"
        }
      ],
      "name": "safeTransferFrom",
      "outputs": [],
      "stateMutability": "nonpayable",
      "type": "function"
    },
    {
      "inputs": [
        {
          "internalType": "address",
          "name": "operator",
          "type": "address"
        },
        {
          "internalType": "bool",
          "name": "approved",
          "type": "bool"
        }
      ],
      "name": "setApprovalForAll",
      "outputs": [],
      "stateMutability": "nonpayable",
      "type": "function"
    },
    {
      "inputs": [],
      "name": "startPrice",
      "outputs": [
        {
          "internalType": "uint256",
          "name": "",
          "type": "uint256"
        }
      ],
      "stateMutability": "view",
      "type": "function"
    },
    {
      "inputs": [
        {
          "internalType": "bytes4",
          "name": "interfaceId",
          "type": "bytes4"
        }
      ],
      "name": "supportsInterface",
      "outputs": [
        {
          "internalType": "bool",
          "name": "",
          "type": "bool"
        }
      ],
      "stateMutability": "view",
      "type": "function"
    },
    {
      "inputs": [],
      "name": "symbol",
      "outputs": [
        {
          "internalType": "string",
          "name": "",
          "type": "string"
        }
      ],
      "stateMutability": "view",
      "type": "function"
    },
    {
      "inputs": [],
      "name": "title",
      "outputs": [
        {
          "internalType": "string",
          "name": "",
          "type": "string"
        }
      ],
      "stateMutability": "view",
      "type": "function"
    },
    {
      "inputs": [],
      "name": "tokenCounter",
      "outputs": [
        {
          "internalType": "uint256",
          "name": "",
          "type": "uint256"
        }
      ],
      "stateMutability": "view",
      "type": "function"
    },
    {
      "inputs": [
        {
          "internalType": "uint256",
          "name": "tokenId",
          "type": "uint256"
        }
      ],
      "name": "tokenURI",
      "outputs": [
        {
          "internalType": "string",
          "name": "",
          "type": "string"
        }
      ],
      "stateMutability": "view",
      "type": "function"
    },
    {
      "inputs": [
        {
          "internalType": "address",
          "name": "from",
          "type": "address"
        },
        {
          "internalType": "address",
          "name": "to",
          "type": "address"
        },
        {
          "internalType": "uint256",
          "name": "tokenId",
          "type": "uint256"
        }
      ],
      "name": "transferFrom",
      "outputs": [],
      "stateMutability": "nonpayable",
      "type": "function"
    }
  ],
  "bytecode": "0x60806040523480156200001157600080fd5b5060405162004f2f38038062004f2f833981810160405281019062000037919062000b76565b6040518060400160405280600981526020017f4e69676761204e465400000000000000000000000000000000000000000000008152506040518060400160405280600881526020017f4e696767614e46540000000000000000000000000000000000000000000000008152508160009080519060200190620000bb92919062000a0f565b508060019080519060200190620000d492919062000a0f565b505050600060078190555085600860006101000a81548173ffffffffffffffffffffffffffffffffffffffff021916908373ffffffffffffffffffffffffffffffffffffffff16021790555084600990805190602001906200013892919062000a0f565b5083600c90805190602001906200015192919062000a0f565b5081600a819055508042620001679190620012be565b600b81905550620001808386866200019260201b60201c565b600d8190555050505050505062001607565b6000806007549050620001ac33826200021160201b60201c565b6000620001bf866200023760201b60201c565b90506000620001d6828787620002db60201b60201c565b9050620001ea83826200034260201b60201c565b60076000815480929190620001ff906200149e565b91905055508293505050509392505050565b62000233828260405180602001604052806000815250620003c360201b60201c565b5050565b606060006040518060400160405280601a81526020017f646174613a696d6167652f7376672b786d6c3b6261736536342c00000000000081525090506000620002ac846040516020016200028c91906200103f565b6040516020818303038152906040526200043160201b620011161760201c565b90508181604051602001620002c392919062001058565b60405160208183030381529060405292505050919050565b606062000318838386604051602001620002f89392919062001080565b6040516020818303038152906040526200043160201b620011161760201c565b6040516020016200032a919062001112565b60405160208183030381529060405290509392505050565b6200035382620005e360201b60201c565b62000395576040517f08c379a00000000000000000000000000000000000000000000000000000000081526004016200038c90620011d0565b60405180910390fd5b80600660008481526020019081526020016000209080519060200190620003be92919062000a0f565b505050565b620003d583836200064f60201b60201c565b620003ea60008484846200083560201b60201c565b6200042c576040517f08c379a000000000000000000000000000000000000000000000000000000000815260040162000423906200118c565b60405180910390fd5b505050565b60606000825114156200045657604051806020016040528060008152509050620005de565b600060405180606001604052806040815260200162004eef6040913990506000600360028551620004889190620012be565b6200049491906200131b565b6004620004a2919062001353565b90506000602082620004b59190620012be565b67ffffffffffffffff811115620004f5577f4e487b7100000000000000000000000000000000000000000000000000000000600052604160045260246000fd5b6040519080825280601f01601f191660200182016040528015620005285781602001600182028036833780820191505090505b509050818152600183018586518101602084015b8183101562000599576003830192508251603f8160121c168501518253600182019150603f81600c1c168501518253600182019150603f8160061c168501518253600182019150603f81168501518253600182019150506200053c565b600389510660018114620005b65760028114620005c757620005d2565b613d3d60f01b6002830352620005d2565b603d60f81b60018303525b50505050508093505050505b919050565b60008073ffffffffffffffffffffffffffffffffffffffff166002600084815260200190815260200160002060009054906101000a900473ffffffffffffffffffffffffffffffffffffffff1673ffffffffffffffffffffffffffffffffffffffff1614159050919050565b600073ffffffffffffffffffffffffffffffffffffffff168273ffffffffffffffffffffffffffffffffffffffff161415620006c2576040517f08c379a0000000000000000000000000000000000000000000000000000000008152600401620006b990620011f2565b60405180910390fd5b620006d381620005e360201b60201c565b1562000716576040517f08c379a00000000000000000000000000000000000000000000000000000000081526004016200070d90620011ae565b60405180910390fd5b6200072a60008383620009ef60201b60201c565b6001600360008473ffffffffffffffffffffffffffffffffffffffff1673ffffffffffffffffffffffffffffffffffffffff16815260200190815260200160002060008282546200077c9190620012be565b92505081905550816002600083815260200190815260200160002060006101000a81548173ffffffffffffffffffffffffffffffffffffffff021916908373ffffffffffffffffffffffffffffffffffffffff160217905550808273ffffffffffffffffffffffffffffffffffffffff16600073ffffffffffffffffffffffffffffffffffffffff167fddf252ad1be2c89b69c2b068fc378daa952ba7f163c4a11628f55a4df523b3ef60405160405180910390a45050565b6000620008638473ffffffffffffffffffffffffffffffffffffffff16620009f460201b620012b51760201c565b15620009e2578373ffffffffffffffffffffffffffffffffffffffff1663150b7a026200089562000a0760201b60201c565b8786866040518563ffffffff1660e01b8152600401620008b9949392919062001138565b602060405180830381600087803b158015620008d457600080fd5b505af19250505080156200090857506040513d601f19601f8201168201806040525081019062000905919062000c57565b60015b62000991573d80600081146200093b576040519150601f19603f3d011682016040523d82523d6000602084013e62000940565b606091505b5060008151141562000989576040517f08c379a000000000000000000000000000000000000000000000000000000000815260040162000980906200118c565b60405180910390fd5b805181602001fd5b63150b7a0260e01b7bffffffffffffffffffffffffffffffffffffffffffffffffffffffff1916817bffffffffffffffffffffffffffffffffffffffffffffffffffffffff191614915050620009e7565b600190505b949350505050565b505050565b600080823b905060008111915050919050565b600033905090565b82805462000a1d9062001468565b90600052602060002090601f01602090048101928262000a41576000855562000a8d565b82601f1062000a5c57805160ff191683800117855562000a8d565b8280016001018555821562000a8d579182015b8281111562000a8c57825182559160200191906001019062000a6f565b5b50905062000a9c919062000aa0565b5090565b5b8082111562000abb57600081600090555060010162000aa1565b5090565b600062000ad662000ad08462001248565b62001214565b90508281526020810184848401111562000aef57600080fd5b62000afc84828562001432565b509392505050565b60008151905062000b1581620015b9565b92915050565b60008151905062000b2c81620015d3565b92915050565b600082601f83011262000b4457600080fd5b815162000b5684826020860162000abf565b91505092915050565b60008151905062000b7081620015ed565b92915050565b60008060008060008060c0878903121562000b9057600080fd5b600062000ba089828a0162000b04565b965050602087015167ffffffffffffffff81111562000bbe57600080fd5b62000bcc89828a0162000b32565b955050604087015167ffffffffffffffff81111562000bea57600080fd5b62000bf889828a0162000b32565b945050606087015167ffffffffffffffff81111562000c1657600080fd5b62000c2489828a0162000b32565b935050608062000c3789828a0162000b5f565b92505060a062000c4a89828a0162000b5f565b9150509295509295509295565b60006020828403121562000c6a57600080fd5b600062000c7a8482850162000b1b565b91505092915050565b62000c8e81620013b4565b82525050565b600062000ca1826200127b565b62000cad818562001291565b935062000cbf81856020860162001432565b62000cca81620015a8565b840191505092915050565b600062000ce28262001286565b62000cee8185620012b3565b935062000d0081856020860162001432565b80840191505092915050565b600062000d1b600983620012b3565b91507f7b226e616d65223a2200000000000000000000000000000000000000000000006000830152600982019050919050565b600062000d5d603283620012a2565b91507f4552433732313a207472616e7366657220746f206e6f6e20455243373231526560008301527f63656976657220696d706c656d656e74657200000000000000000000000000006020830152604082019050919050565b600062000dc5600f83620012b3565b91507f226465736372697074696f6e223a2200000000000000000000000000000000006000830152600f82019050919050565b600062000e07600283620012b3565b91507f222c0000000000000000000000000000000000000000000000000000000000006000830152600282019050919050565b600062000e49601c83620012a2565b91507f4552433732313a20746f6b656e20616c7265616479206d696e746564000000006000830152602082019050919050565b600062000e8b602e83620012a2565b91507f45524337323155524953746f726167653a2055524920736574206f66206e6f6e60008301527f6578697374656e7420746f6b656e0000000000000000000000000000000000006020830152604082019050919050565b600062000ef3600983620012b3565b91507f22696d616765223a2200000000000000000000000000000000000000000000006000830152600982019050919050565b600062000f35600283620012b3565b91507f227d0000000000000000000000000000000000000000000000000000000000006000830152600282019050919050565b600062000f77602083620012a2565b91507f4552433732313a206d696e7420746f20746865207a65726f20616464726573736000830152602082019050919050565b600062000fb9601d83620012b3565b91507f646174613a6170706c69636174696f6e2f6a736f6e3b6261736536342c0000006000830152601d82019050919050565b600062000ffb601083620012b3565b91507f2261747472696275746573223a22222c000000000000000000000000000000006000830152601082019050919050565b620010398162001428565b82525050565b60006200104d828462000cd5565b915081905092915050565b600062001066828562000cd5565b915062001074828462000cd5565b91508190509392505050565b60006200108d8262000d0c565b91506200109b828662000cd5565b9150620010a88262000df8565b9150620010b58262000db6565b9150620010c3828562000cd5565b9150620010d08262000df8565b9150620010dd8262000fec565b9150620010ea8262000ee4565b9150620010f8828462000cd5565b9150620011058262000f26565b9150819050949350505050565b60006200111f8262000faa565b91506200112d828462000cd5565b915081905092915050565b60006080820190506200114f600083018762000c83565b6200115e602083018662000c83565b6200116d60408301856200102e565b818103606083015262001181818462000c94565b905095945050505050565b60006020820190508181036000830152620011a78162000d4e565b9050919050565b60006020820190508181036000830152620011c98162000e3a565b9050919050565b60006020820190508181036000830152620011eb8162000e7c565b9050919050565b600060208201905081810360008301526200120d8162000f68565b9050919050565b6000604051905081810181811067ffffffffffffffff821117156200123e576200123d62001579565b5b8060405250919050565b600067ffffffffffffffff82111562001266576200126562001579565b5b601f19601f8301169050602081019050919050565b600081519050919050565b600081519050919050565b600082825260208201905092915050565b600082825260208201905092915050565b600081905092915050565b6000620012cb8262001428565b9150620012d88362001428565b9250827fffffffffffffffffffffffffffffffffffffffffffffffffffffffffffffffff0382111562001310576200130f620014ec565b5b828201905092915050565b6000620013288262001428565b9150620013358362001428565b9250826200134857620013476200151b565b5b828204905092915050565b6000620013608262001428565b91506200136d8362001428565b9250817fffffffffffffffffffffffffffffffffffffffffffffffffffffffffffffffff0483118215151615620013a957620013a8620014ec565b5b828202905092915050565b6000620013c18262001408565b9050919050565b6000620013d58262001408565b9050919050565b60007fffffffff0000000000000000000000000000000000000000000000000000000082169050919050565b600073ffffffffffffffffffffffffffffffffffffffff82169050919050565b6000819050919050565b60005b838110156200145257808201518184015260208101905062001435565b8381111562001462576000848401525b50505050565b600060028204905060018216806200148157607f821691505b602082108114156200149857620014976200154a565b5b50919050565b6000620014ab8262001428565b91507fffffffffffffffffffffffffffffffffffffffffffffffffffffffffffffffff821415620014e157620014e0620014ec565b5b600182019050919050565b7f4e487b7100000000000000000000000000000000000000000000000000000000600052601160045260246000fd5b7f4e487b7100000000000000000000000000000000000000000000000000000000600052601260045260246000fd5b7f4e487b7100000000000000000000000000000000000000000000000000000000600052602260045260246000fd5b7f4e487b7100000000000000000000000000000000000000000000000000000000600052604160045260246000fd5b6000601f19601f8301169050919050565b620015c481620013c8565b8114620015d057600080fd5b50565b620015de81620013dc565b8114620015ea57600080fd5b50565b620015f88162001428565b81146200160457600080fd5b50565b6138d880620016176000396000f3fe608060405234801561001057600080fd5b506004361061018e5760003560e01c806369602408116100de578063a22cb46511610097578063d082e38111610071578063d082e3811461049b578063e985e9c5146104b9578063f1a9af89146104e9578063ff3c1a8f146105075761018e565b8063a22cb46514610433578063b88d4fde1461044f578063c87b56dd1461046b5761018e565b8063696024081461036d57806370a082311461038b5780637e830574146103bb5780637fb45099146103d957806391f90157146103f757806395d89b41146104155761018e565b806323b872dd1161014b5780634a79d50c116101255780634a79d50c146102d157806359016c79146102ef57806362ea82db1461030d5780636352211e1461033d5761018e565b806323b872dd1461027b5780633197cbb61461029757806342842e0e146102b55761018e565b806301ffc9a71461019357806306fdde03146101c3578063081812fc146101e1578063095ea7b3146102115780630c3b7b721461022d5780630e8670e01461025d575b600080fd5b6101ad60048036038101906101a891906124dc565b610525565b6040516101ba91906130ce565b60405180910390f35b6101cb610607565b6040516101d89190613104565b60405180910390f35b6101fb60048036038101906101f691906125c5565b610699565b604051610208919061304c565b60405180910390f35b61022b600480360381019061022691906124a0565b61071e565b005b6102476004803603810190610242919061252e565b610836565b6040516102549190613348565b60405180910390f35b610265610893565b6040516102729190613348565b60405180910390f35b6102956004803603810190610290919061239a565b610899565b005b61029f6108f9565b6040516102ac9190613348565b60405180910390f35b6102cf60048036038101906102ca919061239a565b6108ff565b005b6102d961091f565b6040516102e69190613104565b60405180910390f35b6102f76109ad565b6040516103049190613326565b60405180910390f35b61032760048036038101906103229190612335565b610b39565b6040516103349190613348565b60405180910390f35b610357600480360381019061035291906125c5565b610b51565b604051610364919061304c565b60405180910390f35b610375610c03565b6040516103829190613104565b60405180910390f35b6103a560048036038101906103a09190612335565b610c91565b6040516103b29190613348565b60405180910390f35b6103c3610d49565b6040516103d09190613348565b60405180910390f35b6103e1610d4f565b6040516103ee91906130e9565b60405180910390f35b6103ff610d62565b60405161040c9190613067565b60405180910390f35b61041d610d88565b60405161042a9190613104565b60405180910390f35b61044d60048036038101906104489190612464565b610e1a565b005b610469600480360381019061046491906123e9565b610e30565b005b610485600480360381019061048091906125c5565b610e92565b6040516104929190613104565b60405180910390f35b6104a3610fe4565b6040516104b09190613348565b60405180910390f35b6104d360048036038101906104ce919061235e565b610fea565b6040516104e091906130ce565b60405180910390f35b6104f161107e565b6040516104fe9190613348565b60405180910390f35b61050f611084565b60405161051c9190613104565b60405180910390f35b60007f80ac58cd000000000000000000000000000000000000000000000000000000007bffffffffffffffffffffffffffffffffffffffffffffffffffffffff1916827bffffffffffffffffffffffffffffffffffffffffffffffffffffffff191614806105f057507f5b5e139f000000000000000000000000000000000000000000000000000000007bffffffffffffffffffffffffffffffffffffffffffffffffffffffff1916827bffffffffffffffffffffffffffffffffffffffffffffffffffffffff1916145b8061060057506105ff826112c8565b5b9050919050565b6060600080546106169061364a565b80601f01602080910402602001604051908101604052809291908181526020018280546106429061364a565b801561068f5780601f106106645761010080835404028352916020019161068f565b820191906000526020600020905b81548152906001019060200180831161067257829003601f168201915b5050505050905090565b60006106a482611332565b6106e3576040517f08c379a00000000000000000000000000000000000000000000000000000000081526004016106da90613286565b60405180910390fd5b6004600083815260200190815260200160002060009054906101000a900473ffffffffffffffffffffffffffffffffffffffff169050919050565b600061072982610b51565b90508073ffffffffffffffffffffffffffffffffffffffff168373ffffffffffffffffffffffffffffffffffffffff16141561079a576040517f08c379a0000000000000000000000000000000000000000000000000000000008152600401610791906132e6565b60405180910390fd5b8073ffffffffffffffffffffffffffffffffffffffff166107b961139e565b73ffffffffffffffffffffffffffffffffffffffff1614806107e857506107e7816107e261139e565b610fea565b5b610827576040517f08c379a000000000000000000000000000000000000000000000000000000000815260040161081e906131c6565b60405180910390fd5b61083183836113a6565b505050565b6000806007549050610848338261145f565b60006108538661147d565b90506000610862828787611510565b905061086e8382611566565b600760008154809291906108819061367c565b91905055508293505050509392505050565b600f5481565b6108aa6108a461139e565b826115da565b6108e9576040517f08c379a00000000000000000000000000000000000000000000000000000000081526004016108e090613306565b60405180910390fd5b6108f48383836116b8565b505050565b600b5481565b61091a83838360405180602001604052806000815250610e30565b505050565b6009805461092c9061364a565b80601f01602080910402602001604051908101604052809291908181526020018280546109589061364a565b80156109a55780601f1061097a576101008083540402835291602001916109a5565b820191906000526020600020905b81548152906001019060200180831161098857829003601f168201915b505050505081565b6109b561210d565b6040518060c00160405280600860009054906101000a900473ffffffffffffffffffffffffffffffffffffffff1673ffffffffffffffffffffffffffffffffffffffff16815260200160098054610a0b9061364a565b80601f0160208091040260200160405190810160405280929190818152602001828054610a379061364a565b8015610a845780601f10610a5957610100808354040283529160200191610a84565b820191906000526020600020905b815481529060010190602001808311610a6757829003601f168201915b50505050508152602001600c8054610a9b9061364a565b80601f0160208091040260200160405190810160405280929190818152602001828054610ac79061364a565b8015610b145780601f10610ae957610100808354040283529160200191610b14565b820191906000526020600020905b815481529060010190602001808311610af757829003601f168201915b50505050508152602001600d548152602001600a548152602001600b54815250905090565b60116020528060005260406000206000915090505481565b6000806002600084815260200190815260200160002060009054906101000a900473ffffffffffffffffffffffffffffffffffffffff169050600073ffffffffffffffffffffffffffffffffffffffff168173ffffffffffffffffffffffffffffffffffffffff161415610bfa576040517f08c379a0000000000000000000000000000000000000000000000000000000008152600401610bf190613206565b60405180910390fd5b80915050919050565b600c8054610c109061364a565b80601f0160208091040260200160405190810160405280929190818152602001828054610c3c9061364a565b8015610c895780601f10610c5e57610100808354040283529160200191610c89565b820191906000526020600020905b815481529060010190602001808311610c6c57829003601f168201915b505050505081565b60008073ffffffffffffffffffffffffffffffffffffffff168273ffffffffffffffffffffffffffffffffffffffff161415610d02576040517f08c379a0000000000000000000000000000000000000000000000000000000008152600401610cf9906131e6565b60405180910390fd5b600360008373ffffffffffffffffffffffffffffffffffffffff1673ffffffffffffffffffffffffffffffffffffffff168152602001908152602001600020549050919050565b600d5481565b600e60009054906101000a900460ff1681565b601060009054906101000a900473ffffffffffffffffffffffffffffffffffffffff1681565b606060018054610d979061364a565b80601f0160208091040260200160405190810160405280929190818152602001828054610dc39061364a565b8015610e105780601f10610de557610100808354040283529160200191610e10565b820191906000526020600020905b815481529060010190602001808311610df357829003601f168201915b5050505050905090565b610e2c610e2561139e565b8383611914565b5050565b610e41610e3b61139e565b836115da565b610e80576040517f08c379a0000000000000000000000000000000000000000000000000000000008152600401610e7790613306565b60405180910390fd5b610e8c84848484611a81565b50505050565b6060610e9d82611332565b610edc576040517f08c379a0000000000000000000000000000000000000000000000000000000008152600401610ed390613266565b60405180910390fd5b6000600660008481526020019081526020016000208054610efc9061364a565b80601f0160208091040260200160405190810160405280929190818152602001828054610f289061364a565b8015610f755780601f10610f4a57610100808354040283529160200191610f75565b820191906000526020600020905b815481529060010190602001808311610f5857829003601f168201915b505050505090506000610f86611add565b9050600081511415610f9c578192505050610fdf565b600082511115610fd1578082604051602001610fb9929190612f88565b60405160208183030381529060405292505050610fdf565b610fda84611af4565b925050505b919050565b60075481565b6000600560008473ffffffffffffffffffffffffffffffffffffffff1673ffffffffffffffffffffffffffffffffffffffff16815260200190815260200160002060008373ffffffffffffffffffffffffffffffffffffffff1673ffffffffffffffffffffffffffffffffffffffff16815260200190815260200160002060009054906101000a900460ff16905092915050565b600a5481565b6060600980546110939061364a565b80601f01602080910402602001604051908101604052809291908181526020018280546110bf9061364a565b801561110c5780601f106110e15761010080835404028352916020019161110c565b820191906000526020600020905b8154815290600101906020018083116110ef57829003601f168201915b5050505050905090565b6060600082511415611139576040518060200160405280600081525090506112b0565b600060405180606001604052806040815260200161386360409139905060006003600285516111689190613448565b611172919061349e565b600461117e91906134cf565b9050600060208261118f9190613448565b67ffffffffffffffff8111156111ce577f4e487b7100000000000000000000000000000000000000000000000000000000600052604160045260246000fd5b6040519080825280601f01601f1916602001820160405280156112005781602001600182028036833780820191505090505b509050818152600183018586518101602084015b8183101561126f576003830192508251603f8160121c168501518253600182019150603f81600c1c168501518253600182019150603f8160061c168501518253600182019150603f8116850151825360018201915050611214565b6003895106600181146112895760028114611299576112a4565b613d3d60f01b60028303526112a4565b603d60f81b60018303525b50505050508093505050505b919050565b600080823b905060008111915050919050565b60007f01ffc9a7000000000000000000000000000000000000000000000000000000007bffffffffffffffffffffffffffffffffffffffffffffffffffffffff1916827bffffffffffffffffffffffffffffffffffffffffffffffffffffffff1916149050919050565b60008073ffffffffffffffffffffffffffffffffffffffff166002600084815260200190815260200160002060009054906101000a900473ffffffffffffffffffffffffffffffffffffffff1673ffffffffffffffffffffffffffffffffffffffff1614159050919050565b600033905090565b816004600083815260200190815260200160002060006101000a81548173ffffffffffffffffffffffffffffffffffffffff021916908373ffffffffffffffffffffffffffffffffffffffff160217905550808273ffffffffffffffffffffffffffffffffffffffff1661141983610b51565b73ffffffffffffffffffffffffffffffffffffffff167f8c5be1e5ebec7d5bd14f71427d1e84f3dd0314c0f7b2291e5b200ac8c7c3b92560405160405180910390a45050565b611479828260405180602001604052806000815250611b9b565b5050565b606060006040518060400160405280601a81526020017f646174613a696d6167652f7376672b786d6c3b6261736536342c000000000000815250905060006114e3846040516020016114cf9190612f71565b604051602081830303815290604052611116565b905081816040516020016114f8929190612f88565b60405160208183030381529060405292505050919050565b606061153e83838660405160200161152a93929190612fac565b604051602081830303815290604052611116565b60405160200161154e919061302a565b60405160208183030381529060405290509392505050565b61156f82611332565b6115ae576040517f08c379a00000000000000000000000000000000000000000000000000000000081526004016115a590613226565b60405180910390fd5b806006600084815260200190815260200160002090805190602001906115d5929190612159565b505050565b60006115e582611332565b611624576040517f08c379a000000000000000000000000000000000000000000000000000000000815260040161161b906131a6565b60405180910390fd5b600061162f83610b51565b90508073ffffffffffffffffffffffffffffffffffffffff168473ffffffffffffffffffffffffffffffffffffffff16148061169e57508373ffffffffffffffffffffffffffffffffffffffff1661168684610699565b73ffffffffffffffffffffffffffffffffffffffff16145b806116af57506116ae8185610fea565b5b91505092915050565b8273ffffffffffffffffffffffffffffffffffffffff166116d882610b51565b73ffffffffffffffffffffffffffffffffffffffff161461172e576040517f08c379a0000000000000000000000000000000000000000000000000000000008152600401611725906132a6565b60405180910390fd5b600073ffffffffffffffffffffffffffffffffffffffff168273ffffffffffffffffffffffffffffffffffffffff16141561179e576040517f08c379a000000000000000000000000000000000000000000000000000000000815260040161179590613166565b60405180910390fd5b6117a9838383611bf6565b6117b46000826113a6565b6001600360008573ffffffffffffffffffffffffffffffffffffffff1673ffffffffffffffffffffffffffffffffffffffff16815260200190815260200160002060008282546118049190613529565b925050819055506001600360008473ffffffffffffffffffffffffffffffffffffffff1673ffffffffffffffffffffffffffffffffffffffff168152602001908152602001600020600082825461185b9190613448565b92505081905550816002600083815260200190815260200160002060006101000a81548173ffffffffffffffffffffffffffffffffffffffff021916908373ffffffffffffffffffffffffffffffffffffffff160217905550808273ffffffffffffffffffffffffffffffffffffffff168473ffffffffffffffffffffffffffffffffffffffff167fddf252ad1be2c89b69c2b068fc378daa952ba7f163c4a11628f55a4df523b3ef60405160405180910390a4505050565b8173ffffffffffffffffffffffffffffffffffffffff168373ffffffffffffffffffffffffffffffffffffffff161415611983576040517f08c379a000000000000000000000000000000000000000000000000000000000815260040161197a90613186565b60405180910390fd5b80600560008573ffffffffffffffffffffffffffffffffffffffff1673ffffffffffffffffffffffffffffffffffffffff16815260200190815260200160002060008473ffffffffffffffffffffffffffffffffffffffff1673ffffffffffffffffffffffffffffffffffffffff16815260200190815260200160002060006101000a81548160ff0219169083151502179055508173ffffffffffffffffffffffffffffffffffffffff168373ffffffffffffffffffffffffffffffffffffffff167f17307eab39ab6107e8899845ad3d59bd9653f200f220920489ca2b5937696c3183604051611a7491906130ce565b60405180910390a3505050565b611a8c8484846116b8565b611a9884848484611bfb565b611ad7576040517f08c379a0000000000000000000000000000000000000000000000000000000008152600401611ace90613126565b60405180910390fd5b50505050565b606060405180602001604052806000815250905090565b6060611aff82611332565b611b3e576040517f08c379a0000000000000000000000000000000000000000000000000000000008152600401611b35906132c6565b60405180910390fd5b6000611b48611add565b90506000815111611b685760405180602001604052806000815250611b93565b80611b7284611d92565b604051602001611b83929190612f88565b6040516020818303038152906040525b915050919050565b611ba58383611f3f565b611bb26000848484611bfb565b611bf1576040517f08c379a0000000000000000000000000000000000000000000000000000000008152600401611be890613126565b60405180910390fd5b505050565b505050565b6000611c1c8473ffffffffffffffffffffffffffffffffffffffff166112b5565b15611d85578373ffffffffffffffffffffffffffffffffffffffff1663150b7a02611c4561139e565b8786866040518563ffffffff1660e01b8152600401611c679493929190613082565b602060405180830381600087803b158015611c8157600080fd5b505af1925050508015611cb257506040513d601f19601f82011682018060405250810190611caf9190612505565b60015b611d35573d8060008114611ce2576040519150601f19603f3d011682016040523d82523d6000602084013e611ce7565b606091505b50600081511415611d2d576040517f08c379a0000000000000000000000000000000000000000000000000000000008152600401611d2490613126565b60405180910390fd5b805181602001fd5b63150b7a0260e01b7bffffffffffffffffffffffffffffffffffffffffffffffffffffffff1916817bffffffffffffffffffffffffffffffffffffffffffffffffffffffff191614915050611d8a565b600190505b949350505050565b60606000821415611dda576040518060400160405280600181526020017f30000000000000000000000000000000000000000000000000000000000000008152509050611f3a565b600082905060005b60008214611e0c578080611df59061367c565b915050600a82611e05919061349e565b9150611de2565b60008167ffffffffffffffff811115611e4e577f4e487b7100000000000000000000000000000000000000000000000000000000600052604160045260246000fd5b6040519080825280601f01601f191660200182016040528015611e805781602001600182028036833780820191505090505b5090505b60008514611f3357600182611e999190613529565b9150600a85611ea891906136c5565b6030611eb49190613448565b60f81b818381518110611ef0577f4e487b7100000000000000000000000000000000000000000000000000000000600052603260045260246000fd5b60200101907effffffffffffffffffffffffffffffffffffffffffffffffffffffffffffff1916908160001a905350600a85611f2c919061349e565b9450611e84565b8093505050505b919050565b600073ffffffffffffffffffffffffffffffffffffffff168273ffffffffffffffffffffffffffffffffffffffff161415611faf576040517f08c379a0000000000000000000000000000000000000000000000000000000008152600401611fa690613246565b60405180910390fd5b611fb881611332565b15611ff8576040517f08c379a0000000000000000000000000000000000000000000000000000000008152600401611fef90613146565b60405180910390fd5b61200460008383611bf6565b6001600360008473ffffffffffffffffffffffffffffffffffffffff1673ffffffffffffffffffffffffffffffffffffffff16815260200190815260200160002060008282546120549190613448565b92505081905550816002600083815260200190815260200160002060006101000a81548173ffffffffffffffffffffffffffffffffffffffff021916908373ffffffffffffffffffffffffffffffffffffffff160217905550808273ffffffffffffffffffffffffffffffffffffffff16600073ffffffffffffffffffffffffffffffffffffffff167fddf252ad1be2c89b69c2b068fc378daa952ba7f163c4a11628f55a4df523b3ef60405160405180910390a45050565b6040518060c00160405280600073ffffffffffffffffffffffffffffffffffffffff16815260200160608152602001606081526020016000815260200160008152602001600081525090565b8280546121659061364a565b90600052602060002090601f01602090048101928261218757600085556121ce565b82601f106121a057805160ff19168380011785556121ce565b828001600101855582156121ce579182015b828111156121cd5782518255916020019190600101906121b2565b5b5090506121db91906121df565b5090565b5b808211156121f85760008160009055506001016121e0565b5090565b600061220f61220a84613394565b613363565b90508281526020810184848401111561222757600080fd5b612232848285613608565b509392505050565b600061224d612248846133c4565b613363565b90508281526020810184848401111561226557600080fd5b612270848285613608565b509392505050565b60008135905061228781613806565b92915050565b60008135905061229c8161381d565b92915050565b6000813590506122b181613834565b92915050565b6000815190506122c681613834565b92915050565b600082601f8301126122dd57600080fd5b81356122ed8482602086016121fc565b91505092915050565b600082601f83011261230757600080fd5b813561231784826020860161223a565b91505092915050565b60008135905061232f8161384b565b92915050565b60006020828403121561234757600080fd5b600061235584828501612278565b91505092915050565b6000806040838503121561237157600080fd5b600061237f85828601612278565b925050602061239085828601612278565b9150509250929050565b6000806000606084860312156123af57600080fd5b60006123bd86828701612278565b93505060206123ce86828701612278565b92505060406123df86828701612320565b9150509250925092565b600080600080608085870312156123ff57600080fd5b600061240d87828801612278565b945050602061241e87828801612278565b935050604061242f87828801612320565b925050606085013567ffffffffffffffff81111561244c57600080fd5b612458878288016122cc565b91505092959194509250565b6000806040838503121561247757600080fd5b600061248585828601612278565b92505060206124968582860161228d565b9150509250929050565b600080604083850312156124b357600080fd5b60006124c185828601612278565b92505060206124d285828601612320565b9150509250929050565b6000602082840312156124ee57600080fd5b60006124fc848285016122a2565b91505092915050565b60006020828403121561251757600080fd5b6000612525848285016122b7565b91505092915050565b60008060006060848603121561254357600080fd5b600084013567ffffffffffffffff81111561255d57600080fd5b612569868287016122f6565b935050602084013567ffffffffffffffff81111561258657600080fd5b612592868287016122f6565b925050604084013567ffffffffffffffff8111156125af57600080fd5b6125bb868287016122f6565b9150509250925092565b6000602082840312156125d757600080fd5b60006125e584828501612320565b91505092915050565b6125f78161356f565b82525050565b6126068161355d565b82525050565b6126158161355d565b82525050565b61262481613581565b82525050565b6000612635826133f4565b61263f818561340a565b935061264f818560208601613617565b612658816137e1565b840191505092915050565b61266c816135f6565b82525050565b600061267d826133ff565b612687818561341b565b9350612697818560208601613617565b6126a0816137e1565b840191505092915050565b60006126b6826133ff565b6126c0818561342c565b93506126d0818560208601613617565b6126d9816137e1565b840191505092915050565b60006126ef826133ff565b6126f9818561343d565b9350612709818560208601613617565b80840191505092915050565b600061272260098361343d565b91507f7b226e616d65223a2200000000000000000000000000000000000000000000006000830152600982019050919050565b600061276260328361342c565b91507f4552433732313a207472616e7366657220746f206e6f6e20455243373231526560008301527f63656976657220696d706c656d656e74657200000000000000000000000000006020830152604082019050919050565b60006127c8600f8361343d565b91507f226465736372697074696f6e223a2200000000000000000000000000000000006000830152600f82019050919050565b600061280860028361343d565b91507f222c0000000000000000000000000000000000000000000000000000000000006000830152600282019050919050565b6000612848601c8361342c565b91507f4552433732313a20746f6b656e20616c7265616479206d696e746564000000006000830152602082019050919050565b600061288860248361342c565b91507f4552433732313a207472616e7366657220746f20746865207a65726f2061646460008301527f72657373000000000000000000000000000000000000000000000000000000006020830152604082019050919050565b60006128ee60198361342c565b91507f4552433732313a20617070726f766520746f2063616c6c6572000000000000006000830152602082019050919050565b600061292e602c8361342c565b91507f4552433732313a206f70657261746f7220717565727920666f72206e6f6e657860008301527f697374656e7420746f6b656e00000000000000000000000000000000000000006020830152604082019050919050565b600061299460388361342c565b91507f4552433732313a20617070726f76652063616c6c6572206973206e6f74206f7760008301527f6e6572206e6f7220617070726f76656420666f7220616c6c00000000000000006020830152604082019050919050565b60006129fa602a8361342c565b91507f4552433732313a2062616c616e636520717565727920666f7220746865207a6560008301527f726f2061646472657373000000000000000000000000000000000000000000006020830152604082019050919050565b6000612a6060298361342c565b91507f4552433732313a206f776e657220717565727920666f72206e6f6e657869737460008301527f656e7420746f6b656e00000000000000000000000000000000000000000000006020830152604082019050919050565b6000612ac6602e8361342c565b91507f45524337323155524953746f726167653a2055524920736574206f66206e6f6e60008301527f6578697374656e7420746f6b656e0000000000000000000000000000000000006020830152604082019050919050565b6000612b2c60098361343d565b91507f22696d616765223a2200000000000000000000000000000000000000000000006000830152600982019050919050565b6000612b6c60028361343d565b91507f227d0000000000000000000000000000000000000000000000000000000000006000830152600282019050919050565b6000612bac60208361342c565b91507f4552433732313a206d696e7420746f20746865207a65726f20616464726573736000830152602082019050919050565b6000612bec60318361342c565b91507f45524337323155524953746f726167653a2055524920717565727920666f722060008301527f6e6f6e6578697374656e7420746f6b656e0000000000000000000000000000006020830152604082019050919050565b6000612c52602c8361342c565b91507f4552433732313a20617070726f76656420717565727920666f72206e6f6e657860008301527f697374656e7420746f6b656e00000000000000000000000000000000000000006020830152604082019050919050565b6000612cb860298361342c565b91507f4552433732313a207472616e73666572206f6620746f6b656e2074686174206960008301527f73206e6f74206f776e00000000000000000000000000000000000000000000006020830152604082019050919050565b6000612d1e602f8361342c565b91507f4552433732314d657461646174613a2055524920717565727920666f72206e6f60008301527f6e6578697374656e7420746f6b656e00000000000000000000000000000000006020830152604082019050919050565b6000612d8460218361342c565b91507f4552433732313a20617070726f76616c20746f2063757272656e74206f776e6560008301527f72000000000000000000000000000000000000000000000000000000000000006020830152604082019050919050565b6000612dea601d8361343d565b91507f646174613a6170706c69636174696f6e2f6a736f6e3b6261736536342c0000006000830152601d82019050919050565b6000612e2a60318361342c565b91507f4552433732313a207472616e736665722063616c6c6572206973206e6f74206f60008301527f776e6572206e6f7220617070726f7665640000000000000000000000000000006020830152604082019050919050565b6000612e9060108361343d565b91507f2261747472696275746573223a22222c000000000000000000000000000000006000830152601082019050919050565b600060c083016000830151612edb60008601826125fd565b5060208301518482036020860152612ef38282612672565b91505060408301518482036040860152612f0d8282612672565b9150506060830151612f226060860182612f53565b506080830151612f356080860182612f53565b5060a0830151612f4860a0860182612f53565b508091505092915050565b612f5c816135ec565b82525050565b612f6b816135ec565b82525050565b6000612f7d82846126e4565b915081905092915050565b6000612f9482856126e4565b9150612fa082846126e4565b91508190509392505050565b6000612fb782612715565b9150612fc382866126e4565b9150612fce826127fb565b9150612fd9826127bb565b9150612fe582856126e4565b9150612ff0826127fb565b9150612ffb82612e83565b915061300682612b1f565b915061301282846126e4565b915061301d82612b5f565b9150819050949350505050565b600061303582612ddd565b915061304182846126e4565b915081905092915050565b6000602082019050613061600083018461260c565b92915050565b600060208201905061307c60008301846125ee565b92915050565b6000608082019050613097600083018761260c565b6130a4602083018661260c565b6130b16040830185612f62565b81810360608301526130c3818461262a565b905095945050505050565b60006020820190506130e3600083018461261b565b92915050565b60006020820190506130fe6000830184612663565b92915050565b6000602082019050818103600083015261311e81846126ab565b905092915050565b6000602082019050818103600083015261313f81612755565b9050919050565b6000602082019050818103600083015261315f8161283b565b9050919050565b6000602082019050818103600083015261317f8161287b565b9050919050565b6000602082019050818103600083015261319f816128e1565b9050919050565b600060208201905081810360008301526131bf81612921565b9050919050565b600060208201905081810360008301526131df81612987565b9050919050565b600060208201905081810360008301526131ff816129ed565b9050919050565b6000602082019050818103600083015261321f81612a53565b9050919050565b6000602082019050818103600083015261323f81612ab9565b9050919050565b6000602082019050818103600083015261325f81612b9f565b9050919050565b6000602082019050818103600083015261327f81612bdf565b9050919050565b6000602082019050818103600083015261329f81612c45565b9050919050565b600060208201905081810360008301526132bf81612cab565b9050919050565b600060208201905081810360008301526132df81612d11565b9050919050565b600060208201905081810360008301526132ff81612d77565b9050919050565b6000602082019050818103600083015261331f81612e1d565b9050919050565b600060208201905081810360008301526133408184612ec3565b905092915050565b600060208201905061335d6000830184612f62565b92915050565b6000604051905081810181811067ffffffffffffffff8211171561338a576133896137b2565b5b8060405250919050565b600067ffffffffffffffff8211156133af576133ae6137b2565b5b601f19601f8301169050602081019050919050565b600067ffffffffffffffff8211156133df576133de6137b2565b5b601f19601f8301169050602081019050919050565b600081519050919050565b600081519050919050565b600082825260208201905092915050565b600082825260208201905092915050565b600082825260208201905092915050565b600081905092915050565b6000613453826135ec565b915061345e836135ec565b9250827fffffffffffffffffffffffffffffffffffffffffffffffffffffffffffffffff03821115613493576134926136f6565b5b828201905092915050565b60006134a9826135ec565b91506134b4836135ec565b9250826134c4576134c3613725565b5b828204905092915050565b60006134da826135ec565b91506134e5836135ec565b9250817fffffffffffffffffffffffffffffffffffffffffffffffffffffffffffffffff048311821515161561351e5761351d6136f6565b5b828202905092915050565b6000613534826135ec565b915061353f836135ec565b925082821015613552576135516136f6565b5b828203905092915050565b6000613568826135cc565b9050919050565b600061357a826135cc565b9050919050565b60008115159050919050565b60007fffffffff0000000000000000000000000000000000000000000000000000000082169050919050565b60008190506135c7826137f2565b919050565b600073ffffffffffffffffffffffffffffffffffffffff82169050919050565b6000819050919050565b6000613601826135b9565b9050919050565b82818337600083830152505050565b60005b8381101561363557808201518184015260208101905061361a565b83811115613644576000848401525b50505050565b6000600282049050600182168061366257607f821691505b6020821081141561367657613675613783565b5b50919050565b6000613687826135ec565b91507fffffffffffffffffffffffffffffffffffffffffffffffffffffffffffffffff8214156136ba576136b96136f6565b5b600182019050919050565b60006136d0826135ec565b91506136db836135ec565b9250826136eb576136ea613725565b5b828206905092915050565b7f4e487b7100000000000000000000000000000000000000000000000000000000600052601160045260246000fd5b7f4e487b7100000000000000000000000000000000000000000000000000000000600052601260045260246000fd5b7f4e487b7100000000000000000000000000000000000000000000000000000000600052602160045260246000fd5b7f4e487b7100000000000000000000000000000000000000000000000000000000600052602260045260246000fd5b7f4e487b7100000000000000000000000000000000000000000000000000000000600052604160045260246000fd5b6000601f19601f8301169050919050565b6002811061380357613802613754565b5b50565b61380f8161355d565b811461381a57600080fd5b50565b61382681613581565b811461383157600080fd5b50565b61383d8161358d565b811461384857600080fd5b50565b613854816135ec565b811461385f57600080fd5b5056fe4142434445464748494a4b4c4d4e4f505152535455565758595a6162636465666768696a6b6c6d6e6f707172737475767778797a303132333435363738392b2fa26469706673582212206a02a89106fee131592ecf99920639aa00c0b5bf584638cd537681d426082be364736f6c634300080000334142434445464748494a4b4c4d4e4f505152535455565758595a6162636465666768696a6b6c6d6e6f707172737475767778797a303132333435363738392b2f",
  "linkReferences": {},
  "deployedLinkReferences": {}
}