{
  "_format": "hh-sol-artifact-1",
  "contractName": "Auctions",
  "sourceName": "contracts/Users.sol",
  "abi": [
    {
      "inputs": [
        {
          "internalType": "contract NFT",
          "name": "_nftInstance",
          "type": "address"
        }
      ],
      "stateMutability": "nonpayable",
      "type": "constructor"
    },
    {
      "anonymous": false,
      "inputs": [
        {
          "indexed": false,
          "internalType": "contract Auction",
          "name": "auction",
          "type": "address"
        },
        {
          "indexed": false,
          "internalType": "uint256",
          "name": "auctionId",
          "type": "uint256"
        }
      ],
      "name": "AuctionCreated",
      "type": "event"
    },
    {
      "inputs": [
        {
          "internalType": "uint256",
          "name": "",
          "type": "uint256"
        }
      ],
      "name": "auctions",
      "outputs": [
        {
          "internalType": "contract Auction",
          "name": "",
          "type": "address"
        }
      ],
      "stateMutability": "view",
      "type": "function"
    },
    {
      "inputs": [
        {
          "internalType": "address",
          "name": "_userAddress",
          "type": "address"
        },
        {
          "internalType": "uint256",
          "name": "_tokenId",
          "type": "uint256"
        },
        {
          "internalType": "string",
          "name": "_message",
          "type": "string"
        },
        {
          "internalType": "uint256",
          "name": "_startPrice",
          "type": "uint256"
        }
      ],
      "name": "createAuction",
      "outputs": [
        {
          "internalType": "uint256",
          "name": "",
          "type": "uint256"
        }
      ],
      "stateMutability": "payable",
      "type": "function"
    },
    {
      "inputs": [
        {
          "internalType": "uint256",
          "name": "_id",
          "type": "uint256"
        }
      ],
      "name": "getAuctionById",
      "outputs": [
        {
          "internalType": "contract Auction",
          "name": "",
          "type": "address"
        }
      ],
      "stateMutability": "view",
      "type": "function"
    },
    {
      "inputs": [
        {
          "internalType": "address",
          "name": "_userAddress",
          "type": "address"
        }
      ],
      "name": "getAuctionIdsFromAddress",
      "outputs": [
        {
          "internalType": "uint256[]",
          "name": "",
          "type": "uint256[]"
        }
      ],
      "stateMutability": "view",
      "type": "function"
    },
    {
      "inputs": [],
      "name": "getAuctions",
      "outputs": [
        {
          "internalType": "contract Auction[]",
          "name": "",
          "type": "address[]"
        }
      ],
      "stateMutability": "view",
      "type": "function"
    },
    {
      "inputs": [
        {
          "internalType": "uint256",
          "name": "_id",
          "type": "uint256"
        }
      ],
      "name": "getContent",
      "outputs": [
        {
          "components": [
            {
              "internalType": "address",
              "name": "owner",
              "type": "address"
            },
            {
              "internalType": "uint256",
              "name": "nftTokenId",
              "type": "uint256"
            },
            {
              "internalType": "string",
              "name": "message",
              "type": "string"
            },
            {
              "internalType": "uint256",
              "name": "startPrice",
              "type": "uint256"
            },
            {
              "internalType": "uint256",
              "name": "highestPrice",
              "type": "uint256"
            }
          ],
          "internalType": "struct AuctionContent",
          "name": "",
          "type": "tuple"
        }
      ],
      "stateMutability": "view",
      "type": "function"
    },
    {
      "inputs": [],
      "name": "nftInstance",
      "outputs": [
        {
          "internalType": "contract NFT",
          "name": "",
          "type": "address"
        }
      ],
      "stateMutability": "view",
      "type": "function"
    }
  ],
  "bytecode": "0x608060405234801561001057600080fd5b5060405161198e38038061198e83398101604081905261002f91610054565b600180546001600160a01b0319166001600160a01b0392909216919091179055610082565b600060208284031215610065578081fd5b81516001600160a01b038116811461007b578182fd5b9392505050565b6118fd806100916000396000f3fe6080604052600436106200007a5760003560e01c8063571a26a01162000055578063571a26a01462000116578063ac5e4dd8146200013b578063d7c069191462000153578063fab1b018146200017a576200007a565b80630b7ad54c146200007f57806318111ada14620000bc578063481ca8c414620000f0575b600080fd5b3480156200008c57600080fd5b50620000a46200009e3660046200070c565b620001ae565b604051620000b3919062000850565b60405180910390f35b348015620000c957600080fd5b50620000e1620000db3660046200070c565b62000269565b604051620000b39190620007dc565b6200010762000101366004620005b0565b620002a7565b604051620000b39190620008aa565b3480156200012357600080fd5b50620000e1620001353660046200070c565b620003d3565b3480156200014857600080fd5b50620000e1620003fe565b3480156200016057600080fd5b506200016b6200040d565b604051620000b3919062000753565b3480156200018757600080fd5b506200019f620001993660046200058a565b62000471565b604051620000b39190620007a2565b620001b8620004df565b60008281548110620001da57634e487b7160e01b600052603260045260246000fd5b6000918252602082200154604080516359016c7960e01b815290516001600160a01b03909216926359016c7992600480840193829003018186803b1580156200022257600080fd5b505afa15801562000237573d6000803e3d6000fd5b505050506040513d6000823e601f3d908101601f1916820160405262000261919081019062000650565b90505b919050565b60008082815481106200028c57634e487b7160e01b600052603260045260246000fd5b6000918252602090912001546001600160a01b031692915050565b600080600160009054906101000a90046001600160a01b031686868686604051620002d29062000517565b620002e295949392919062000809565b604051809103906000f080158015620002ff573d6000803e3d6000fd5b5060008054600180820183558280527f290decd9548b62a8d60345a988386fc84ba6bc95484008f6362f93160ef3e56390910180546001600160a01b0319166001600160a01b038516179055815492935090916200035e91906200090b565b6001600160a01b038816600090815260026020908152604080832080546001810182559084529190922001829055519091507f3249a06bd478adf780bb7930214ad005e9cfa517d63221c0b77f27199d1a58b390620003c19084908490620007f0565b60405180910390a19695505050505050565b60008181548110620003e457600080fd5b6000918252602090912001546001600160a01b0316905081565b6001546001600160a01b031681565b606060008054806020026020016040519081016040528092919081815260200182805480156200046757602002820191906000526020600020905b81546001600160a01b0316815260019091019060200180831162000448575b5050505050905090565b6001600160a01b038116600090815260026020908152604091829020805483518184028101840190945280845260609392830182828015620004d357602002820191906000526020600020905b815481526020019060010190808311620004be575b50505050509050919050565b6040518060a0016040528060006001600160a01b03168152602001600081526020016060815260200160008152602001600081525090565b610f36806200099283390190565b8051620002648162000978565b600082601f83011262000543578081fd5b81516200055a6200055482620008e0565b620008b3565b8181528460208386010111156200056f578283fd5b620005828260208301602087016200092f565b949350505050565b6000602082840312156200059c578081fd5b8135620005a98162000978565b9392505050565b60008060008060808587031215620005c6578283fd5b8435620005d38162000978565b935060208501359250604085013567ffffffffffffffff811115620005f6578283fd5b8501601f8101871362000607578283fd5b8035620006186200055482620008e0565b8181528860208385010111156200062d578485fd5b816020840160208301379081016020019390935250929591945092606001359150565b60006020828403121562000662578081fd5b815167ffffffffffffffff808211156200067a578283fd5b9083019060a082860312156200068e578283fd5b60405160a081018181108382111715620006ac57620006ac62000962565b604052620006ba8362000525565b815260208301516020820152604083015182811115620006d8578485fd5b620006e68782860162000532565b604083015250606083015160608201526080830151608082015280935050505092915050565b6000602082840312156200071e578081fd5b5035919050565b600081518084526200073f8160208601602086016200092f565b601f01601f19169290920160200192915050565b6020808252825182820181905260009190848201906040850190845b81811015620007965783516001600160a01b0316835292840192918401916001016200076f565b50909695505050505050565b6020808252825182820181905260009190848201906040850190845b818110156200079657835183529284019291840191600101620007be565b6001600160a01b0391909116815260200190565b6001600160a01b03929092168252602082015260400190565b6001600160a01b038681168252851660208201526040810184905260a0606082018190526000906200083e9083018562000725565b90508260808301529695505050505050565b60006020825260018060a01b03835116602083015260208301516040830152604083015160a060608401526200088a60c084018262000725565b905060608401516080840152608084015160a08401528091505092915050565b90815260200190565b60405181810167ffffffffffffffff81118282101715620008d857620008d862000962565b604052919050565b600067ffffffffffffffff821115620008fd57620008fd62000962565b50601f01601f191660200190565b6000828210156200092a57634e487b7160e01b81526011600452602481fd5b500390565b60005b838110156200094c57818101518382015260200162000932565b838111156200095c576000848401525b50505050565b634e487b7160e01b600052604160045260246000fd5b6001600160a01b03811681146200098e57600080fd5b5056fe60806040523480156200001157600080fd5b5060405162000f3638038062000f36833981016040819052620000349162000145565b600080546001600160a01b0319166001600160a01b03861617905560018390558151620000699060049060208501906200009f565b50600255505042600355506000600655600580546001600160a01b0319166001600160a01b0392909216919091179055620002c2565b828054620000ad9062000256565b90600052602060002090601f016020900481019282620000d157600085556200011c565b82601f10620000ec57805160ff19168380011785556200011c565b828001600101855582156200011c579182015b828111156200011c578251825591602001919060010190620000ff565b506200012a9291506200012e565b5090565b5b808211156200012a57600081556001016200012f565b600080600080600060a086880312156200015d578081fd5b85516200016a81620002a9565b809550506020808701516200017f81620002a9565b6040880151606089015191965094506001600160401b0380821115620001a3578384fd5b818901915089601f830112620001b7578384fd5b815181811115620001cc57620001cc62000293565b604051601f8201601f1916810185018381118282101715620001f257620001f262000293565b60405281815283820185018c101562000209578586fd5b8592505b818310156200022c57838301850151818401860152918401916200020d565b818311156200023d57858583830101525b8096505050505050608086015190509295509295909350565b6002810460018216806200026b57607f821691505b602082108114156200028d57634e487b7160e01b600052602260045260246000fd5b50919050565b634e487b7160e01b600052604160045260246000fd5b6001600160a01b0381168114620002bf57600080fd5b50565b610c6480620002d26000396000f3fe6080604052600436106100dd5760003560e01c806391f901571161007f578063d98b9bb511610059578063d98b9bb514610207578063e21f37ce14610227578063f1a9af8914610249578063f77282ab1461025e576100dd565b806391f90157146101bd578063ac5e4dd8146101d2578063cff29dfd146101e7576100dd565b806378e97925116100bb57806378e979251461014f5780637e830574146101645780637fb45099146101795780638da5cb5b1461019b576100dd565b80630e8670e0146100e257806359016c791461010d57806362ea82db1461012f575b600080fd5b3480156100ee57600080fd5b506100f7610273565b6040516101049190610b89565b60405180910390f35b34801561011957600080fd5b50610122610279565b6040516101049190610b31565b34801561013b57600080fd5b506100f761014a3660046108ef565b610349565b34801561015b57600080fd5b506100f761035b565b34801561017057600080fd5b506100f7610361565b34801561018557600080fd5b5061018e610367565b6040516101049190610a16565b3480156101a757600080fd5b506101b0610377565b60405161010491906109a0565b3480156101c957600080fd5b506101b0610386565b3480156101de57600080fd5b506101b0610395565b3480156101f357600080fd5b506101b061020236600461093d565b6103a4565b61021a610215366004610912565b6103ce565b6040516101049190610a0b565b34801561023357600080fd5b5061023c610576565b6040516101049190610a3e565b34801561025557600080fd5b506100f7610604565b34801561026a57600080fd5b5061021a61060a565b60065481565b6102816108b7565b6040805160a0810182526000546001600160a01b0316815260015460208201526004805491928301916102b390610baa565b80601f01602080910402602001604051908101604052809291908181526020018280546102df90610baa565b801561032c5780601f106103015761010080835404028352916020019161032c565b820191906000526020600020905b81548152906001019060200180831161030f57829003601f168201915b505050505081526020016002548152602001600654815250905090565b60096020526000908152604090205481565b60035481565b60015481565b600554600160a01b900460ff1681565b6000546001600160a01b031681565b6007546001600160a01b031681565b6005546001600160a01b031681565b600881815481106103b457600080fd5b6000918252602090912001546001600160a01b0316905081565b600080546001600160a01b03163314156103e757600080fd5b6000600554600160a01b900460ff16600181111561041557634e487b7160e01b600052602160045260246000fd5b1461043b5760405162461bcd60e51b815260040161043290610a86565b60405180910390fd5b6001600160a01b038316600090815260096020526040902054829015610481576001600160a01b03841660009081526009602052604090205461047e9082610b92565b90505b60025481116104a25760405162461bcd60e51b815260040161043290610abd565b60065481116104c35760405162461bcd60e51b815260040161043290610a51565b6001600160a01b0384166000818152600960205260408082208490556008805460018101825592527ff3f7a9fe364faab93b216da50a3214154f22a0a2b415b23a84c8169e8b636ee390910180546001600160a01b03199081168417909155600684905560078054909116909217909155517fe694ab314354b7ccad603c48b44dce6ade8b6a57cbebaa8842edd9a2fb2856f89061056490869084906109f2565b60405180910390a15060019392505050565b6004805461058390610baa565b80601f01602080910402602001604051908101604052809291908181526020018280546105af90610baa565b80156105fc5780601f106105d1576101008083540402835291602001916105fc565b820191906000526020600020905b8154815290600101906020018083116105df57829003601f168201915b505050505081565b60025481565b600080546001600160a01b031632146106355760405162461bcd60e51b815260040161043290610b06565b6000546040517fe5e2bce9e76c912c3d6fc169f304f87b8bf818006a5591a92f6ab225a12acd3d91610674916001600160a01b039091169030906109b4565b60405180910390a16007546001600160a01b0316156108505760065460055460005460075460015460405163044ed6fd60e31b81526001600160a01b0394851694632276b7e8946106ce94908216939116916004016109ce565b600060405180830381600087803b1580156106e857600080fd5b505af11580156106fc573d6000803e3d6000fd5b5050600080546040516001600160a01b03909116935084156108fc0292508491818181858888f19350505050158015610739573d6000803e3d6000fd5b5060005b60085481101561084d576008818154811061076857634e487b7160e01b600052603260045260246000fd5b6000918252602090912001546007546001600160a01b0390811691161461083b57600881815481106107aa57634e487b7160e01b600052603260045260246000fd5b6000918252602082200154600880546001600160a01b03909216926108fc9260099290869081106107eb57634e487b7160e01b600052603260045260246000fd5b60009182526020808320909101546001600160a01b03168352820192909252604090810182205490518115909302929091818181858888f19350505050158015610839573d6000803e3d6000fd5b505b8061084581610be5565b91505061073d565b50505b6005805460ff60a01b1916600160a01b1790556000546007546001546040517f078425ff798039982daf0c9ed140efbe65ee522d10be108feb88e65762bc7aef936108a9936001600160a01b03918216939116916109ce565b60405180910390a150600190565b6040518060a0016040528060006001600160a01b03168152602001600081526020016060815260200160008152602001600081525090565b600060208284031215610900578081fd5b813561090b81610c16565b9392505050565b60008060408385031215610924578081fd5b823561092f81610c16565b946020939093013593505050565b60006020828403121561094e578081fd5b5035919050565b60008151808452815b8181101561097a5760208185018101518683018201520161095e565b8181111561098b5782602083870101525b50601f01601f19169290920160200192915050565b6001600160a01b0391909116815260200190565b6001600160a01b0392831681529116602082015260400190565b6001600160a01b039384168152919092166020820152604081019190915260600190565b6001600160a01b03929092168252602082015260400190565b901515815260200190565b6020810160028310610a3857634e487b7160e01b600052602160045260246000fd5b91905290565b60006020825261090b6020830184610955565b6020808252818101527f596f75722062696420697320746f6f206c6f772e20496e637265617365206974604082015260600190565b60208082526019908201527f41756374696f6e20697320616c726561647920636c6f73656400000000000000604082015260600190565b60208082526029908201527f596f75206d75737420706179206d6f7265207468616e20746865207374617274604082015268696e6720707269636560b81b606082015260800190565b6020808252601190820152702cb7ba9030b932903737ba1037bbb732b960791b604082015260600190565b60006020825260018060a01b03835116602083015260208301516040830152604083015160a06060840152610b6960c0840182610955565b905060608401516080840152608084015160a08401528091505092915050565b90815260200190565b60008219821115610ba557610ba5610c00565b500190565b600281046001821680610bbe57607f821691505b60208210811415610bdf57634e487b7160e01b600052602260045260246000fd5b50919050565b6000600019821415610bf957610bf9610c00565b5060010190565b634e487b7160e01b600052601160045260246000fd5b6001600160a01b0381168114610c2b57600080fd5b5056fea2646970667358221220499dee41173652543daaf51b9be68d4dc2677f714f1f6f347297c416f54723d764736f6c63430008000033a2646970667358221220e9a6543ece83dd1e99af14c1cf967c62a7c650d26e7f5db398bc88111c9ef3a564736f6c63430008000033",
  "linkReferences": {},
  "deployedLinkReferences": {}
}