{
  "_format": "hh-sol-artifact-1",
  "contractName": "Auction",
  "sourceName": "contracts/AuctionBox.sol",
  "abi": [
    {
      "inputs": [
        {
          "internalType": "address payable",
          "name": "_owner",
          "type": "address"
        },
        {
          "internalType": "string",
          "name": "_title",
          "type": "string"
        },
        {
          "internalType": "string",
          "name": "_description",
          "type": "string"
        },
        {
          "internalType": "string",
          "name": "_svg",
          "type": "string"
        },
        {
          "internalType": "uint256",
          "name": "_startPrice",
          "type": "uint256"
        },
        {
          "internalType": "uint256",
          "name": "_duration",
          "type": "uint256"
        }
      ],
      "stateMutability": "nonpayable",
      "type": "constructor"
    },
    {
      "anonymous": false,
      "inputs": [
        {
          "indexed": true,
          "internalType": "address",
          "name": "owner",
          "type": "address"
        },
        {
          "indexed": true,
          "internalType": "address",
          "name": "approved",
          "type": "address"
        },
        {
          "indexed": true,
          "internalType": "uint256",
          "name": "tokenId",
          "type": "uint256"
        }
      ],
      "name": "Approval",
      "type": "event"
    },
    {
      "anonymous": false,
      "inputs": [
        {
          "indexed": true,
          "internalType": "address",
          "name": "owner",
          "type": "address"
        },
        {
          "indexed": true,
          "internalType": "address",
          "name": "operator",
          "type": "address"
        },
        {
          "indexed": false,
          "internalType": "bool",
          "name": "approved",
          "type": "bool"
        }
      ],
      "name": "ApprovalForAll",
      "type": "event"
    },
    {
      "anonymous": false,
      "inputs": [
        {
          "indexed": false,
          "internalType": "uint256",
          "name": "newItemId",
          "type": "uint256"
        },
        {
          "indexed": false,
          "internalType": "string",
          "name": "tokenURI",
          "type": "string"
        }
      ],
      "name": "NFTCreated",
      "type": "event"
    },
    {
      "anonymous": false,
      "inputs": [
        {
          "indexed": true,
          "internalType": "address",
          "name": "from",
          "type": "address"
        },
        {
          "indexed": true,
          "internalType": "address",
          "name": "to",
          "type": "address"
        },
        {
          "indexed": true,
          "internalType": "uint256",
          "name": "tokenId",
          "type": "uint256"
        }
      ],
      "name": "Transfer",
      "type": "event"
    },
    {
      "inputs": [
        {
          "internalType": "address",
          "name": "to",
          "type": "address"
        },
        {
          "internalType": "uint256",
          "name": "tokenId",
          "type": "uint256"
        }
      ],
      "name": "approve",
      "outputs": [],
      "stateMutability": "nonpayable",
      "type": "function"
    },
    {
      "inputs": [],
      "name": "auctionState",
      "outputs": [
        {
          "internalType": "enum Auction.State",
          "name": "",
          "type": "uint8"
        }
      ],
      "stateMutability": "view",
      "type": "function"
    },
    {
      "inputs": [
        {
          "internalType": "address",
          "name": "owner",
          "type": "address"
        }
      ],
      "name": "balanceOf",
      "outputs": [
        {
          "internalType": "uint256",
          "name": "",
          "type": "uint256"
        }
      ],
      "stateMutability": "view",
      "type": "function"
    },
    {
      "inputs": [
        {
          "internalType": "address",
          "name": "",
          "type": "address"
        }
      ],
      "name": "bids",
      "outputs": [
        {
          "internalType": "uint256",
          "name": "",
          "type": "uint256"
        }
      ],
      "stateMutability": "view",
      "type": "function"
    },
    {
      "inputs": [],
      "name": "descriprion",
      "outputs": [
        {
          "internalType": "string",
          "name": "",
          "type": "string"
        }
      ],
      "stateMutability": "view",
      "type": "function"
    },
    {
      "inputs": [],
      "name": "endTime",
      "outputs": [
        {
          "internalType": "uint256",
          "name": "",
          "type": "uint256"
        }
      ],
      "stateMutability": "view",
      "type": "function"
    },
    {
      "inputs": [
        {
          "internalType": "uint256",
          "name": "tokenId",
          "type": "uint256"
        }
      ],
      "name": "getApproved",
      "outputs": [
        {
          "internalType": "address",
          "name": "",
          "type": "address"
        }
      ],
      "stateMutability": "view",
      "type": "function"
    },
    {
      "inputs": [],
      "name": "getContent",
      "outputs": [
        {
          "components": [
            {
              "internalType": "address",
              "name": "owner",
              "type": "address"
            },
            {
              "internalType": "string",
              "name": "title",
              "type": "string"
            },
            {
              "internalType": "string",
              "name": "description",
              "type": "string"
            },
            {
              "internalType": "uint256",
              "name": "nftTokenId",
              "type": "uint256"
            },
            {
              "internalType": "uint256",
              "name": "startPrice",
              "type": "uint256"
            },
            {
              "internalType": "uint256",
              "name": "endTime",
              "type": "uint256"
            }
          ],
          "internalType": "struct AuctionContent",
          "name": "",
          "type": "tuple"
        }
      ],
      "stateMutability": "view",
      "type": "function"
    },
    {
      "inputs": [],
      "name": "getTitle",
      "outputs": [
        {
          "internalType": "string",
          "name": "",
          "type": "string"
        }
      ],
      "stateMutability": "view",
      "type": "function"
    },
    {
      "inputs": [],
      "name": "highestBidder",
      "outputs": [
        {
          "internalType": "address payable",
          "name": "",
          "type": "address"
        }
      ],
      "stateMutability": "view",
      "type": "function"
    },
    {
      "inputs": [],
      "name": "highestPrice",
      "outputs": [
        {
          "internalType": "uint256",
          "name": "",
          "type": "uint256"
        }
      ],
      "stateMutability": "view",
      "type": "function"
    },
    {
      "inputs": [
        {
          "internalType": "address",
          "name": "owner",
          "type": "address"
        },
        {
          "internalType": "address",
          "name": "operator",
          "type": "address"
        }
      ],
      "name": "isApprovedForAll",
      "outputs": [
        {
          "internalType": "bool",
          "name": "",
          "type": "bool"
        }
      ],
      "stateMutability": "view",
      "type": "function"
    },
    {
      "inputs": [
        {
          "internalType": "string",
          "name": "svg",
          "type": "string"
        },
        {
          "internalType": "string",
          "name": "_title",
          "type": "string"
        },
        {
          "internalType": "string",
          "name": "_description",
          "type": "string"
        }
      ],
      "name": "mintNFT",
      "outputs": [
        {
          "internalType": "uint256",
          "name": "",
          "type": "uint256"
        }
      ],
      "stateMutability": "nonpayable",
      "type": "function"
    },
    {
      "inputs": [],
      "name": "name",
      "outputs": [
        {
          "internalType": "string",
          "name": "",
          "type": "string"
        }
      ],
      "stateMutability": "view",
      "type": "function"
    },
    {
      "inputs": [],
      "name": "nftTokenId",
      "outputs": [
        {
          "internalType": "uint256",
          "name": "",
          "type": "uint256"
        }
      ],
      "stateMutability": "view",
      "type": "function"
    },
    {
      "inputs": [
        {
          "internalType": "uint256",
          "name": "tokenId",
          "type": "uint256"
        }
      ],
      "name": "ownerOf",
      "outputs": [
        {
          "internalType": "address",
          "name": "",
          "type": "address"
        }
      ],
      "stateMutability": "view",
      "type": "function"
    },
    {
      "inputs": [
        {
          "internalType": "address",
          "name": "from",
          "type": "address"
        },
        {
          "internalType": "address",
          "name": "to",
          "type": "address"
        },
        {
          "internalType": "uint256",
          "name": "tokenId",
          "type": "uint256"
        }
      ],
      "name": "safeTransferFrom",
      "outputs": [],
      "stateMutability": "nonpayable",
      "type": "function"
    },
    {
      "inputs": [
        {
          "internalType": "address",
          "name": "from",
          "type": "address"
        },
        {
          "internalType": "address",
          "name": "to",
          "type": "address"
        },
        {
          "internalType": "uint256",
          "name": "tokenId",
          "type": "uint256"
        },
        {
          "internalType": "bytes",
          "name": "_data",
          "type": "bytes"
        }
      ],
      "name": "safeTransferFrom",
      "outputs": [],
      "stateMutability": "nonpayable",
      "type": "function"
    },
    {
      "inputs": [
        {
          "internalType": "address",
          "name": "operator",
          "type": "address"
        },
        {
          "internalType": "bool",
          "name": "approved",
          "type": "bool"
        }
      ],
      "name": "setApprovalForAll",
      "outputs": [],
      "stateMutability": "nonpayable",
      "type": "function"
    },
    {
      "inputs": [],
      "name": "startPrice",
      "outputs": [
        {
          "internalType": "uint256",
          "name": "",
          "type": "uint256"
        }
      ],
      "stateMutability": "view",
      "type": "function"
    },
    {
      "inputs": [
        {
          "internalType": "bytes4",
          "name": "interfaceId",
          "type": "bytes4"
        }
      ],
      "name": "supportsInterface",
      "outputs": [
        {
          "internalType": "bool",
          "name": "",
          "type": "bool"
        }
      ],
      "stateMutability": "view",
      "type": "function"
    },
    {
      "inputs": [],
      "name": "symbol",
      "outputs": [
        {
          "internalType": "string",
          "name": "",
          "type": "string"
        }
      ],
      "stateMutability": "view",
      "type": "function"
    },
    {
      "inputs": [],
      "name": "title",
      "outputs": [
        {
          "internalType": "string",
          "name": "",
          "type": "string"
        }
      ],
      "stateMutability": "view",
      "type": "function"
    },
    {
      "inputs": [],
      "name": "tokenCounter",
      "outputs": [
        {
          "internalType": "uint256",
          "name": "",
          "type": "uint256"
        }
      ],
      "stateMutability": "view",
      "type": "function"
    },
    {
      "inputs": [
        {
          "internalType": "uint256",
          "name": "tokenId",
          "type": "uint256"
        }
      ],
      "name": "tokenURI",
      "outputs": [
        {
          "internalType": "string",
          "name": "",
          "type": "string"
        }
      ],
      "stateMutability": "view",
      "type": "function"
    },
    {
      "inputs": [
        {
          "internalType": "address",
          "name": "from",
          "type": "address"
        },
        {
          "internalType": "address",
          "name": "to",
          "type": "address"
        },
        {
          "internalType": "uint256",
          "name": "tokenId",
          "type": "uint256"
        }
      ],
      "name": "transferFrom",
      "outputs": [],
      "stateMutability": "nonpayable",
      "type": "function"
    }
  ],
  "bytecode": "0x60806040523480156200001157600080fd5b5060405162004b8538038062004b85833981810160405281019062000037919062000939565b6040518060400160405280600981526020017f4e69676761204e465400000000000000000000000000000000000000000000008152506040518060400160405280600881526020017f4e696767614e46540000000000000000000000000000000000000000000000008152508160009080519060200190620000bb929190620007e9565b508060019080519060200190620000d4929190620007e9565b505050600060078190555085600860006101000a81548173ffffffffffffffffffffffffffffffffffffffff021916908373ffffffffffffffffffffffffffffffffffffffff160217905550846009908051906020019062000138929190620007e9565b5083600c908051906020019062000151929190620007e9565b5081600a81905550804262000167919062000f7e565b600b819055506000600781905550620001888386866200019a60201b60201c565b600d819055505050505050506200126d565b6000806007549050620001b433826200025460201b60201c565b6000620001c7866200043a60201b60201c565b90506000620001de828787620004de60201b60201c565b9050620001f283826200054560201b60201c565b7fe883eeefa7f620d513eac93479fc9f54ce03f9f4a72c0d818311a9d19556e87983826040516200022592919062000ebc565b60405180910390a16007600081548092919062000242906200111e565b91905055508293505050509392505050565b600073ffffffffffffffffffffffffffffffffffffffff168273ffffffffffffffffffffffffffffffffffffffff161415620002c7576040517f08c379a0000000000000000000000000000000000000000000000000000000008152600401620002be9062000e9a565b60405180910390fd5b620002d881620005c660201b60201c565b156200031b576040517f08c379a0000000000000000000000000000000000000000000000000000000008152600401620003129062000e56565b60405180910390fd5b6200032f600083836200063260201b60201c565b6001600360008473ffffffffffffffffffffffffffffffffffffffff1673ffffffffffffffffffffffffffffffffffffffff168152602001908152602001600020600082825462000381919062000f7e565b92505081905550816002600083815260200190815260200160002060006101000a81548173ffffffffffffffffffffffffffffffffffffffff021916908373ffffffffffffffffffffffffffffffffffffffff160217905550808273ffffffffffffffffffffffffffffffffffffffff16600073ffffffffffffffffffffffffffffffffffffffff167fddf252ad1be2c89b69c2b068fc378daa952ba7f163c4a11628f55a4df523b3ef60405160405180910390a45050565b606060006040518060400160405280601a81526020017f646174613a696d6167652f7376672b786d6c3b6261736536342c00000000000081525090506000620004af846040516020016200048f919062000d5d565b6040516020818303038152906040526200063760201b6200114f1760201c565b90508181604051602001620004c692919062000d76565b60405160208183030381529060405292505050919050565b60606200051b838386604051602001620004fb9392919062000d9e565b6040516020818303038152906040526200063760201b6200114f1760201c565b6040516020016200052d919062000e30565b60405160208183030381529060405290509392505050565b6200055682620005c660201b60201c565b62000598576040517f08c379a00000000000000000000000000000000000000000000000000000000081526004016200058f9062000e78565b60405180910390fd5b80600660008481526020019081526020016000209080519060200190620005c1929190620007e9565b505050565b60008073ffffffffffffffffffffffffffffffffffffffff166002600084815260200190815260200160002060009054906101000a900473ffffffffffffffffffffffffffffffffffffffff1673ffffffffffffffffffffffffffffffffffffffff1614159050919050565b505050565b60606000825114156200065c57604051806020016040528060008152509050620007e4565b600060405180606001604052806040815260200162004b4560409139905060006003600285516200068e919062000f7e565b6200069a919062000fdb565b6004620006a8919062001013565b90506000602082620006bb919062000f7e565b67ffffffffffffffff811115620006fb577f4e487b7100000000000000000000000000000000000000000000000000000000600052604160045260246000fd5b6040519080825280601f01601f1916602001820160405280156200072e5781602001600182028036833780820191505090505b509050818152600183018586518101602084015b818310156200079f576003830192508251603f8160121c168501518253600182019150603f81600c1c168501518253600182019150603f8160061c168501518253600182019150603f811685015182536001820191505062000742565b600389510660018114620007bc5760028114620007cd57620007d8565b613d3d60f01b6002830352620007d8565b603d60f81b60018303525b50505050508093505050505b919050565b828054620007f790620010e8565b90600052602060002090601f0160209004810192826200081b576000855562000867565b82601f106200083657805160ff191683800117855562000867565b8280016001018555821562000867579182015b828111156200086657825182559160200191906001019062000849565b5b5090506200087691906200087a565b5090565b5b80821115620008955760008160009055506001016200087b565b5090565b6000620008b0620008aa8462000f24565b62000ef0565b905082815260208101848484011115620008c957600080fd5b620008d6848285620010b2565b509392505050565b600081519050620008ef8162001239565b92915050565b600082601f8301126200090757600080fd5b81516200091984826020860162000899565b91505092915050565b600081519050620009338162001253565b92915050565b60008060008060008060c087890312156200095357600080fd5b60006200096389828a01620008de565b965050602087015167ffffffffffffffff8111156200098157600080fd5b6200098f89828a01620008f5565b955050604087015167ffffffffffffffff811115620009ad57600080fd5b620009bb89828a01620008f5565b945050606087015167ffffffffffffffff811115620009d957600080fd5b620009e789828a01620008f5565b9350506080620009fa89828a0162000922565b92505060a062000a0d89828a0162000922565b9150509295509295509295565b600062000a278262000f57565b62000a33818562000f62565b935062000a45818560208601620010b2565b62000a508162001228565b840191505092915050565b600062000a688262000f57565b62000a74818562000f73565b935062000a86818560208601620010b2565b80840191505092915050565b600062000aa160098362000f73565b91507f7b226e616d65223a2200000000000000000000000000000000000000000000006000830152600982019050919050565b600062000ae3600f8362000f73565b91507f226465736372697074696f6e223a2200000000000000000000000000000000006000830152600f82019050919050565b600062000b2560028362000f73565b91507f222c0000000000000000000000000000000000000000000000000000000000006000830152600282019050919050565b600062000b67601c8362000f62565b91507f4552433732313a20746f6b656e20616c7265616479206d696e746564000000006000830152602082019050919050565b600062000ba9602e8362000f62565b91507f45524337323155524953746f726167653a2055524920736574206f66206e6f6e60008301527f6578697374656e7420746f6b656e0000000000000000000000000000000000006020830152604082019050919050565b600062000c1160098362000f73565b91507f22696d616765223a2200000000000000000000000000000000000000000000006000830152600982019050919050565b600062000c5360028362000f73565b91507f227d0000000000000000000000000000000000000000000000000000000000006000830152600282019050919050565b600062000c9560208362000f62565b91507f4552433732313a206d696e7420746f20746865207a65726f20616464726573736000830152602082019050919050565b600062000cd7601d8362000f73565b91507f646174613a6170706c69636174696f6e2f6a736f6e3b6261736536342c0000006000830152601d82019050919050565b600062000d1960108362000f73565b91507f2261747472696275746573223a22222c000000000000000000000000000000006000830152601082019050919050565b62000d5781620010a8565b82525050565b600062000d6b828462000a5b565b915081905092915050565b600062000d84828562000a5b565b915062000d92828462000a5b565b91508190509392505050565b600062000dab8262000a92565b915062000db9828662000a5b565b915062000dc68262000b16565b915062000dd38262000ad4565b915062000de1828562000a5b565b915062000dee8262000b16565b915062000dfb8262000d0a565b915062000e088262000c02565b915062000e16828462000a5b565b915062000e238262000c44565b9150819050949350505050565b600062000e3d8262000cc8565b915062000e4b828462000a5b565b915081905092915050565b6000602082019050818103600083015262000e718162000b58565b9050919050565b6000602082019050818103600083015262000e938162000b9a565b9050919050565b6000602082019050818103600083015262000eb58162000c86565b9050919050565b600060408201905062000ed3600083018562000d4c565b818103602083015262000ee7818462000a1a565b90509392505050565b6000604051905081810181811067ffffffffffffffff8211171562000f1a5762000f19620011f9565b5b8060405250919050565b600067ffffffffffffffff82111562000f425762000f41620011f9565b5b601f19601f8301169050602081019050919050565b600081519050919050565b600082825260208201905092915050565b600081905092915050565b600062000f8b82620010a8565b915062000f9883620010a8565b9250827fffffffffffffffffffffffffffffffffffffffffffffffffffffffffffffffff0382111562000fd05762000fcf6200116c565b5b828201905092915050565b600062000fe882620010a8565b915062000ff583620010a8565b9250826200100857620010076200119b565b5b828204905092915050565b60006200102082620010a8565b91506200102d83620010a8565b9250817fffffffffffffffffffffffffffffffffffffffffffffffffffffffffffffffff04831182151516156200106957620010686200116c565b5b828202905092915050565b6000620010818262001088565b9050919050565b600073ffffffffffffffffffffffffffffffffffffffff82169050919050565b6000819050919050565b60005b83811015620010d2578082015181840152602081019050620010b5565b83811115620010e2576000848401525b50505050565b600060028204905060018216806200110157607f821691505b60208210811415620011185762001117620011ca565b5b50919050565b60006200112b82620010a8565b91507fffffffffffffffffffffffffffffffffffffffffffffffffffffffffffffffff8214156200116157620011606200116c565b5b600182019050919050565b7f4e487b7100000000000000000000000000000000000000000000000000000000600052601160045260246000fd5b7f4e487b7100000000000000000000000000000000000000000000000000000000600052601260045260246000fd5b7f4e487b7100000000000000000000000000000000000000000000000000000000600052602260045260246000fd5b7f4e487b7100000000000000000000000000000000000000000000000000000000600052604160045260246000fd5b6000601f19601f8301169050919050565b620012448162001074565b81146200125057600080fd5b50565b6200125e81620010a8565b81146200126a57600080fd5b50565b6138c8806200127d6000396000f3fe608060405234801561001057600080fd5b506004361061018e5760003560e01c806369602408116100de578063a22cb46511610097578063d082e38111610071578063d082e3811461049b578063e985e9c5146104b9578063f1a9af89146104e9578063ff3c1a8f146105075761018e565b8063a22cb46514610433578063b88d4fde1461044f578063c87b56dd1461046b5761018e565b8063696024081461036d57806370a082311461038b5780637e830574146103bb5780637fb45099146103d957806391f90157146103f757806395d89b41146104155761018e565b806323b872dd1161014b5780634a79d50c116101255780634a79d50c146102d157806359016c79146102ef57806362ea82db1461030d5780636352211e1461033d5761018e565b806323b872dd1461027b5780633197cbb61461029757806342842e0e146102b55761018e565b806301ffc9a71461019357806306fdde03146101c3578063081812fc146101e1578063095ea7b3146102115780630c3b7b721461022d5780630e8670e01461025d575b600080fd5b6101ad60048036038101906101a8919061249c565b610525565b6040516101ba919061308e565b60405180910390f35b6101cb610607565b6040516101d891906130c4565b60405180910390f35b6101fb60048036038101906101f69190612585565b610699565b604051610208919061300c565b60405180910390f35b61022b60048036038101906102269190612460565b61071e565b005b610247600480360381019061024291906124ee565b610836565b6040516102549190613308565b60405180910390f35b6102656108cc565b6040516102729190613308565b60405180910390f35b6102956004803603810190610290919061235a565b6108d2565b005b61029f610932565b6040516102ac9190613308565b60405180910390f35b6102cf60048036038101906102ca919061235a565b610938565b005b6102d9610958565b6040516102e691906130c4565b60405180910390f35b6102f76109e6565b60405161030491906132e6565b60405180910390f35b610327600480360381019061032291906122f5565b610b72565b6040516103349190613308565b60405180910390f35b61035760048036038101906103529190612585565b610b8a565b604051610364919061300c565b60405180910390f35b610375610c3c565b60405161038291906130c4565b60405180910390f35b6103a560048036038101906103a091906122f5565b610cca565b6040516103b29190613308565b60405180910390f35b6103c3610d82565b6040516103d09190613308565b60405180910390f35b6103e1610d88565b6040516103ee91906130a9565b60405180910390f35b6103ff610d9b565b60405161040c9190613027565b60405180910390f35b61041d610dc1565b60405161042a91906130c4565b60405180910390f35b61044d60048036038101906104489190612424565b610e53565b005b610469600480360381019061046491906123a9565b610e69565b005b61048560048036038101906104809190612585565b610ecb565b60405161049291906130c4565b60405180910390f35b6104a361101d565b6040516104b09190613308565b60405180910390f35b6104d360048036038101906104ce919061231e565b611023565b6040516104e0919061308e565b60405180910390f35b6104f16110b7565b6040516104fe9190613308565b60405180910390f35b61050f6110bd565b60405161051c91906130c4565b60405180910390f35b60007f80ac58cd000000000000000000000000000000000000000000000000000000007bffffffffffffffffffffffffffffffffffffffffffffffffffffffff1916827bffffffffffffffffffffffffffffffffffffffffffffffffffffffff191614806105f057507f5b5e139f000000000000000000000000000000000000000000000000000000007bffffffffffffffffffffffffffffffffffffffffffffffffffffffff1916827bffffffffffffffffffffffffffffffffffffffffffffffffffffffff1916145b8061060057506105ff826112ee565b5b9050919050565b6060600080546106169061363a565b80601f01602080910402602001604051908101604052809291908181526020018280546106429061363a565b801561068f5780601f106106645761010080835404028352916020019161068f565b820191906000526020600020905b81548152906001019060200180831161067257829003601f168201915b5050505050905090565b60006106a482611358565b6106e3576040517f08c379a00000000000000000000000000000000000000000000000000000000081526004016106da90613246565b60405180910390fd5b6004600083815260200190815260200160002060009054906101000a900473ffffffffffffffffffffffffffffffffffffffff169050919050565b600061072982610b8a565b90508073ffffffffffffffffffffffffffffffffffffffff168373ffffffffffffffffffffffffffffffffffffffff16141561079a576040517f08c379a0000000000000000000000000000000000000000000000000000000008152600401610791906132a6565b60405180910390fd5b8073ffffffffffffffffffffffffffffffffffffffff166107b96113c4565b73ffffffffffffffffffffffffffffffffffffffff1614806107e857506107e7816107e26113c4565b611023565b5b610827576040517f08c379a000000000000000000000000000000000000000000000000000000000815260040161081e90613186565b60405180910390fd5b61083183836113cc565b505050565b60008060075490506108483382611485565b600061085386611653565b905060006108628287876116e6565b905061086e838261173c565b7fe883eeefa7f620d513eac93479fc9f54ce03f9f4a72c0d818311a9d19556e879838260405161089f929190613323565b60405180910390a1600760008154809291906108ba9061366c565b91905055508293505050509392505050565b600f5481565b6108e36108dd6113c4565b826117b0565b610922576040517f08c379a0000000000000000000000000000000000000000000000000000000008152600401610919906132c6565b60405180910390fd5b61092d83838361188e565b505050565b600b5481565b61095383838360405180602001604052806000815250610e69565b505050565b600980546109659061363a565b80601f01602080910402602001604051908101604052809291908181526020018280546109919061363a565b80156109de5780601f106109b3576101008083540402835291602001916109de565b820191906000526020600020905b8154815290600101906020018083116109c157829003601f168201915b505050505081565b6109ee6120cd565b6040518060c00160405280600860009054906101000a900473ffffffffffffffffffffffffffffffffffffffff1673ffffffffffffffffffffffffffffffffffffffff16815260200160098054610a449061363a565b80601f0160208091040260200160405190810160405280929190818152602001828054610a709061363a565b8015610abd5780601f10610a9257610100808354040283529160200191610abd565b820191906000526020600020905b815481529060010190602001808311610aa057829003601f168201915b50505050508152602001600c8054610ad49061363a565b80601f0160208091040260200160405190810160405280929190818152602001828054610b009061363a565b8015610b4d5780601f10610b2257610100808354040283529160200191610b4d565b820191906000526020600020905b815481529060010190602001808311610b3057829003601f168201915b50505050508152602001600d548152602001600a548152602001600b54815250905090565b60116020528060005260406000206000915090505481565b6000806002600084815260200190815260200160002060009054906101000a900473ffffffffffffffffffffffffffffffffffffffff169050600073ffffffffffffffffffffffffffffffffffffffff168173ffffffffffffffffffffffffffffffffffffffff161415610c33576040517f08c379a0000000000000000000000000000000000000000000000000000000008152600401610c2a906131c6565b60405180910390fd5b80915050919050565b600c8054610c499061363a565b80601f0160208091040260200160405190810160405280929190818152602001828054610c759061363a565b8015610cc25780601f10610c9757610100808354040283529160200191610cc2565b820191906000526020600020905b815481529060010190602001808311610ca557829003601f168201915b505050505081565b60008073ffffffffffffffffffffffffffffffffffffffff168273ffffffffffffffffffffffffffffffffffffffff161415610d3b576040517f08c379a0000000000000000000000000000000000000000000000000000000008152600401610d32906131a6565b60405180910390fd5b600360008373ffffffffffffffffffffffffffffffffffffffff1673ffffffffffffffffffffffffffffffffffffffff168152602001908152602001600020549050919050565b600d5481565b600e60009054906101000a900460ff1681565b601060009054906101000a900473ffffffffffffffffffffffffffffffffffffffff1681565b606060018054610dd09061363a565b80601f0160208091040260200160405190810160405280929190818152602001828054610dfc9061363a565b8015610e495780601f10610e1e57610100808354040283529160200191610e49565b820191906000526020600020905b815481529060010190602001808311610e2c57829003601f168201915b5050505050905090565b610e65610e5e6113c4565b8383611aea565b5050565b610e7a610e746113c4565b836117b0565b610eb9576040517f08c379a0000000000000000000000000000000000000000000000000000000008152600401610eb0906132c6565b60405180910390fd5b610ec584848484611c57565b50505050565b6060610ed682611358565b610f15576040517f08c379a0000000000000000000000000000000000000000000000000000000008152600401610f0c90613226565b60405180910390fd5b6000600660008481526020019081526020016000208054610f359061363a565b80601f0160208091040260200160405190810160405280929190818152602001828054610f619061363a565b8015610fae5780601f10610f8357610100808354040283529160200191610fae565b820191906000526020600020905b815481529060010190602001808311610f9157829003601f168201915b505050505090506000610fbf611cb3565b9050600081511415610fd5578192505050611018565b60008251111561100a578082604051602001610ff2929190612f48565b60405160208183030381529060405292505050611018565b61101384611cca565b925050505b919050565b60075481565b6000600560008473ffffffffffffffffffffffffffffffffffffffff1673ffffffffffffffffffffffffffffffffffffffff16815260200190815260200160002060008373ffffffffffffffffffffffffffffffffffffffff1673ffffffffffffffffffffffffffffffffffffffff16815260200190815260200160002060009054906101000a900460ff16905092915050565b600a5481565b6060600980546110cc9061363a565b80601f01602080910402602001604051908101604052809291908181526020018280546110f89061363a565b80156111455780601f1061111a57610100808354040283529160200191611145565b820191906000526020600020905b81548152906001019060200180831161112857829003601f168201915b5050505050905090565b6060600082511415611172576040518060200160405280600081525090506112e9565b600060405180606001604052806040815260200161385360409139905060006003600285516111a19190613438565b6111ab919061348e565b60046111b791906134bf565b905060006020826111c89190613438565b67ffffffffffffffff811115611207577f4e487b7100000000000000000000000000000000000000000000000000000000600052604160045260246000fd5b6040519080825280601f01601f1916602001820160405280156112395781602001600182028036833780820191505090505b509050818152600183018586518101602084015b818310156112a8576003830192508251603f8160121c168501518253600182019150603f81600c1c168501518253600182019150603f8160061c168501518253600182019150603f811685015182536001820191505061124d565b6003895106600181146112c257600281146112d2576112dd565b613d3d60f01b60028303526112dd565b603d60f81b60018303525b50505050508093505050505b919050565b60007f01ffc9a7000000000000000000000000000000000000000000000000000000007bffffffffffffffffffffffffffffffffffffffffffffffffffffffff1916827bffffffffffffffffffffffffffffffffffffffffffffffffffffffff1916149050919050565b60008073ffffffffffffffffffffffffffffffffffffffff166002600084815260200190815260200160002060009054906101000a900473ffffffffffffffffffffffffffffffffffffffff1673ffffffffffffffffffffffffffffffffffffffff1614159050919050565b600033905090565b816004600083815260200190815260200160002060006101000a81548173ffffffffffffffffffffffffffffffffffffffff021916908373ffffffffffffffffffffffffffffffffffffffff160217905550808273ffffffffffffffffffffffffffffffffffffffff1661143f83610b8a565b73ffffffffffffffffffffffffffffffffffffffff167f8c5be1e5ebec7d5bd14f71427d1e84f3dd0314c0f7b2291e5b200ac8c7c3b92560405160405180910390a45050565b600073ffffffffffffffffffffffffffffffffffffffff168273ffffffffffffffffffffffffffffffffffffffff1614156114f5576040517f08c379a00000000000000000000000000000000000000000000000000000000081526004016114ec90613206565b60405180910390fd5b6114fe81611358565b1561153e576040517f08c379a000000000000000000000000000000000000000000000000000000000815260040161153590613106565b60405180910390fd5b61154a60008383611d71565b6001600360008473ffffffffffffffffffffffffffffffffffffffff1673ffffffffffffffffffffffffffffffffffffffff168152602001908152602001600020600082825461159a9190613438565b92505081905550816002600083815260200190815260200160002060006101000a81548173ffffffffffffffffffffffffffffffffffffffff021916908373ffffffffffffffffffffffffffffffffffffffff160217905550808273ffffffffffffffffffffffffffffffffffffffff16600073ffffffffffffffffffffffffffffffffffffffff167fddf252ad1be2c89b69c2b068fc378daa952ba7f163c4a11628f55a4df523b3ef60405160405180910390a45050565b606060006040518060400160405280601a81526020017f646174613a696d6167652f7376672b786d6c3b6261736536342c000000000000815250905060006116b9846040516020016116a59190612f31565b60405160208183030381529060405261114f565b905081816040516020016116ce929190612f48565b60405160208183030381529060405292505050919050565b606061171483838660405160200161170093929190612f6c565b60405160208183030381529060405261114f565b6040516020016117249190612fea565b60405160208183030381529060405290509392505050565b61174582611358565b611784576040517f08c379a000000000000000000000000000000000000000000000000000000000815260040161177b906131e6565b60405180910390fd5b806006600084815260200190815260200160002090805190602001906117ab929190612119565b505050565b60006117bb82611358565b6117fa576040517f08c379a00000000000000000000000000000000000000000000000000000000081526004016117f190613166565b60405180910390fd5b600061180583610b8a565b90508073ffffffffffffffffffffffffffffffffffffffff168473ffffffffffffffffffffffffffffffffffffffff16148061187457508373ffffffffffffffffffffffffffffffffffffffff1661185c84610699565b73ffffffffffffffffffffffffffffffffffffffff16145b8061188557506118848185611023565b5b91505092915050565b8273ffffffffffffffffffffffffffffffffffffffff166118ae82610b8a565b73ffffffffffffffffffffffffffffffffffffffff1614611904576040517f08c379a00000000000000000000000000000000000000000000000000000000081526004016118fb90613266565b60405180910390fd5b600073ffffffffffffffffffffffffffffffffffffffff168273ffffffffffffffffffffffffffffffffffffffff161415611974576040517f08c379a000000000000000000000000000000000000000000000000000000000815260040161196b90613126565b60405180910390fd5b61197f838383611d71565b61198a6000826113cc565b6001600360008573ffffffffffffffffffffffffffffffffffffffff1673ffffffffffffffffffffffffffffffffffffffff16815260200190815260200160002060008282546119da9190613519565b925050819055506001600360008473ffffffffffffffffffffffffffffffffffffffff1673ffffffffffffffffffffffffffffffffffffffff1681526020019081526020016000206000828254611a319190613438565b92505081905550816002600083815260200190815260200160002060006101000a81548173ffffffffffffffffffffffffffffffffffffffff021916908373ffffffffffffffffffffffffffffffffffffffff160217905550808273ffffffffffffffffffffffffffffffffffffffff168473ffffffffffffffffffffffffffffffffffffffff167fddf252ad1be2c89b69c2b068fc378daa952ba7f163c4a11628f55a4df523b3ef60405160405180910390a4505050565b8173ffffffffffffffffffffffffffffffffffffffff168373ffffffffffffffffffffffffffffffffffffffff161415611b59576040517f08c379a0000000000000000000000000000000000000000000000000000000008152600401611b5090613146565b60405180910390fd5b80600560008573ffffffffffffffffffffffffffffffffffffffff1673ffffffffffffffffffffffffffffffffffffffff16815260200190815260200160002060008473ffffffffffffffffffffffffffffffffffffffff1673ffffffffffffffffffffffffffffffffffffffff16815260200190815260200160002060006101000a81548160ff0219169083151502179055508173ffffffffffffffffffffffffffffffffffffffff168373ffffffffffffffffffffffffffffffffffffffff167f17307eab39ab6107e8899845ad3d59bd9653f200f220920489ca2b5937696c3183604051611c4a919061308e565b60405180910390a3505050565b611c6284848461188e565b611c6e84848484611d76565b611cad576040517f08c379a0000000000000000000000000000000000000000000000000000000008152600401611ca4906130e6565b60405180910390fd5b50505050565b606060405180602001604052806000815250905090565b6060611cd582611358565b611d14576040517f08c379a0000000000000000000000000000000000000000000000000000000008152600401611d0b90613286565b60405180910390fd5b6000611d1e611cb3565b90506000815111611d3e5760405180602001604052806000815250611d69565b80611d4884611f0d565b604051602001611d59929190612f48565b6040516020818303038152906040525b915050919050565b505050565b6000611d978473ffffffffffffffffffffffffffffffffffffffff166120ba565b15611f00578373ffffffffffffffffffffffffffffffffffffffff1663150b7a02611dc06113c4565b8786866040518563ffffffff1660e01b8152600401611de29493929190613042565b602060405180830381600087803b158015611dfc57600080fd5b505af1925050508015611e2d57506040513d601f19601f82011682018060405250810190611e2a91906124c5565b60015b611eb0573d8060008114611e5d576040519150601f19603f3d011682016040523d82523d6000602084013e611e62565b606091505b50600081511415611ea8576040517f08c379a0000000000000000000000000000000000000000000000000000000008152600401611e9f906130e6565b60405180910390fd5b805181602001fd5b63150b7a0260e01b7bffffffffffffffffffffffffffffffffffffffffffffffffffffffff1916817bffffffffffffffffffffffffffffffffffffffffffffffffffffffff191614915050611f05565b600190505b949350505050565b60606000821415611f55576040518060400160405280600181526020017f300000000000000000000000000000000000000000000000000000000000000081525090506120b5565b600082905060005b60008214611f87578080611f709061366c565b915050600a82611f80919061348e565b9150611f5d565b60008167ffffffffffffffff811115611fc9577f4e487b7100000000000000000000000000000000000000000000000000000000600052604160045260246000fd5b6040519080825280601f01601f191660200182016040528015611ffb5781602001600182028036833780820191505090505b5090505b600085146120ae576001826120149190613519565b9150600a8561202391906136b5565b603061202f9190613438565b60f81b81838151811061206b577f4e487b7100000000000000000000000000000000000000000000000000000000600052603260045260246000fd5b60200101907effffffffffffffffffffffffffffffffffffffffffffffffffffffffffffff1916908160001a905350600a856120a7919061348e565b9450611fff565b8093505050505b919050565b600080823b905060008111915050919050565b6040518060c00160405280600073ffffffffffffffffffffffffffffffffffffffff16815260200160608152602001606081526020016000815260200160008152602001600081525090565b8280546121259061363a565b90600052602060002090601f016020900481019282612147576000855561218e565b82601f1061216057805160ff191683800117855561218e565b8280016001018555821561218e579182015b8281111561218d578251825591602001919060010190612172565b5b50905061219b919061219f565b5090565b5b808211156121b85760008160009055506001016121a0565b5090565b60006121cf6121ca84613384565b613353565b9050828152602081018484840111156121e757600080fd5b6121f28482856135f8565b509392505050565b600061220d612208846133b4565b613353565b90508281526020810184848401111561222557600080fd5b6122308482856135f8565b509392505050565b600081359050612247816137f6565b92915050565b60008135905061225c8161380d565b92915050565b60008135905061227181613824565b92915050565b60008151905061228681613824565b92915050565b600082601f83011261229d57600080fd5b81356122ad8482602086016121bc565b91505092915050565b600082601f8301126122c757600080fd5b81356122d78482602086016121fa565b91505092915050565b6000813590506122ef8161383b565b92915050565b60006020828403121561230757600080fd5b600061231584828501612238565b91505092915050565b6000806040838503121561233157600080fd5b600061233f85828601612238565b925050602061235085828601612238565b9150509250929050565b60008060006060848603121561236f57600080fd5b600061237d86828701612238565b935050602061238e86828701612238565b925050604061239f868287016122e0565b9150509250925092565b600080600080608085870312156123bf57600080fd5b60006123cd87828801612238565b94505060206123de87828801612238565b93505060406123ef878288016122e0565b925050606085013567ffffffffffffffff81111561240c57600080fd5b6124188782880161228c565b91505092959194509250565b6000806040838503121561243757600080fd5b600061244585828601612238565b92505060206124568582860161224d565b9150509250929050565b6000806040838503121561247357600080fd5b600061248185828601612238565b9250506020612492858286016122e0565b9150509250929050565b6000602082840312156124ae57600080fd5b60006124bc84828501612262565b91505092915050565b6000602082840312156124d757600080fd5b60006124e584828501612277565b91505092915050565b60008060006060848603121561250357600080fd5b600084013567ffffffffffffffff81111561251d57600080fd5b612529868287016122b6565b935050602084013567ffffffffffffffff81111561254657600080fd5b612552868287016122b6565b925050604084013567ffffffffffffffff81111561256f57600080fd5b61257b868287016122b6565b9150509250925092565b60006020828403121561259757600080fd5b60006125a5848285016122e0565b91505092915050565b6125b78161355f565b82525050565b6125c68161354d565b82525050565b6125d58161354d565b82525050565b6125e481613571565b82525050565b60006125f5826133e4565b6125ff81856133fa565b935061260f818560208601613607565b612618816137d1565b840191505092915050565b61262c816135e6565b82525050565b600061263d826133ef565b612647818561340b565b9350612657818560208601613607565b612660816137d1565b840191505092915050565b6000612676826133ef565b612680818561341c565b9350612690818560208601613607565b612699816137d1565b840191505092915050565b60006126af826133ef565b6126b9818561342d565b93506126c9818560208601613607565b80840191505092915050565b60006126e260098361342d565b91507f7b226e616d65223a2200000000000000000000000000000000000000000000006000830152600982019050919050565b600061272260328361341c565b91507f4552433732313a207472616e7366657220746f206e6f6e20455243373231526560008301527f63656976657220696d706c656d656e74657200000000000000000000000000006020830152604082019050919050565b6000612788600f8361342d565b91507f226465736372697074696f6e223a2200000000000000000000000000000000006000830152600f82019050919050565b60006127c860028361342d565b91507f222c0000000000000000000000000000000000000000000000000000000000006000830152600282019050919050565b6000612808601c8361341c565b91507f4552433732313a20746f6b656e20616c7265616479206d696e746564000000006000830152602082019050919050565b600061284860248361341c565b91507f4552433732313a207472616e7366657220746f20746865207a65726f2061646460008301527f72657373000000000000000000000000000000000000000000000000000000006020830152604082019050919050565b60006128ae60198361341c565b91507f4552433732313a20617070726f766520746f2063616c6c6572000000000000006000830152602082019050919050565b60006128ee602c8361341c565b91507f4552433732313a206f70657261746f7220717565727920666f72206e6f6e657860008301527f697374656e7420746f6b656e00000000000000000000000000000000000000006020830152604082019050919050565b600061295460388361341c565b91507f4552433732313a20617070726f76652063616c6c6572206973206e6f74206f7760008301527f6e6572206e6f7220617070726f76656420666f7220616c6c00000000000000006020830152604082019050919050565b60006129ba602a8361341c565b91507f4552433732313a2062616c616e636520717565727920666f7220746865207a6560008301527f726f2061646472657373000000000000000000000000000000000000000000006020830152604082019050919050565b6000612a2060298361341c565b91507f4552433732313a206f776e657220717565727920666f72206e6f6e657869737460008301527f656e7420746f6b656e00000000000000000000000000000000000000000000006020830152604082019050919050565b6000612a86602e8361341c565b91507f45524337323155524953746f726167653a2055524920736574206f66206e6f6e60008301527f6578697374656e7420746f6b656e0000000000000000000000000000000000006020830152604082019050919050565b6000612aec60098361342d565b91507f22696d616765223a2200000000000000000000000000000000000000000000006000830152600982019050919050565b6000612b2c60028361342d565b91507f227d0000000000000000000000000000000000000000000000000000000000006000830152600282019050919050565b6000612b6c60208361341c565b91507f4552433732313a206d696e7420746f20746865207a65726f20616464726573736000830152602082019050919050565b6000612bac60318361341c565b91507f45524337323155524953746f726167653a2055524920717565727920666f722060008301527f6e6f6e6578697374656e7420746f6b656e0000000000000000000000000000006020830152604082019050919050565b6000612c12602c8361341c565b91507f4552433732313a20617070726f76656420717565727920666f72206e6f6e657860008301527f697374656e7420746f6b656e00000000000000000000000000000000000000006020830152604082019050919050565b6000612c7860298361341c565b91507f4552433732313a207472616e73666572206f6620746f6b656e2074686174206960008301527f73206e6f74206f776e00000000000000000000000000000000000000000000006020830152604082019050919050565b6000612cde602f8361341c565b91507f4552433732314d657461646174613a2055524920717565727920666f72206e6f60008301527f6e6578697374656e7420746f6b656e00000000000000000000000000000000006020830152604082019050919050565b6000612d4460218361341c565b91507f4552433732313a20617070726f76616c20746f2063757272656e74206f776e6560008301527f72000000000000000000000000000000000000000000000000000000000000006020830152604082019050919050565b6000612daa601d8361342d565b91507f646174613a6170706c69636174696f6e2f6a736f6e3b6261736536342c0000006000830152601d82019050919050565b6000612dea60318361341c565b91507f4552433732313a207472616e736665722063616c6c6572206973206e6f74206f60008301527f776e6572206e6f7220617070726f7665640000000000000000000000000000006020830152604082019050919050565b6000612e5060108361342d565b91507f2261747472696275746573223a22222c000000000000000000000000000000006000830152601082019050919050565b600060c083016000830151612e9b60008601826125bd565b5060208301518482036020860152612eb38282612632565b91505060408301518482036040860152612ecd8282612632565b9150506060830151612ee26060860182612f13565b506080830151612ef56080860182612f13565b5060a0830151612f0860a0860182612f13565b508091505092915050565b612f1c816135dc565b82525050565b612f2b816135dc565b82525050565b6000612f3d82846126a4565b915081905092915050565b6000612f5482856126a4565b9150612f6082846126a4565b91508190509392505050565b6000612f77826126d5565b9150612f8382866126a4565b9150612f8e826127bb565b9150612f998261277b565b9150612fa582856126a4565b9150612fb0826127bb565b9150612fbb82612e43565b9150612fc682612adf565b9150612fd282846126a4565b9150612fdd82612b1f565b9150819050949350505050565b6000612ff582612d9d565b915061300182846126a4565b915081905092915050565b600060208201905061302160008301846125cc565b92915050565b600060208201905061303c60008301846125ae565b92915050565b600060808201905061305760008301876125cc565b61306460208301866125cc565b6130716040830185612f22565b818103606083015261308381846125ea565b905095945050505050565b60006020820190506130a360008301846125db565b92915050565b60006020820190506130be6000830184612623565b92915050565b600060208201905081810360008301526130de818461266b565b905092915050565b600060208201905081810360008301526130ff81612715565b9050919050565b6000602082019050818103600083015261311f816127fb565b9050919050565b6000602082019050818103600083015261313f8161283b565b9050919050565b6000602082019050818103600083015261315f816128a1565b9050919050565b6000602082019050818103600083015261317f816128e1565b9050919050565b6000602082019050818103600083015261319f81612947565b9050919050565b600060208201905081810360008301526131bf816129ad565b9050919050565b600060208201905081810360008301526131df81612a13565b9050919050565b600060208201905081810360008301526131ff81612a79565b9050919050565b6000602082019050818103600083015261321f81612b5f565b9050919050565b6000602082019050818103600083015261323f81612b9f565b9050919050565b6000602082019050818103600083015261325f81612c05565b9050919050565b6000602082019050818103600083015261327f81612c6b565b9050919050565b6000602082019050818103600083015261329f81612cd1565b9050919050565b600060208201905081810360008301526132bf81612d37565b9050919050565b600060208201905081810360008301526132df81612ddd565b9050919050565b600060208201905081810360008301526133008184612e83565b905092915050565b600060208201905061331d6000830184612f22565b92915050565b60006040820190506133386000830185612f22565b818103602083015261334a818461266b565b90509392505050565b6000604051905081810181811067ffffffffffffffff8211171561337a576133796137a2565b5b8060405250919050565b600067ffffffffffffffff82111561339f5761339e6137a2565b5b601f19601f8301169050602081019050919050565b600067ffffffffffffffff8211156133cf576133ce6137a2565b5b601f19601f8301169050602081019050919050565b600081519050919050565b600081519050919050565b600082825260208201905092915050565b600082825260208201905092915050565b600082825260208201905092915050565b600081905092915050565b6000613443826135dc565b915061344e836135dc565b9250827fffffffffffffffffffffffffffffffffffffffffffffffffffffffffffffffff03821115613483576134826136e6565b5b828201905092915050565b6000613499826135dc565b91506134a4836135dc565b9250826134b4576134b3613715565b5b828204905092915050565b60006134ca826135dc565b91506134d5836135dc565b9250817fffffffffffffffffffffffffffffffffffffffffffffffffffffffffffffffff048311821515161561350e5761350d6136e6565b5b828202905092915050565b6000613524826135dc565b915061352f836135dc565b925082821015613542576135416136e6565b5b828203905092915050565b6000613558826135bc565b9050919050565b600061356a826135bc565b9050919050565b60008115159050919050565b60007fffffffff0000000000000000000000000000000000000000000000000000000082169050919050565b60008190506135b7826137e2565b919050565b600073ffffffffffffffffffffffffffffffffffffffff82169050919050565b6000819050919050565b60006135f1826135a9565b9050919050565b82818337600083830152505050565b60005b8381101561362557808201518184015260208101905061360a565b83811115613634576000848401525b50505050565b6000600282049050600182168061365257607f821691505b6020821081141561366657613665613773565b5b50919050565b6000613677826135dc565b91507fffffffffffffffffffffffffffffffffffffffffffffffffffffffffffffffff8214156136aa576136a96136e6565b5b600182019050919050565b60006136c0826135dc565b91506136cb836135dc565b9250826136db576136da613715565b5b828206905092915050565b7f4e487b7100000000000000000000000000000000000000000000000000000000600052601160045260246000fd5b7f4e487b7100000000000000000000000000000000000000000000000000000000600052601260045260246000fd5b7f4e487b7100000000000000000000000000000000000000000000000000000000600052602160045260246000fd5b7f4e487b7100000000000000000000000000000000000000000000000000000000600052602260045260246000fd5b7f4e487b7100000000000000000000000000000000000000000000000000000000600052604160045260246000fd5b6000601f19601f8301169050919050565b600281106137f3576137f2613744565b5b50565b6137ff8161354d565b811461380a57600080fd5b50565b61381681613571565b811461382157600080fd5b50565b61382d8161357d565b811461383857600080fd5b50565b613844816135dc565b811461384f57600080fd5b5056fe4142434445464748494a4b4c4d4e4f505152535455565758595a6162636465666768696a6b6c6d6e6f707172737475767778797a303132333435363738392b2fa2646970667358221220338ad435eb28ea8f0a442957a1f63ef330a4f31bcd7f4d60ba65e2ae1cd3b1c364736f6c634300080000334142434445464748494a4b4c4d4e4f505152535455565758595a6162636465666768696a6b6c6d6e6f707172737475767778797a303132333435363738392b2f",
  "linkReferences": {},
  "deployedLinkReferences": {}
}