{
  "_format": "hh-sol-artifact-1",
  "contractName": "NFT",
  "sourceName": "contracts/AuctionBox.sol",
  "abi": [
    {
      "inputs": [],
      "stateMutability": "nonpayable",
      "type": "constructor"
    },
    {
      "anonymous": false,
      "inputs": [
        {
          "indexed": true,
          "internalType": "address",
          "name": "owner",
          "type": "address"
        },
        {
          "indexed": true,
          "internalType": "address",
          "name": "approved",
          "type": "address"
        },
        {
          "indexed": true,
          "internalType": "uint256",
          "name": "tokenId",
          "type": "uint256"
        }
      ],
      "name": "Approval",
      "type": "event"
    },
    {
      "anonymous": false,
      "inputs": [
        {
          "indexed": true,
          "internalType": "address",
          "name": "owner",
          "type": "address"
        },
        {
          "indexed": true,
          "internalType": "address",
          "name": "operator",
          "type": "address"
        },
        {
          "indexed": false,
          "internalType": "bool",
          "name": "approved",
          "type": "bool"
        }
      ],
      "name": "ApprovalForAll",
      "type": "event"
    },
    {
      "anonymous": false,
      "inputs": [
        {
          "indexed": true,
          "internalType": "address",
          "name": "from",
          "type": "address"
        },
        {
          "indexed": true,
          "internalType": "address",
          "name": "to",
          "type": "address"
        },
        {
          "indexed": true,
          "internalType": "uint256",
          "name": "tokenId",
          "type": "uint256"
        }
      ],
      "name": "Transfer",
      "type": "event"
    },
    {
      "inputs": [
        {
          "internalType": "address",
          "name": "to",
          "type": "address"
        },
        {
          "internalType": "uint256",
          "name": "tokenId",
          "type": "uint256"
        }
      ],
      "name": "approve",
      "outputs": [],
      "stateMutability": "nonpayable",
      "type": "function"
    },
    {
      "inputs": [
        {
          "internalType": "address",
          "name": "owner",
          "type": "address"
        }
      ],
      "name": "balanceOf",
      "outputs": [
        {
          "internalType": "uint256",
          "name": "",
          "type": "uint256"
        }
      ],
      "stateMutability": "view",
      "type": "function"
    },
    {
      "inputs": [
        {
          "internalType": "uint256",
          "name": "tokenId",
          "type": "uint256"
        }
      ],
      "name": "getApproved",
      "outputs": [
        {
          "internalType": "address",
          "name": "",
          "type": "address"
        }
      ],
      "stateMutability": "view",
      "type": "function"
    },
    {
      "inputs": [
        {
          "internalType": "address",
          "name": "owner",
          "type": "address"
        },
        {
          "internalType": "address",
          "name": "operator",
          "type": "address"
        }
      ],
      "name": "isApprovedForAll",
      "outputs": [
        {
          "internalType": "bool",
          "name": "",
          "type": "bool"
        }
      ],
      "stateMutability": "view",
      "type": "function"
    },
    {
      "inputs": [
        {
          "internalType": "string",
          "name": "svg",
          "type": "string"
        },
        {
          "internalType": "string",
          "name": "_title",
          "type": "string"
        },
        {
          "internalType": "string",
          "name": "_description",
          "type": "string"
        }
      ],
      "name": "mintNFT",
      "outputs": [
        {
          "internalType": "uint256",
          "name": "",
          "type": "uint256"
        }
      ],
      "stateMutability": "nonpayable",
      "type": "function"
    },
    {
      "inputs": [],
      "name": "name",
      "outputs": [
        {
          "internalType": "string",
          "name": "",
          "type": "string"
        }
      ],
      "stateMutability": "view",
      "type": "function"
    },
    {
      "inputs": [
        {
          "internalType": "uint256",
          "name": "tokenId",
          "type": "uint256"
        }
      ],
      "name": "ownerOf",
      "outputs": [
        {
          "internalType": "address",
          "name": "",
          "type": "address"
        }
      ],
      "stateMutability": "view",
      "type": "function"
    },
    {
      "inputs": [
        {
          "internalType": "address",
          "name": "from",
          "type": "address"
        },
        {
          "internalType": "address",
          "name": "to",
          "type": "address"
        },
        {
          "internalType": "uint256",
          "name": "tokenId",
          "type": "uint256"
        }
      ],
      "name": "safeTransferFrom",
      "outputs": [],
      "stateMutability": "nonpayable",
      "type": "function"
    },
    {
      "inputs": [
        {
          "internalType": "address",
          "name": "from",
          "type": "address"
        },
        {
          "internalType": "address",
          "name": "to",
          "type": "address"
        },
        {
          "internalType": "uint256",
          "name": "tokenId",
          "type": "uint256"
        },
        {
          "internalType": "bytes",
          "name": "_data",
          "type": "bytes"
        }
      ],
      "name": "safeTransferFrom",
      "outputs": [],
      "stateMutability": "nonpayable",
      "type": "function"
    },
    {
      "inputs": [
        {
          "internalType": "address",
          "name": "operator",
          "type": "address"
        },
        {
          "internalType": "bool",
          "name": "approved",
          "type": "bool"
        }
      ],
      "name": "setApprovalForAll",
      "outputs": [],
      "stateMutability": "nonpayable",
      "type": "function"
    },
    {
      "inputs": [
        {
          "internalType": "bytes4",
          "name": "interfaceId",
          "type": "bytes4"
        }
      ],
      "name": "supportsInterface",
      "outputs": [
        {
          "internalType": "bool",
          "name": "",
          "type": "bool"
        }
      ],
      "stateMutability": "view",
      "type": "function"
    },
    {
      "inputs": [],
      "name": "symbol",
      "outputs": [
        {
          "internalType": "string",
          "name": "",
          "type": "string"
        }
      ],
      "stateMutability": "view",
      "type": "function"
    },
    {
      "inputs": [],
      "name": "tokenCounter",
      "outputs": [
        {
          "internalType": "uint256",
          "name": "",
          "type": "uint256"
        }
      ],
      "stateMutability": "view",
      "type": "function"
    },
    {
      "inputs": [
        {
          "internalType": "uint256",
          "name": "tokenId",
          "type": "uint256"
        }
      ],
      "name": "tokenURI",
      "outputs": [
        {
          "internalType": "string",
          "name": "",
          "type": "string"
        }
      ],
      "stateMutability": "view",
      "type": "function"
    },
    {
      "inputs": [
        {
          "internalType": "address",
          "name": "from",
          "type": "address"
        },
        {
          "internalType": "address",
          "name": "to",
          "type": "address"
        },
        {
          "internalType": "uint256",
          "name": "tokenId",
          "type": "uint256"
        }
      ],
      "name": "transferFrom",
      "outputs": [],
      "stateMutability": "nonpayable",
      "type": "function"
    }
  ],
  "bytecode": "0x60806040523480156200001157600080fd5b506040518060400160405280600981526020017f4e69676761204e465400000000000000000000000000000000000000000000008152506040518060400160405280600881526020017f4e696767614e4654000000000000000000000000000000000000000000000000815250816000908051906020019062000096929190620000c0565b508060019080519060200190620000af929190620000c0565b5050506000600781905550620001d5565b828054620000ce9062000170565b90600052602060002090601f016020900481019282620000f257600085556200013e565b82601f106200010d57805160ff19168380011785556200013e565b828001600101855582156200013e579182015b828111156200013d57825182559160200191906001019062000120565b5b5090506200014d919062000151565b5090565b5b808211156200016c57600081600090555060010162000152565b5090565b600060028204905060018216806200018957607f821691505b60208210811415620001a0576200019f620001a6565b5b50919050565b7f4e487b7100000000000000000000000000000000000000000000000000000000600052602260045260246000fd5b61310c80620001e56000396000f3fe608060405234801561001057600080fd5b50600436106100f55760003560e01c80636352211e11610097578063b88d4fde11610066578063b88d4fde14610296578063c87b56dd146102b2578063d082e381146102e2578063e985e9c514610300576100f5565b80636352211e146101fc57806370a082311461022c57806395d89b411461025c578063a22cb4651461027a576100f5565b8063095ea7b3116100d3578063095ea7b3146101785780630c3b7b721461019457806323b872dd146101c457806342842e0e146101e0576100f5565b806301ffc9a7146100fa57806306fdde031461012a578063081812fc14610148575b600080fd5b610114600480360381019061010f9190611ef8565b610330565b60405161012191906129ca565b60405180910390f35b610132610412565b60405161013f91906129e5565b60405180910390f35b610162600480360381019061015d9190611fe1565b6104a4565b60405161016f9190612963565b60405180910390f35b610192600480360381019061018d9190611ebc565b610529565b005b6101ae60048036038101906101a99190611f4a565b610641565b6040516101bb9190612c07565b60405180910390f35b6101de60048036038101906101d99190611db6565b61069e565b005b6101fa60048036038101906101f59190611db6565b6106fe565b005b61021660048036038101906102119190611fe1565b61071e565b6040516102239190612963565b60405180910390f35b61024660048036038101906102419190611d51565b6107d0565b6040516102539190612c07565b60405180910390f35b610264610888565b60405161027191906129e5565b60405180910390f35b610294600480360381019061028f9190611e80565b61091a565b005b6102b060048036038101906102ab9190611e05565b610930565b005b6102cc60048036038101906102c79190611fe1565b610992565b6040516102d991906129e5565b60405180910390f35b6102ea610ae4565b6040516102f79190612c07565b60405180910390f35b61031a60048036038101906103159190611d7a565b610aea565b60405161032791906129ca565b60405180910390f35b60007f80ac58cd000000000000000000000000000000000000000000000000000000007bffffffffffffffffffffffffffffffffffffffffffffffffffffffff1916827bffffffffffffffffffffffffffffffffffffffffffffffffffffffff191614806103fb57507f5b5e139f000000000000000000000000000000000000000000000000000000007bffffffffffffffffffffffffffffffffffffffffffffffffffffffff1916827bffffffffffffffffffffffffffffffffffffffffffffffffffffffff1916145b8061040b575061040a82610b7e565b5b9050919050565b60606000805461042190612ec1565b80601f016020809104026020016040519081016040528092919081815260200182805461044d90612ec1565b801561049a5780601f1061046f5761010080835404028352916020019161049a565b820191906000526020600020905b81548152906001019060200180831161047d57829003601f168201915b5050505050905090565b60006104af82610be8565b6104ee576040517f08c379a00000000000000000000000000000000000000000000000000000000081526004016104e590612b67565b60405180910390fd5b6004600083815260200190815260200160002060009054906101000a900473ffffffffffffffffffffffffffffffffffffffff169050919050565b60006105348261071e565b90508073ffffffffffffffffffffffffffffffffffffffff168373ffffffffffffffffffffffffffffffffffffffff1614156105a5576040517f08c379a000000000000000000000000000000000000000000000000000000000815260040161059c90612bc7565b60405180910390fd5b8073ffffffffffffffffffffffffffffffffffffffff166105c4610c54565b73ffffffffffffffffffffffffffffffffffffffff1614806105f357506105f2816105ed610c54565b610aea565b5b610632576040517f08c379a000000000000000000000000000000000000000000000000000000000815260040161062990612aa7565b60405180910390fd5b61063c8383610c5c565b505050565b60008060075490506106533382610d15565b600061065e86610d33565b9050600061066d828787610dc6565b90506106798382610e1c565b6007600081548092919061068c90612ef3565b91905055508293505050509392505050565b6106af6106a9610c54565b82610e90565b6106ee576040517f08c379a00000000000000000000000000000000000000000000000000000000081526004016106e590612be7565b60405180910390fd5b6106f9838383610f6e565b505050565b61071983838360405180602001604052806000815250610930565b505050565b6000806002600084815260200190815260200160002060009054906101000a900473ffffffffffffffffffffffffffffffffffffffff169050600073ffffffffffffffffffffffffffffffffffffffff168173ffffffffffffffffffffffffffffffffffffffff1614156107c7576040517f08c379a00000000000000000000000000000000000000000000000000000000081526004016107be90612ae7565b60405180910390fd5b80915050919050565b60008073ffffffffffffffffffffffffffffffffffffffff168273ffffffffffffffffffffffffffffffffffffffff161415610841576040517f08c379a000000000000000000000000000000000000000000000000000000000815260040161083890612ac7565b60405180910390fd5b600360008373ffffffffffffffffffffffffffffffffffffffff1673ffffffffffffffffffffffffffffffffffffffff168152602001908152602001600020549050919050565b60606001805461089790612ec1565b80601f01602080910402602001604051908101604052809291908181526020018280546108c390612ec1565b80156109105780601f106108e557610100808354040283529160200191610910565b820191906000526020600020905b8154815290600101906020018083116108f357829003601f168201915b5050505050905090565b61092c610925610c54565b83836111ca565b5050565b61094161093b610c54565b83610e90565b610980576040517f08c379a000000000000000000000000000000000000000000000000000000000815260040161097790612be7565b60405180910390fd5b61098c84848484611337565b50505050565b606061099d82610be8565b6109dc576040517f08c379a00000000000000000000000000000000000000000000000000000000081526004016109d390612b47565b60405180910390fd5b60006006600084815260200190815260200160002080546109fc90612ec1565b80601f0160208091040260200160405190810160405280929190818152602001828054610a2890612ec1565b8015610a755780601f10610a4a57610100808354040283529160200191610a75565b820191906000526020600020905b815481529060010190602001808311610a5857829003601f168201915b505050505090506000610a86611393565b9050600081511415610a9c578192505050610adf565b600082511115610ad1578082604051602001610ab992919061289f565b60405160208183030381529060405292505050610adf565b610ada846113aa565b925050505b919050565b60075481565b6000600560008473ffffffffffffffffffffffffffffffffffffffff1673ffffffffffffffffffffffffffffffffffffffff16815260200190815260200160002060008373ffffffffffffffffffffffffffffffffffffffff1673ffffffffffffffffffffffffffffffffffffffff16815260200190815260200160002060009054906101000a900460ff16905092915050565b60007f01ffc9a7000000000000000000000000000000000000000000000000000000007bffffffffffffffffffffffffffffffffffffffffffffffffffffffff1916827bffffffffffffffffffffffffffffffffffffffffffffffffffffffff1916149050919050565b60008073ffffffffffffffffffffffffffffffffffffffff166002600084815260200190815260200160002060009054906101000a900473ffffffffffffffffffffffffffffffffffffffff1673ffffffffffffffffffffffffffffffffffffffff1614159050919050565b600033905090565b816004600083815260200190815260200160002060006101000a81548173ffffffffffffffffffffffffffffffffffffffff021916908373ffffffffffffffffffffffffffffffffffffffff160217905550808273ffffffffffffffffffffffffffffffffffffffff16610ccf8361071e565b73ffffffffffffffffffffffffffffffffffffffff167f8c5be1e5ebec7d5bd14f71427d1e84f3dd0314c0f7b2291e5b200ac8c7c3b92560405160405180910390a45050565b610d2f828260405180602001604052806000815250611451565b5050565b606060006040518060400160405280601a81526020017f646174613a696d6167652f7376672b786d6c3b6261736536342c00000000000081525090506000610d9984604051602001610d859190612888565b6040516020818303038152906040526114ac565b90508181604051602001610dae92919061289f565b60405160208183030381529060405292505050919050565b6060610df4838386604051602001610de0939291906128c3565b6040516020818303038152906040526114ac565b604051602001610e049190612941565b60405160208183030381529060405290509392505050565b610e2582610be8565b610e64576040517f08c379a0000000000000000000000000000000000000000000000000000000008152600401610e5b90612b07565b60405180910390fd5b80600660008481526020019081526020016000209080519060200190610e8b929190611b75565b505050565b6000610e9b82610be8565b610eda576040517f08c379a0000000000000000000000000000000000000000000000000000000008152600401610ed190612a87565b60405180910390fd5b6000610ee58361071e565b90508073ffffffffffffffffffffffffffffffffffffffff168473ffffffffffffffffffffffffffffffffffffffff161480610f5457508373ffffffffffffffffffffffffffffffffffffffff16610f3c846104a4565b73ffffffffffffffffffffffffffffffffffffffff16145b80610f655750610f648185610aea565b5b91505092915050565b8273ffffffffffffffffffffffffffffffffffffffff16610f8e8261071e565b73ffffffffffffffffffffffffffffffffffffffff1614610fe4576040517f08c379a0000000000000000000000000000000000000000000000000000000008152600401610fdb90612b87565b60405180910390fd5b600073ffffffffffffffffffffffffffffffffffffffff168273ffffffffffffffffffffffffffffffffffffffff161415611054576040517f08c379a000000000000000000000000000000000000000000000000000000000815260040161104b90612a47565b60405180910390fd5b61105f83838361164b565b61106a600082610c5c565b6001600360008573ffffffffffffffffffffffffffffffffffffffff1673ffffffffffffffffffffffffffffffffffffffff16815260200190815260200160002060008282546110ba9190612dd7565b925050819055506001600360008473ffffffffffffffffffffffffffffffffffffffff1673ffffffffffffffffffffffffffffffffffffffff16815260200190815260200160002060008282546111119190612cf6565b92505081905550816002600083815260200190815260200160002060006101000a81548173ffffffffffffffffffffffffffffffffffffffff021916908373ffffffffffffffffffffffffffffffffffffffff160217905550808273ffffffffffffffffffffffffffffffffffffffff168473ffffffffffffffffffffffffffffffffffffffff167fddf252ad1be2c89b69c2b068fc378daa952ba7f163c4a11628f55a4df523b3ef60405160405180910390a4505050565b8173ffffffffffffffffffffffffffffffffffffffff168373ffffffffffffffffffffffffffffffffffffffff161415611239576040517f08c379a000000000000000000000000000000000000000000000000000000000815260040161123090612a67565b60405180910390fd5b80600560008573ffffffffffffffffffffffffffffffffffffffff1673ffffffffffffffffffffffffffffffffffffffff16815260200190815260200160002060008473ffffffffffffffffffffffffffffffffffffffff1673ffffffffffffffffffffffffffffffffffffffff16815260200190815260200160002060006101000a81548160ff0219169083151502179055508173ffffffffffffffffffffffffffffffffffffffff168373ffffffffffffffffffffffffffffffffffffffff167f17307eab39ab6107e8899845ad3d59bd9653f200f220920489ca2b5937696c318360405161132a91906129ca565b60405180910390a3505050565b611342848484610f6e565b61134e84848484611650565b61138d576040517f08c379a000000000000000000000000000000000000000000000000000000000815260040161138490612a07565b60405180910390fd5b50505050565b606060405180602001604052806000815250905090565b60606113b582610be8565b6113f4576040517f08c379a00000000000000000000000000000000000000000000000000000000081526004016113eb90612ba7565b60405180910390fd5b60006113fe611393565b9050600081511161141e5760405180602001604052806000815250611449565b80611428846117e7565b60405160200161143992919061289f565b6040516020818303038152906040525b915050919050565b61145b8383611994565b6114686000848484611650565b6114a7576040517f08c379a000000000000000000000000000000000000000000000000000000000815260040161149e90612a07565b60405180910390fd5b505050565b60606000825114156114cf57604051806020016040528060008152509050611646565b600060405180606001604052806040815260200161309760409139905060006003600285516114fe9190612cf6565b6115089190612d4c565b60046115149190612d7d565b905060006020826115259190612cf6565b67ffffffffffffffff811115611564577f4e487b7100000000000000000000000000000000000000000000000000000000600052604160045260246000fd5b6040519080825280601f01601f1916602001820160405280156115965781602001600182028036833780820191505090505b509050818152600183018586518101602084015b81831015611605576003830192508251603f8160121c168501518253600182019150603f81600c1c168501518253600182019150603f8160061c168501518253600182019150603f81168501518253600182019150506115aa565b60038951066001811461161f576002811461162f5761163a565b613d3d60f01b600283035261163a565b603d60f81b60018303525b50505050508093505050505b919050565b505050565b60006116718473ffffffffffffffffffffffffffffffffffffffff16611b62565b156117da578373ffffffffffffffffffffffffffffffffffffffff1663150b7a0261169a610c54565b8786866040518563ffffffff1660e01b81526004016116bc949392919061297e565b602060405180830381600087803b1580156116d657600080fd5b505af192505050801561170757506040513d601f19601f820116820180604052508101906117049190611f21565b60015b61178a573d8060008114611737576040519150601f19603f3d011682016040523d82523d6000602084013e61173c565b606091505b50600081511415611782576040517f08c379a000000000000000000000000000000000000000000000000000000000815260040161177990612a07565b60405180910390fd5b805181602001fd5b63150b7a0260e01b7bffffffffffffffffffffffffffffffffffffffffffffffffffffffff1916817bffffffffffffffffffffffffffffffffffffffffffffffffffffffff1916149150506117df565b600190505b949350505050565b6060600082141561182f576040518060400160405280600181526020017f3000000000000000000000000000000000000000000000000000000000000000815250905061198f565b600082905060005b6000821461186157808061184a90612ef3565b915050600a8261185a9190612d4c565b9150611837565b60008167ffffffffffffffff8111156118a3577f4e487b7100000000000000000000000000000000000000000000000000000000600052604160045260246000fd5b6040519080825280601f01601f1916602001820160405280156118d55781602001600182028036833780820191505090505b5090505b60008514611988576001826118ee9190612dd7565b9150600a856118fd9190612f3c565b60306119099190612cf6565b60f81b818381518110611945577f4e487b7100000000000000000000000000000000000000000000000000000000600052603260045260246000fd5b60200101907effffffffffffffffffffffffffffffffffffffffffffffffffffffffffffff1916908160001a905350600a856119819190612d4c565b94506118d9565b8093505050505b919050565b600073ffffffffffffffffffffffffffffffffffffffff168273ffffffffffffffffffffffffffffffffffffffff161415611a04576040517f08c379a00000000000000000000000000000000000000000000000000000000081526004016119fb90612b27565b60405180910390fd5b611a0d81610be8565b15611a4d576040517f08c379a0000000000000000000000000000000000000000000000000000000008152600401611a4490612a27565b60405180910390fd5b611a596000838361164b565b6001600360008473ffffffffffffffffffffffffffffffffffffffff1673ffffffffffffffffffffffffffffffffffffffff1681526020019081526020016000206000828254611aa99190612cf6565b92505081905550816002600083815260200190815260200160002060006101000a81548173ffffffffffffffffffffffffffffffffffffffff021916908373ffffffffffffffffffffffffffffffffffffffff160217905550808273ffffffffffffffffffffffffffffffffffffffff16600073ffffffffffffffffffffffffffffffffffffffff167fddf252ad1be2c89b69c2b068fc378daa952ba7f163c4a11628f55a4df523b3ef60405160405180910390a45050565b600080823b905060008111915050919050565b828054611b8190612ec1565b90600052602060002090601f016020900481019282611ba35760008555611bea565b82601f10611bbc57805160ff1916838001178555611bea565b82800160010185558215611bea579182015b82811115611be9578251825591602001919060010190611bce565b5b509050611bf79190611bfb565b5090565b5b80821115611c14576000816000905550600101611bfc565b5090565b6000611c2b611c2684612c53565b612c22565b905082815260208101848484011115611c4357600080fd5b611c4e848285612e7f565b509392505050565b6000611c69611c6484612c83565b612c22565b905082815260208101848484011115611c8157600080fd5b611c8c848285612e7f565b509392505050565b600081359050611ca38161303a565b92915050565b600081359050611cb881613051565b92915050565b600081359050611ccd81613068565b92915050565b600081519050611ce281613068565b92915050565b600082601f830112611cf957600080fd5b8135611d09848260208601611c18565b91505092915050565b600082601f830112611d2357600080fd5b8135611d33848260208601611c56565b91505092915050565b600081359050611d4b8161307f565b92915050565b600060208284031215611d6357600080fd5b6000611d7184828501611c94565b91505092915050565b60008060408385031215611d8d57600080fd5b6000611d9b85828601611c94565b9250506020611dac85828601611c94565b9150509250929050565b600080600060608486031215611dcb57600080fd5b6000611dd986828701611c94565b9350506020611dea86828701611c94565b9250506040611dfb86828701611d3c565b9150509250925092565b60008060008060808587031215611e1b57600080fd5b6000611e2987828801611c94565b9450506020611e3a87828801611c94565b9350506040611e4b87828801611d3c565b925050606085013567ffffffffffffffff811115611e6857600080fd5b611e7487828801611ce8565b91505092959194509250565b60008060408385031215611e9357600080fd5b6000611ea185828601611c94565b9250506020611eb285828601611ca9565b9150509250929050565b60008060408385031215611ecf57600080fd5b6000611edd85828601611c94565b9250506020611eee85828601611d3c565b9150509250929050565b600060208284031215611f0a57600080fd5b6000611f1884828501611cbe565b91505092915050565b600060208284031215611f3357600080fd5b6000611f4184828501611cd3565b91505092915050565b600080600060608486031215611f5f57600080fd5b600084013567ffffffffffffffff811115611f7957600080fd5b611f8586828701611d12565b935050602084013567ffffffffffffffff811115611fa257600080fd5b611fae86828701611d12565b925050604084013567ffffffffffffffff811115611fcb57600080fd5b611fd786828701611d12565b9150509250925092565b600060208284031215611ff357600080fd5b600061200184828501611d3c565b91505092915050565b61201381612e0b565b82525050565b61202281612e1d565b82525050565b600061203382612cb3565b61203d8185612cc9565b935061204d818560208601612e8e565b61205681613029565b840191505092915050565b600061206c82612cbe565b6120768185612cda565b9350612086818560208601612e8e565b61208f81613029565b840191505092915050565b60006120a582612cbe565b6120af8185612ceb565b93506120bf818560208601612e8e565b80840191505092915050565b60006120d8600983612ceb565b91507f7b226e616d65223a2200000000000000000000000000000000000000000000006000830152600982019050919050565b6000612118603283612cda565b91507f4552433732313a207472616e7366657220746f206e6f6e20455243373231526560008301527f63656976657220696d706c656d656e74657200000000000000000000000000006020830152604082019050919050565b600061217e600f83612ceb565b91507f226465736372697074696f6e223a2200000000000000000000000000000000006000830152600f82019050919050565b60006121be600283612ceb565b91507f222c0000000000000000000000000000000000000000000000000000000000006000830152600282019050919050565b60006121fe601c83612cda565b91507f4552433732313a20746f6b656e20616c7265616479206d696e746564000000006000830152602082019050919050565b600061223e602483612cda565b91507f4552433732313a207472616e7366657220746f20746865207a65726f2061646460008301527f72657373000000000000000000000000000000000000000000000000000000006020830152604082019050919050565b60006122a4601983612cda565b91507f4552433732313a20617070726f766520746f2063616c6c6572000000000000006000830152602082019050919050565b60006122e4602c83612cda565b91507f4552433732313a206f70657261746f7220717565727920666f72206e6f6e657860008301527f697374656e7420746f6b656e00000000000000000000000000000000000000006020830152604082019050919050565b600061234a603883612cda565b91507f4552433732313a20617070726f76652063616c6c6572206973206e6f74206f7760008301527f6e6572206e6f7220617070726f76656420666f7220616c6c00000000000000006020830152604082019050919050565b60006123b0602a83612cda565b91507f4552433732313a2062616c616e636520717565727920666f7220746865207a6560008301527f726f2061646472657373000000000000000000000000000000000000000000006020830152604082019050919050565b6000612416602983612cda565b91507f4552433732313a206f776e657220717565727920666f72206e6f6e657869737460008301527f656e7420746f6b656e00000000000000000000000000000000000000000000006020830152604082019050919050565b600061247c602e83612cda565b91507f45524337323155524953746f726167653a2055524920736574206f66206e6f6e60008301527f6578697374656e7420746f6b656e0000000000000000000000000000000000006020830152604082019050919050565b60006124e2600983612ceb565b91507f22696d616765223a2200000000000000000000000000000000000000000000006000830152600982019050919050565b6000612522600283612ceb565b91507f227d0000000000000000000000000000000000000000000000000000000000006000830152600282019050919050565b6000612562602083612cda565b91507f4552433732313a206d696e7420746f20746865207a65726f20616464726573736000830152602082019050919050565b60006125a2603183612cda565b91507f45524337323155524953746f726167653a2055524920717565727920666f722060008301527f6e6f6e6578697374656e7420746f6b656e0000000000000000000000000000006020830152604082019050919050565b6000612608602c83612cda565b91507f4552433732313a20617070726f76656420717565727920666f72206e6f6e657860008301527f697374656e7420746f6b656e00000000000000000000000000000000000000006020830152604082019050919050565b600061266e602983612cda565b91507f4552433732313a207472616e73666572206f6620746f6b656e2074686174206960008301527f73206e6f74206f776e00000000000000000000000000000000000000000000006020830152604082019050919050565b60006126d4602f83612cda565b91507f4552433732314d657461646174613a2055524920717565727920666f72206e6f60008301527f6e6578697374656e7420746f6b656e00000000000000000000000000000000006020830152604082019050919050565b600061273a602183612cda565b91507f4552433732313a20617070726f76616c20746f2063757272656e74206f776e6560008301527f72000000000000000000000000000000000000000000000000000000000000006020830152604082019050919050565b60006127a0601d83612ceb565b91507f646174613a6170706c69636174696f6e2f6a736f6e3b6261736536342c0000006000830152601d82019050919050565b60006127e0603183612cda565b91507f4552433732313a207472616e736665722063616c6c6572206973206e6f74206f60008301527f776e6572206e6f7220617070726f7665640000000000000000000000000000006020830152604082019050919050565b6000612846601083612ceb565b91507f2261747472696275746573223a22222c000000000000000000000000000000006000830152601082019050919050565b61288281612e75565b82525050565b6000612894828461209a565b915081905092915050565b60006128ab828561209a565b91506128b7828461209a565b91508190509392505050565b60006128ce826120cb565b91506128da828661209a565b91506128e5826121b1565b91506128f082612171565b91506128fc828561209a565b9150612907826121b1565b915061291282612839565b915061291d826124d5565b9150612929828461209a565b915061293482612515565b9150819050949350505050565b600061294c82612793565b9150612958828461209a565b915081905092915050565b6000602082019050612978600083018461200a565b92915050565b6000608082019050612993600083018761200a565b6129a0602083018661200a565b6129ad6040830185612879565b81810360608301526129bf8184612028565b905095945050505050565b60006020820190506129df6000830184612019565b92915050565b600060208201905081810360008301526129ff8184612061565b905092915050565b60006020820190508181036000830152612a208161210b565b9050919050565b60006020820190508181036000830152612a40816121f1565b9050919050565b60006020820190508181036000830152612a6081612231565b9050919050565b60006020820190508181036000830152612a8081612297565b9050919050565b60006020820190508181036000830152612aa0816122d7565b9050919050565b60006020820190508181036000830152612ac08161233d565b9050919050565b60006020820190508181036000830152612ae0816123a3565b9050919050565b60006020820190508181036000830152612b0081612409565b9050919050565b60006020820190508181036000830152612b208161246f565b9050919050565b60006020820190508181036000830152612b4081612555565b9050919050565b60006020820190508181036000830152612b6081612595565b9050919050565b60006020820190508181036000830152612b80816125fb565b9050919050565b60006020820190508181036000830152612ba081612661565b9050919050565b60006020820190508181036000830152612bc0816126c7565b9050919050565b60006020820190508181036000830152612be08161272d565b9050919050565b60006020820190508181036000830152612c00816127d3565b9050919050565b6000602082019050612c1c6000830184612879565b92915050565b6000604051905081810181811067ffffffffffffffff82111715612c4957612c48612ffa565b5b8060405250919050565b600067ffffffffffffffff821115612c6e57612c6d612ffa565b5b601f19601f8301169050602081019050919050565b600067ffffffffffffffff821115612c9e57612c9d612ffa565b5b601f19601f8301169050602081019050919050565b600081519050919050565b600081519050919050565b600082825260208201905092915050565b600082825260208201905092915050565b600081905092915050565b6000612d0182612e75565b9150612d0c83612e75565b9250827fffffffffffffffffffffffffffffffffffffffffffffffffffffffffffffffff03821115612d4157612d40612f6d565b5b828201905092915050565b6000612d5782612e75565b9150612d6283612e75565b925082612d7257612d71612f9c565b5b828204905092915050565b6000612d8882612e75565b9150612d9383612e75565b9250817fffffffffffffffffffffffffffffffffffffffffffffffffffffffffffffffff0483118215151615612dcc57612dcb612f6d565b5b828202905092915050565b6000612de282612e75565b9150612ded83612e75565b925082821015612e0057612dff612f6d565b5b828203905092915050565b6000612e1682612e55565b9050919050565b60008115159050919050565b60007fffffffff0000000000000000000000000000000000000000000000000000000082169050919050565b600073ffffffffffffffffffffffffffffffffffffffff82169050919050565b6000819050919050565b82818337600083830152505050565b60005b83811015612eac578082015181840152602081019050612e91565b83811115612ebb576000848401525b50505050565b60006002820490506001821680612ed957607f821691505b60208210811415612eed57612eec612fcb565b5b50919050565b6000612efe82612e75565b91507fffffffffffffffffffffffffffffffffffffffffffffffffffffffffffffffff821415612f3157612f30612f6d565b5b600182019050919050565b6000612f4782612e75565b9150612f5283612e75565b925082612f6257612f61612f9c565b5b828206905092915050565b7f4e487b7100000000000000000000000000000000000000000000000000000000600052601160045260246000fd5b7f4e487b7100000000000000000000000000000000000000000000000000000000600052601260045260246000fd5b7f4e487b7100000000000000000000000000000000000000000000000000000000600052602260045260246000fd5b7f4e487b7100000000000000000000000000000000000000000000000000000000600052604160045260246000fd5b6000601f19601f8301169050919050565b61304381612e0b565b811461304e57600080fd5b50565b61305a81612e1d565b811461306557600080fd5b50565b61307181612e29565b811461307c57600080fd5b50565b61308881612e75565b811461309357600080fd5b5056fe4142434445464748494a4b4c4d4e4f505152535455565758595a6162636465666768696a6b6c6d6e6f707172737475767778797a303132333435363738392b2fa2646970667358221220bbcab07693c5d47943c127ce0dd54d8bbcdb15f9e973c800540b1a006cad1aa664736f6c63430008000033",
  "linkReferences": {},
  "deployedLinkReferences": {}
}