{
  "_format": "hh-sol-artifact-1",
  "contractName": "NFT",
  "sourceName": "contracts/AuctionBox.sol",
  "abi": [
    {
      "inputs": [],
      "stateMutability": "nonpayable",
      "type": "constructor"
    },
    {
      "anonymous": false,
      "inputs": [
        {
          "indexed": true,
          "internalType": "address",
          "name": "owner",
          "type": "address"
        },
        {
          "indexed": true,
          "internalType": "address",
          "name": "approved",
          "type": "address"
        },
        {
          "indexed": true,
          "internalType": "uint256",
          "name": "tokenId",
          "type": "uint256"
        }
      ],
      "name": "Approval",
      "type": "event"
    },
    {
      "anonymous": false,
      "inputs": [
        {
          "indexed": true,
          "internalType": "address",
          "name": "owner",
          "type": "address"
        },
        {
          "indexed": true,
          "internalType": "address",
          "name": "operator",
          "type": "address"
        },
        {
          "indexed": false,
          "internalType": "bool",
          "name": "approved",
          "type": "bool"
        }
      ],
      "name": "ApprovalForAll",
      "type": "event"
    },
    {
      "anonymous": false,
      "inputs": [
        {
          "indexed": true,
          "internalType": "address",
          "name": "from",
          "type": "address"
        },
        {
          "indexed": true,
          "internalType": "address",
          "name": "to",
          "type": "address"
        },
        {
          "indexed": true,
          "internalType": "uint256",
          "name": "tokenId",
          "type": "uint256"
        }
      ],
      "name": "Transfer",
      "type": "event"
    },
    {
      "inputs": [
        {
          "internalType": "address",
          "name": "to",
          "type": "address"
        },
        {
          "internalType": "uint256",
          "name": "tokenId",
          "type": "uint256"
        }
      ],
      "name": "approve",
      "outputs": [],
      "stateMutability": "nonpayable",
      "type": "function"
    },
    {
      "inputs": [
        {
          "internalType": "address",
          "name": "owner",
          "type": "address"
        }
      ],
      "name": "balanceOf",
      "outputs": [
        {
          "internalType": "uint256",
          "name": "",
          "type": "uint256"
        }
      ],
      "stateMutability": "view",
      "type": "function"
    },
    {
      "inputs": [
        {
          "internalType": "uint256",
          "name": "tokenId",
          "type": "uint256"
        }
      ],
      "name": "getApproved",
      "outputs": [
        {
          "internalType": "address",
          "name": "",
          "type": "address"
        }
      ],
      "stateMutability": "view",
      "type": "function"
    },
    {
      "inputs": [
        {
          "internalType": "address",
          "name": "owner",
          "type": "address"
        },
        {
          "internalType": "address",
          "name": "operator",
          "type": "address"
        }
      ],
      "name": "isApprovedForAll",
      "outputs": [
        {
          "internalType": "bool",
          "name": "",
          "type": "bool"
        }
      ],
      "stateMutability": "view",
      "type": "function"
    },
    {
      "inputs": [
        {
          "internalType": "string",
          "name": "tokenURI",
          "type": "string"
        }
      ],
      "name": "mintNFT",
      "outputs": [
        {
          "internalType": "uint256",
          "name": "",
          "type": "uint256"
        }
      ],
      "stateMutability": "nonpayable",
      "type": "function"
    },
    {
      "inputs": [],
      "name": "name",
      "outputs": [
        {
          "internalType": "string",
          "name": "",
          "type": "string"
        }
      ],
      "stateMutability": "view",
      "type": "function"
    },
    {
      "inputs": [
        {
          "internalType": "uint256",
          "name": "tokenId",
          "type": "uint256"
        }
      ],
      "name": "ownerOf",
      "outputs": [
        {
          "internalType": "address",
          "name": "",
          "type": "address"
        }
      ],
      "stateMutability": "view",
      "type": "function"
    },
    {
      "inputs": [
        {
          "internalType": "address",
          "name": "from",
          "type": "address"
        },
        {
          "internalType": "address",
          "name": "to",
          "type": "address"
        },
        {
          "internalType": "uint256",
          "name": "tokenId",
          "type": "uint256"
        }
      ],
      "name": "safeTransferFrom",
      "outputs": [],
      "stateMutability": "nonpayable",
      "type": "function"
    },
    {
      "inputs": [
        {
          "internalType": "address",
          "name": "from",
          "type": "address"
        },
        {
          "internalType": "address",
          "name": "to",
          "type": "address"
        },
        {
          "internalType": "uint256",
          "name": "tokenId",
          "type": "uint256"
        },
        {
          "internalType": "bytes",
          "name": "_data",
          "type": "bytes"
        }
      ],
      "name": "safeTransferFrom",
      "outputs": [],
      "stateMutability": "nonpayable",
      "type": "function"
    },
    {
      "inputs": [
        {
          "internalType": "address",
          "name": "operator",
          "type": "address"
        },
        {
          "internalType": "bool",
          "name": "approved",
          "type": "bool"
        }
      ],
      "name": "setApprovalForAll",
      "outputs": [],
      "stateMutability": "nonpayable",
      "type": "function"
    },
    {
      "inputs": [
        {
          "internalType": "bytes4",
          "name": "interfaceId",
          "type": "bytes4"
        }
      ],
      "name": "supportsInterface",
      "outputs": [
        {
          "internalType": "bool",
          "name": "",
          "type": "bool"
        }
      ],
      "stateMutability": "view",
      "type": "function"
    },
    {
      "inputs": [],
      "name": "symbol",
      "outputs": [
        {
          "internalType": "string",
          "name": "",
          "type": "string"
        }
      ],
      "stateMutability": "view",
      "type": "function"
    },
    {
      "inputs": [],
      "name": "tokenCounter",
      "outputs": [
        {
          "internalType": "uint256",
          "name": "",
          "type": "uint256"
        }
      ],
      "stateMutability": "view",
      "type": "function"
    },
    {
      "inputs": [
        {
          "internalType": "uint256",
          "name": "tokenId",
          "type": "uint256"
        }
      ],
      "name": "tokenURI",
      "outputs": [
        {
          "internalType": "string",
          "name": "",
          "type": "string"
        }
      ],
      "stateMutability": "view",
      "type": "function"
    },
    {
      "inputs": [
        {
          "internalType": "address",
          "name": "from",
          "type": "address"
        },
        {
          "internalType": "address",
          "name": "to",
          "type": "address"
        },
        {
          "internalType": "uint256",
          "name": "tokenId",
          "type": "uint256"
        }
      ],
      "name": "transferFrom",
      "outputs": [],
      "stateMutability": "nonpayable",
      "type": "function"
    }
  ],
  "bytecode": "0x60806040523480156200001157600080fd5b506040518060400160405280600881526020017f4e696767614e46540000000000000000000000000000000000000000000000008152506040518060400160405280600581526020017f4e69676761000000000000000000000000000000000000000000000000000000815250816000908051906020019062000096929190620000c0565b508060019080519060200190620000af929190620000c0565b5050506000600781905550620001d5565b828054620000ce9062000170565b90600052602060002090601f016020900481019282620000f257600085556200013e565b82601f106200010d57805160ff19168380011785556200013e565b828001600101855582156200013e579182015b828111156200013d57825182559160200191906001019062000120565b5b5090506200014d919062000151565b5090565b5b808211156200016c57600081600090555060010162000152565b5090565b600060028204905060018216806200018957607f821691505b60208210811415620001a0576200019f620001a6565b5b50919050565b7f4e487b7100000000000000000000000000000000000000000000000000000000600052602260045260246000fd5b612a8480620001e56000396000f3fe608060405234801561001057600080fd5b50600436106100f55760003560e01c806370a0823111610097578063c87b56dd11610066578063c87b56dd14610282578063d082e381146102b2578063e985e9c5146102d0578063fb37e88314610300576100f5565b806370a08231146101fc57806395d89b411461022c578063a22cb4651461024a578063b88d4fde14610266576100f5565b8063095ea7b3116100d3578063095ea7b31461017857806323b872dd1461019457806342842e0e146101b05780636352211e146101cc576100f5565b806301ffc9a7146100fa57806306fdde031461012a578063081812fc14610148575b600080fd5b610114600480360381019061010f9190611bd7565b610330565b60405161012191906123dc565b60405180910390f35b610132610412565b60405161013f91906123f7565b60405180910390f35b610162600480360381019061015d9190611c6a565b6104a4565b60405161016f9190612375565b60405180910390f35b610192600480360381019061018d9190611b9b565b610529565b005b6101ae60048036038101906101a99190611a95565b610641565b005b6101ca60048036038101906101c59190611a95565b6106a1565b005b6101e660048036038101906101e19190611c6a565b6106c1565b6040516101f39190612375565b60405180910390f35b61021660048036038101906102119190611a30565b610773565b6040516102239190612619565b60405180910390f35b61023461082b565b60405161024191906123f7565b60405180910390f35b610264600480360381019061025f9190611b5f565b6108bd565b005b610280600480360381019061027b9190611ae4565b6108d3565b005b61029c60048036038101906102979190611c6a565b610935565b6040516102a991906123f7565b60405180910390f35b6102ba610a87565b6040516102c79190612619565b60405180910390f35b6102ea60048036038101906102e59190611a59565b610a8d565b6040516102f791906123dc565b60405180910390f35b61031a60048036038101906103159190611c29565b610b21565b6040516103279190612619565b60405180910390f35b60007f80ac58cd000000000000000000000000000000000000000000000000000000007bffffffffffffffffffffffffffffffffffffffffffffffffffffffff1916827bffffffffffffffffffffffffffffffffffffffffffffffffffffffff191614806103fb57507f5b5e139f000000000000000000000000000000000000000000000000000000007bffffffffffffffffffffffffffffffffffffffffffffffffffffffff1916827bffffffffffffffffffffffffffffffffffffffffffffffffffffffff1916145b8061040b575061040a82610b5e565b5b9050919050565b60606000805461042190612879565b80601f016020809104026020016040519081016040528092919081815260200182805461044d90612879565b801561049a5780601f1061046f5761010080835404028352916020019161049a565b820191906000526020600020905b81548152906001019060200180831161047d57829003601f168201915b5050505050905090565b60006104af82610bc8565b6104ee576040517f08c379a00000000000000000000000000000000000000000000000000000000081526004016104e590612579565b60405180910390fd5b6004600083815260200190815260200160002060009054906101000a900473ffffffffffffffffffffffffffffffffffffffff169050919050565b6000610534826106c1565b90508073ffffffffffffffffffffffffffffffffffffffff168373ffffffffffffffffffffffffffffffffffffffff1614156105a5576040517f08c379a000000000000000000000000000000000000000000000000000000000815260040161059c906125d9565b60405180910390fd5b8073ffffffffffffffffffffffffffffffffffffffff166105c4610c34565b73ffffffffffffffffffffffffffffffffffffffff1614806105f357506105f2816105ed610c34565b610a8d565b5b610632576040517f08c379a0000000000000000000000000000000000000000000000000000000008152600401610629906124b9565b60405180910390fd5b61063c8383610c3c565b505050565b61065261064c610c34565b82610cf5565b610691576040517f08c379a0000000000000000000000000000000000000000000000000000000008152600401610688906125f9565b60405180910390fd5b61069c838383610dd3565b505050565b6106bc838383604051806020016040528060008152506108d3565b505050565b6000806002600084815260200190815260200160002060009054906101000a900473ffffffffffffffffffffffffffffffffffffffff169050600073ffffffffffffffffffffffffffffffffffffffff168173ffffffffffffffffffffffffffffffffffffffff16141561076a576040517f08c379a0000000000000000000000000000000000000000000000000000000008152600401610761906124f9565b60405180910390fd5b80915050919050565b60008073ffffffffffffffffffffffffffffffffffffffff168273ffffffffffffffffffffffffffffffffffffffff1614156107e4576040517f08c379a00000000000000000000000000000000000000000000000000000000081526004016107db906124d9565b60405180910390fd5b600360008373ffffffffffffffffffffffffffffffffffffffff1673ffffffffffffffffffffffffffffffffffffffff168152602001908152602001600020549050919050565b60606001805461083a90612879565b80601f016020809104026020016040519081016040528092919081815260200182805461086690612879565b80156108b35780601f10610888576101008083540402835291602001916108b3565b820191906000526020600020905b81548152906001019060200180831161089657829003601f168201915b5050505050905090565b6108cf6108c8610c34565b838361102f565b5050565b6108e46108de610c34565b83610cf5565b610923576040517f08c379a000000000000000000000000000000000000000000000000000000000815260040161091a906125f9565b60405180910390fd5b61092f8484848461119c565b50505050565b606061094082610bc8565b61097f576040517f08c379a000000000000000000000000000000000000000000000000000000000815260040161097690612559565b60405180910390fd5b600060066000848152602001908152602001600020805461099f90612879565b80601f01602080910402602001604051908101604052809291908181526020018280546109cb90612879565b8015610a185780601f106109ed57610100808354040283529160200191610a18565b820191906000526020600020905b8154815290600101906020018083116109fb57829003601f168201915b505050505090506000610a296111f8565b9050600081511415610a3f578192505050610a82565b600082511115610a74578082604051602001610a5c929190612351565b60405160208183030381529060405292505050610a82565b610a7d8461120f565b925050505b919050565b60075481565b6000600560008473ffffffffffffffffffffffffffffffffffffffff1673ffffffffffffffffffffffffffffffffffffffff16815260200190815260200160002060008373ffffffffffffffffffffffffffffffffffffffff1673ffffffffffffffffffffffffffffffffffffffff16815260200190815260200160002060009054906101000a900460ff16905092915050565b6000806007549050610b3333826112b6565b610b3d8184611484565b60076000815480929190610b50906128ab565b919050555080915050919050565b60007f01ffc9a7000000000000000000000000000000000000000000000000000000007bffffffffffffffffffffffffffffffffffffffffffffffffffffffff1916827bffffffffffffffffffffffffffffffffffffffffffffffffffffffff1916149050919050565b60008073ffffffffffffffffffffffffffffffffffffffff166002600084815260200190815260200160002060009054906101000a900473ffffffffffffffffffffffffffffffffffffffff1673ffffffffffffffffffffffffffffffffffffffff1614159050919050565b600033905090565b816004600083815260200190815260200160002060006101000a81548173ffffffffffffffffffffffffffffffffffffffff021916908373ffffffffffffffffffffffffffffffffffffffff160217905550808273ffffffffffffffffffffffffffffffffffffffff16610caf836106c1565b73ffffffffffffffffffffffffffffffffffffffff167f8c5be1e5ebec7d5bd14f71427d1e84f3dd0314c0f7b2291e5b200ac8c7c3b92560405160405180910390a45050565b6000610d0082610bc8565b610d3f576040517f08c379a0000000000000000000000000000000000000000000000000000000008152600401610d3690612499565b60405180910390fd5b6000610d4a836106c1565b90508073ffffffffffffffffffffffffffffffffffffffff168473ffffffffffffffffffffffffffffffffffffffff161480610db957508373ffffffffffffffffffffffffffffffffffffffff16610da1846104a4565b73ffffffffffffffffffffffffffffffffffffffff16145b80610dca5750610dc98185610a8d565b5b91505092915050565b8273ffffffffffffffffffffffffffffffffffffffff16610df3826106c1565b73ffffffffffffffffffffffffffffffffffffffff1614610e49576040517f08c379a0000000000000000000000000000000000000000000000000000000008152600401610e4090612599565b60405180910390fd5b600073ffffffffffffffffffffffffffffffffffffffff168273ffffffffffffffffffffffffffffffffffffffff161415610eb9576040517f08c379a0000000000000000000000000000000000000000000000000000000008152600401610eb090612459565b60405180910390fd5b610ec48383836114f8565b610ecf600082610c3c565b6001600360008573ffffffffffffffffffffffffffffffffffffffff1673ffffffffffffffffffffffffffffffffffffffff1681526020019081526020016000206000828254610f1f919061278f565b925050819055506001600360008473ffffffffffffffffffffffffffffffffffffffff1673ffffffffffffffffffffffffffffffffffffffff1681526020019081526020016000206000828254610f769190612708565b92505081905550816002600083815260200190815260200160002060006101000a81548173ffffffffffffffffffffffffffffffffffffffff021916908373ffffffffffffffffffffffffffffffffffffffff160217905550808273ffffffffffffffffffffffffffffffffffffffff168473ffffffffffffffffffffffffffffffffffffffff167fddf252ad1be2c89b69c2b068fc378daa952ba7f163c4a11628f55a4df523b3ef60405160405180910390a4505050565b8173ffffffffffffffffffffffffffffffffffffffff168373ffffffffffffffffffffffffffffffffffffffff16141561109e576040517f08c379a000000000000000000000000000000000000000000000000000000000815260040161109590612479565b60405180910390fd5b80600560008573ffffffffffffffffffffffffffffffffffffffff1673ffffffffffffffffffffffffffffffffffffffff16815260200190815260200160002060008473ffffffffffffffffffffffffffffffffffffffff1673ffffffffffffffffffffffffffffffffffffffff16815260200190815260200160002060006101000a81548160ff0219169083151502179055508173ffffffffffffffffffffffffffffffffffffffff168373ffffffffffffffffffffffffffffffffffffffff167f17307eab39ab6107e8899845ad3d59bd9653f200f220920489ca2b5937696c318360405161118f91906123dc565b60405180910390a3505050565b6111a7848484610dd3565b6111b3848484846114fd565b6111f2576040517f08c379a00000000000000000000000000000000000000000000000000000000081526004016111e990612419565b60405180910390fd5b50505050565b606060405180602001604052806000815250905090565b606061121a82610bc8565b611259576040517f08c379a0000000000000000000000000000000000000000000000000000000008152600401611250906125b9565b60405180910390fd5b60006112636111f8565b9050600081511161128357604051806020016040528060008152506112ae565b8061128d84611694565b60405160200161129e929190612351565b6040516020818303038152906040525b915050919050565b600073ffffffffffffffffffffffffffffffffffffffff168273ffffffffffffffffffffffffffffffffffffffff161415611326576040517f08c379a000000000000000000000000000000000000000000000000000000000815260040161131d90612539565b60405180910390fd5b61132f81610bc8565b1561136f576040517f08c379a000000000000000000000000000000000000000000000000000000000815260040161136690612439565b60405180910390fd5b61137b600083836114f8565b6001600360008473ffffffffffffffffffffffffffffffffffffffff1673ffffffffffffffffffffffffffffffffffffffff16815260200190815260200160002060008282546113cb9190612708565b92505081905550816002600083815260200190815260200160002060006101000a81548173ffffffffffffffffffffffffffffffffffffffff021916908373ffffffffffffffffffffffffffffffffffffffff160217905550808273ffffffffffffffffffffffffffffffffffffffff16600073ffffffffffffffffffffffffffffffffffffffff167fddf252ad1be2c89b69c2b068fc378daa952ba7f163c4a11628f55a4df523b3ef60405160405180910390a45050565b61148d82610bc8565b6114cc576040517f08c379a00000000000000000000000000000000000000000000000000000000081526004016114c390612519565b60405180910390fd5b806006600084815260200190815260200160002090805190602001906114f3929190611854565b505050565b505050565b600061151e8473ffffffffffffffffffffffffffffffffffffffff16611841565b15611687578373ffffffffffffffffffffffffffffffffffffffff1663150b7a02611547610c34565b8786866040518563ffffffff1660e01b81526004016115699493929190612390565b602060405180830381600087803b15801561158357600080fd5b505af19250505080156115b457506040513d601f19601f820116820180604052508101906115b19190611c00565b60015b611637573d80600081146115e4576040519150601f19603f3d011682016040523d82523d6000602084013e6115e9565b606091505b5060008151141561162f576040517f08c379a000000000000000000000000000000000000000000000000000000000815260040161162690612419565b60405180910390fd5b805181602001fd5b63150b7a0260e01b7bffffffffffffffffffffffffffffffffffffffffffffffffffffffff1916817bffffffffffffffffffffffffffffffffffffffffffffffffffffffff19161491505061168c565b600190505b949350505050565b606060008214156116dc576040518060400160405280600181526020017f3000000000000000000000000000000000000000000000000000000000000000815250905061183c565b600082905060005b6000821461170e5780806116f7906128ab565b915050600a82611707919061275e565b91506116e4565b60008167ffffffffffffffff811115611750577f4e487b7100000000000000000000000000000000000000000000000000000000600052604160045260246000fd5b6040519080825280601f01601f1916602001820160405280156117825781602001600182028036833780820191505090505b5090505b600085146118355760018261179b919061278f565b9150600a856117aa91906128f4565b60306117b69190612708565b60f81b8183815181106117f2577f4e487b7100000000000000000000000000000000000000000000000000000000600052603260045260246000fd5b60200101907effffffffffffffffffffffffffffffffffffffffffffffffffffffffffffff1916908160001a905350600a8561182e919061275e565b9450611786565b8093505050505b919050565b600080823b905060008111915050919050565b82805461186090612879565b90600052602060002090601f01602090048101928261188257600085556118c9565b82601f1061189b57805160ff19168380011785556118c9565b828001600101855582156118c9579182015b828111156118c85782518255916020019190600101906118ad565b5b5090506118d691906118da565b5090565b5b808211156118f35760008160009055506001016118db565b5090565b600061190a61190584612665565b612634565b90508281526020810184848401111561192257600080fd5b61192d848285612837565b509392505050565b600061194861194384612695565b612634565b90508281526020810184848401111561196057600080fd5b61196b848285612837565b509392505050565b600081359050611982816129f2565b92915050565b60008135905061199781612a09565b92915050565b6000813590506119ac81612a20565b92915050565b6000815190506119c181612a20565b92915050565b600082601f8301126119d857600080fd5b81356119e88482602086016118f7565b91505092915050565b600082601f830112611a0257600080fd5b8135611a12848260208601611935565b91505092915050565b600081359050611a2a81612a37565b92915050565b600060208284031215611a4257600080fd5b6000611a5084828501611973565b91505092915050565b60008060408385031215611a6c57600080fd5b6000611a7a85828601611973565b9250506020611a8b85828601611973565b9150509250929050565b600080600060608486031215611aaa57600080fd5b6000611ab886828701611973565b9350506020611ac986828701611973565b9250506040611ada86828701611a1b565b9150509250925092565b60008060008060808587031215611afa57600080fd5b6000611b0887828801611973565b9450506020611b1987828801611973565b9350506040611b2a87828801611a1b565b925050606085013567ffffffffffffffff811115611b4757600080fd5b611b53878288016119c7565b91505092959194509250565b60008060408385031215611b7257600080fd5b6000611b8085828601611973565b9250506020611b9185828601611988565b9150509250929050565b60008060408385031215611bae57600080fd5b6000611bbc85828601611973565b9250506020611bcd85828601611a1b565b9150509250929050565b600060208284031215611be957600080fd5b6000611bf78482850161199d565b91505092915050565b600060208284031215611c1257600080fd5b6000611c20848285016119b2565b91505092915050565b600060208284031215611c3b57600080fd5b600082013567ffffffffffffffff811115611c5557600080fd5b611c61848285016119f1565b91505092915050565b600060208284031215611c7c57600080fd5b6000611c8a84828501611a1b565b91505092915050565b611c9c816127c3565b82525050565b611cab816127d5565b82525050565b6000611cbc826126c5565b611cc681856126db565b9350611cd6818560208601612846565b611cdf816129e1565b840191505092915050565b6000611cf5826126d0565b611cff81856126ec565b9350611d0f818560208601612846565b611d18816129e1565b840191505092915050565b6000611d2e826126d0565b611d3881856126fd565b9350611d48818560208601612846565b80840191505092915050565b6000611d616032836126ec565b91507f4552433732313a207472616e7366657220746f206e6f6e20455243373231526560008301527f63656976657220696d706c656d656e74657200000000000000000000000000006020830152604082019050919050565b6000611dc7601c836126ec565b91507f4552433732313a20746f6b656e20616c7265616479206d696e746564000000006000830152602082019050919050565b6000611e076024836126ec565b91507f4552433732313a207472616e7366657220746f20746865207a65726f2061646460008301527f72657373000000000000000000000000000000000000000000000000000000006020830152604082019050919050565b6000611e6d6019836126ec565b91507f4552433732313a20617070726f766520746f2063616c6c6572000000000000006000830152602082019050919050565b6000611ead602c836126ec565b91507f4552433732313a206f70657261746f7220717565727920666f72206e6f6e657860008301527f697374656e7420746f6b656e00000000000000000000000000000000000000006020830152604082019050919050565b6000611f136038836126ec565b91507f4552433732313a20617070726f76652063616c6c6572206973206e6f74206f7760008301527f6e6572206e6f7220617070726f76656420666f7220616c6c00000000000000006020830152604082019050919050565b6000611f79602a836126ec565b91507f4552433732313a2062616c616e636520717565727920666f7220746865207a6560008301527f726f2061646472657373000000000000000000000000000000000000000000006020830152604082019050919050565b6000611fdf6029836126ec565b91507f4552433732313a206f776e657220717565727920666f72206e6f6e657869737460008301527f656e7420746f6b656e00000000000000000000000000000000000000000000006020830152604082019050919050565b6000612045602e836126ec565b91507f45524337323155524953746f726167653a2055524920736574206f66206e6f6e60008301527f6578697374656e7420746f6b656e0000000000000000000000000000000000006020830152604082019050919050565b60006120ab6020836126ec565b91507f4552433732313a206d696e7420746f20746865207a65726f20616464726573736000830152602082019050919050565b60006120eb6031836126ec565b91507f45524337323155524953746f726167653a2055524920717565727920666f722060008301527f6e6f6e6578697374656e7420746f6b656e0000000000000000000000000000006020830152604082019050919050565b6000612151602c836126ec565b91507f4552433732313a20617070726f76656420717565727920666f72206e6f6e657860008301527f697374656e7420746f6b656e00000000000000000000000000000000000000006020830152604082019050919050565b60006121b76029836126ec565b91507f4552433732313a207472616e73666572206f6620746f6b656e2074686174206960008301527f73206e6f74206f776e00000000000000000000000000000000000000000000006020830152604082019050919050565b600061221d602f836126ec565b91507f4552433732314d657461646174613a2055524920717565727920666f72206e6f60008301527f6e6578697374656e7420746f6b656e00000000000000000000000000000000006020830152604082019050919050565b60006122836021836126ec565b91507f4552433732313a20617070726f76616c20746f2063757272656e74206f776e6560008301527f72000000000000000000000000000000000000000000000000000000000000006020830152604082019050919050565b60006122e96031836126ec565b91507f4552433732313a207472616e736665722063616c6c6572206973206e6f74206f60008301527f776e6572206e6f7220617070726f7665640000000000000000000000000000006020830152604082019050919050565b61234b8161282d565b82525050565b600061235d8285611d23565b91506123698284611d23565b91508190509392505050565b600060208201905061238a6000830184611c93565b92915050565b60006080820190506123a56000830187611c93565b6123b26020830186611c93565b6123bf6040830185612342565b81810360608301526123d18184611cb1565b905095945050505050565b60006020820190506123f16000830184611ca2565b92915050565b600060208201905081810360008301526124118184611cea565b905092915050565b6000602082019050818103600083015261243281611d54565b9050919050565b6000602082019050818103600083015261245281611dba565b9050919050565b6000602082019050818103600083015261247281611dfa565b9050919050565b6000602082019050818103600083015261249281611e60565b9050919050565b600060208201905081810360008301526124b281611ea0565b9050919050565b600060208201905081810360008301526124d281611f06565b9050919050565b600060208201905081810360008301526124f281611f6c565b9050919050565b6000602082019050818103600083015261251281611fd2565b9050919050565b6000602082019050818103600083015261253281612038565b9050919050565b600060208201905081810360008301526125528161209e565b9050919050565b60006020820190508181036000830152612572816120de565b9050919050565b6000602082019050818103600083015261259281612144565b9050919050565b600060208201905081810360008301526125b2816121aa565b9050919050565b600060208201905081810360008301526125d281612210565b9050919050565b600060208201905081810360008301526125f281612276565b9050919050565b60006020820190508181036000830152612612816122dc565b9050919050565b600060208201905061262e6000830184612342565b92915050565b6000604051905081810181811067ffffffffffffffff8211171561265b5761265a6129b2565b5b8060405250919050565b600067ffffffffffffffff8211156126805761267f6129b2565b5b601f19601f8301169050602081019050919050565b600067ffffffffffffffff8211156126b0576126af6129b2565b5b601f19601f8301169050602081019050919050565b600081519050919050565b600081519050919050565b600082825260208201905092915050565b600082825260208201905092915050565b600081905092915050565b60006127138261282d565b915061271e8361282d565b9250827fffffffffffffffffffffffffffffffffffffffffffffffffffffffffffffffff0382111561275357612752612925565b5b828201905092915050565b60006127698261282d565b91506127748361282d565b92508261278457612783612954565b5b828204905092915050565b600061279a8261282d565b91506127a58361282d565b9250828210156127b8576127b7612925565b5b828203905092915050565b60006127ce8261280d565b9050919050565b60008115159050919050565b60007fffffffff0000000000000000000000000000000000000000000000000000000082169050919050565b600073ffffffffffffffffffffffffffffffffffffffff82169050919050565b6000819050919050565b82818337600083830152505050565b60005b83811015612864578082015181840152602081019050612849565b83811115612873576000848401525b50505050565b6000600282049050600182168061289157607f821691505b602082108114156128a5576128a4612983565b5b50919050565b60006128b68261282d565b91507fffffffffffffffffffffffffffffffffffffffffffffffffffffffffffffffff8214156128e9576128e8612925565b5b600182019050919050565b60006128ff8261282d565b915061290a8361282d565b92508261291a57612919612954565b5b828206905092915050565b7f4e487b7100000000000000000000000000000000000000000000000000000000600052601160045260246000fd5b7f4e487b7100000000000000000000000000000000000000000000000000000000600052601260045260246000fd5b7f4e487b7100000000000000000000000000000000000000000000000000000000600052602260045260246000fd5b7f4e487b7100000000000000000000000000000000000000000000000000000000600052604160045260246000fd5b6000601f19601f8301169050919050565b6129fb816127c3565b8114612a0657600080fd5b50565b612a12816127d5565b8114612a1d57600080fd5b50565b612a29816127e1565b8114612a3457600080fd5b50565b612a408161282d565b8114612a4b57600080fd5b5056fea264697066735822122077ca4f8cf72cc0e47ba69c0142aa5c9d38b12641edd68625d11d5733884e1a6264736f6c63430008000033",
  "linkReferences": {},
  "deployedLinkReferences": {}
}