{
  "_format": "hh-sol-artifact-1",
  "contractName": "NFT",
  "sourceName": "contracts/AuctionBox.sol",
  "abi": [
    {
      "inputs": [],
      "stateMutability": "nonpayable",
      "type": "constructor"
    },
    {
      "anonymous": false,
      "inputs": [
        {
          "indexed": true,
          "internalType": "address",
          "name": "owner",
          "type": "address"
        },
        {
          "indexed": true,
          "internalType": "address",
          "name": "approved",
          "type": "address"
        },
        {
          "indexed": true,
          "internalType": "uint256",
          "name": "tokenId",
          "type": "uint256"
        }
      ],
      "name": "Approval",
      "type": "event"
    },
    {
      "anonymous": false,
      "inputs": [
        {
          "indexed": true,
          "internalType": "address",
          "name": "owner",
          "type": "address"
        },
        {
          "indexed": true,
          "internalType": "address",
          "name": "operator",
          "type": "address"
        },
        {
          "indexed": false,
          "internalType": "bool",
          "name": "approved",
          "type": "bool"
        }
      ],
      "name": "ApprovalForAll",
      "type": "event"
    },
    {
      "anonymous": false,
      "inputs": [
        {
          "indexed": false,
          "internalType": "uint256",
          "name": "newItemId",
          "type": "uint256"
        },
        {
          "indexed": false,
          "internalType": "string",
          "name": "tokenURI",
          "type": "string"
        }
      ],
      "name": "NFTCreated",
      "type": "event"
    },
    {
      "anonymous": false,
      "inputs": [
        {
          "indexed": true,
          "internalType": "address",
          "name": "from",
          "type": "address"
        },
        {
          "indexed": true,
          "internalType": "address",
          "name": "to",
          "type": "address"
        },
        {
          "indexed": true,
          "internalType": "uint256",
          "name": "tokenId",
          "type": "uint256"
        }
      ],
      "name": "Transfer",
      "type": "event"
    },
    {
      "inputs": [
        {
          "internalType": "address",
          "name": "to",
          "type": "address"
        },
        {
          "internalType": "uint256",
          "name": "tokenId",
          "type": "uint256"
        }
      ],
      "name": "approve",
      "outputs": [],
      "stateMutability": "nonpayable",
      "type": "function"
    },
    {
      "inputs": [
        {
          "internalType": "address",
          "name": "owner",
          "type": "address"
        }
      ],
      "name": "balanceOf",
      "outputs": [
        {
          "internalType": "uint256",
          "name": "",
          "type": "uint256"
        }
      ],
      "stateMutability": "view",
      "type": "function"
    },
    {
      "inputs": [
        {
          "internalType": "uint256",
          "name": "tokenId",
          "type": "uint256"
        }
      ],
      "name": "getApproved",
      "outputs": [
        {
          "internalType": "address",
          "name": "",
          "type": "address"
        }
      ],
      "stateMutability": "view",
      "type": "function"
    },
    {
      "inputs": [
        {
          "internalType": "address",
          "name": "owner",
          "type": "address"
        },
        {
          "internalType": "address",
          "name": "operator",
          "type": "address"
        }
      ],
      "name": "isApprovedForAll",
      "outputs": [
        {
          "internalType": "bool",
          "name": "",
          "type": "bool"
        }
      ],
      "stateMutability": "view",
      "type": "function"
    },
    {
      "inputs": [
        {
          "internalType": "string",
          "name": "svg",
          "type": "string"
        },
        {
          "internalType": "string",
          "name": "_title",
          "type": "string"
        },
        {
          "internalType": "string",
          "name": "_description",
          "type": "string"
        }
      ],
      "name": "mintNFT",
      "outputs": [
        {
          "internalType": "uint256",
          "name": "",
          "type": "uint256"
        }
      ],
      "stateMutability": "nonpayable",
      "type": "function"
    },
    {
      "inputs": [],
      "name": "name",
      "outputs": [
        {
          "internalType": "string",
          "name": "",
          "type": "string"
        }
      ],
      "stateMutability": "view",
      "type": "function"
    },
    {
      "inputs": [
        {
          "internalType": "uint256",
          "name": "tokenId",
          "type": "uint256"
        }
      ],
      "name": "ownerOf",
      "outputs": [
        {
          "internalType": "address",
          "name": "",
          "type": "address"
        }
      ],
      "stateMutability": "view",
      "type": "function"
    },
    {
      "inputs": [
        {
          "internalType": "address",
          "name": "from",
          "type": "address"
        },
        {
          "internalType": "address",
          "name": "to",
          "type": "address"
        },
        {
          "internalType": "uint256",
          "name": "tokenId",
          "type": "uint256"
        }
      ],
      "name": "safeTransferFrom",
      "outputs": [],
      "stateMutability": "nonpayable",
      "type": "function"
    },
    {
      "inputs": [
        {
          "internalType": "address",
          "name": "from",
          "type": "address"
        },
        {
          "internalType": "address",
          "name": "to",
          "type": "address"
        },
        {
          "internalType": "uint256",
          "name": "tokenId",
          "type": "uint256"
        },
        {
          "internalType": "bytes",
          "name": "_data",
          "type": "bytes"
        }
      ],
      "name": "safeTransferFrom",
      "outputs": [],
      "stateMutability": "nonpayable",
      "type": "function"
    },
    {
      "inputs": [
        {
          "internalType": "address",
          "name": "operator",
          "type": "address"
        },
        {
          "internalType": "bool",
          "name": "approved",
          "type": "bool"
        }
      ],
      "name": "setApprovalForAll",
      "outputs": [],
      "stateMutability": "nonpayable",
      "type": "function"
    },
    {
      "inputs": [
        {
          "internalType": "bytes4",
          "name": "interfaceId",
          "type": "bytes4"
        }
      ],
      "name": "supportsInterface",
      "outputs": [
        {
          "internalType": "bool",
          "name": "",
          "type": "bool"
        }
      ],
      "stateMutability": "view",
      "type": "function"
    },
    {
      "inputs": [],
      "name": "symbol",
      "outputs": [
        {
          "internalType": "string",
          "name": "",
          "type": "string"
        }
      ],
      "stateMutability": "view",
      "type": "function"
    },
    {
      "inputs": [],
      "name": "tokenCounter",
      "outputs": [
        {
          "internalType": "uint256",
          "name": "",
          "type": "uint256"
        }
      ],
      "stateMutability": "view",
      "type": "function"
    },
    {
      "inputs": [
        {
          "internalType": "uint256",
          "name": "tokenId",
          "type": "uint256"
        }
      ],
      "name": "tokenURI",
      "outputs": [
        {
          "internalType": "string",
          "name": "",
          "type": "string"
        }
      ],
      "stateMutability": "view",
      "type": "function"
    },
    {
      "inputs": [
        {
          "internalType": "address",
          "name": "from",
          "type": "address"
        },
        {
          "internalType": "address",
          "name": "to",
          "type": "address"
        },
        {
          "internalType": "uint256",
          "name": "tokenId",
          "type": "uint256"
        }
      ],
      "name": "transferFrom",
      "outputs": [],
      "stateMutability": "nonpayable",
      "type": "function"
    }
  ],
  "bytecode": "0x60806040523480156200001157600080fd5b506040518060400160405280600981526020017f4e69676761204e465400000000000000000000000000000000000000000000008152506040518060400160405280600881526020017f4e696767614e4654000000000000000000000000000000000000000000000000815250816000908051906020019062000096929190620000c0565b508060019080519060200190620000af929190620000c0565b5050506000600781905550620001d5565b828054620000ce9062000170565b90600052602060002090601f016020900481019282620000f257600085556200013e565b82601f106200010d57805160ff19168380011785556200013e565b828001600101855582156200013e579182015b828111156200013d57825182559160200191906001019062000120565b5b5090506200014d919062000151565b5090565b5b808211156200016c57600081600090555060010162000152565b5090565b600060028204905060018216806200018957607f821691505b60208210811415620001a0576200019f620001a6565b5b50919050565b7f4e487b7100000000000000000000000000000000000000000000000000000000600052602260045260246000fd5b6130fc80620001e56000396000f3fe608060405234801561001057600080fd5b50600436106100f55760003560e01c80636352211e11610097578063b88d4fde11610066578063b88d4fde14610296578063c87b56dd146102b2578063d082e381146102e2578063e985e9c514610300576100f5565b80636352211e146101fc57806370a082311461022c57806395d89b411461025c578063a22cb4651461027a576100f5565b8063095ea7b3116100d3578063095ea7b3146101785780630c3b7b721461019457806323b872dd146101c457806342842e0e146101e0576100f5565b806301ffc9a7146100fa57806306fdde031461012a578063081812fc14610148575b600080fd5b610114600480360381019061010f9190611eb8565b610330565b604051610121919061298a565b60405180910390f35b610132610412565b60405161013f91906129a5565b60405180910390f35b610162600480360381019061015d9190611fa1565b6104a4565b60405161016f9190612923565b60405180910390f35b610192600480360381019061018d9190611e7c565b610529565b005b6101ae60048036038101906101a99190611f0a565b610641565b6040516101bb9190612bc7565b60405180910390f35b6101de60048036038101906101d99190611d76565b6106d7565b005b6101fa60048036038101906101f59190611d76565b610737565b005b61021660048036038101906102119190611fa1565b610757565b6040516102239190612923565b60405180910390f35b61024660048036038101906102419190611d11565b610809565b6040516102539190612bc7565b60405180910390f35b6102646108c1565b60405161027191906129a5565b60405180910390f35b610294600480360381019061028f9190611e40565b610953565b005b6102b060048036038101906102ab9190611dc5565b610969565b005b6102cc60048036038101906102c79190611fa1565b6109cb565b6040516102d991906129a5565b60405180910390f35b6102ea610b1d565b6040516102f79190612bc7565b60405180910390f35b61031a60048036038101906103159190611d3a565b610b23565b604051610327919061298a565b60405180910390f35b60007f80ac58cd000000000000000000000000000000000000000000000000000000007bffffffffffffffffffffffffffffffffffffffffffffffffffffffff1916827bffffffffffffffffffffffffffffffffffffffffffffffffffffffff191614806103fb57507f5b5e139f000000000000000000000000000000000000000000000000000000007bffffffffffffffffffffffffffffffffffffffffffffffffffffffff1916827bffffffffffffffffffffffffffffffffffffffffffffffffffffffff1916145b8061040b575061040a82610bb7565b5b9050919050565b60606000805461042190612eb1565b80601f016020809104026020016040519081016040528092919081815260200182805461044d90612eb1565b801561049a5780601f1061046f5761010080835404028352916020019161049a565b820191906000526020600020905b81548152906001019060200180831161047d57829003601f168201915b5050505050905090565b60006104af82610c21565b6104ee576040517f08c379a00000000000000000000000000000000000000000000000000000000081526004016104e590612b27565b60405180910390fd5b6004600083815260200190815260200160002060009054906101000a900473ffffffffffffffffffffffffffffffffffffffff169050919050565b600061053482610757565b90508073ffffffffffffffffffffffffffffffffffffffff168373ffffffffffffffffffffffffffffffffffffffff1614156105a5576040517f08c379a000000000000000000000000000000000000000000000000000000000815260040161059c90612b87565b60405180910390fd5b8073ffffffffffffffffffffffffffffffffffffffff166105c4610c8d565b73ffffffffffffffffffffffffffffffffffffffff1614806105f357506105f2816105ed610c8d565b610b23565b5b610632576040517f08c379a000000000000000000000000000000000000000000000000000000000815260040161062990612a67565b60405180910390fd5b61063c8383610c95565b505050565b60008060075490506106533382610d4e565b600061065e86610f1c565b9050600061066d828787610faf565b90506106798382611005565b7fe883eeefa7f620d513eac93479fc9f54ce03f9f4a72c0d818311a9d19556e87983826040516106aa929190612be2565b60405180910390a1600760008154809291906106c590612ee3565b91905055508293505050509392505050565b6106e86106e2610c8d565b82611079565b610727576040517f08c379a000000000000000000000000000000000000000000000000000000000815260040161071e90612ba7565b60405180910390fd5b610732838383611157565b505050565b61075283838360405180602001604052806000815250610969565b505050565b6000806002600084815260200190815260200160002060009054906101000a900473ffffffffffffffffffffffffffffffffffffffff169050600073ffffffffffffffffffffffffffffffffffffffff168173ffffffffffffffffffffffffffffffffffffffff161415610800576040517f08c379a00000000000000000000000000000000000000000000000000000000081526004016107f790612aa7565b60405180910390fd5b80915050919050565b60008073ffffffffffffffffffffffffffffffffffffffff168273ffffffffffffffffffffffffffffffffffffffff16141561087a576040517f08c379a000000000000000000000000000000000000000000000000000000000815260040161087190612a87565b60405180910390fd5b600360008373ffffffffffffffffffffffffffffffffffffffff1673ffffffffffffffffffffffffffffffffffffffff168152602001908152602001600020549050919050565b6060600180546108d090612eb1565b80601f01602080910402602001604051908101604052809291908181526020018280546108fc90612eb1565b80156109495780601f1061091e57610100808354040283529160200191610949565b820191906000526020600020905b81548152906001019060200180831161092c57829003601f168201915b5050505050905090565b61096561095e610c8d565b83836113b3565b5050565b61097a610974610c8d565b83611079565b6109b9576040517f08c379a00000000000000000000000000000000000000000000000000000000081526004016109b090612ba7565b60405180910390fd5b6109c584848484611520565b50505050565b60606109d682610c21565b610a15576040517f08c379a0000000000000000000000000000000000000000000000000000000008152600401610a0c90612b07565b60405180910390fd5b6000600660008481526020019081526020016000208054610a3590612eb1565b80601f0160208091040260200160405190810160405280929190818152602001828054610a6190612eb1565b8015610aae5780601f10610a8357610100808354040283529160200191610aae565b820191906000526020600020905b815481529060010190602001808311610a9157829003601f168201915b505050505090506000610abf61157c565b9050600081511415610ad5578192505050610b18565b600082511115610b0a578082604051602001610af292919061285f565b60405160208183030381529060405292505050610b18565b610b1384611593565b925050505b919050565b60075481565b6000600560008473ffffffffffffffffffffffffffffffffffffffff1673ffffffffffffffffffffffffffffffffffffffff16815260200190815260200160002060008373ffffffffffffffffffffffffffffffffffffffff1673ffffffffffffffffffffffffffffffffffffffff16815260200190815260200160002060009054906101000a900460ff16905092915050565b60007f01ffc9a7000000000000000000000000000000000000000000000000000000007bffffffffffffffffffffffffffffffffffffffffffffffffffffffff1916827bffffffffffffffffffffffffffffffffffffffffffffffffffffffff1916149050919050565b60008073ffffffffffffffffffffffffffffffffffffffff166002600084815260200190815260200160002060009054906101000a900473ffffffffffffffffffffffffffffffffffffffff1673ffffffffffffffffffffffffffffffffffffffff1614159050919050565b600033905090565b816004600083815260200190815260200160002060006101000a81548173ffffffffffffffffffffffffffffffffffffffff021916908373ffffffffffffffffffffffffffffffffffffffff160217905550808273ffffffffffffffffffffffffffffffffffffffff16610d0883610757565b73ffffffffffffffffffffffffffffffffffffffff167f8c5be1e5ebec7d5bd14f71427d1e84f3dd0314c0f7b2291e5b200ac8c7c3b92560405160405180910390a45050565b600073ffffffffffffffffffffffffffffffffffffffff168273ffffffffffffffffffffffffffffffffffffffff161415610dbe576040517f08c379a0000000000000000000000000000000000000000000000000000000008152600401610db590612ae7565b60405180910390fd5b610dc781610c21565b15610e07576040517f08c379a0000000000000000000000000000000000000000000000000000000008152600401610dfe906129e7565b60405180910390fd5b610e136000838361163a565b6001600360008473ffffffffffffffffffffffffffffffffffffffff1673ffffffffffffffffffffffffffffffffffffffff1681526020019081526020016000206000828254610e639190612ce6565b92505081905550816002600083815260200190815260200160002060006101000a81548173ffffffffffffffffffffffffffffffffffffffff021916908373ffffffffffffffffffffffffffffffffffffffff160217905550808273ffffffffffffffffffffffffffffffffffffffff16600073ffffffffffffffffffffffffffffffffffffffff167fddf252ad1be2c89b69c2b068fc378daa952ba7f163c4a11628f55a4df523b3ef60405160405180910390a45050565b606060006040518060400160405280601a81526020017f646174613a696d6167652f7376672b786d6c3b6261736536342c00000000000081525090506000610f8284604051602001610f6e9190612848565b60405160208183030381529060405261163f565b90508181604051602001610f9792919061285f565b60405160208183030381529060405292505050919050565b6060610fdd838386604051602001610fc993929190612883565b60405160208183030381529060405261163f565b604051602001610fed9190612901565b60405160208183030381529060405290509392505050565b61100e82610c21565b61104d576040517f08c379a000000000000000000000000000000000000000000000000000000000815260040161104490612ac7565b60405180910390fd5b80600660008481526020019081526020016000209080519060200190611074929190611b35565b505050565b600061108482610c21565b6110c3576040517f08c379a00000000000000000000000000000000000000000000000000000000081526004016110ba90612a47565b60405180910390fd5b60006110ce83610757565b90508073ffffffffffffffffffffffffffffffffffffffff168473ffffffffffffffffffffffffffffffffffffffff16148061113d57508373ffffffffffffffffffffffffffffffffffffffff16611125846104a4565b73ffffffffffffffffffffffffffffffffffffffff16145b8061114e575061114d8185610b23565b5b91505092915050565b8273ffffffffffffffffffffffffffffffffffffffff1661117782610757565b73ffffffffffffffffffffffffffffffffffffffff16146111cd576040517f08c379a00000000000000000000000000000000000000000000000000000000081526004016111c490612b47565b60405180910390fd5b600073ffffffffffffffffffffffffffffffffffffffff168273ffffffffffffffffffffffffffffffffffffffff16141561123d576040517f08c379a000000000000000000000000000000000000000000000000000000000815260040161123490612a07565b60405180910390fd5b61124883838361163a565b611253600082610c95565b6001600360008573ffffffffffffffffffffffffffffffffffffffff1673ffffffffffffffffffffffffffffffffffffffff16815260200190815260200160002060008282546112a39190612dc7565b925050819055506001600360008473ffffffffffffffffffffffffffffffffffffffff1673ffffffffffffffffffffffffffffffffffffffff16815260200190815260200160002060008282546112fa9190612ce6565b92505081905550816002600083815260200190815260200160002060006101000a81548173ffffffffffffffffffffffffffffffffffffffff021916908373ffffffffffffffffffffffffffffffffffffffff160217905550808273ffffffffffffffffffffffffffffffffffffffff168473ffffffffffffffffffffffffffffffffffffffff167fddf252ad1be2c89b69c2b068fc378daa952ba7f163c4a11628f55a4df523b3ef60405160405180910390a4505050565b8173ffffffffffffffffffffffffffffffffffffffff168373ffffffffffffffffffffffffffffffffffffffff161415611422576040517f08c379a000000000000000000000000000000000000000000000000000000000815260040161141990612a27565b60405180910390fd5b80600560008573ffffffffffffffffffffffffffffffffffffffff1673ffffffffffffffffffffffffffffffffffffffff16815260200190815260200160002060008473ffffffffffffffffffffffffffffffffffffffff1673ffffffffffffffffffffffffffffffffffffffff16815260200190815260200160002060006101000a81548160ff0219169083151502179055508173ffffffffffffffffffffffffffffffffffffffff168373ffffffffffffffffffffffffffffffffffffffff167f17307eab39ab6107e8899845ad3d59bd9653f200f220920489ca2b5937696c3183604051611513919061298a565b60405180910390a3505050565b61152b848484611157565b611537848484846117de565b611576576040517f08c379a000000000000000000000000000000000000000000000000000000000815260040161156d906129c7565b60405180910390fd5b50505050565b606060405180602001604052806000815250905090565b606061159e82610c21565b6115dd576040517f08c379a00000000000000000000000000000000000000000000000000000000081526004016115d490612b67565b60405180910390fd5b60006115e761157c565b905060008151116116075760405180602001604052806000815250611632565b8061161184611975565b60405160200161162292919061285f565b6040516020818303038152906040525b915050919050565b505050565b6060600082511415611662576040518060200160405280600081525090506117d9565b600060405180606001604052806040815260200161308760409139905060006003600285516116919190612ce6565b61169b9190612d3c565b60046116a79190612d6d565b905060006020826116b89190612ce6565b67ffffffffffffffff8111156116f7577f4e487b7100000000000000000000000000000000000000000000000000000000600052604160045260246000fd5b6040519080825280601f01601f1916602001820160405280156117295781602001600182028036833780820191505090505b509050818152600183018586518101602084015b81831015611798576003830192508251603f8160121c168501518253600182019150603f81600c1c168501518253600182019150603f8160061c168501518253600182019150603f811685015182536001820191505061173d565b6003895106600181146117b257600281146117c2576117cd565b613d3d60f01b60028303526117cd565b603d60f81b60018303525b50505050508093505050505b919050565b60006117ff8473ffffffffffffffffffffffffffffffffffffffff16611b22565b15611968578373ffffffffffffffffffffffffffffffffffffffff1663150b7a02611828610c8d565b8786866040518563ffffffff1660e01b815260040161184a949392919061293e565b602060405180830381600087803b15801561186457600080fd5b505af192505050801561189557506040513d601f19601f820116820180604052508101906118929190611ee1565b60015b611918573d80600081146118c5576040519150601f19603f3d011682016040523d82523d6000602084013e6118ca565b606091505b50600081511415611910576040517f08c379a0000000000000000000000000000000000000000000000000000000008152600401611907906129c7565b60405180910390fd5b805181602001fd5b63150b7a0260e01b7bffffffffffffffffffffffffffffffffffffffffffffffffffffffff1916817bffffffffffffffffffffffffffffffffffffffffffffffffffffffff19161491505061196d565b600190505b949350505050565b606060008214156119bd576040518060400160405280600181526020017f30000000000000000000000000000000000000000000000000000000000000008152509050611b1d565b600082905060005b600082146119ef5780806119d890612ee3565b915050600a826119e89190612d3c565b91506119c5565b60008167ffffffffffffffff811115611a31577f4e487b7100000000000000000000000000000000000000000000000000000000600052604160045260246000fd5b6040519080825280601f01601f191660200182016040528015611a635781602001600182028036833780820191505090505b5090505b60008514611b1657600182611a7c9190612dc7565b9150600a85611a8b9190612f2c565b6030611a979190612ce6565b60f81b818381518110611ad3577f4e487b7100000000000000000000000000000000000000000000000000000000600052603260045260246000fd5b60200101907effffffffffffffffffffffffffffffffffffffffffffffffffffffffffffff1916908160001a905350600a85611b0f9190612d3c565b9450611a67565b8093505050505b919050565b600080823b905060008111915050919050565b828054611b4190612eb1565b90600052602060002090601f016020900481019282611b635760008555611baa565b82601f10611b7c57805160ff1916838001178555611baa565b82800160010185558215611baa579182015b82811115611ba9578251825591602001919060010190611b8e565b5b509050611bb79190611bbb565b5090565b5b80821115611bd4576000816000905550600101611bbc565b5090565b6000611beb611be684612c43565b612c12565b905082815260208101848484011115611c0357600080fd5b611c0e848285612e6f565b509392505050565b6000611c29611c2484612c73565b612c12565b905082815260208101848484011115611c4157600080fd5b611c4c848285612e6f565b509392505050565b600081359050611c638161302a565b92915050565b600081359050611c7881613041565b92915050565b600081359050611c8d81613058565b92915050565b600081519050611ca281613058565b92915050565b600082601f830112611cb957600080fd5b8135611cc9848260208601611bd8565b91505092915050565b600082601f830112611ce357600080fd5b8135611cf3848260208601611c16565b91505092915050565b600081359050611d0b8161306f565b92915050565b600060208284031215611d2357600080fd5b6000611d3184828501611c54565b91505092915050565b60008060408385031215611d4d57600080fd5b6000611d5b85828601611c54565b9250506020611d6c85828601611c54565b9150509250929050565b600080600060608486031215611d8b57600080fd5b6000611d9986828701611c54565b9350506020611daa86828701611c54565b9250506040611dbb86828701611cfc565b9150509250925092565b60008060008060808587031215611ddb57600080fd5b6000611de987828801611c54565b9450506020611dfa87828801611c54565b9350506040611e0b87828801611cfc565b925050606085013567ffffffffffffffff811115611e2857600080fd5b611e3487828801611ca8565b91505092959194509250565b60008060408385031215611e5357600080fd5b6000611e6185828601611c54565b9250506020611e7285828601611c69565b9150509250929050565b60008060408385031215611e8f57600080fd5b6000611e9d85828601611c54565b9250506020611eae85828601611cfc565b9150509250929050565b600060208284031215611eca57600080fd5b6000611ed884828501611c7e565b91505092915050565b600060208284031215611ef357600080fd5b6000611f0184828501611c93565b91505092915050565b600080600060608486031215611f1f57600080fd5b600084013567ffffffffffffffff811115611f3957600080fd5b611f4586828701611cd2565b935050602084013567ffffffffffffffff811115611f6257600080fd5b611f6e86828701611cd2565b925050604084013567ffffffffffffffff811115611f8b57600080fd5b611f9786828701611cd2565b9150509250925092565b600060208284031215611fb357600080fd5b6000611fc184828501611cfc565b91505092915050565b611fd381612dfb565b82525050565b611fe281612e0d565b82525050565b6000611ff382612ca3565b611ffd8185612cb9565b935061200d818560208601612e7e565b61201681613019565b840191505092915050565b600061202c82612cae565b6120368185612cca565b9350612046818560208601612e7e565b61204f81613019565b840191505092915050565b600061206582612cae565b61206f8185612cdb565b935061207f818560208601612e7e565b80840191505092915050565b6000612098600983612cdb565b91507f7b226e616d65223a2200000000000000000000000000000000000000000000006000830152600982019050919050565b60006120d8603283612cca565b91507f4552433732313a207472616e7366657220746f206e6f6e20455243373231526560008301527f63656976657220696d706c656d656e74657200000000000000000000000000006020830152604082019050919050565b600061213e600f83612cdb565b91507f226465736372697074696f6e223a2200000000000000000000000000000000006000830152600f82019050919050565b600061217e600283612cdb565b91507f222c0000000000000000000000000000000000000000000000000000000000006000830152600282019050919050565b60006121be601c83612cca565b91507f4552433732313a20746f6b656e20616c7265616479206d696e746564000000006000830152602082019050919050565b60006121fe602483612cca565b91507f4552433732313a207472616e7366657220746f20746865207a65726f2061646460008301527f72657373000000000000000000000000000000000000000000000000000000006020830152604082019050919050565b6000612264601983612cca565b91507f4552433732313a20617070726f766520746f2063616c6c6572000000000000006000830152602082019050919050565b60006122a4602c83612cca565b91507f4552433732313a206f70657261746f7220717565727920666f72206e6f6e657860008301527f697374656e7420746f6b656e00000000000000000000000000000000000000006020830152604082019050919050565b600061230a603883612cca565b91507f4552433732313a20617070726f76652063616c6c6572206973206e6f74206f7760008301527f6e6572206e6f7220617070726f76656420666f7220616c6c00000000000000006020830152604082019050919050565b6000612370602a83612cca565b91507f4552433732313a2062616c616e636520717565727920666f7220746865207a6560008301527f726f2061646472657373000000000000000000000000000000000000000000006020830152604082019050919050565b60006123d6602983612cca565b91507f4552433732313a206f776e657220717565727920666f72206e6f6e657869737460008301527f656e7420746f6b656e00000000000000000000000000000000000000000000006020830152604082019050919050565b600061243c602e83612cca565b91507f45524337323155524953746f726167653a2055524920736574206f66206e6f6e60008301527f6578697374656e7420746f6b656e0000000000000000000000000000000000006020830152604082019050919050565b60006124a2600983612cdb565b91507f22696d616765223a2200000000000000000000000000000000000000000000006000830152600982019050919050565b60006124e2600283612cdb565b91507f227d0000000000000000000000000000000000000000000000000000000000006000830152600282019050919050565b6000612522602083612cca565b91507f4552433732313a206d696e7420746f20746865207a65726f20616464726573736000830152602082019050919050565b6000612562603183612cca565b91507f45524337323155524953746f726167653a2055524920717565727920666f722060008301527f6e6f6e6578697374656e7420746f6b656e0000000000000000000000000000006020830152604082019050919050565b60006125c8602c83612cca565b91507f4552433732313a20617070726f76656420717565727920666f72206e6f6e657860008301527f697374656e7420746f6b656e00000000000000000000000000000000000000006020830152604082019050919050565b600061262e602983612cca565b91507f4552433732313a207472616e73666572206f6620746f6b656e2074686174206960008301527f73206e6f74206f776e00000000000000000000000000000000000000000000006020830152604082019050919050565b6000612694602f83612cca565b91507f4552433732314d657461646174613a2055524920717565727920666f72206e6f60008301527f6e6578697374656e7420746f6b656e00000000000000000000000000000000006020830152604082019050919050565b60006126fa602183612cca565b91507f4552433732313a20617070726f76616c20746f2063757272656e74206f776e6560008301527f72000000000000000000000000000000000000000000000000000000000000006020830152604082019050919050565b6000612760601d83612cdb565b91507f646174613a6170706c69636174696f6e2f6a736f6e3b6261736536342c0000006000830152601d82019050919050565b60006127a0603183612cca565b91507f4552433732313a207472616e736665722063616c6c6572206973206e6f74206f60008301527f776e6572206e6f7220617070726f7665640000000000000000000000000000006020830152604082019050919050565b6000612806601083612cdb565b91507f2261747472696275746573223a22222c000000000000000000000000000000006000830152601082019050919050565b61284281612e65565b82525050565b6000612854828461205a565b915081905092915050565b600061286b828561205a565b9150612877828461205a565b91508190509392505050565b600061288e8261208b565b915061289a828661205a565b91506128a582612171565b91506128b082612131565b91506128bc828561205a565b91506128c782612171565b91506128d2826127f9565b91506128dd82612495565b91506128e9828461205a565b91506128f4826124d5565b9150819050949350505050565b600061290c82612753565b9150612918828461205a565b915081905092915050565b60006020820190506129386000830184611fca565b92915050565b60006080820190506129536000830187611fca565b6129606020830186611fca565b61296d6040830185612839565b818103606083015261297f8184611fe8565b905095945050505050565b600060208201905061299f6000830184611fd9565b92915050565b600060208201905081810360008301526129bf8184612021565b905092915050565b600060208201905081810360008301526129e0816120cb565b9050919050565b60006020820190508181036000830152612a00816121b1565b9050919050565b60006020820190508181036000830152612a20816121f1565b9050919050565b60006020820190508181036000830152612a4081612257565b9050919050565b60006020820190508181036000830152612a6081612297565b9050919050565b60006020820190508181036000830152612a80816122fd565b9050919050565b60006020820190508181036000830152612aa081612363565b9050919050565b60006020820190508181036000830152612ac0816123c9565b9050919050565b60006020820190508181036000830152612ae08161242f565b9050919050565b60006020820190508181036000830152612b0081612515565b9050919050565b60006020820190508181036000830152612b2081612555565b9050919050565b60006020820190508181036000830152612b40816125bb565b9050919050565b60006020820190508181036000830152612b6081612621565b9050919050565b60006020820190508181036000830152612b8081612687565b9050919050565b60006020820190508181036000830152612ba0816126ed565b9050919050565b60006020820190508181036000830152612bc081612793565b9050919050565b6000602082019050612bdc6000830184612839565b92915050565b6000604082019050612bf76000830185612839565b8181036020830152612c098184612021565b90509392505050565b6000604051905081810181811067ffffffffffffffff82111715612c3957612c38612fea565b5b8060405250919050565b600067ffffffffffffffff821115612c5e57612c5d612fea565b5b601f19601f8301169050602081019050919050565b600067ffffffffffffffff821115612c8e57612c8d612fea565b5b601f19601f8301169050602081019050919050565b600081519050919050565b600081519050919050565b600082825260208201905092915050565b600082825260208201905092915050565b600081905092915050565b6000612cf182612e65565b9150612cfc83612e65565b9250827fffffffffffffffffffffffffffffffffffffffffffffffffffffffffffffffff03821115612d3157612d30612f5d565b5b828201905092915050565b6000612d4782612e65565b9150612d5283612e65565b925082612d6257612d61612f8c565b5b828204905092915050565b6000612d7882612e65565b9150612d8383612e65565b9250817fffffffffffffffffffffffffffffffffffffffffffffffffffffffffffffffff0483118215151615612dbc57612dbb612f5d565b5b828202905092915050565b6000612dd282612e65565b9150612ddd83612e65565b925082821015612df057612def612f5d565b5b828203905092915050565b6000612e0682612e45565b9050919050565b60008115159050919050565b60007fffffffff0000000000000000000000000000000000000000000000000000000082169050919050565b600073ffffffffffffffffffffffffffffffffffffffff82169050919050565b6000819050919050565b82818337600083830152505050565b60005b83811015612e9c578082015181840152602081019050612e81565b83811115612eab576000848401525b50505050565b60006002820490506001821680612ec957607f821691505b60208210811415612edd57612edc612fbb565b5b50919050565b6000612eee82612e65565b91507fffffffffffffffffffffffffffffffffffffffffffffffffffffffffffffffff821415612f2157612f20612f5d565b5b600182019050919050565b6000612f3782612e65565b9150612f4283612e65565b925082612f5257612f51612f8c565b5b828206905092915050565b7f4e487b7100000000000000000000000000000000000000000000000000000000600052601160045260246000fd5b7f4e487b7100000000000000000000000000000000000000000000000000000000600052601260045260246000fd5b7f4e487b7100000000000000000000000000000000000000000000000000000000600052602260045260246000fd5b7f4e487b7100000000000000000000000000000000000000000000000000000000600052604160045260246000fd5b6000601f19601f8301169050919050565b61303381612dfb565b811461303e57600080fd5b50565b61304a81612e0d565b811461305557600080fd5b50565b61306181612e19565b811461306c57600080fd5b50565b61307881612e65565b811461308357600080fd5b5056fe4142434445464748494a4b4c4d4e4f505152535455565758595a6162636465666768696a6b6c6d6e6f707172737475767778797a303132333435363738392b2fa26469706673582212209f1bd172abc3445e7ca118ec0f67196b0184ff12b224cbedc241ebf90e8579f164736f6c63430008000033",
  "linkReferences": {},
  "deployedLinkReferences": {}
}