{
  "_format": "hh-sol-artifact-1",
  "contractName": "NFT",
  "sourceName": "contracts/Users.sol",
  "abi": [
    {
      "inputs": [],
      "stateMutability": "nonpayable",
      "type": "constructor"
    },
    {
      "anonymous": false,
      "inputs": [
        {
          "indexed": true,
          "internalType": "address",
          "name": "owner",
          "type": "address"
        },
        {
          "indexed": true,
          "internalType": "address",
          "name": "approved",
          "type": "address"
        },
        {
          "indexed": true,
          "internalType": "uint256",
          "name": "tokenId",
          "type": "uint256"
        }
      ],
      "name": "Approval",
      "type": "event"
    },
    {
      "anonymous": false,
      "inputs": [
        {
          "indexed": true,
          "internalType": "address",
          "name": "owner",
          "type": "address"
        },
        {
          "indexed": true,
          "internalType": "address",
          "name": "operator",
          "type": "address"
        },
        {
          "indexed": false,
          "internalType": "bool",
          "name": "approved",
          "type": "bool"
        }
      ],
      "name": "ApprovalForAll",
      "type": "event"
    },
    {
      "anonymous": false,
      "inputs": [
        {
          "indexed": false,
          "internalType": "string",
          "name": "svg",
          "type": "string"
        }
      ],
      "name": "CreatedRandomSVG",
      "type": "event"
    },
    {
      "anonymous": false,
      "inputs": [
        {
          "indexed": true,
          "internalType": "uint256",
          "name": "tokenId",
          "type": "uint256"
        },
        {
          "indexed": false,
          "internalType": "string",
          "name": "tokenURI",
          "type": "string"
        }
      ],
      "name": "NFTCreated",
      "type": "event"
    },
    {
      "anonymous": false,
      "inputs": [
        {
          "indexed": false,
          "internalType": "uint256",
          "name": "randomNumber",
          "type": "uint256"
        },
        {
          "indexed": false,
          "internalType": "address",
          "name": "userAddress",
          "type": "address"
        }
      ],
      "name": "RequestNFT",
      "type": "event"
    },
    {
      "anonymous": false,
      "inputs": [
        {
          "indexed": false,
          "internalType": "uint256",
          "name": "randomNumber",
          "type": "uint256"
        }
      ],
      "name": "RequestRandomSVG",
      "type": "event"
    },
    {
      "anonymous": false,
      "inputs": [
        {
          "indexed": true,
          "internalType": "address",
          "name": "from",
          "type": "address"
        },
        {
          "indexed": true,
          "internalType": "address",
          "name": "to",
          "type": "address"
        },
        {
          "indexed": true,
          "internalType": "uint256",
          "name": "tokenId",
          "type": "uint256"
        }
      ],
      "name": "Transfer",
      "type": "event"
    },
    {
      "inputs": [
        {
          "internalType": "address",
          "name": "to",
          "type": "address"
        },
        {
          "internalType": "uint256",
          "name": "tokenId",
          "type": "uint256"
        }
      ],
      "name": "approve",
      "outputs": [],
      "stateMutability": "nonpayable",
      "type": "function"
    },
    {
      "inputs": [
        {
          "internalType": "address",
          "name": "owner",
          "type": "address"
        }
      ],
      "name": "balanceOf",
      "outputs": [
        {
          "internalType": "uint256",
          "name": "",
          "type": "uint256"
        }
      ],
      "stateMutability": "view",
      "type": "function"
    },
    {
      "inputs": [
        {
          "internalType": "address",
          "name": "userAddress",
          "type": "address"
        }
      ],
      "name": "createNFT",
      "outputs": [
        {
          "internalType": "uint256",
          "name": "",
          "type": "uint256"
        }
      ],
      "stateMutability": "nonpayable",
      "type": "function"
    },
    {
      "inputs": [
        {
          "internalType": "uint256",
          "name": "_randomNumber",
          "type": "uint256"
        }
      ],
      "name": "generateSVG",
      "outputs": [
        {
          "internalType": "string",
          "name": "finalSVG",
          "type": "string"
        }
      ],
      "stateMutability": "view",
      "type": "function"
    },
    {
      "inputs": [
        {
          "internalType": "uint256",
          "name": "tokenId",
          "type": "uint256"
        }
      ],
      "name": "getApproved",
      "outputs": [
        {
          "internalType": "address",
          "name": "",
          "type": "address"
        }
      ],
      "stateMutability": "view",
      "type": "function"
    },
    {
      "inputs": [],
      "name": "getRandomNumber",
      "outputs": [
        {
          "internalType": "uint256",
          "name": "",
          "type": "uint256"
        }
      ],
      "stateMutability": "view",
      "type": "function"
    },
    {
      "inputs": [
        {
          "internalType": "address",
          "name": "_userAddress",
          "type": "address"
        }
      ],
      "name": "getTokenIdsFromAddress",
      "outputs": [
        {
          "internalType": "uint256[]",
          "name": "",
          "type": "uint256[]"
        }
      ],
      "stateMutability": "view",
      "type": "function"
    },
    {
      "inputs": [
        {
          "internalType": "address",
          "name": "owner",
          "type": "address"
        },
        {
          "internalType": "address",
          "name": "operator",
          "type": "address"
        }
      ],
      "name": "isApprovedForAll",
      "outputs": [
        {
          "internalType": "bool",
          "name": "",
          "type": "bool"
        }
      ],
      "stateMutability": "view",
      "type": "function"
    },
    {
      "inputs": [],
      "name": "name",
      "outputs": [
        {
          "internalType": "string",
          "name": "",
          "type": "string"
        }
      ],
      "stateMutability": "view",
      "type": "function"
    },
    {
      "inputs": [
        {
          "internalType": "address",
          "name": "_from",
          "type": "address"
        },
        {
          "internalType": "address",
          "name": "_to",
          "type": "address"
        },
        {
          "internalType": "uint256",
          "name": "_tokenId",
          "type": "uint256"
        }
      ],
      "name": "niggaTransfer",
      "outputs": [],
      "stateMutability": "nonpayable",
      "type": "function"
    },
    {
      "inputs": [
        {
          "internalType": "uint256",
          "name": "tokenId",
          "type": "uint256"
        }
      ],
      "name": "ownerOf",
      "outputs": [
        {
          "internalType": "address",
          "name": "",
          "type": "address"
        }
      ],
      "stateMutability": "view",
      "type": "function"
    },
    {
      "inputs": [
        {
          "internalType": "address",
          "name": "from",
          "type": "address"
        },
        {
          "internalType": "address",
          "name": "to",
          "type": "address"
        },
        {
          "internalType": "uint256",
          "name": "tokenId",
          "type": "uint256"
        }
      ],
      "name": "safeTransferFrom",
      "outputs": [],
      "stateMutability": "nonpayable",
      "type": "function"
    },
    {
      "inputs": [
        {
          "internalType": "address",
          "name": "from",
          "type": "address"
        },
        {
          "internalType": "address",
          "name": "to",
          "type": "address"
        },
        {
          "internalType": "uint256",
          "name": "tokenId",
          "type": "uint256"
        },
        {
          "internalType": "bytes",
          "name": "_data",
          "type": "bytes"
        }
      ],
      "name": "safeTransferFrom",
      "outputs": [],
      "stateMutability": "nonpayable",
      "type": "function"
    },
    {
      "inputs": [
        {
          "internalType": "address",
          "name": "operator",
          "type": "address"
        },
        {
          "internalType": "bool",
          "name": "approved",
          "type": "bool"
        }
      ],
      "name": "setApprovalForAll",
      "outputs": [],
      "stateMutability": "nonpayable",
      "type": "function"
    },
    {
      "inputs": [
        {
          "internalType": "bytes4",
          "name": "interfaceId",
          "type": "bytes4"
        }
      ],
      "name": "supportsInterface",
      "outputs": [
        {
          "internalType": "bool",
          "name": "",
          "type": "bool"
        }
      ],
      "stateMutability": "view",
      "type": "function"
    },
    {
      "inputs": [],
      "name": "symbol",
      "outputs": [
        {
          "internalType": "string",
          "name": "",
          "type": "string"
        }
      ],
      "stateMutability": "view",
      "type": "function"
    },
    {
      "inputs": [],
      "name": "tokenCounter",
      "outputs": [
        {
          "internalType": "uint256",
          "name": "",
          "type": "uint256"
        }
      ],
      "stateMutability": "view",
      "type": "function"
    },
    {
      "inputs": [
        {
          "internalType": "uint256",
          "name": "tokenId",
          "type": "uint256"
        }
      ],
      "name": "tokenURI",
      "outputs": [
        {
          "internalType": "string",
          "name": "",
          "type": "string"
        }
      ],
      "stateMutability": "view",
      "type": "function"
    },
    {
      "inputs": [
        {
          "internalType": "address",
          "name": "from",
          "type": "address"
        },
        {
          "internalType": "address",
          "name": "to",
          "type": "address"
        },
        {
          "internalType": "uint256",
          "name": "tokenId",
          "type": "uint256"
        }
      ],
      "name": "transferFrom",
      "outputs": [],
      "stateMutability": "nonpayable",
      "type": "function"
    },
    {
      "inputs": [
        {
          "internalType": "address",
          "name": "",
          "type": "address"
        },
        {
          "internalType": "uint256",
          "name": "",
          "type": "uint256"
        }
      ],
      "name": "userAddressToTokenId",
      "outputs": [
        {
          "internalType": "uint256",
          "name": "",
          "type": "uint256"
        }
      ],
      "stateMutability": "view",
      "type": "function"
    }
  ],
  "bytecode": "0x60806040523480156200001157600080fd5b506040805180820182526009815268139a59d9d84813919560ba1b602080830191825283518085019094526008845267139a59d9d853919560c21b908401528151919291620000639160009162000193565b5080516200007990600190602084019062000193565b5050600060075550600a6009819055600590556101f4600b55604080516080810182526001818301818152604d60f81b6060840152825282518084019093528252601360fa1b602083810191909152810191909152620000de90600c90600262000222565b506040518060800160405280604051806040016040528060078152602001662366636261303360c81b8152508152602001604051806040016040528060078152602001661199989b19b2b160c91b8152508152602001604051806040016040528060078152602001660233437393930360cc1b815250815260200160405180604001604052806005815260200164626c61636b60d81b815250815250600d9060046200018c92919062000282565b506200038e565b828054620001a19062000351565b90600052602060002090601f016020900481019282620001c5576000855562000210565b82601f10620001e057805160ff191683800117855562000210565b8280016001018555821562000210579182015b8281111562000210578251825591602001919060010190620001f3565b506200021e929150620002d4565b5090565b82805482825590600052602060002090810192821562000274579160200282015b828111156200027457825180516200026391849160209091019062000193565b509160200191906001019062000243565b506200021e929150620002eb565b82805482825590600052602060002090810192821562000274579160200282015b82811115620002745782518051620002c391849160209091019062000193565b5091602001919060010190620002a3565b5b808211156200021e5760008155600101620002d5565b808211156200021e5760006200030282826200030c565b50600101620002eb565b5080546200031a9062000351565b6000825580601f106200032e57506200034e565b601f0160209004906000526020600020908101906200034e9190620002d4565b50565b6002810460018216806200036657607f821691505b602082108114156200038857634e487b7160e01b600052602260045260246000fd5b50919050565b6127ca806200039e6000396000f3fe608060405234801561001057600080fd5b506004361061012c5760003560e01c80636352211e116100ad578063b88d4fde11610071578063b88d4fde14610284578063c87b56dd14610297578063d082e381146102aa578063dbdff2c1146102b2578063e985e9c5146102ba5761012c565b80636352211e146102305780636dcee4ca1461024357806370a082311461025657806395d89b4114610269578063a22cb465146102715761012c565b80632276b7e8116100f45780632276b7e8146101c457806323b872dd146101d7578063245c561a146101ea57806342842e0e146101fd5780635d81902f146102105761012c565b806301ffc9a71461013157806306fdde031461015a578063081812fc1461016f578063095ea7b31461018f57806317e5883c146101a4575b600080fd5b61014461013f366004611cf6565b6102cd565b6040516101519190612106565b60405180910390f35b610162610315565b6040516101519190612111565b61018261017d366004611d2e565b6103a7565b6040516101519190612071565b6101a261019d366004611ccd565b6103f3565b005b6101b76101b2366004611b40565b61048b565b60405161015191906125ae565b6101a26101d2366004611b8c565b610665565b6101a26101e5366004611b8c565b610874565b6101b76101f8366004611ccd565b6108ac565b6101a261020b366004611b8c565b6108dd565b61022361021e366004611b40565b6108f8565b60405161015191906120c2565b61018261023e366004611d2e565b610964565b610162610251366004611d2e565b610999565b6101b7610264366004611b40565b610a9a565b610162610ade565b6101a261027f366004611c93565b610aed565b6101a2610292366004611bc7565b610b03565b6101626102a5366004611d2e565b610b42565b6101b7610c63565b6101b7610c69565b6101446102c8366004611b5a565b610c9e565b60006001600160e01b031982166380ac58cd60e01b14806102fe57506001600160e01b03198216635b5e139f60e01b145b8061030d575061030d82610ccc565b90505b919050565b6060600080546103249061268f565b80601f01602080910402602001604051908101604052809291908181526020018280546103509061268f565b801561039d5780601f106103725761010080835404028352916020019161039d565b820191906000526020600020905b81548152906001019060200180831161038057829003601f168201915b5050505050905090565b60006103b282610ce5565b6103d75760405162461bcd60e51b81526004016103ce90612438565b60405180910390fd5b506000908152600460205260409020546001600160a01b031690565b60006103fe82610964565b9050806001600160a01b0316836001600160a01b031614156104325760405162461bcd60e51b81526004016103ce9061251c565b806001600160a01b0316610444610d02565b6001600160a01b031614806104605750610460816102c8610d02565b61047c5760405162461bcd60e51b81526004016103ce90612274565b6104868383610d06565b505050565b600080610496610c69565b90507fd20279a427f0b9be4eafb74bd6f4373c0d47a8f79bbabd9107a5dcf40aff13a281846040516104c99291906125b7565b60405180910390a16104dd83600754610d74565b60075460408051808201825260058152646e6967676160d81b6020808301919091528251808401845260118152702734b3b3b0903232b9b1b934b83a34b7b760791b9181019190915291519091907fe4ce7b49ccc2eafced7b381a6077bb3c0eb7b8f2f645549a5ae835d34aea7da2906105589086906125ae565b60405180910390a160408051808201909152600b81526a1e39bb339f1e17b9bb339f60a91b6020820152600061058d82610e53565b9050600061059c828686610ee6565b90507ff0028408428d5005eb33874c8092c62faef5a685cea20320e5e94fd6e33523bf836040516105cd9190612111565b60405180910390a16105df8682610f28565b857fe883eeefa7f620d513eac93479fc9f54ce03f9f4a72c0d818311a9d19556e8798260405161060f9190612111565b60405180910390a260078054906000610627836126ca565b9091555050506001600160a01b0388166000908152600860209081526040822080546001810182559083529120018590555092945050505050919050565b61067861067182610964565b8383610874565b6001600160a01b0383166000908152600860209081526040808320805482518185028101850190935280835291929091908301828280156106d857602002820191906000526020600020905b8154815260200190600101908083116106c4575b505083519394506000925050505b8181101561086c578383828151811061070f57634e487b7160e01b600052603260045260246000fd5b6020026020010151141561085a57805b61072a60018461264c565b8110156107df576001600160a01b03871660009081526008602052604090206107548360016125dc565b8154811061077257634e487b7160e01b600052603260045260246000fd5b906000526020600020015460086000896001600160a01b03166001600160a01b0316815260200190815260200160002083815481106107c157634e487b7160e01b600052603260045260246000fd5b600091825260209091200155806107d7816126ca565b91505061071f565b506001600160a01b038616600090815260086020526040902080548061081557634e487b7160e01b600052603160045260246000fd5b6000828152602080822083016000199081018390559092019092556001600160a01b03871682526008815260408220805460018101825590835291200184905561086c565b80610864816126ca565b9150506106e6565b505050505050565b61088561087f610d02565b82610f6c565b6108a15760405162461bcd60e51b81526004016103ce9061255d565b610486838383610fe9565b600860205281600052604060002081815481106108c857600080fd5b90600052602060002001600091509150505481565b61048683838360405180602001604052806000815250610b03565b6001600160a01b03811660009081526008602090815260409182902080548351818402810184019094528084526060939283018282801561095857602002820191906000526020600020905b815481526020019060010190808311610944575b50505050509050919050565b6000818152600260205260408120546001600160a01b03168061030d5760405162461bcd60e51b81526004016103ce9061231b565b60606000600954836109ab91906126e5565b6109b69060016125dc565b90506109c3600b54611116565b6109ce600b54611116565b6040516020016109df929190611f6c565b604051602081830303815290604052915060005b81811015610a715760008482604051602001610a109291906125ce565b6040516020818303038152906040528051906020012060001c90506000610a368261125c565b90508481604051602001610a4b929190611d8e565b604051602081830303815290604052945050508080610a69906126ca565b9150506109f3565b5081604051602001610a839190611e7f565b604051602081830303815290604052915050919050565b60006001600160a01b038216610ac25760405162461bcd60e51b81526004016103ce906122d1565b506001600160a01b031660009081526003602052604090205490565b6060600180546103249061268f565b610aff610af8610d02565b8383611406565b5050565b610b14610b0e610d02565b83610f6c565b610b305760405162461bcd60e51b81526004016103ce9061255d565b610b3c848484846114a9565b50505050565b6060610b4d82610ce5565b610b695760405162461bcd60e51b81526004016103ce906123e7565b60008281526006602052604081208054610b829061268f565b80601f0160208091040260200160405190810160405280929190818152602001828054610bae9061268f565b8015610bfb5780601f10610bd057610100808354040283529160200191610bfb565b820191906000526020600020905b815481529060010190602001808311610bde57829003601f168201915b505050505090506000610c0c6114dc565b9050805160001415610c2057509050610310565b815115610c52578082604051602001610c3a929190611d8e565b60405160208183030381529060405292505050610310565b610c5b846114ee565b949350505050565b60075481565b6000424433604051602001610c8093929190612049565b6040516020818303038152906040528051906020012060001c905090565b6001600160a01b03918216600090815260056020908152604080832093909416825291909152205460ff1690565b6001600160e01b031981166301ffc9a760e01b14919050565b6000908152600260205260409020546001600160a01b0316151590565b3390565b600081815260046020526040902080546001600160a01b0319166001600160a01b0384169081179091558190610d3b82610964565b6001600160a01b03167f8c5be1e5ebec7d5bd14f71427d1e84f3dd0314c0f7b2291e5b200ac8c7c3b92560405160405180910390a45050565b6001600160a01b038216610d9a5760405162461bcd60e51b81526004016103ce906123b2565b610da381610ce5565b15610dc05760405162461bcd60e51b81526004016103ce90612176565b610dcc60008383610486565b6001600160a01b0382166000908152600360205260408120805460019290610df59084906125dc565b909155505060008181526002602052604080822080546001600160a01b0319166001600160a01b03861690811790915590518392907fddf252ad1be2c89b69c2b068fc378daa952ba7f163c4a11628f55a4df523b3ef908290a45050565b606060006040518060400160405280601a81526020017f646174613a696d6167652f7376672b786d6c3b6261736536342c00000000000081525090506000610eb984604051602001610ea59190611d72565b604051602081830303815290604052611561565b90508181604051602001610ece929190611d8e565b60405160208183030381529060405292505050919050565b6060610f00838386604051602001610ea593929190611ea9565b604051602001610f109190612004565b60405160208183030381529060405290509392505050565b610f3182610ce5565b610f4d5760405162461bcd60e51b81526004016103ce90612364565b6000828152600660209081526040909120825161048692840190611a90565b6000610f7782610ce5565b610f935760405162461bcd60e51b81526004016103ce90612228565b6000610f9e83610964565b9050806001600160a01b0316846001600160a01b03161480610fd95750836001600160a01b0316610fce846103a7565b6001600160a01b0316145b80610c5b5750610c5b8185610c9e565b826001600160a01b0316610ffc82610964565b6001600160a01b0316146110225760405162461bcd60e51b81526004016103ce90612484565b6001600160a01b0382166110485760405162461bcd60e51b81526004016103ce906121ad565b611053838383610486565b61105e600082610d06565b6001600160a01b038316600090815260036020526040812080546001929061108790849061264c565b90915550506001600160a01b03821660009081526003602052604081208054600192906110b59084906125dc565b909155505060008181526002602052604080822080546001600160a01b0319166001600160a01b0386811691821790925591518493918716917fddf252ad1be2c89b69c2b068fc378daa952ba7f163c4a11628f55a4df523b3ef91a4505050565b60608161113b57506040805180820190915260018152600360fc1b6020820152610310565b8160005b8115611165578061114f816126ca565b915061115e9050600a83612619565b915061113f565b60008167ffffffffffffffff81111561118e57634e487b7160e01b600052604160045260246000fd5b6040519080825280601f01601f1916602001820160405280156111b8576020820181803683370190505b509050815b8515611253576111ce60018261264c565b905060006111dd600a88612619565b6111e890600a61262d565b6111f2908861264c565b6111fd9060306125f4565b905060008160f81b90508084848151811061122857634e487b7160e01b600052603260045260246000fd5b60200101906001600160f81b031916908160001a90535061124a600a89612619565b975050506111bd565b50949350505050565b60606000600a548361126e91906126e5565b6112799060016125dc565b9050604051806040016040528060098152602001681e3830ba3410321e9160b91b815250915060005b8181101561132d5760008482600b546112bb91906125dc565b6040516020016112cc9291906125ce565b6040516020818303038152906040528051906020012060001c905060006112f2826116d6565b90508481604051602001611307929190611d8e565b604051602081830303815290604052945050508080611325906126ca565b9150506112a2565b50600d80546000919061134090866126e5565b8154811061135e57634e487b7160e01b600052603260045260246000fd5b9060005260206000200180546113739061268f565b80601f016020809104026020016040519081016040528092919081815260200182805461139f9061268f565b80156113ec5780601f106113c1576101008083540402835291602001916113ec565b820191906000526020600020905b8154815290600101906020018083116113cf57829003601f168201915b505050505090508281604051602001610ece929190611e17565b816001600160a01b0316836001600160a01b031614156114385760405162461bcd60e51b81526004016103ce906121f1565b6001600160a01b0383811660008181526005602090815260408083209487168084529490915290819020805460ff1916851515179055517f17307eab39ab6107e8899845ad3d59bd9653f200f220920489ca2b5937696c319061149c908590612106565b60405180910390a3505050565b6114b4848484610fe9565b6114c084848484611854565b610b3c5760405162461bcd60e51b81526004016103ce90612124565b60408051602081019091526000815290565b60606114f982610ce5565b6115155760405162461bcd60e51b81526004016103ce906124cd565b600061151f6114dc565b9050600081511161153f576040518060200160405280600081525061155a565b806115498461196f565b604051602001610a83929190611d8e565b9392505050565b60608151600014156115825750604080516020810190915260008152610310565b600060405180606001604052806040815260200161275560409139905060006003845160026115b191906125dc565b6115bb9190612619565b6115c690600461262d565b905060006115d58260206125dc565b67ffffffffffffffff8111156115fb57634e487b7160e01b600052604160045260246000fd5b6040519080825280601f01601f191660200182016040528015611625576020820181803683370190505b509050818152600183018586518101602084015b81831015611691576003830192508251603f8160121c168501518253600182019150603f81600c1c168501518253600182019150603f8160061c168501518253600182019150603f8116850151825350600101611639565b6003895106600181146116ab57600281146116bc576116c8565b613d3d60f01b6001198301526116c8565b603d60f81b6000198301525b509398975050505050505050565b600c8054606091906116e890846126e5565b8154811061170657634e487b7160e01b600052603260045260246000fd5b90600052602060002001805461171b9061268f565b80601f01602080910402602001604051908101604052809291908181526020018280546117479061268f565b80156117945780601f1061176957610100808354040283529160200191611794565b820191906000526020600020905b81548152906001019060200180831161177757829003601f168201915b505050505090506000600b5483600b5460026117b0919061262d565b6040516020016117c19291906125ce565b6040516020818303038152906040528051906020012060001c6117e491906126e5565b600b54909150600090846117f982600361262d565b60405160200161180a9291906125ce565b6040516020818303038152906040528051906020012060001c61182d91906126e5565b90508261183983611116565b61184283611116565b604051602001610ece93929190611dbd565b6000611868846001600160a01b0316611a8a565b1561196457836001600160a01b031663150b7a02611884610d02565b8786866040518563ffffffff1660e01b81526004016118a69493929190612085565b602060405180830381600087803b1580156118c057600080fd5b505af19250505080156118f0575060408051601f3d908101601f191682019092526118ed91810190611d12565b60015b61194a573d80801561191e576040519150601f19603f3d011682016040523d82523d6000602084013e611923565b606091505b5080516119425760405162461bcd60e51b81526004016103ce90612124565b805181602001fd5b6001600160e01b031916630a85bd0160e11b149050610c5b565b506001949350505050565b60608161199457506040805180820190915260018152600360fc1b6020820152610310565b8160005b81156119be57806119a8816126ca565b91506119b79050600a83612619565b9150611998565b60008167ffffffffffffffff8111156119e757634e487b7160e01b600052604160045260246000fd5b6040519080825280601f01601f191660200182016040528015611a11576020820181803683370190505b5090505b8415610c5b57611a2660018361264c565b9150611a33600a866126e5565b611a3e9060306125dc565b60f81b818381518110611a6157634e487b7160e01b600052603260045260246000fd5b60200101906001600160f81b031916908160001a905350611a83600a86612619565b9450611a15565b3b151590565b828054611a9c9061268f565b90600052602060002090601f016020900481019282611abe5760008555611b04565b82601f10611ad757805160ff1916838001178555611b04565b82800160010185558215611b04579182015b82811115611b04578251825591602001919060010190611ae9565b50611b10929150611b14565b5090565b5b80821115611b105760008155600101611b15565b80356001600160a01b038116811461031057600080fd5b600060208284031215611b51578081fd5b61155a82611b29565b60008060408385031215611b6c578081fd5b611b7583611b29565b9150611b8360208401611b29565b90509250929050565b600080600060608486031215611ba0578081fd5b611ba984611b29565b9250611bb760208501611b29565b9150604084013590509250925092565b60008060008060808587031215611bdc578081fd5b611be585611b29565b93506020611bf4818701611b29565b935060408601359250606086013567ffffffffffffffff80821115611c17578384fd5b818801915088601f830112611c2a578384fd5b813581811115611c3c57611c3c612725565b604051601f8201601f1916810185018381118282101715611c5f57611c5f612725565b60405281815283820185018b1015611c75578586fd5b81858501868301379081019093019390935250939692955090935050565b60008060408385031215611ca5578182fd5b611cae83611b29565b915060208301358015158114611cc2578182fd5b809150509250929050565b60008060408385031215611cdf578182fd5b611ce883611b29565b946020939093013593505050565b600060208284031215611d07578081fd5b813561155a8161273b565b600060208284031215611d23578081fd5b815161155a8161273b565b600060208284031215611d3f578081fd5b5035919050565b60008151808452611d5e816020860160208601612663565b601f01601f19169290920160200192915050565b60008251611d84818460208701612663565b9190910192915050565b60008351611da0818460208801612663565b835190830190611db4818360208801612663565b01949350505050565b60008451611dcf818460208901612663565b845190830190611de3818360208901612663565b600160fd1b91018181528451909190611e03816001850160208901612663565b600192019182015260020195945050505050565b60008351611e29818460208801612663565b7f222066696c6c3d227472616e73706172656e7422207374726f6b653d220000009083019081528351611e6381601d840160208801612663565b6211179f60e91b601d9290910191820152602001949350505050565b60008251611e91818460208701612663565b651e17b9bb339f60d11b920191825250600601919050565b683d913730b6b2911d1160b91b81528351600090611ece816009850160208901612663565b61088b60f21b60099184019182018190526e113232b9b1b934b83a34b7b7111d1160891b600b8301528551611f0a81601a850160208a01612663565b601a9201918201526f08985d1d1c9a589d5d195cc88e88888b60821b601c820152681134b6b0b3b2911d1160b91b602c8201528351611f50816035840160208801612663565b61227d60f01b6035929091019182015260370195945050505050565b60007f3c73766720786d6c6e733d22687474703a2f2f7777772e77332e6f72672f323082526f181817b9bb3391103432b4b3b43a1e9160811b60208301528351611fbd816030850160208801612663565b6b19189811103bb4b23a341e9160a11b6030918401918201528351611fe981603c840160208801612663565b61111f60f11b603c9290910191820152603e01949350505050565b60007f646174613a6170706c69636174696f6e2f6a736f6e3b6261736536342c0000008252825161203c81601d850160208701612663565b91909101601d0192915050565b928352602083019190915260601b6bffffffffffffffffffffffff1916604082015260540190565b6001600160a01b0391909116815260200190565b6001600160a01b03858116825284166020820152604081018390526080606082018190526000906120b890830184611d46565b9695505050505050565b6020808252825182820181905260009190848201906040850190845b818110156120fa578351835292840192918401916001016120de565b50909695505050505050565b901515815260200190565b60006020825261155a6020830184611d46565b60208082526032908201527f4552433732313a207472616e7366657220746f206e6f6e20455243373231526560408201527131b2b4bb32b91034b6b83632b6b2b73a32b960711b606082015260800190565b6020808252601c908201527f4552433732313a20746f6b656e20616c7265616479206d696e74656400000000604082015260600190565b60208082526024908201527f4552433732313a207472616e7366657220746f20746865207a65726f206164646040820152637265737360e01b606082015260800190565b60208082526019908201527f4552433732313a20617070726f766520746f2063616c6c657200000000000000604082015260600190565b6020808252602c908201527f4552433732313a206f70657261746f7220717565727920666f72206e6f6e657860408201526b34b9ba32b73a103a37b5b2b760a11b606082015260800190565b60208082526038908201527f4552433732313a20617070726f76652063616c6c6572206973206e6f74206f7760408201527f6e6572206e6f7220617070726f76656420666f7220616c6c0000000000000000606082015260800190565b6020808252602a908201527f4552433732313a2062616c616e636520717565727920666f7220746865207a65604082015269726f206164647265737360b01b606082015260800190565b60208082526029908201527f4552433732313a206f776e657220717565727920666f72206e6f6e657869737460408201526832b73a103a37b5b2b760b91b606082015260800190565b6020808252602e908201527f45524337323155524953746f726167653a2055524920736574206f66206e6f6e60408201526d32bc34b9ba32b73a103a37b5b2b760911b606082015260800190565b6020808252818101527f4552433732313a206d696e7420746f20746865207a65726f2061646472657373604082015260600190565b60208082526031908201527f45524337323155524953746f726167653a2055524920717565727920666f72206040820152703737b732bc34b9ba32b73a103a37b5b2b760791b606082015260800190565b6020808252602c908201527f4552433732313a20617070726f76656420717565727920666f72206e6f6e657860408201526b34b9ba32b73a103a37b5b2b760a11b606082015260800190565b60208082526029908201527f4552433732313a207472616e73666572206f6620746f6b656e2074686174206960408201526839903737ba1037bbb760b91b606082015260800190565b6020808252602f908201527f4552433732314d657461646174613a2055524920717565727920666f72206e6f60408201526e3732bc34b9ba32b73a103a37b5b2b760891b606082015260800190565b60208082526021908201527f4552433732313a20617070726f76616c20746f2063757272656e74206f776e656040820152603960f91b606082015260800190565b60208082526031908201527f4552433732313a207472616e736665722063616c6c6572206973206e6f74206f6040820152701ddb995c881b9bdc88185c1c1c9bdd9959607a1b606082015260800190565b90815260200190565b9182526001600160a01b0316602082015260400190565b918252602082015260400190565b600082198211156125ef576125ef6126f9565b500190565b600060ff821660ff84168060ff03821115612611576126116126f9565b019392505050565b6000826126285761262861270f565b500490565b6000816000190483118215151615612647576126476126f9565b500290565b60008282101561265e5761265e6126f9565b500390565b60005b8381101561267e578181015183820152602001612666565b83811115610b3c5750506000910152565b6002810460018216806126a357607f821691505b602082108114156126c457634e487b7160e01b600052602260045260246000fd5b50919050565b60006000198214156126de576126de6126f9565b5060010190565b6000826126f4576126f461270f565b500690565b634e487b7160e01b600052601160045260246000fd5b634e487b7160e01b600052601260045260246000fd5b634e487b7160e01b600052604160045260246000fd5b6001600160e01b03198116811461275157600080fd5b5056fe4142434445464748494a4b4c4d4e4f505152535455565758595a6162636465666768696a6b6c6d6e6f707172737475767778797a303132333435363738392b2fa264697066735822122088d40b0fbb24bd3faad103c1c3384aa27b3eccd7b9e1fcfa9027fc8f3ae0699f64736f6c63430008000033",
  "linkReferences": {},
  "deployedLinkReferences": {}
}