{
  "_format": "hh-sol-artifact-1",
  "contractName": "NFT",
  "sourceName": "contracts/Users.sol",
  "abi": [
    {
      "inputs": [],
      "stateMutability": "nonpayable",
      "type": "constructor"
    },
    {
      "anonymous": false,
      "inputs": [
        {
          "indexed": true,
          "internalType": "address",
          "name": "owner",
          "type": "address"
        },
        {
          "indexed": true,
          "internalType": "address",
          "name": "approved",
          "type": "address"
        },
        {
          "indexed": true,
          "internalType": "uint256",
          "name": "tokenId",
          "type": "uint256"
        }
      ],
      "name": "Approval",
      "type": "event"
    },
    {
      "anonymous": false,
      "inputs": [
        {
          "indexed": true,
          "internalType": "address",
          "name": "owner",
          "type": "address"
        },
        {
          "indexed": true,
          "internalType": "address",
          "name": "operator",
          "type": "address"
        },
        {
          "indexed": false,
          "internalType": "bool",
          "name": "approved",
          "type": "bool"
        }
      ],
      "name": "ApprovalForAll",
      "type": "event"
    },
    {
      "anonymous": false,
      "inputs": [
        {
          "indexed": false,
          "internalType": "string",
          "name": "svg",
          "type": "string"
        }
      ],
      "name": "CreatedRandomSVG",
      "type": "event"
    },
    {
      "anonymous": false,
      "inputs": [
        {
          "indexed": true,
          "internalType": "uint256",
          "name": "tokenId",
          "type": "uint256"
        },
        {
          "indexed": false,
          "internalType": "string",
          "name": "tokenURI",
          "type": "string"
        }
      ],
      "name": "NFTCreated",
      "type": "event"
    },
    {
      "anonymous": false,
      "inputs": [
        {
          "indexed": false,
          "internalType": "uint256",
          "name": "randomNumber",
          "type": "uint256"
        },
        {
          "indexed": false,
          "internalType": "address",
          "name": "userAddress",
          "type": "address"
        }
      ],
      "name": "RequestNFT",
      "type": "event"
    },
    {
      "anonymous": false,
      "inputs": [
        {
          "indexed": false,
          "internalType": "uint256",
          "name": "randomNumber",
          "type": "uint256"
        }
      ],
      "name": "RequestRandomSVG",
      "type": "event"
    },
    {
      "anonymous": false,
      "inputs": [
        {
          "indexed": true,
          "internalType": "address",
          "name": "from",
          "type": "address"
        },
        {
          "indexed": true,
          "internalType": "address",
          "name": "to",
          "type": "address"
        },
        {
          "indexed": true,
          "internalType": "uint256",
          "name": "tokenId",
          "type": "uint256"
        }
      ],
      "name": "Transfer",
      "type": "event"
    },
    {
      "inputs": [
        {
          "internalType": "address",
          "name": "to",
          "type": "address"
        },
        {
          "internalType": "uint256",
          "name": "tokenId",
          "type": "uint256"
        }
      ],
      "name": "approve",
      "outputs": [],
      "stateMutability": "nonpayable",
      "type": "function"
    },
    {
      "inputs": [
        {
          "internalType": "address",
          "name": "owner",
          "type": "address"
        }
      ],
      "name": "balanceOf",
      "outputs": [
        {
          "internalType": "uint256",
          "name": "",
          "type": "uint256"
        }
      ],
      "stateMutability": "view",
      "type": "function"
    },
    {
      "inputs": [
        {
          "internalType": "address",
          "name": "userAddress",
          "type": "address"
        }
      ],
      "name": "createNFT",
      "outputs": [
        {
          "internalType": "uint256",
          "name": "",
          "type": "uint256"
        }
      ],
      "stateMutability": "nonpayable",
      "type": "function"
    },
    {
      "inputs": [
        {
          "internalType": "uint256",
          "name": "_randomNumber",
          "type": "uint256"
        }
      ],
      "name": "generateSVG",
      "outputs": [
        {
          "internalType": "string",
          "name": "finalSVG",
          "type": "string"
        }
      ],
      "stateMutability": "view",
      "type": "function"
    },
    {
      "inputs": [
        {
          "internalType": "uint256",
          "name": "tokenId",
          "type": "uint256"
        }
      ],
      "name": "getApproved",
      "outputs": [
        {
          "internalType": "address",
          "name": "",
          "type": "address"
        }
      ],
      "stateMutability": "view",
      "type": "function"
    },
    {
      "inputs": [],
      "name": "getRandomNumber",
      "outputs": [
        {
          "internalType": "uint256",
          "name": "",
          "type": "uint256"
        }
      ],
      "stateMutability": "view",
      "type": "function"
    },
    {
      "inputs": [
        {
          "internalType": "address",
          "name": "_userAddress",
          "type": "address"
        }
      ],
      "name": "getTokenIdsFromAddress",
      "outputs": [
        {
          "internalType": "uint256[]",
          "name": "",
          "type": "uint256[]"
        }
      ],
      "stateMutability": "view",
      "type": "function"
    },
    {
      "inputs": [
        {
          "internalType": "address",
          "name": "owner",
          "type": "address"
        },
        {
          "internalType": "address",
          "name": "operator",
          "type": "address"
        }
      ],
      "name": "isApprovedForAll",
      "outputs": [
        {
          "internalType": "bool",
          "name": "",
          "type": "bool"
        }
      ],
      "stateMutability": "view",
      "type": "function"
    },
    {
      "inputs": [],
      "name": "name",
      "outputs": [
        {
          "internalType": "string",
          "name": "",
          "type": "string"
        }
      ],
      "stateMutability": "view",
      "type": "function"
    },
    {
      "inputs": [
        {
          "internalType": "address",
          "name": "_from",
          "type": "address"
        },
        {
          "internalType": "address",
          "name": "_to",
          "type": "address"
        },
        {
          "internalType": "uint256",
          "name": "_tokenId",
          "type": "uint256"
        }
      ],
      "name": "niggaTransfer",
      "outputs": [],
      "stateMutability": "nonpayable",
      "type": "function"
    },
    {
      "inputs": [
        {
          "internalType": "uint256",
          "name": "tokenId",
          "type": "uint256"
        }
      ],
      "name": "ownerOf",
      "outputs": [
        {
          "internalType": "address",
          "name": "",
          "type": "address"
        }
      ],
      "stateMutability": "view",
      "type": "function"
    },
    {
      "inputs": [
        {
          "internalType": "address",
          "name": "from",
          "type": "address"
        },
        {
          "internalType": "address",
          "name": "to",
          "type": "address"
        },
        {
          "internalType": "uint256",
          "name": "tokenId",
          "type": "uint256"
        }
      ],
      "name": "safeTransferFrom",
      "outputs": [],
      "stateMutability": "nonpayable",
      "type": "function"
    },
    {
      "inputs": [
        {
          "internalType": "address",
          "name": "from",
          "type": "address"
        },
        {
          "internalType": "address",
          "name": "to",
          "type": "address"
        },
        {
          "internalType": "uint256",
          "name": "tokenId",
          "type": "uint256"
        },
        {
          "internalType": "bytes",
          "name": "_data",
          "type": "bytes"
        }
      ],
      "name": "safeTransferFrom",
      "outputs": [],
      "stateMutability": "nonpayable",
      "type": "function"
    },
    {
      "inputs": [
        {
          "internalType": "address",
          "name": "operator",
          "type": "address"
        },
        {
          "internalType": "bool",
          "name": "approved",
          "type": "bool"
        }
      ],
      "name": "setApprovalForAll",
      "outputs": [],
      "stateMutability": "nonpayable",
      "type": "function"
    },
    {
      "inputs": [
        {
          "internalType": "bytes4",
          "name": "interfaceId",
          "type": "bytes4"
        }
      ],
      "name": "supportsInterface",
      "outputs": [
        {
          "internalType": "bool",
          "name": "",
          "type": "bool"
        }
      ],
      "stateMutability": "view",
      "type": "function"
    },
    {
      "inputs": [],
      "name": "symbol",
      "outputs": [
        {
          "internalType": "string",
          "name": "",
          "type": "string"
        }
      ],
      "stateMutability": "view",
      "type": "function"
    },
    {
      "inputs": [],
      "name": "tokenCounter",
      "outputs": [
        {
          "internalType": "uint256",
          "name": "",
          "type": "uint256"
        }
      ],
      "stateMutability": "view",
      "type": "function"
    },
    {
      "inputs": [
        {
          "internalType": "uint256",
          "name": "tokenId",
          "type": "uint256"
        }
      ],
      "name": "tokenURI",
      "outputs": [
        {
          "internalType": "string",
          "name": "",
          "type": "string"
        }
      ],
      "stateMutability": "view",
      "type": "function"
    },
    {
      "inputs": [
        {
          "internalType": "address",
          "name": "from",
          "type": "address"
        },
        {
          "internalType": "address",
          "name": "to",
          "type": "address"
        },
        {
          "internalType": "uint256",
          "name": "tokenId",
          "type": "uint256"
        }
      ],
      "name": "transferFrom",
      "outputs": [],
      "stateMutability": "nonpayable",
      "type": "function"
    },
    {
      "inputs": [
        {
          "internalType": "address",
          "name": "",
          "type": "address"
        },
        {
          "internalType": "uint256",
          "name": "",
          "type": "uint256"
        }
      ],
      "name": "userAddressToTokenId",
      "outputs": [
        {
          "internalType": "uint256",
          "name": "",
          "type": "uint256"
        }
      ],
      "stateMutability": "view",
      "type": "function"
    }
  ],
  "bytecode": "0x60806040523480156200001157600080fd5b506040805180820182526009815268139a59d9d84813919560ba1b602080830191825283518085019094526008845267139a59d9d853919560c21b908401528151919291620000639160009162000193565b5080516200007990600190602084019062000193565b5050600060075550600a6009819055600590556101f4600b55604080516080810182526001818301818152604d60f81b6060840152825282518084019093528252601360fa1b602083810191909152810191909152620000de90600c90600262000222565b506040518060800160405280604051806040016040528060078152602001662366636261303360c81b8152508152602001604051806040016040528060078152602001661199989b19b2b160c91b8152508152602001604051806040016040528060078152602001660233437393930360cc1b815250815260200160405180604001604052806005815260200164626c61636b60d81b815250815250600d9060046200018c92919062000282565b506200038e565b828054620001a19062000351565b90600052602060002090601f016020900481019282620001c5576000855562000210565b82601f10620001e057805160ff191683800117855562000210565b8280016001018555821562000210579182015b8281111562000210578251825591602001919060010190620001f3565b506200021e929150620002d4565b5090565b82805482825590600052602060002090810192821562000274579160200282015b828111156200027457825180516200026391849160209091019062000193565b509160200191906001019062000243565b506200021e929150620002eb565b82805482825590600052602060002090810192821562000274579160200282015b82811115620002745782518051620002c391849160209091019062000193565b5091602001919060010190620002a3565b5b808211156200021e5760008155600101620002d5565b808211156200021e5760006200030282826200030c565b50600101620002eb565b5080546200031a9062000351565b6000825580601f106200032e57506200034e565b601f0160209004906000526020600020908101906200034e9190620002d4565b50565b6002810460018216806200036657607f821691505b602082108114156200038857634e487b7160e01b600052602260045260246000fd5b50919050565b6127b5806200039e6000396000f3fe608060405234801561001057600080fd5b506004361061012c5760003560e01c80636352211e116100ad578063b88d4fde11610071578063b88d4fde14610284578063c87b56dd14610297578063d082e381146102aa578063dbdff2c1146102b2578063e985e9c5146102ba5761012c565b80636352211e146102305780636dcee4ca1461024357806370a082311461025657806395d89b4114610269578063a22cb465146102715761012c565b80632276b7e8116100f45780632276b7e8146101c457806323b872dd146101d7578063245c561a146101ea57806342842e0e146101fd5780635d81902f146102105761012c565b806301ffc9a71461013157806306fdde031461015a578063081812fc1461016f578063095ea7b31461018f57806317e5883c146101a4575b600080fd5b61014461013f366004611ce1565b6102cd565b60405161015191906120f1565b60405180910390f35b610162610315565b60405161015191906120fc565b61018261017d366004611d19565b6103a7565b604051610151919061205c565b6101a261019d366004611cb8565b6103f3565b005b6101b76101b2366004611b2b565b61048b565b6040516101519190612599565b6101a26101d2366004611b77565b610650565b6101a26101e5366004611b77565b61085f565b6101b76101f8366004611cb8565b610897565b6101a261020b366004611b77565b6108c8565b61022361021e366004611b2b565b6108e3565b60405161015191906120ad565b61018261023e366004611d19565b61094f565b610162610251366004611d19565b610984565b6101b7610264366004611b2b565b610a85565b610162610ac9565b6101a261027f366004611c7e565b610ad8565b6101a2610292366004611bb2565b610aee565b6101626102a5366004611d19565b610b2d565b6101b7610c4e565b6101b7610c54565b6101446102c8366004611b45565b610c89565b60006001600160e01b031982166380ac58cd60e01b14806102fe57506001600160e01b03198216635b5e139f60e01b145b8061030d575061030d82610cb7565b90505b919050565b6060600080546103249061267a565b80601f01602080910402602001604051908101604052809291908181526020018280546103509061267a565b801561039d5780601f106103725761010080835404028352916020019161039d565b820191906000526020600020905b81548152906001019060200180831161038057829003601f168201915b5050505050905090565b60006103b282610cd0565b6103d75760405162461bcd60e51b81526004016103ce90612423565b60405180910390fd5b506000908152600460205260409020546001600160a01b031690565b60006103fe8261094f565b9050806001600160a01b0316836001600160a01b031614156104325760405162461bcd60e51b81526004016103ce90612507565b806001600160a01b0316610444610ced565b6001600160a01b031614806104605750610460816102c8610ced565b61047c5760405162461bcd60e51b81526004016103ce9061225f565b6104868383610cf1565b505050565b600080610496610c54565b90507fd20279a427f0b9be4eafb74bd6f4373c0d47a8f79bbabd9107a5dcf40aff13a281846040516104c99291906125a2565b60405180910390a16104dd83600754610d5f565b60075460408051808201825260058152646e6967676160d81b6020808301919091528251808401845260118152702734b3b3b0903232b9b1b934b83a34b7b760791b9181019190915291519091907fe4ce7b49ccc2eafced7b381a6077bb3c0eb7b8f2f645549a5ae835d34aea7da290610558908690612599565b60405180910390a1600061056b85610984565b9050600061057882610e3e565b90506000610587828686610ed1565b90507ff0028408428d5005eb33874c8092c62faef5a685cea20320e5e94fd6e33523bf836040516105b891906120fc565b60405180910390a16105ca8682610f13565b857fe883eeefa7f620d513eac93479fc9f54ce03f9f4a72c0d818311a9d19556e879826040516105fa91906120fc565b60405180910390a260078054906000610612836126b5565b9091555050506001600160a01b0388166000908152600860209081526040822080546001810182559083529120018590555092945050505050919050565b61066361065c8261094f565b838361085f565b6001600160a01b0383166000908152600860209081526040808320805482518185028101850190935280835291929091908301828280156106c357602002820191906000526020600020905b8154815260200190600101908083116106af575b505083519394506000925050505b8181101561085757838382815181106106fa57634e487b7160e01b600052603260045260246000fd5b6020026020010151141561084557805b610715600184612637565b8110156107ca576001600160a01b038716600090815260086020526040902061073f8360016125c7565b8154811061075d57634e487b7160e01b600052603260045260246000fd5b906000526020600020015460086000896001600160a01b03166001600160a01b0316815260200190815260200160002083815481106107ac57634e487b7160e01b600052603260045260246000fd5b600091825260209091200155806107c2816126b5565b91505061070a565b506001600160a01b038616600090815260086020526040902080548061080057634e487b7160e01b600052603160045260246000fd5b6000828152602080822083016000199081018390559092019092556001600160a01b038716825260088152604082208054600181018255908352912001849055610857565b8061084f816126b5565b9150506106d1565b505050505050565b61087061086a610ced565b82610f57565b61088c5760405162461bcd60e51b81526004016103ce90612548565b610486838383610fd4565b600860205281600052604060002081815481106108b357600080fd5b90600052602060002001600091509150505481565b61048683838360405180602001604052806000815250610aee565b6001600160a01b03811660009081526008602090815260409182902080548351818402810184019094528084526060939283018282801561094357602002820191906000526020600020905b81548152602001906001019080831161092f575b50505050509050919050565b6000818152600260205260408120546001600160a01b03168061030d5760405162461bcd60e51b81526004016103ce90612306565b606060006009548361099691906126d0565b6109a19060016125c7565b90506109ae600b54611101565b6109b9600b54611101565b6040516020016109ca929190611f57565b604051602081830303815290604052915060005b81811015610a5c57600084826040516020016109fb9291906125b9565b6040516020818303038152906040528051906020012060001c90506000610a2182611247565b90508481604051602001610a36929190611d79565b604051602081830303815290604052945050508080610a54906126b5565b9150506109de565b5081604051602001610a6e9190611e6a565b604051602081830303815290604052915050919050565b60006001600160a01b038216610aad5760405162461bcd60e51b81526004016103ce906122bc565b506001600160a01b031660009081526003602052604090205490565b6060600180546103249061267a565b610aea610ae3610ced565b83836113f1565b5050565b610aff610af9610ced565b83610f57565b610b1b5760405162461bcd60e51b81526004016103ce90612548565b610b2784848484611494565b50505050565b6060610b3882610cd0565b610b545760405162461bcd60e51b81526004016103ce906123d2565b60008281526006602052604081208054610b6d9061267a565b80601f0160208091040260200160405190810160405280929190818152602001828054610b999061267a565b8015610be65780601f10610bbb57610100808354040283529160200191610be6565b820191906000526020600020905b815481529060010190602001808311610bc957829003601f168201915b505050505090506000610bf76114c7565b9050805160001415610c0b57509050610310565b815115610c3d578082604051602001610c25929190611d79565b60405160208183030381529060405292505050610310565b610c46846114d9565b949350505050565b60075481565b6000424433604051602001610c6b93929190612034565b6040516020818303038152906040528051906020012060001c905090565b6001600160a01b03918216600090815260056020908152604080832093909416825291909152205460ff1690565b6001600160e01b031981166301ffc9a760e01b14919050565b6000908152600260205260409020546001600160a01b0316151590565b3390565b600081815260046020526040902080546001600160a01b0319166001600160a01b0384169081179091558190610d268261094f565b6001600160a01b03167f8c5be1e5ebec7d5bd14f71427d1e84f3dd0314c0f7b2291e5b200ac8c7c3b92560405160405180910390a45050565b6001600160a01b038216610d855760405162461bcd60e51b81526004016103ce9061239d565b610d8e81610cd0565b15610dab5760405162461bcd60e51b81526004016103ce90612161565b610db760008383610486565b6001600160a01b0382166000908152600360205260408120805460019290610de09084906125c7565b909155505060008181526002602052604080822080546001600160a01b0319166001600160a01b03861690811790915590518392907fddf252ad1be2c89b69c2b068fc378daa952ba7f163c4a11628f55a4df523b3ef908290a45050565b606060006040518060400160405280601a81526020017f646174613a696d6167652f7376672b786d6c3b6261736536342c00000000000081525090506000610ea484604051602001610e909190611d5d565b60405160208183030381529060405261154c565b90508181604051602001610eb9929190611d79565b60405160208183030381529060405292505050919050565b6060610eeb838386604051602001610e9093929190611e94565b604051602001610efb9190611fef565b60405160208183030381529060405290509392505050565b610f1c82610cd0565b610f385760405162461bcd60e51b81526004016103ce9061234f565b6000828152600660209081526040909120825161048692840190611a7b565b6000610f6282610cd0565b610f7e5760405162461bcd60e51b81526004016103ce90612213565b6000610f898361094f565b9050806001600160a01b0316846001600160a01b03161480610fc45750836001600160a01b0316610fb9846103a7565b6001600160a01b0316145b80610c465750610c468185610c89565b826001600160a01b0316610fe78261094f565b6001600160a01b03161461100d5760405162461bcd60e51b81526004016103ce9061246f565b6001600160a01b0382166110335760405162461bcd60e51b81526004016103ce90612198565b61103e838383610486565b611049600082610cf1565b6001600160a01b0383166000908152600360205260408120805460019290611072908490612637565b90915550506001600160a01b03821660009081526003602052604081208054600192906110a09084906125c7565b909155505060008181526002602052604080822080546001600160a01b0319166001600160a01b0386811691821790925591518493918716917fddf252ad1be2c89b69c2b068fc378daa952ba7f163c4a11628f55a4df523b3ef91a4505050565b60608161112657506040805180820190915260018152600360fc1b6020820152610310565b8160005b8115611150578061113a816126b5565b91506111499050600a83612604565b915061112a565b60008167ffffffffffffffff81111561117957634e487b7160e01b600052604160045260246000fd5b6040519080825280601f01601f1916602001820160405280156111a3576020820181803683370190505b509050815b851561123e576111b9600182612637565b905060006111c8600a88612604565b6111d390600a612618565b6111dd9088612637565b6111e89060306125df565b905060008160f81b90508084848151811061121357634e487b7160e01b600052603260045260246000fd5b60200101906001600160f81b031916908160001a905350611235600a89612604565b975050506111a8565b50949350505050565b60606000600a548361125991906126d0565b6112649060016125c7565b9050604051806040016040528060098152602001681e3830ba3410321e9160b91b815250915060005b818110156113185760008482600b546112a691906125c7565b6040516020016112b79291906125b9565b6040516020818303038152906040528051906020012060001c905060006112dd826116c1565b905084816040516020016112f2929190611d79565b604051602081830303815290604052945050508080611310906126b5565b91505061128d565b50600d80546000919061132b90866126d0565b8154811061134957634e487b7160e01b600052603260045260246000fd5b90600052602060002001805461135e9061267a565b80601f016020809104026020016040519081016040528092919081815260200182805461138a9061267a565b80156113d75780601f106113ac576101008083540402835291602001916113d7565b820191906000526020600020905b8154815290600101906020018083116113ba57829003601f168201915b505050505090508281604051602001610eb9929190611e02565b816001600160a01b0316836001600160a01b031614156114235760405162461bcd60e51b81526004016103ce906121dc565b6001600160a01b0383811660008181526005602090815260408083209487168084529490915290819020805460ff1916851515179055517f17307eab39ab6107e8899845ad3d59bd9653f200f220920489ca2b5937696c31906114879085906120f1565b60405180910390a3505050565b61149f848484610fd4565b6114ab8484848461183f565b610b275760405162461bcd60e51b81526004016103ce9061210f565b60408051602081019091526000815290565b60606114e482610cd0565b6115005760405162461bcd60e51b81526004016103ce906124b8565b600061150a6114c7565b9050600081511161152a5760405180602001604052806000815250611545565b806115348461195a565b604051602001610a6e929190611d79565b9392505050565b606081516000141561156d5750604080516020810190915260008152610310565b6000604051806060016040528060408152602001612740604091399050600060038451600261159c91906125c7565b6115a69190612604565b6115b1906004612618565b905060006115c08260206125c7565b67ffffffffffffffff8111156115e657634e487b7160e01b600052604160045260246000fd5b6040519080825280601f01601f191660200182016040528015611610576020820181803683370190505b509050818152600183018586518101602084015b8183101561167c576003830192508251603f8160121c168501518253600182019150603f81600c1c168501518253600182019150603f8160061c168501518253600182019150603f8116850151825350600101611624565b60038951066001811461169657600281146116a7576116b3565b613d3d60f01b6001198301526116b3565b603d60f81b6000198301525b509398975050505050505050565b600c8054606091906116d390846126d0565b815481106116f157634e487b7160e01b600052603260045260246000fd5b9060005260206000200180546117069061267a565b80601f01602080910402602001604051908101604052809291908181526020018280546117329061267a565b801561177f5780601f106117545761010080835404028352916020019161177f565b820191906000526020600020905b81548152906001019060200180831161176257829003601f168201915b505050505090506000600b5483600b54600261179b9190612618565b6040516020016117ac9291906125b9565b6040516020818303038152906040528051906020012060001c6117cf91906126d0565b600b54909150600090846117e4826003612618565b6040516020016117f59291906125b9565b6040516020818303038152906040528051906020012060001c61181891906126d0565b90508261182483611101565b61182d83611101565b604051602001610eb993929190611da8565b6000611853846001600160a01b0316611a75565b1561194f57836001600160a01b031663150b7a0261186f610ced565b8786866040518563ffffffff1660e01b81526004016118919493929190612070565b602060405180830381600087803b1580156118ab57600080fd5b505af19250505080156118db575060408051601f3d908101601f191682019092526118d891810190611cfd565b60015b611935573d808015611909576040519150601f19603f3d011682016040523d82523d6000602084013e61190e565b606091505b50805161192d5760405162461bcd60e51b81526004016103ce9061210f565b805181602001fd5b6001600160e01b031916630a85bd0160e11b149050610c46565b506001949350505050565b60608161197f57506040805180820190915260018152600360fc1b6020820152610310565b8160005b81156119a95780611993816126b5565b91506119a29050600a83612604565b9150611983565b60008167ffffffffffffffff8111156119d257634e487b7160e01b600052604160045260246000fd5b6040519080825280601f01601f1916602001820160405280156119fc576020820181803683370190505b5090505b8415610c4657611a11600183612637565b9150611a1e600a866126d0565b611a299060306125c7565b60f81b818381518110611a4c57634e487b7160e01b600052603260045260246000fd5b60200101906001600160f81b031916908160001a905350611a6e600a86612604565b9450611a00565b3b151590565b828054611a879061267a565b90600052602060002090601f016020900481019282611aa95760008555611aef565b82601f10611ac257805160ff1916838001178555611aef565b82800160010185558215611aef579182015b82811115611aef578251825591602001919060010190611ad4565b50611afb929150611aff565b5090565b5b80821115611afb5760008155600101611b00565b80356001600160a01b038116811461031057600080fd5b600060208284031215611b3c578081fd5b61154582611b14565b60008060408385031215611b57578081fd5b611b6083611b14565b9150611b6e60208401611b14565b90509250929050565b600080600060608486031215611b8b578081fd5b611b9484611b14565b9250611ba260208501611b14565b9150604084013590509250925092565b60008060008060808587031215611bc7578081fd5b611bd085611b14565b93506020611bdf818701611b14565b935060408601359250606086013567ffffffffffffffff80821115611c02578384fd5b818801915088601f830112611c15578384fd5b813581811115611c2757611c27612710565b604051601f8201601f1916810185018381118282101715611c4a57611c4a612710565b60405281815283820185018b1015611c60578586fd5b81858501868301379081019093019390935250939692955090935050565b60008060408385031215611c90578182fd5b611c9983611b14565b915060208301358015158114611cad578182fd5b809150509250929050565b60008060408385031215611cca578182fd5b611cd383611b14565b946020939093013593505050565b600060208284031215611cf2578081fd5b813561154581612726565b600060208284031215611d0e578081fd5b815161154581612726565b600060208284031215611d2a578081fd5b5035919050565b60008151808452611d4981602086016020860161264e565b601f01601f19169290920160200192915050565b60008251611d6f81846020870161264e565b9190910192915050565b60008351611d8b81846020880161264e565b835190830190611d9f81836020880161264e565b01949350505050565b60008451611dba81846020890161264e565b845190830190611dce81836020890161264e565b600160fd1b91018181528451909190611dee81600185016020890161264e565b600192019182015260020195945050505050565b60008351611e1481846020880161264e565b7f222066696c6c3d227472616e73706172656e7422207374726f6b653d220000009083019081528351611e4e81601d84016020880161264e565b6211179f60e91b601d9290910191820152602001949350505050565b60008251611e7c81846020870161264e565b651e17b9bb339f60d11b920191825250600601919050565b683d913730b6b2911d1160b91b81528351600090611eb981600985016020890161264e565b61088b60f21b60099184019182018190526e113232b9b1b934b83a34b7b7111d1160891b600b8301528551611ef581601a850160208a0161264e565b601a9201918201526f08985d1d1c9a589d5d195cc88e88888b60821b601c820152681134b6b0b3b2911d1160b91b602c8201528351611f3b81603584016020880161264e565b61227d60f01b6035929091019182015260370195945050505050565b60007f3c73766720786d6c6e733d22687474703a2f2f7777772e77332e6f72672f323082526f181817b9bb3391103432b4b3b43a1e9160811b60208301528351611fa881603085016020880161264e565b6b19189811103bb4b23a341e9160a11b6030918401918201528351611fd481603c84016020880161264e565b61111f60f11b603c9290910191820152603e01949350505050565b60007f646174613a6170706c69636174696f6e2f6a736f6e3b6261736536342c0000008252825161202781601d85016020870161264e565b91909101601d0192915050565b928352602083019190915260601b6bffffffffffffffffffffffff1916604082015260540190565b6001600160a01b0391909116815260200190565b6001600160a01b03858116825284166020820152604081018390526080606082018190526000906120a390830184611d31565b9695505050505050565b6020808252825182820181905260009190848201906040850190845b818110156120e5578351835292840192918401916001016120c9565b50909695505050505050565b901515815260200190565b6000602082526115456020830184611d31565b60208082526032908201527f4552433732313a207472616e7366657220746f206e6f6e20455243373231526560408201527131b2b4bb32b91034b6b83632b6b2b73a32b960711b606082015260800190565b6020808252601c908201527f4552433732313a20746f6b656e20616c7265616479206d696e74656400000000604082015260600190565b60208082526024908201527f4552433732313a207472616e7366657220746f20746865207a65726f206164646040820152637265737360e01b606082015260800190565b60208082526019908201527f4552433732313a20617070726f766520746f2063616c6c657200000000000000604082015260600190565b6020808252602c908201527f4552433732313a206f70657261746f7220717565727920666f72206e6f6e657860408201526b34b9ba32b73a103a37b5b2b760a11b606082015260800190565b60208082526038908201527f4552433732313a20617070726f76652063616c6c6572206973206e6f74206f7760408201527f6e6572206e6f7220617070726f76656420666f7220616c6c0000000000000000606082015260800190565b6020808252602a908201527f4552433732313a2062616c616e636520717565727920666f7220746865207a65604082015269726f206164647265737360b01b606082015260800190565b60208082526029908201527f4552433732313a206f776e657220717565727920666f72206e6f6e657869737460408201526832b73a103a37b5b2b760b91b606082015260800190565b6020808252602e908201527f45524337323155524953746f726167653a2055524920736574206f66206e6f6e60408201526d32bc34b9ba32b73a103a37b5b2b760911b606082015260800190565b6020808252818101527f4552433732313a206d696e7420746f20746865207a65726f2061646472657373604082015260600190565b60208082526031908201527f45524337323155524953746f726167653a2055524920717565727920666f72206040820152703737b732bc34b9ba32b73a103a37b5b2b760791b606082015260800190565b6020808252602c908201527f4552433732313a20617070726f76656420717565727920666f72206e6f6e657860408201526b34b9ba32b73a103a37b5b2b760a11b606082015260800190565b60208082526029908201527f4552433732313a207472616e73666572206f6620746f6b656e2074686174206960408201526839903737ba1037bbb760b91b606082015260800190565b6020808252602f908201527f4552433732314d657461646174613a2055524920717565727920666f72206e6f60408201526e3732bc34b9ba32b73a103a37b5b2b760891b606082015260800190565b60208082526021908201527f4552433732313a20617070726f76616c20746f2063757272656e74206f776e656040820152603960f91b606082015260800190565b60208082526031908201527f4552433732313a207472616e736665722063616c6c6572206973206e6f74206f6040820152701ddb995c881b9bdc88185c1c1c9bdd9959607a1b606082015260800190565b90815260200190565b9182526001600160a01b0316602082015260400190565b918252602082015260400190565b600082198211156125da576125da6126e4565b500190565b600060ff821660ff84168060ff038211156125fc576125fc6126e4565b019392505050565b600082612613576126136126fa565b500490565b6000816000190483118215151615612632576126326126e4565b500290565b600082821015612649576126496126e4565b500390565b60005b83811015612669578181015183820152602001612651565b83811115610b275750506000910152565b60028104600182168061268e57607f821691505b602082108114156126af57634e487b7160e01b600052602260045260246000fd5b50919050565b60006000198214156126c9576126c96126e4565b5060010190565b6000826126df576126df6126fa565b500690565b634e487b7160e01b600052601160045260246000fd5b634e487b7160e01b600052601260045260246000fd5b634e487b7160e01b600052604160045260246000fd5b6001600160e01b03198116811461273c57600080fd5b5056fe4142434445464748494a4b4c4d4e4f505152535455565758595a6162636465666768696a6b6c6d6e6f707172737475767778797a303132333435363738392b2fa264697066735822122007c8013a62eb4eee48057cd109fa9d2f6cb712c4141ac4e82fad7c694559cd9f64736f6c63430008000033",
  "linkReferences": {},
  "deployedLinkReferences": {}
}