{
  "_format": "hh-sol-artifact-1",
  "contractName": "Users",
  "sourceName": "contracts/Users.sol",
  "abi": [
    {
      "inputs": [],
      "stateMutability": "nonpayable",
      "type": "constructor"
    },
    {
      "anonymous": false,
      "inputs": [
        {
          "indexed": false,
          "internalType": "contract User",
          "name": "user",
          "type": "address"
        }
      ],
      "name": "UserConnect",
      "type": "event"
    },
    {
      "inputs": [],
      "name": "auctionInstance",
      "outputs": [
        {
          "internalType": "contract Auctions",
          "name": "",
          "type": "address"
        }
      ],
      "stateMutability": "view",
      "type": "function"
    },
    {
      "inputs": [],
      "name": "connectUser",
      "outputs": [],
      "stateMutability": "nonpayable",
      "type": "function"
    },
    {
      "inputs": [
        {
          "internalType": "address",
          "name": "_userAddress",
          "type": "address"
        }
      ],
      "name": "getUser",
      "outputs": [
        {
          "internalType": "contract User",
          "name": "",
          "type": "address"
        }
      ],
      "stateMutability": "view",
      "type": "function"
    },
    {
      "inputs": [],
      "name": "nftInstance",
      "outputs": [
        {
          "internalType": "contract NFT",
          "name": "",
          "type": "address"
        }
      ],
      "stateMutability": "view",
      "type": "function"
    },
    {
      "inputs": [
        {
          "internalType": "address",
          "name": "",
          "type": "address"
        }
      ],
      "name": "users",
      "outputs": [
        {
          "internalType": "contract User",
          "name": "",
          "type": "address"
        }
      ],
      "stateMutability": "view",
      "type": "function"
    }
  ],
  "bytecode": "0x608060405234801561001057600080fd5b5060405161001d906100b3565b604051809103906000f080158015610039573d6000803e3d6000fd5b50600180546001600160a01b0319166001600160a01b039283161790819055604051911690610067906100c0565b61007191906100cd565b604051809103906000f08015801561008d573d6000803e3d6000fd5b50600280546001600160a01b0319166001600160a01b03929092169190911790556100e1565b612b538061192c83390190565b6119488061447f83390190565b6001600160a01b0391909116815260200190565b61183c806100f06000396000f3fe608060405234801561001057600080fd5b50600436106100575760003560e01c80636f77926b1461005c578063a87430ba14610085578063ac5e4dd814610098578063b7e8ab1a146100a0578063bae2739b146100a8575b600080fd5b61006f61006a36600461024a565b6100b2565b60405161007c919061029b565b60405180910390f35b61006f61009336600461024a565b6100d0565b61006f6100eb565b61006f6100fa565b6100b0610109565b005b6001600160a01b039081166000908152602081905260409020541690565b6000602081905290815260409020546001600160a01b031681565b6001546001600160a01b031681565b6002546001600160a01b031681565b336000818152602081905260409020546001600160a01b03161561017f576001600160a01b03808216600090815260208190526040908190205490517fdc71ecd0af622ffab903eb566194545a23403d3a8f2cab61e83871dde0bf5c869261017292169061029b565b60405180910390a161023a565b60015460025460405160009284926001600160a01b03918216929116906101a59061023d565b6101b193929190610278565b604051809103906000f0801580156101cd573d6000803e3d6000fd5b506001600160a01b038381166000908152602081905260409081902080546001600160a01b03191692841692909217909155519091507fdc71ecd0af622ffab903eb566194545a23403d3a8f2cab61e83871dde0bf5c869061023090839061029b565b60405180910390a1505b50565b611557806102b083390190565b60006020828403121561025b578081fd5b81356001600160a01b0381168114610271578182fd5b9392505050565b6001600160a01b0393841681529183166020830152909116604082015260600190565b6001600160a01b039190911681526020019056fe60806040523480156200001157600080fd5b506040516200155738038062001557833981016040819052620000349162000077565b600080546001600160a01b039485166001600160a01b031991821617909155600180549385169382169390931790925560028054919093169116179055620000e3565b6000806000606084860312156200008c578283fd5b83516200009981620000ca565b6020850151909350620000ac81620000ca565b6040850151909250620000bf81620000ca565b809150509250925092565b6001600160a01b0381168114620000e057600080fd5b50565b61146480620000f36000396000f3fe6080604052600436106100dd5760003560e01c8063a582dc441161007f578063c785034911610059578063c78503491461021f578063d4d68a9e1461023f578063e4128fb31461026d578063e808386314610282576100dd565b8063a582dc44146101bb578063ac5e4dd8146101e8578063b7e8ab1a1461020a576100dd565b806395d3343e116100bb57806395d3343e146101675780639979ef451461017e5780639e69501414610191578063a20b9511146101a6576100dd565b806352ed6b69146100e257806359da64a91461010d5780637e7010f51461013a575b600080fd5b3480156100ee57600080fd5b506100f76102af565b6040516101049190611233565b60405180910390f35b34801561011957600080fd5b5061012d61012836600461107a565b610372565b6040516101049190611300565b34801561014657600080fd5b5061015a61015536600461107a565b61042e565b60405161010491906112c1565b34801561017357600080fd5b5061017c6104e5565b005b61017c61018c36600461107a565b61068a565b34801561019d57600080fd5b5061017c6107eb565b3480156101b257600080fd5b506100f76109c5565b3480156101c757600080fd5b506101db6101d636600461107a565b610a26565b604051610104919061134e565b3480156101f457600080fd5b506101fd610b07565b6040516101049190611199565b34801561021657600080fd5b506101fd610b16565b34801561022b57600080fd5b5061017c61023a3660046110aa565b610b25565b34801561024b57600080fd5b5061025f61025a36600461107a565b610c2c565b6040516101049291906111c6565b34801561027957600080fd5b506101fd610cc7565b34801561028e57600080fd5b506102a261029d36600461107a565b610cd6565b60405161010491906112b6565b6000546060906001600160a01b031633146102e55760405162461bcd60e51b81526004016102dc906112d4565b60405180910390fd5b600254600054604051631f56360360e31b81526001600160a01b039283169263fab1b0189261031992911690600401611199565b60006040518083038186803b15801561033157600080fd5b505afa158015610345573d6000803e3d6000fd5b505050506040513d6000823e601f3d908101601f1916820160405261036d9190810190610eb4565b905090565b61037a610e33565b6000546001600160a01b031633146103a45760405162461bcd60e51b81526004016102dc906112d4565b6002546040516302deb55360e21b81526001600160a01b0390911690630b7ad54c906103d490859060040161134e565b60006040518083038186803b1580156103ec57600080fd5b505afa158015610400573d6000803e3d6000fd5b505050506040513d6000823e601f3d908101601f191682016040526104289190810190610fd1565b92915050565b6000546060906001600160a01b0316331461045b5760405162461bcd60e51b81526004016102dc906112d4565b6001546001600160a01b031663c87b56dd61047584610a26565b6040518263ffffffff1660e01b8152600401610491919061134e565b60006040518083038186803b1580156104a957600080fd5b505afa1580156104bd573d6000803e3d6000fd5b505050506040513d6000823e601f3d908101601f191682016040526104289190810190610f9e565b60006104ef6109c5565b805190915060008167ffffffffffffffff81111561051d57634e487b7160e01b600052604160045260246000fd5b60405190808252806020026020018201604052801561055057816020015b606081526020019060019003908161053b5790505b50905060005b8281101561064b5760015484516001600160a01b039091169063c87b56dd9086908490811061059557634e487b7160e01b600052603260045260246000fd5b60200260200101516040518263ffffffff1660e01b81526004016105b9919061134e565b60006040518083038186803b1580156105d157600080fd5b505afa1580156105e5573d6000803e3d6000fd5b505050506040513d6000823e601f3d908101601f1916820160405261060d9190810190610f9e565b82828151811061062d57634e487b7160e01b600052603260045260246000fd5b60200260200101819052508080610643906113d9565b915050610556565b507f7cf4803c7d55374ac9ae628353b4375aedaa0450ef9b10b18dd834aed7d77980838260405161067d929190611246565b60405180910390a1505050565b6000546001600160a01b031633146106b45760405162461bcd60e51b81526004016102dc906112d4565b600254604051630c088d6d60e11b81526000916001600160a01b0316906318111ada906106e590859060040161134e565b60206040518083038186803b1580156106fd57600080fd5b505afa158015610711573d6000803e3d6000fd5b505050506040513d601f19601f820116820180604052508101906107359190610f82565b90506000816001600160a01b031663d98b9bb53433346040518463ffffffff1660e01b81526004016107689291906111ad565b6020604051808303818588803b15801561078157600080fd5b505af1158015610795573d6000803e3d6000fd5b50505050506040513d601f19601f820116820180604052508101906107ba9190610f5b565b90507fdd12842682a5074130a77d2ebd35098c916b04f5f9130d875292531a3b844b5a8160405161067d91906112b6565b6000546001600160a01b031633146108155760405162461bcd60e51b81526004016102dc906112d4565b6001805460005460405163a22cb46560e01b81526001600160a01b039283169363a22cb465936108499316916004016111e0565b600060405180830381600087803b15801561086357600080fd5b505af1158015610877573d6000803e3d6000fd5b5050600154600080546040516305f9620f60e21b81529194506001600160a01b0392831693506317e5883c926108b292911690600401611199565b602060405180830381600087803b1580156108cc57600080fd5b505af11580156108e0573d6000803e3d6000fd5b505050506040513d601f19601f820116820180604052508101906109049190611092565b60015460405163c87b56dd60e01b81529192507fcbfc4dcd2e7acb06d88ce8ab931499a35fd78fb8ca65dffed66523c8f5e247a9916001600160a01b039091169063c87b56dd9061095990859060040161134e565b60006040518083038186803b15801561097157600080fd5b505afa158015610985573d6000803e3d6000fd5b505050506040513d6000823e601f3d908101601f191682016040526109ad9190810190610f9e565b6040516109ba91906112c1565b60405180910390a150565b6000546060906001600160a01b031633146109f25760405162461bcd60e51b81526004016102dc906112d4565b600154600054604051635d81902f60e01b81526001600160a01b0392831692635d81902f9261031992911690600401611199565b600080546001600160a01b03163314610a515760405162461bcd60e51b81526004016102dc906112d4565b600154600054604051635d81902f60e01b81526001600160a01b0392831692635d81902f92610a8592911690600401611199565b60006040518083038186803b158015610a9d57600080fd5b505afa158015610ab1573d6000803e3d6000fd5b505050506040513d6000823e601f3d908101601f19168201604052610ad99190810190610eb4565b8281518110610af857634e487b7160e01b600052603260045260246000fd5b60200260200101519050919050565b6001546001600160a01b031681565b6002546001600160a01b031681565b6000546001600160a01b03163314610b4f5760405162461bcd60e51b81526004016102dc906112d4565b6000610b5a84610a26565b600254600080546040516312072a3160e21b815293945090926001600160a01b039283169263481ca8c492610b9a929116908690899089906004016111fb565b602060405180830381600087803b158015610bb457600080fd5b505af1158015610bc8573d6000803e3d6000fd5b505050506040513d601f19601f82011682018060405250810190610bec9190611092565b90507f7e0e356457a92dacd3760ddf327a24dd226c6ca01b2cc41a7fd6f28469c7ab9b81604051610c1d919061134e565b60405180910390a15050505050565b600254604051630c088d6d60e11b8152600091829182916001600160a01b0316906318111ada90610c6190879060040161134e565b60206040518083038186803b158015610c7957600080fd5b505afa158015610c8d573d6000803e3d6000fd5b505050506040513d601f19601f82011682018060405250810190610cb19190610f82565b6001546001600160a01b03169350915050915091565b6000546001600160a01b031681565b600080546001600160a01b03163314610d015760405162461bcd60e51b81526004016102dc906112d4565b600254604051630c088d6d60e11b81526000916001600160a01b0316906318111ada90610d3290869060040161134e565b60206040518083038186803b158015610d4a57600080fd5b505afa158015610d5e573d6000803e3d6000fd5b505050506040513d601f19601f82011682018060405250810190610d829190610f82565b6001600160a01b031663f77282ab6040518163ffffffff1660e01b8152600401602060405180830381600087803b158015610dbc57600080fd5b505af1158015610dd0573d6000803e3d6000fd5b505050506040513d601f19601f82011682018060405250810190610df49190610f5b565b90507fac582e96473a143b5efdb32368bad855dfe56bafa86c2171f0fd6063cf391cfe81604051610e2591906112b6565b60405180910390a192915050565b604051806080016040528060006001600160a01b031681526020016000815260200160608152602001600081525090565b600082601f830112610e74578081fd5b8151610e87610e8282611381565b611357565b818152846020838601011115610e9b578283fd5b610eac8260208301602087016113a9565b949350505050565b60006020808385031215610ec6578182fd5b825167ffffffffffffffff80821115610edd578384fd5b818501915085601f830112610ef0578384fd5b815181811115610f0257610f02611400565b8381029150610f12848301611357565b8181528481019084860184860187018a1015610f2c578788fd5b8795505b83861015610f4e578051835260019590950194918601918601610f30565b5098975050505050505050565b600060208284031215610f6c578081fd5b81518015158114610f7b578182fd5b9392505050565b600060208284031215610f93578081fd5b8151610f7b81611416565b600060208284031215610faf578081fd5b815167ffffffffffffffff811115610fc5578182fd5b610eac84828501610e64565b600060208284031215610fe2578081fd5b815167ffffffffffffffff80821115610ff9578283fd5b908301906080828603121561100c578283fd5b60405160808101818110838211171561102757611027611400565b604052825161103581611416565b815260208381015190820152604083015182811115611052578485fd5b61105e87828601610e64565b6040830152506060830151606082015280935050505092915050565b60006020828403121561108b578081fd5b5035919050565b6000602082840312156110a3578081fd5b5051919050565b6000806000606084860312156110be578182fd5b83359250602084013567ffffffffffffffff8111156110db578283fd5b8401601f810186136110eb578283fd5b80356110f9610e8282611381565b81815287602083850101111561110d578485fd5b816020840160208301378460208383010152809450505050604084013590509250925092565b6000815180845260208085019450808401835b8381101561116257815187529582019590820190600101611146565b509495945050505050565b600081518084526111858160208601602086016113a9565b601f01601f19169290920160200192915050565b6001600160a01b0391909116815260200190565b6001600160a01b03929092168252602082015260400190565b6001600160a01b0392831681529116602082015260400190565b6001600160a01b039290921682521515602082015260400190565b600060018060a01b038616825284602083015260806040830152611222608083018561116d565b905082606083015295945050505050565b600060208252610f7b6020830184611133565b6000604082526112596040830185611133565b602083820381850152818551808452828401915082838202850101838801865b838110156112a757601f1987840301855261129583835161116d565b94860194925090850190600101611279565b50909998505050505050505050565b901515815260200190565b600060208252610f7b602083018461116d565b6020808252601290820152712cb7ba9030b932903bb937b733903ab9b2b960711b604082015260600190565b60006020825260018060a01b0383511660208301526020830151604083015260408301516080606084015261133860a084018261116d565b9050606084015160808401528091505092915050565b90815260200190565b60405181810167ffffffffffffffff8111828210171561137957611379611400565b604052919050565b600067ffffffffffffffff82111561139b5761139b611400565b50601f01601f191660200190565b60005b838110156113c45781810151838201526020016113ac565b838111156113d3576000848401525b50505050565b60006000198214156113f957634e487b7160e01b81526011600452602481fd5b5060010190565b634e487b7160e01b600052604160045260246000fd5b6001600160a01b038116811461142b57600080fd5b5056fea264697066735822122054b31195d4ab92d3cd98ebbbf79286af3e2cecf29f7ccc0687089f9c02d9288a64736f6c63430008000033a26469706673582212208f315383c79d929bb44deb36269214e05bff866e414f713225de7ff4b5c43a6764736f6c6343000800003360806040523480156200001157600080fd5b506040805180820182526009815268139a59d9d84813919560ba1b602080830191825283518085019094526008845267139a59d9d853919560c21b908401528151919291620000639160009162000193565b5080516200007990600190602084019062000193565b5050600060075550600a6009819055600590556101f4600b55604080516080810182526001818301818152604d60f81b6060840152825282518084019093528252601360fa1b602083810191909152810191909152620000de90600c90600262000222565b506040518060800160405280604051806040016040528060078152602001662366636261303360c81b8152508152602001604051806040016040528060078152602001661199989b19b2b160c91b8152508152602001604051806040016040528060078152602001660233437393930360cc1b815250815260200160405180604001604052806005815260200164626c61636b60d81b815250815250600d9060046200018c92919062000282565b506200038e565b828054620001a19062000351565b90600052602060002090601f016020900481019282620001c5576000855562000210565b82601f10620001e057805160ff191683800117855562000210565b8280016001018555821562000210579182015b8281111562000210578251825591602001919060010190620001f3565b506200021e929150620002d4565b5090565b82805482825590600052602060002090810192821562000274579160200282015b828111156200027457825180516200026391849160209091019062000193565b509160200191906001019062000243565b506200021e929150620002eb565b82805482825590600052602060002090810192821562000274579160200282015b82811115620002745782518051620002c391849160209091019062000193565b5091602001919060010190620002a3565b5b808211156200021e5760008155600101620002d5565b808211156200021e5760006200030282826200030c565b50600101620002eb565b5080546200031a9062000351565b6000825580601f106200032e57506200034e565b601f0160209004906000526020600020908101906200034e9190620002d4565b50565b6002810460018216806200036657607f821691505b602082108114156200038857634e487b7160e01b600052602260045260246000fd5b50919050565b6127b5806200039e6000396000f3fe608060405234801561001057600080fd5b506004361061012c5760003560e01c80636352211e116100ad578063b88d4fde11610071578063b88d4fde14610284578063c87b56dd14610297578063d082e381146102aa578063dbdff2c1146102b2578063e985e9c5146102ba5761012c565b80636352211e146102305780636dcee4ca1461024357806370a082311461025657806395d89b4114610269578063a22cb465146102715761012c565b80632276b7e8116100f45780632276b7e8146101c457806323b872dd146101d7578063245c561a146101ea57806342842e0e146101fd5780635d81902f146102105761012c565b806301ffc9a71461013157806306fdde031461015a578063081812fc1461016f578063095ea7b31461018f57806317e5883c146101a4575b600080fd5b61014461013f366004611ce1565b6102cd565b60405161015191906120f1565b60405180910390f35b610162610315565b60405161015191906120fc565b61018261017d366004611d19565b6103a7565b604051610151919061205c565b6101a261019d366004611cb8565b6103f3565b005b6101b76101b2366004611b2b565b61048b565b6040516101519190612599565b6101a26101d2366004611b77565b610650565b6101a26101e5366004611b77565b61085f565b6101b76101f8366004611cb8565b610897565b6101a261020b366004611b77565b6108c8565b61022361021e366004611b2b565b6108e3565b60405161015191906120ad565b61018261023e366004611d19565b61094f565b610162610251366004611d19565b610984565b6101b7610264366004611b2b565b610a85565b610162610ac9565b6101a261027f366004611c7e565b610ad8565b6101a2610292366004611bb2565b610aee565b6101626102a5366004611d19565b610b2d565b6101b7610c4e565b6101b7610c54565b6101446102c8366004611b45565b610c89565b60006001600160e01b031982166380ac58cd60e01b14806102fe57506001600160e01b03198216635b5e139f60e01b145b8061030d575061030d82610cb7565b90505b919050565b6060600080546103249061267a565b80601f01602080910402602001604051908101604052809291908181526020018280546103509061267a565b801561039d5780601f106103725761010080835404028352916020019161039d565b820191906000526020600020905b81548152906001019060200180831161038057829003601f168201915b5050505050905090565b60006103b282610cd0565b6103d75760405162461bcd60e51b81526004016103ce90612423565b60405180910390fd5b506000908152600460205260409020546001600160a01b031690565b60006103fe8261094f565b9050806001600160a01b0316836001600160a01b031614156104325760405162461bcd60e51b81526004016103ce90612507565b806001600160a01b0316610444610ced565b6001600160a01b031614806104605750610460816102c8610ced565b61047c5760405162461bcd60e51b81526004016103ce9061225f565b6104868383610cf1565b505050565b600080610496610c54565b90507fd20279a427f0b9be4eafb74bd6f4373c0d47a8f79bbabd9107a5dcf40aff13a281846040516104c99291906125a2565b60405180910390a16104dd83600754610d5f565b60075460408051808201825260058152646e6967676160d81b6020808301919091528251808401845260118152702734b3b3b0903232b9b1b934b83a34b7b760791b9181019190915291519091907fe4ce7b49ccc2eafced7b381a6077bb3c0eb7b8f2f645549a5ae835d34aea7da290610558908690612599565b60405180910390a1600061056b85610984565b9050600061057882610e3e565b90506000610587828686610ed1565b90507ff0028408428d5005eb33874c8092c62faef5a685cea20320e5e94fd6e33523bf836040516105b891906120fc565b60405180910390a16105ca8682610f13565b857fe883eeefa7f620d513eac93479fc9f54ce03f9f4a72c0d818311a9d19556e879826040516105fa91906120fc565b60405180910390a260078054906000610612836126b5565b9091555050506001600160a01b0388166000908152600860209081526040822080546001810182559083529120018590555092945050505050919050565b61066361065c8261094f565b838361085f565b6001600160a01b0383166000908152600860209081526040808320805482518185028101850190935280835291929091908301828280156106c357602002820191906000526020600020905b8154815260200190600101908083116106af575b505083519394506000925050505b8181101561085757838382815181106106fa57634e487b7160e01b600052603260045260246000fd5b6020026020010151141561084557805b610715600184612637565b8110156107ca576001600160a01b038716600090815260086020526040902061073f8360016125c7565b8154811061075d57634e487b7160e01b600052603260045260246000fd5b906000526020600020015460086000896001600160a01b03166001600160a01b0316815260200190815260200160002083815481106107ac57634e487b7160e01b600052603260045260246000fd5b600091825260209091200155806107c2816126b5565b91505061070a565b506001600160a01b038616600090815260086020526040902080548061080057634e487b7160e01b600052603160045260246000fd5b6000828152602080822083016000199081018390559092019092556001600160a01b038716825260088152604082208054600181018255908352912001849055610857565b8061084f816126b5565b9150506106d1565b505050505050565b61087061086a610ced565b82610f57565b61088c5760405162461bcd60e51b81526004016103ce90612548565b610486838383610fd4565b600860205281600052604060002081815481106108b357600080fd5b90600052602060002001600091509150505481565b61048683838360405180602001604052806000815250610aee565b6001600160a01b03811660009081526008602090815260409182902080548351818402810184019094528084526060939283018282801561094357602002820191906000526020600020905b81548152602001906001019080831161092f575b50505050509050919050565b6000818152600260205260408120546001600160a01b03168061030d5760405162461bcd60e51b81526004016103ce90612306565b606060006009548361099691906126d0565b6109a19060016125c7565b90506109ae600b54611101565b6109b9600b54611101565b6040516020016109ca929190611f57565b604051602081830303815290604052915060005b81811015610a5c57600084826040516020016109fb9291906125b9565b6040516020818303038152906040528051906020012060001c90506000610a2182611247565b90508481604051602001610a36929190611d79565b604051602081830303815290604052945050508080610a54906126b5565b9150506109de565b5081604051602001610a6e9190611e6a565b604051602081830303815290604052915050919050565b60006001600160a01b038216610aad5760405162461bcd60e51b81526004016103ce906122bc565b506001600160a01b031660009081526003602052604090205490565b6060600180546103249061267a565b610aea610ae3610ced565b83836113f1565b5050565b610aff610af9610ced565b83610f57565b610b1b5760405162461bcd60e51b81526004016103ce90612548565b610b2784848484611494565b50505050565b6060610b3882610cd0565b610b545760405162461bcd60e51b81526004016103ce906123d2565b60008281526006602052604081208054610b6d9061267a565b80601f0160208091040260200160405190810160405280929190818152602001828054610b999061267a565b8015610be65780601f10610bbb57610100808354040283529160200191610be6565b820191906000526020600020905b815481529060010190602001808311610bc957829003601f168201915b505050505090506000610bf76114c7565b9050805160001415610c0b57509050610310565b815115610c3d578082604051602001610c25929190611d79565b60405160208183030381529060405292505050610310565b610c46846114d9565b949350505050565b60075481565b6000424433604051602001610c6b93929190612034565b6040516020818303038152906040528051906020012060001c905090565b6001600160a01b03918216600090815260056020908152604080832093909416825291909152205460ff1690565b6001600160e01b031981166301ffc9a760e01b14919050565b6000908152600260205260409020546001600160a01b0316151590565b3390565b600081815260046020526040902080546001600160a01b0319166001600160a01b0384169081179091558190610d268261094f565b6001600160a01b03167f8c5be1e5ebec7d5bd14f71427d1e84f3dd0314c0f7b2291e5b200ac8c7c3b92560405160405180910390a45050565b6001600160a01b038216610d855760405162461bcd60e51b81526004016103ce9061239d565b610d8e81610cd0565b15610dab5760405162461bcd60e51b81526004016103ce90612161565b610db760008383610486565b6001600160a01b0382166000908152600360205260408120805460019290610de09084906125c7565b909155505060008181526002602052604080822080546001600160a01b0319166001600160a01b03861690811790915590518392907fddf252ad1be2c89b69c2b068fc378daa952ba7f163c4a11628f55a4df523b3ef908290a45050565b606060006040518060400160405280601a81526020017f646174613a696d6167652f7376672b786d6c3b6261736536342c00000000000081525090506000610ea484604051602001610e909190611d5d565b60405160208183030381529060405261154c565b90508181604051602001610eb9929190611d79565b60405160208183030381529060405292505050919050565b6060610eeb838386604051602001610e9093929190611e94565b604051602001610efb9190611fef565b60405160208183030381529060405290509392505050565b610f1c82610cd0565b610f385760405162461bcd60e51b81526004016103ce9061234f565b6000828152600660209081526040909120825161048692840190611a7b565b6000610f6282610cd0565b610f7e5760405162461bcd60e51b81526004016103ce90612213565b6000610f898361094f565b9050806001600160a01b0316846001600160a01b03161480610fc45750836001600160a01b0316610fb9846103a7565b6001600160a01b0316145b80610c465750610c468185610c89565b826001600160a01b0316610fe78261094f565b6001600160a01b03161461100d5760405162461bcd60e51b81526004016103ce9061246f565b6001600160a01b0382166110335760405162461bcd60e51b81526004016103ce90612198565b61103e838383610486565b611049600082610cf1565b6001600160a01b0383166000908152600360205260408120805460019290611072908490612637565b90915550506001600160a01b03821660009081526003602052604081208054600192906110a09084906125c7565b909155505060008181526002602052604080822080546001600160a01b0319166001600160a01b0386811691821790925591518493918716917fddf252ad1be2c89b69c2b068fc378daa952ba7f163c4a11628f55a4df523b3ef91a4505050565b60608161112657506040805180820190915260018152600360fc1b6020820152610310565b8160005b8115611150578061113a816126b5565b91506111499050600a83612604565b915061112a565b60008167ffffffffffffffff81111561117957634e487b7160e01b600052604160045260246000fd5b6040519080825280601f01601f1916602001820160405280156111a3576020820181803683370190505b509050815b851561123e576111b9600182612637565b905060006111c8600a88612604565b6111d390600a612618565b6111dd9088612637565b6111e89060306125df565b905060008160f81b90508084848151811061121357634e487b7160e01b600052603260045260246000fd5b60200101906001600160f81b031916908160001a905350611235600a89612604565b975050506111a8565b50949350505050565b60606000600a548361125991906126d0565b6112649060016125c7565b9050604051806040016040528060098152602001681e3830ba3410321e9160b91b815250915060005b818110156113185760008482600b546112a691906125c7565b6040516020016112b79291906125b9565b6040516020818303038152906040528051906020012060001c905060006112dd826116c1565b905084816040516020016112f2929190611d79565b604051602081830303815290604052945050508080611310906126b5565b91505061128d565b50600d80546000919061132b90866126d0565b8154811061134957634e487b7160e01b600052603260045260246000fd5b90600052602060002001805461135e9061267a565b80601f016020809104026020016040519081016040528092919081815260200182805461138a9061267a565b80156113d75780601f106113ac576101008083540402835291602001916113d7565b820191906000526020600020905b8154815290600101906020018083116113ba57829003601f168201915b505050505090508281604051602001610eb9929190611e02565b816001600160a01b0316836001600160a01b031614156114235760405162461bcd60e51b81526004016103ce906121dc565b6001600160a01b0383811660008181526005602090815260408083209487168084529490915290819020805460ff1916851515179055517f17307eab39ab6107e8899845ad3d59bd9653f200f220920489ca2b5937696c31906114879085906120f1565b60405180910390a3505050565b61149f848484610fd4565b6114ab8484848461183f565b610b275760405162461bcd60e51b81526004016103ce9061210f565b60408051602081019091526000815290565b60606114e482610cd0565b6115005760405162461bcd60e51b81526004016103ce906124b8565b600061150a6114c7565b9050600081511161152a5760405180602001604052806000815250611545565b806115348461195a565b604051602001610a6e929190611d79565b9392505050565b606081516000141561156d5750604080516020810190915260008152610310565b6000604051806060016040528060408152602001612740604091399050600060038451600261159c91906125c7565b6115a69190612604565b6115b1906004612618565b905060006115c08260206125c7565b67ffffffffffffffff8111156115e657634e487b7160e01b600052604160045260246000fd5b6040519080825280601f01601f191660200182016040528015611610576020820181803683370190505b509050818152600183018586518101602084015b8183101561167c576003830192508251603f8160121c168501518253600182019150603f81600c1c168501518253600182019150603f8160061c168501518253600182019150603f8116850151825350600101611624565b60038951066001811461169657600281146116a7576116b3565b613d3d60f01b6001198301526116b3565b603d60f81b6000198301525b509398975050505050505050565b600c8054606091906116d390846126d0565b815481106116f157634e487b7160e01b600052603260045260246000fd5b9060005260206000200180546117069061267a565b80601f01602080910402602001604051908101604052809291908181526020018280546117329061267a565b801561177f5780601f106117545761010080835404028352916020019161177f565b820191906000526020600020905b81548152906001019060200180831161176257829003601f168201915b505050505090506000600b5483600b54600261179b9190612618565b6040516020016117ac9291906125b9565b6040516020818303038152906040528051906020012060001c6117cf91906126d0565b600b54909150600090846117e4826003612618565b6040516020016117f59291906125b9565b6040516020818303038152906040528051906020012060001c61181891906126d0565b90508261182483611101565b61182d83611101565b604051602001610eb993929190611da8565b6000611853846001600160a01b0316611a75565b1561194f57836001600160a01b031663150b7a0261186f610ced565b8786866040518563ffffffff1660e01b81526004016118919493929190612070565b602060405180830381600087803b1580156118ab57600080fd5b505af19250505080156118db575060408051601f3d908101601f191682019092526118d891810190611cfd565b60015b611935573d808015611909576040519150601f19603f3d011682016040523d82523d6000602084013e61190e565b606091505b50805161192d5760405162461bcd60e51b81526004016103ce9061210f565b805181602001fd5b6001600160e01b031916630a85bd0160e11b149050610c46565b506001949350505050565b60608161197f57506040805180820190915260018152600360fc1b6020820152610310565b8160005b81156119a95780611993816126b5565b91506119a29050600a83612604565b9150611983565b60008167ffffffffffffffff8111156119d257634e487b7160e01b600052604160045260246000fd5b6040519080825280601f01601f1916602001820160405280156119fc576020820181803683370190505b5090505b8415610c4657611a11600183612637565b9150611a1e600a866126d0565b611a299060306125c7565b60f81b818381518110611a4c57634e487b7160e01b600052603260045260246000fd5b60200101906001600160f81b031916908160001a905350611a6e600a86612604565b9450611a00565b3b151590565b828054611a879061267a565b90600052602060002090601f016020900481019282611aa95760008555611aef565b82601f10611ac257805160ff1916838001178555611aef565b82800160010185558215611aef579182015b82811115611aef578251825591602001919060010190611ad4565b50611afb929150611aff565b5090565b5b80821115611afb5760008155600101611b00565b80356001600160a01b038116811461031057600080fd5b600060208284031215611b3c578081fd5b61154582611b14565b60008060408385031215611b57578081fd5b611b6083611b14565b9150611b6e60208401611b14565b90509250929050565b600080600060608486031215611b8b578081fd5b611b9484611b14565b9250611ba260208501611b14565b9150604084013590509250925092565b60008060008060808587031215611bc7578081fd5b611bd085611b14565b93506020611bdf818701611b14565b935060408601359250606086013567ffffffffffffffff80821115611c02578384fd5b818801915088601f830112611c15578384fd5b813581811115611c2757611c27612710565b604051601f8201601f1916810185018381118282101715611c4a57611c4a612710565b60405281815283820185018b1015611c60578586fd5b81858501868301379081019093019390935250939692955090935050565b60008060408385031215611c90578182fd5b611c9983611b14565b915060208301358015158114611cad578182fd5b809150509250929050565b60008060408385031215611cca578182fd5b611cd383611b14565b946020939093013593505050565b600060208284031215611cf2578081fd5b813561154581612726565b600060208284031215611d0e578081fd5b815161154581612726565b600060208284031215611d2a578081fd5b5035919050565b60008151808452611d4981602086016020860161264e565b601f01601f19169290920160200192915050565b60008251611d6f81846020870161264e565b9190910192915050565b60008351611d8b81846020880161264e565b835190830190611d9f81836020880161264e565b01949350505050565b60008451611dba81846020890161264e565b845190830190611dce81836020890161264e565b600160fd1b91018181528451909190611dee81600185016020890161264e565b600192019182015260020195945050505050565b60008351611e1481846020880161264e565b7f222066696c6c3d227472616e73706172656e7422207374726f6b653d220000009083019081528351611e4e81601d84016020880161264e565b6211179f60e91b601d9290910191820152602001949350505050565b60008251611e7c81846020870161264e565b651e17b9bb339f60d11b920191825250600601919050565b683d913730b6b2911d1160b91b81528351600090611eb981600985016020890161264e565b61088b60f21b60099184019182018190526e113232b9b1b934b83a34b7b7111d1160891b600b8301528551611ef581601a850160208a0161264e565b601a9201918201526f08985d1d1c9a589d5d195cc88e88888b60821b601c820152681134b6b0b3b2911d1160b91b602c8201528351611f3b81603584016020880161264e565b61227d60f01b6035929091019182015260370195945050505050565b60007f3c73766720786d6c6e733d22687474703a2f2f7777772e77332e6f72672f323082526f181817b9bb3391103432b4b3b43a1e9160811b60208301528351611fa881603085016020880161264e565b6b19189811103bb4b23a341e9160a11b6030918401918201528351611fd481603c84016020880161264e565b61111f60f11b603c9290910191820152603e01949350505050565b60007f646174613a6170706c69636174696f6e2f6a736f6e3b6261736536342c0000008252825161202781601d85016020870161264e565b91909101601d0192915050565b928352602083019190915260601b6bffffffffffffffffffffffff1916604082015260540190565b6001600160a01b0391909116815260200190565b6001600160a01b03858116825284166020820152604081018390526080606082018190526000906120a390830184611d31565b9695505050505050565b6020808252825182820181905260009190848201906040850190845b818110156120e5578351835292840192918401916001016120c9565b50909695505050505050565b901515815260200190565b6000602082526115456020830184611d31565b60208082526032908201527f4552433732313a207472616e7366657220746f206e6f6e20455243373231526560408201527131b2b4bb32b91034b6b83632b6b2b73a32b960711b606082015260800190565b6020808252601c908201527f4552433732313a20746f6b656e20616c7265616479206d696e74656400000000604082015260600190565b60208082526024908201527f4552433732313a207472616e7366657220746f20746865207a65726f206164646040820152637265737360e01b606082015260800190565b60208082526019908201527f4552433732313a20617070726f766520746f2063616c6c657200000000000000604082015260600190565b6020808252602c908201527f4552433732313a206f70657261746f7220717565727920666f72206e6f6e657860408201526b34b9ba32b73a103a37b5b2b760a11b606082015260800190565b60208082526038908201527f4552433732313a20617070726f76652063616c6c6572206973206e6f74206f7760408201527f6e6572206e6f7220617070726f76656420666f7220616c6c0000000000000000606082015260800190565b6020808252602a908201527f4552433732313a2062616c616e636520717565727920666f7220746865207a65604082015269726f206164647265737360b01b606082015260800190565b60208082526029908201527f4552433732313a206f776e657220717565727920666f72206e6f6e657869737460408201526832b73a103a37b5b2b760b91b606082015260800190565b6020808252602e908201527f45524337323155524953746f726167653a2055524920736574206f66206e6f6e60408201526d32bc34b9ba32b73a103a37b5b2b760911b606082015260800190565b6020808252818101527f4552433732313a206d696e7420746f20746865207a65726f2061646472657373604082015260600190565b60208082526031908201527f45524337323155524953746f726167653a2055524920717565727920666f72206040820152703737b732bc34b9ba32b73a103a37b5b2b760791b606082015260800190565b6020808252602c908201527f4552433732313a20617070726f76656420717565727920666f72206e6f6e657860408201526b34b9ba32b73a103a37b5b2b760a11b606082015260800190565b60208082526029908201527f4552433732313a207472616e73666572206f6620746f6b656e2074686174206960408201526839903737ba1037bbb760b91b606082015260800190565b6020808252602f908201527f4552433732314d657461646174613a2055524920717565727920666f72206e6f60408201526e3732bc34b9ba32b73a103a37b5b2b760891b606082015260800190565b60208082526021908201527f4552433732313a20617070726f76616c20746f2063757272656e74206f776e656040820152603960f91b606082015260800190565b60208082526031908201527f4552433732313a207472616e736665722063616c6c6572206973206e6f74206f6040820152701ddb995c881b9bdc88185c1c1c9bdd9959607a1b606082015260800190565b90815260200190565b9182526001600160a01b0316602082015260400190565b918252602082015260400190565b600082198211156125da576125da6126e4565b500190565b600060ff821660ff84168060ff038211156125fc576125fc6126e4565b019392505050565b600082612613576126136126fa565b500490565b6000816000190483118215151615612632576126326126e4565b500290565b600082821015612649576126496126e4565b500390565b60005b83811015612669578181015183820152602001612651565b83811115610b275750506000910152565b60028104600182168061268e57607f821691505b602082108114156126af57634e487b7160e01b600052602260045260246000fd5b50919050565b60006000198214156126c9576126c96126e4565b5060010190565b6000826126df576126df6126fa565b500690565b634e487b7160e01b600052601160045260246000fd5b634e487b7160e01b600052601260045260246000fd5b634e487b7160e01b600052604160045260246000fd5b6001600160e01b03198116811461273c57600080fd5b5056fe4142434445464748494a4b4c4d4e4f505152535455565758595a6162636465666768696a6b6c6d6e6f707172737475767778797a303132333435363738392b2fa264697066735822122007c8013a62eb4eee48057cd109fa9d2f6cb712c4141ac4e82fad7c694559cd9f64736f6c63430008000033608060405234801561001057600080fd5b5060405161194838038061194883398101604081905261002f91610054565b600180546001600160a01b0319166001600160a01b0392909216919091179055610082565b600060208284031215610065578081fd5b81516001600160a01b038116811461007b578182fd5b9392505050565b6118b7806100916000396000f3fe6080604052600436106200007a5760003560e01c8063571a26a01162000055578063571a26a01462000116578063ac5e4dd8146200013b578063d7c069191462000153578063fab1b018146200017a576200007a565b80630b7ad54c146200007f57806318111ada14620000bc578063481ca8c414620000f0575b600080fd5b3480156200008c57600080fd5b50620000a46200009e366004620006ee565b620001ae565b604051620000b3919062000832565b60405180910390f35b348015620000c957600080fd5b50620000e1620000db366004620006ee565b62000267565b604051620000b39190620007be565b62000107620001013660046200059a565b620002a5565b604051620000b3919062000882565b3480156200012357600080fd5b50620000e162000135366004620006ee565b620003d1565b3480156200014857600080fd5b50620000e1620003fc565b3480156200016057600080fd5b506200016b6200040b565b604051620000b3919062000735565b3480156200018757600080fd5b506200019f6200019936600462000574565b6200046f565b604051620000b3919062000784565b620001b8620004dd565b60008281548110620001da57634e487b7160e01b600052603260045260246000fd5b6000918252602082200154604080516359016c7960e01b815290516001600160a01b03909216926359016c7992600480840193829003018186803b1580156200022257600080fd5b505afa15801562000237573d6000803e3d6000fd5b505050506040513d6000823e601f3d908101601f191682016040526200026191908101906200063a565b92915050565b60008082815481106200028a57634e487b7160e01b600052603260045260246000fd5b6000918252602090912001546001600160a01b031692915050565b600080600160009054906101000a90046001600160a01b031686868686604051620002d0906200050e565b620002e0959493929190620007eb565b604051809103906000f080158015620002fd573d6000803e3d6000fd5b5060008054600180820183558280527f290decd9548b62a8d60345a988386fc84ba6bc95484008f6362f93160ef3e56390910180546001600160a01b0319166001600160a01b038516179055815492935090916200035c9190620008e3565b6001600160a01b038816600090815260026020908152604080832080546001810182559084529190922001829055519091507f3249a06bd478adf780bb7930214ad005e9cfa517d63221c0b77f27199d1a58b390620003bf9084908490620007d2565b60405180910390a19695505050505050565b60008181548110620003e257600080fd5b6000918252602090912001546001600160a01b0316905081565b6001546001600160a01b031681565b606060008054806020026020016040519081016040528092919081815260200182805480156200046557602002820191906000526020600020905b81546001600160a01b0316815260019091019060200180831162000446575b5050505050905090565b6001600160a01b038116600090815260026020908152604091829020805483518184028101840190945280845260609392830182828015620004d157602002820191906000526020600020905b815481526020019060010190808311620004bc575b50505050509050919050565b604051806080016040528060006001600160a01b031681526020016000815260200160608152602001600081525090565b610f18806200096a83390190565b600082601f8301126200052d578081fd5b8151620005446200053e82620008b8565b6200088b565b81815284602083860101111562000559578283fd5b6200056c82602083016020870162000907565b949350505050565b60006020828403121562000586578081fd5b8135620005938162000950565b9392505050565b60008060008060808587031215620005b0578283fd5b8435620005bd8162000950565b935060208501359250604085013567ffffffffffffffff811115620005e0578283fd5b8501601f81018713620005f1578283fd5b8035620006026200053e82620008b8565b81815288602083850101111562000617578485fd5b816020840160208301379081016020019390935250929591945092606001359150565b6000602082840312156200064c578081fd5b815167ffffffffffffffff8082111562000664578283fd5b908301906080828603121562000678578283fd5b6040516080810181811083821117156200069657620006966200093a565b6040528251620006a68162000950565b815260208381015190820152604083015182811115620006c4578485fd5b620006d2878286016200051c565b6040830152506060830151606082015280935050505092915050565b60006020828403121562000700578081fd5b5035919050565b600081518084526200072181602086016020860162000907565b601f01601f19169290920160200192915050565b6020808252825182820181905260009190848201906040850190845b81811015620007785783516001600160a01b03168352928401929184019160010162000751565b50909695505050505050565b6020808252825182820181905260009190848201906040850190845b818110156200077857835183529284019291840191600101620007a0565b6001600160a01b0391909116815260200190565b6001600160a01b03929092168252602082015260400190565b6001600160a01b038681168252851660208201526040810184905260a060608201819052600090620008209083018562000707565b90508260808301529695505050505050565b60006020825260018060a01b038351166020830152602083015160408301526040830151608060608401526200086c60a084018262000707565b9050606084015160808401528091505092915050565b90815260200190565b60405181810167ffffffffffffffff81118282101715620008b057620008b06200093a565b604052919050565b600067ffffffffffffffff821115620008d557620008d56200093a565b50601f01601f191660200190565b6000828210156200090257634e487b7160e01b81526011600452602481fd5b500390565b60005b83811015620009245781810151838201526020016200090a565b8381111562000934576000848401525b50505050565b634e487b7160e01b600052604160045260246000fd5b6001600160a01b03811681146200096657600080fd5b5056fe60806040523480156200001157600080fd5b5060405162000f1838038062000f18833981016040819052620000349162000140565b600080546001600160a01b0319166001600160a01b03861617905560018390558151620000699060049060208501906200009a565b5060025550504260035550600580546001600160a01b0319166001600160a01b0392909216919091179055620002bd565b828054620000a89062000251565b90600052602060002090601f016020900481019282620000cc576000855562000117565b82601f10620000e757805160ff191683800117855562000117565b8280016001018555821562000117579182015b8281111562000117578251825591602001919060010190620000fa565b506200012592915062000129565b5090565b5b808211156200012557600081556001016200012a565b600080600080600060a0868803121562000158578081fd5b85516200016581620002a4565b809550506020808701516200017a81620002a4565b6040880151606089015191965094506001600160401b03808211156200019e578384fd5b818901915089601f830112620001b2578384fd5b815181811115620001c757620001c76200028e565b604051601f8201601f1916810185018381118282101715620001ed57620001ed6200028e565b60405281815283820185018c101562000204578586fd5b8592505b8183101562000227578383018501518184018601529184019162000208565b818311156200023857858583830101525b8096505050505050608086015190509295509295909350565b6002810460018216806200026657607f821691505b602082108114156200028857634e487b7160e01b600052602260045260246000fd5b50919050565b634e487b7160e01b600052604160045260246000fd5b6001600160a01b0381168114620002ba57600080fd5b50565b610c4b80620002cd6000396000f3fe6080604052600436106100dd5760003560e01c806391f901571161007f578063d98b9bb511610059578063d98b9bb514610207578063e21f37ce14610227578063f1a9af8914610249578063f77282ab1461025e576100dd565b806391f90157146101bd578063ac5e4dd8146101d2578063cff29dfd146101e7576100dd565b806378e97925116100bb57806378e979251461014f5780637e830574146101645780637fb45099146101795780638da5cb5b1461019b576100dd565b80630e8670e0146100e257806359016c791461010d57806362ea82db1461012f575b600080fd5b3480156100ee57600080fd5b506100f7610273565b6040516101049190610b70565b60405180910390f35b34801561011957600080fd5b50610122610279565b6040516101049190610b22565b34801561013b57600080fd5b506100f761014a3660046108e0565b610341565b34801561015b57600080fd5b506100f7610353565b34801561017057600080fd5b506100f7610359565b34801561018557600080fd5b5061018e61035f565b6040516101049190610a07565b3480156101a757600080fd5b506101b061036f565b6040516101049190610991565b3480156101c957600080fd5b506101b061037e565b3480156101de57600080fd5b506101b061038d565b3480156101f357600080fd5b506101b061020236600461092e565b61039c565b61021a610215366004610903565b6103c6565b60405161010491906109fc565b34801561023357600080fd5b5061023c61056e565b6040516101049190610a2f565b34801561025557600080fd5b506100f76105fc565b34801561026a57600080fd5b5061021a610602565b60065481565b6102816108af565b604080516080810182526000546001600160a01b0316815260015460208201526004805491928301916102b390610b91565b80601f01602080910402602001604051908101604052809291908181526020018280546102df90610b91565b801561032c5780601f106103015761010080835404028352916020019161032c565b820191906000526020600020905b81548152906001019060200180831161030f57829003601f168201915b50505050508152602001600254815250905090565b60096020526000908152604090205481565b60035481565b60015481565b600554600160a01b900460ff1681565b6000546001600160a01b031681565b6007546001600160a01b031681565b6005546001600160a01b031681565b600881815481106103ac57600080fd5b6000918252602090912001546001600160a01b0316905081565b600080546001600160a01b03163314156103df57600080fd5b6000600554600160a01b900460ff16600181111561040d57634e487b7160e01b600052602160045260246000fd5b146104335760405162461bcd60e51b815260040161042a90610a77565b60405180910390fd5b6001600160a01b038316600090815260096020526040902054829015610479576001600160a01b0384166000908152600960205260409020546104769082610b79565b90505b600254811161049a5760405162461bcd60e51b815260040161042a90610aae565b60065481116104bb5760405162461bcd60e51b815260040161042a90610a42565b6001600160a01b0384166000818152600960205260408082208490556008805460018101825592527ff3f7a9fe364faab93b216da50a3214154f22a0a2b415b23a84c8169e8b636ee390910180546001600160a01b03199081168417909155600684905560078054909116909217909155517fe694ab314354b7ccad603c48b44dce6ade8b6a57cbebaa8842edd9a2fb2856f89061055c90869084906109e3565b60405180910390a15060019392505050565b6004805461057b90610b91565b80601f01602080910402602001604051908101604052809291908181526020018280546105a790610b91565b80156105f45780601f106105c9576101008083540402835291602001916105f4565b820191906000526020600020905b8154815290600101906020018083116105d757829003601f168201915b505050505081565b60025481565b600080546001600160a01b0316321461062d5760405162461bcd60e51b815260040161042a90610af7565b6000546040517fe5e2bce9e76c912c3d6fc169f304f87b8bf818006a5591a92f6ab225a12acd3d9161066c916001600160a01b039091169030906109a5565b60405180910390a16007546001600160a01b0316156108485760065460055460005460075460015460405163044ed6fd60e31b81526001600160a01b0394851694632276b7e8946106c694908216939116916004016109bf565b600060405180830381600087803b1580156106e057600080fd5b505af11580156106f4573d6000803e3d6000fd5b5050600080546040516001600160a01b03909116935084156108fc0292508491818181858888f19350505050158015610731573d6000803e3d6000fd5b5060005b600854811015610845576008818154811061076057634e487b7160e01b600052603260045260246000fd5b6000918252602090912001546007546001600160a01b0390811691161461083357600881815481106107a257634e487b7160e01b600052603260045260246000fd5b6000918252602082200154600880546001600160a01b03909216926108fc9260099290869081106107e357634e487b7160e01b600052603260045260246000fd5b60009182526020808320909101546001600160a01b03168352820192909252604090810182205490518115909302929091818181858888f19350505050158015610831573d6000803e3d6000fd5b505b8061083d81610bcc565b915050610735565b50505b6005805460ff60a01b1916600160a01b1790556000546007546001546040517f078425ff798039982daf0c9ed140efbe65ee522d10be108feb88e65762bc7aef936108a1936001600160a01b03918216939116916109bf565b60405180910390a150600190565b604051806080016040528060006001600160a01b031681526020016000815260200160608152602001600081525090565b6000602082840312156108f1578081fd5b81356108fc81610bfd565b9392505050565b60008060408385031215610915578081fd5b823561092081610bfd565b946020939093013593505050565b60006020828403121561093f578081fd5b5035919050565b60008151808452815b8181101561096b5760208185018101518683018201520161094f565b8181111561097c5782602083870101525b50601f01601f19169290920160200192915050565b6001600160a01b0391909116815260200190565b6001600160a01b0392831681529116602082015260400190565b6001600160a01b039384168152919092166020820152604081019190915260600190565b6001600160a01b03929092168252602082015260400190565b901515815260200190565b6020810160028310610a2957634e487b7160e01b600052602160045260246000fd5b91905290565b6000602082526108fc6020830184610946565b6020808252818101527f596f75722062696420697320746f6f206c6f772e20496e637265617365206974604082015260600190565b60208082526019908201527f41756374696f6e20697320616c726561647920636c6f73656400000000000000604082015260600190565b60208082526029908201527f596f75206d75737420706179206d6f7265207468616e20746865207374617274604082015268696e6720707269636560b81b606082015260800190565b6020808252601190820152702cb7ba9030b932903737ba1037bbb732b960791b604082015260600190565b60006020825260018060a01b03835116602083015260208301516040830152604083015160806060840152610b5a60a0840182610946565b9050606084015160808401528091505092915050565b90815260200190565b60008219821115610b8c57610b8c610be7565b500190565b600281046001821680610ba557607f821691505b60208210811415610bc657634e487b7160e01b600052602260045260246000fd5b50919050565b6000600019821415610be057610be0610be7565b5060010190565b634e487b7160e01b600052601160045260246000fd5b6001600160a01b0381168114610c1257600080fd5b5056fea26469706673582212206655761c6b64dea09e1477e77899c7c2161d869e73caebf0f4a1c3363b16733f64736f6c63430008000033a26469706673582212206e48ead25c1ebbaed7030d15cf3e58d1e92ad13ed4c90a7f41e13941017b1c1464736f6c63430008000033",
  "linkReferences": {},
  "deployedLinkReferences": {}
}