{
  "_format": "hh-sol-artifact-1",
  "contractName": "User",
  "sourceName": "contracts/Users.sol",
  "abi": [
    {
      "inputs": [
        {
          "internalType": "address",
          "name": "_userAddress",
          "type": "address"
        },
        {
          "internalType": "contract NFT",
          "name": "_nftInstance",
          "type": "address"
        },
        {
          "internalType": "contract Auctions",
          "name": "_auctionInstance",
          "type": "address"
        }
      ],
      "stateMutability": "nonpayable",
      "type": "constructor"
    },
    {
      "anonymous": false,
      "inputs": [
        {
          "indexed": false,
          "internalType": "uint256",
          "name": "auctionId",
          "type": "uint256"
        }
      ],
      "name": "AuctionCreated",
      "type": "event"
    },
    {
      "anonymous": false,
      "inputs": [
        {
          "indexed": false,
          "internalType": "bool",
          "name": "result",
          "type": "bool"
        }
      ],
      "name": "AuctionFinalazed",
      "type": "event"
    },
    {
      "anonymous": false,
      "inputs": [
        {
          "indexed": false,
          "internalType": "string",
          "name": "tokenURI",
          "type": "string"
        }
      ],
      "name": "NiggaCollect",
      "type": "event"
    },
    {
      "anonymous": false,
      "inputs": [
        {
          "indexed": false,
          "internalType": "bool",
          "name": "result",
          "type": "bool"
        }
      ],
      "name": "PlaceBid",
      "type": "event"
    },
    {
      "inputs": [],
      "name": "auctionInstance",
      "outputs": [
        {
          "internalType": "contract Auctions",
          "name": "",
          "type": "address"
        }
      ],
      "stateMutability": "view",
      "type": "function"
    },
    {
      "inputs": [],
      "name": "collectNigga",
      "outputs": [],
      "stateMutability": "nonpayable",
      "type": "function"
    },
    {
      "inputs": [
        {
          "internalType": "uint256",
          "name": "_auctionId",
          "type": "uint256"
        }
      ],
      "name": "finalizeAuction",
      "outputs": [
        {
          "internalType": "bool",
          "name": "",
          "type": "bool"
        }
      ],
      "stateMutability": "nonpayable",
      "type": "function"
    },
    {
      "inputs": [
        {
          "internalType": "uint256",
          "name": "_auctionId",
          "type": "uint256"
        }
      ],
      "name": "getAuctionApprovingData",
      "outputs": [
        {
          "internalType": "address",
          "name": "",
          "type": "address"
        },
        {
          "internalType": "address",
          "name": "",
          "type": "address"
        }
      ],
      "stateMutability": "view",
      "type": "function"
    },
    {
      "inputs": [
        {
          "internalType": "uint256",
          "name": "_id",
          "type": "uint256"
        }
      ],
      "name": "getAuctionContentById",
      "outputs": [
        {
          "components": [
            {
              "internalType": "address",
              "name": "owner",
              "type": "address"
            },
            {
              "internalType": "uint256",
              "name": "nftTokenId",
              "type": "uint256"
            },
            {
              "internalType": "string",
              "name": "message",
              "type": "string"
            },
            {
              "internalType": "uint256",
              "name": "startPrice",
              "type": "uint256"
            }
          ],
          "internalType": "struct AuctionContent",
          "name": "",
          "type": "tuple"
        }
      ],
      "stateMutability": "view",
      "type": "function"
    },
    {
      "inputs": [],
      "name": "getMyAuctionIds",
      "outputs": [
        {
          "internalType": "uint256[]",
          "name": "",
          "type": "uint256[]"
        }
      ],
      "stateMutability": "view",
      "type": "function"
    },
    {
      "inputs": [],
      "name": "getMyNiggaTokenIds",
      "outputs": [
        {
          "internalType": "uint256[]",
          "name": "",
          "type": "uint256[]"
        }
      ],
      "stateMutability": "view",
      "type": "function"
    },
    {
      "inputs": [],
      "name": "getMyNiggasTokenURI",
      "outputs": [
        {
          "internalType": "string[]",
          "name": "",
          "type": "string[]"
        }
      ],
      "stateMutability": "view",
      "type": "function"
    },
    {
      "inputs": [
        {
          "internalType": "uint256",
          "name": "_id",
          "type": "uint256"
        }
      ],
      "name": "getNiggaById",
      "outputs": [
        {
          "internalType": "string",
          "name": "",
          "type": "string"
        }
      ],
      "stateMutability": "view",
      "type": "function"
    },
    {
      "inputs": [
        {
          "internalType": "uint256",
          "name": "_id",
          "type": "uint256"
        }
      ],
      "name": "getNiggaTokenIdById",
      "outputs": [
        {
          "internalType": "uint256",
          "name": "",
          "type": "uint256"
        }
      ],
      "stateMutability": "view",
      "type": "function"
    },
    {
      "inputs": [],
      "name": "nftInstance",
      "outputs": [
        {
          "internalType": "contract NFT",
          "name": "",
          "type": "address"
        }
      ],
      "stateMutability": "view",
      "type": "function"
    },
    {
      "inputs": [
        {
          "internalType": "uint256",
          "name": "_auctionId",
          "type": "uint256"
        }
      ],
      "name": "placeBid",
      "outputs": [],
      "stateMutability": "payable",
      "type": "function"
    },
    {
      "inputs": [
        {
          "internalType": "uint256",
          "name": "_niggaId",
          "type": "uint256"
        },
        {
          "internalType": "string",
          "name": "_message",
          "type": "string"
        },
        {
          "internalType": "uint256",
          "name": "_startPrice",
          "type": "uint256"
        }
      ],
      "name": "sellNigga",
      "outputs": [],
      "stateMutability": "nonpayable",
      "type": "function"
    },
    {
      "inputs": [],
      "name": "userAddress",
      "outputs": [
        {
          "internalType": "address",
          "name": "",
          "type": "address"
        }
      ],
      "stateMutability": "view",
      "type": "function"
    }
  ],
  "bytecode": "0x60806040523480156200001157600080fd5b506040516200152338038062001523833981016040819052620000349162000077565b600080546001600160a01b039485166001600160a01b031991821617909155600180549385169382169390931790925560028054919093169116179055620000e3565b6000806000606084860312156200008c578283fd5b83516200009981620000ca565b6020850151909350620000ac81620000ca565b6040850151909250620000bf81620000ca565b809150509250925092565b6001600160a01b0381168114620000e057600080fd5b50565b61143080620000f36000396000f3fe6080604052600436106100dd5760003560e01c8063a582dc441161007f578063c785034911610059578063c78503491461022c578063d4d68a9e1461024c578063e4128fb31461027a578063e80838631461028f576100dd565b8063a582dc44146101c8578063ac5e4dd8146101f5578063b7e8ab1a14610217576100dd565b806395d3343e116100bb57806395d3343e146101675780639979ef45146101895780639e6950141461019e578063a20b9511146101b3576100dd565b806352ed6b69146100e257806359da64a91461010d5780637e7010f51461013a575b600080fd5b3480156100ee57600080fd5b506100f76102bc565b604051610104919061123e565b60405180910390f35b34801561011957600080fd5b5061012d61012836600461105f565b61037f565b60405161010491906112cc565b34801561014657600080fd5b5061015a61015536600461105f565b61043b565b604051610104919061128d565b34801561017357600080fd5b5061017c6104f2565b60405161010491906111de565b61019c61019736600461105f565b610662565b005b3480156101aa57600080fd5b5061019c6107d0565b3480156101bf57600080fd5b506100f76109aa565b3480156101d457600080fd5b506101e86101e336600461105f565b610a0b565b604051610104919061131a565b34801561020157600080fd5b5061020a610aec565b6040516101049190611144565b34801561022357600080fd5b5061020a610afb565b34801561023857600080fd5b5061019c61024736600461108f565b610b0a565b34801561025857600080fd5b5061026c61026736600461105f565b610c11565b604051610104929190611171565b34801561028657600080fd5b5061020a610cac565b34801561029b57600080fd5b506102af6102aa36600461105f565b610cbb565b6040516101049190611282565b6000546060906001600160a01b031633146102f25760405162461bcd60e51b81526004016102e9906112a0565b60405180910390fd5b600254600054604051631f56360360e31b81526001600160a01b039283169263fab1b0189261032692911690600401611144565b60006040518083038186803b15801561033e57600080fd5b505afa158015610352573d6000803e3d6000fd5b505050506040513d6000823e601f3d908101601f1916820160405261037a9190810190610e99565b905090565b610387610e18565b6000546001600160a01b031633146103b15760405162461bcd60e51b81526004016102e9906112a0565b6002546040516302deb55360e21b81526001600160a01b0390911690630b7ad54c906103e190859060040161131a565b60006040518083038186803b1580156103f957600080fd5b505afa15801561040d573d6000803e3d6000fd5b505050506040513d6000823e601f3d908101601f191682016040526104359190810190610fb6565b92915050565b6000546060906001600160a01b031633146104685760405162461bcd60e51b81526004016102e9906112a0565b6001546001600160a01b031663c87b56dd61048284610a0b565b6040518263ffffffff1660e01b815260040161049e919061131a565b60006040518083038186803b1580156104b657600080fd5b505afa1580156104ca573d6000803e3d6000fd5b505050506040513d6000823e601f3d908101601f191682016040526104359190810190610f83565b606060006104fe6109aa565b805190915060008167ffffffffffffffff81111561052c57634e487b7160e01b600052604160045260246000fd5b60405190808252806020026020018201604052801561055f57816020015b606081526020019060019003908161054a5790505b50905060005b8281101561065a5760015484516001600160a01b039091169063c87b56dd908690849081106105a457634e487b7160e01b600052603260045260246000fd5b60200260200101516040518263ffffffff1660e01b81526004016105c8919061131a565b60006040518083038186803b1580156105e057600080fd5b505afa1580156105f4573d6000803e3d6000fd5b505050506040513d6000823e601f3d908101601f1916820160405261061c9190810190610f83565b82828151811061063c57634e487b7160e01b600052603260045260246000fd5b60200260200101819052508080610652906113a5565b915050610565565b509250505090565b6000546001600160a01b0316331461068c5760405162461bcd60e51b81526004016102e9906112a0565b600254604051630c088d6d60e11b81526000916001600160a01b0316906318111ada906106bd90859060040161131a565b60206040518083038186803b1580156106d557600080fd5b505afa1580156106e9573d6000803e3d6000fd5b505050506040513d601f19601f8201168201806040525081019061070d9190610f67565b90506000816001600160a01b031663d98b9bb53433346040518463ffffffff1660e01b8152600401610740929190611158565b6020604051808303818588803b15801561075957600080fd5b505af115801561076d573d6000803e3d6000fd5b50505050506040513d601f19601f820116820180604052508101906107929190610f40565b90507fdd12842682a5074130a77d2ebd35098c916b04f5f9130d875292531a3b844b5a816040516107c39190611282565b60405180910390a1505050565b6000546001600160a01b031633146107fa5760405162461bcd60e51b81526004016102e9906112a0565b6001805460005460405163a22cb46560e01b81526001600160a01b039283169363a22cb4659361082e93169160040161118b565b600060405180830381600087803b15801561084857600080fd5b505af115801561085c573d6000803e3d6000fd5b5050600154600080546040516305f9620f60e21b81529194506001600160a01b0392831693506317e5883c9261089792911690600401611144565b602060405180830381600087803b1580156108b157600080fd5b505af11580156108c5573d6000803e3d6000fd5b505050506040513d601f19601f820116820180604052508101906108e99190611077565b60015460405163c87b56dd60e01b81529192507fcbfc4dcd2e7acb06d88ce8ab931499a35fd78fb8ca65dffed66523c8f5e247a9916001600160a01b039091169063c87b56dd9061093e90859060040161131a565b60006040518083038186803b15801561095657600080fd5b505afa15801561096a573d6000803e3d6000fd5b505050506040513d6000823e601f3d908101601f191682016040526109929190810190610f83565b60405161099f919061128d565b60405180910390a150565b6000546060906001600160a01b031633146109d75760405162461bcd60e51b81526004016102e9906112a0565b600154600054604051635d81902f60e01b81526001600160a01b0392831692635d81902f9261032692911690600401611144565b600080546001600160a01b03163314610a365760405162461bcd60e51b81526004016102e9906112a0565b600154600054604051635d81902f60e01b81526001600160a01b0392831692635d81902f92610a6a92911690600401611144565b60006040518083038186803b158015610a8257600080fd5b505afa158015610a96573d6000803e3d6000fd5b505050506040513d6000823e601f3d908101601f19168201604052610abe9190810190610e99565b8281518110610add57634e487b7160e01b600052603260045260246000fd5b60200260200101519050919050565b6001546001600160a01b031681565b6002546001600160a01b031681565b6000546001600160a01b03163314610b345760405162461bcd60e51b81526004016102e9906112a0565b6000610b3f84610a0b565b600254600080546040516312072a3160e21b815293945090926001600160a01b039283169263481ca8c492610b7f929116908690899089906004016111a6565b602060405180830381600087803b158015610b9957600080fd5b505af1158015610bad573d6000803e3d6000fd5b505050506040513d601f19601f82011682018060405250810190610bd19190611077565b90507f7e0e356457a92dacd3760ddf327a24dd226c6ca01b2cc41a7fd6f28469c7ab9b81604051610c02919061131a565b60405180910390a15050505050565b600254604051630c088d6d60e11b8152600091829182916001600160a01b0316906318111ada90610c4690879060040161131a565b60206040518083038186803b158015610c5e57600080fd5b505afa158015610c72573d6000803e3d6000fd5b505050506040513d601f19601f82011682018060405250810190610c969190610f67565b6001546001600160a01b03169350915050915091565b6000546001600160a01b031681565b600080546001600160a01b03163314610ce65760405162461bcd60e51b81526004016102e9906112a0565b600254604051630c088d6d60e11b81526000916001600160a01b0316906318111ada90610d1790869060040161131a565b60206040518083038186803b158015610d2f57600080fd5b505afa158015610d43573d6000803e3d6000fd5b505050506040513d601f19601f82011682018060405250810190610d679190610f67565b6001600160a01b031663f77282ab6040518163ffffffff1660e01b8152600401602060405180830381600087803b158015610da157600080fd5b505af1158015610db5573d6000803e3d6000fd5b505050506040513d601f19601f82011682018060405250810190610dd99190610f40565b90507fac582e96473a143b5efdb32368bad855dfe56bafa86c2171f0fd6063cf391cfe81604051610e0a9190611282565b60405180910390a192915050565b604051806080016040528060006001600160a01b031681526020016000815260200160608152602001600081525090565b600082601f830112610e59578081fd5b8151610e6c610e678261134d565b611323565b818152846020838601011115610e80578283fd5b610e91826020830160208701611375565b949350505050565b60006020808385031215610eab578182fd5b825167ffffffffffffffff80821115610ec2578384fd5b818501915085601f830112610ed5578384fd5b815181811115610ee757610ee76113cc565b8381029150610ef7848301611323565b8181528481019084860184860187018a1015610f11578788fd5b8795505b83861015610f33578051835260019590950194918601918601610f15565b5098975050505050505050565b600060208284031215610f51578081fd5b81518015158114610f60578182fd5b9392505050565b600060208284031215610f78578081fd5b8151610f60816113e2565b600060208284031215610f94578081fd5b815167ffffffffffffffff811115610faa578182fd5b610e9184828501610e49565b600060208284031215610fc7578081fd5b815167ffffffffffffffff80821115610fde578283fd5b9083019060808286031215610ff1578283fd5b60405160808101818110838211171561100c5761100c6113cc565b604052825161101a816113e2565b815260208381015190820152604083015182811115611037578485fd5b61104387828601610e49565b6040830152506060830151606082015280935050505092915050565b600060208284031215611070578081fd5b5035919050565b600060208284031215611088578081fd5b5051919050565b6000806000606084860312156110a3578182fd5b83359250602084013567ffffffffffffffff8111156110c0578283fd5b8401601f810186136110d0578283fd5b80356110de610e678261134d565b8181528760208385010111156110f2578485fd5b816020840160208301378460208383010152809450505050604084013590509250925092565b60008151808452611130816020860160208601611375565b601f01601f19169290920160200192915050565b6001600160a01b0391909116815260200190565b6001600160a01b03929092168252602082015260400190565b6001600160a01b0392831681529116602082015260400190565b6001600160a01b039290921682521515602082015260400190565b600060018060a01b0386168252846020830152608060408301526111cd6080830185611118565b905082606083015295945050505050565b6000602080830181845280855180835260408601915060408482028701019250838701855b8281101561123157603f1988860301845261121f858351611118565b94509285019290850190600101611203565b5092979650505050505050565b6020808252825182820181905260009190848201906040850190845b818110156112765783518352928401929184019160010161125a565b50909695505050505050565b901515815260200190565b600060208252610f606020830184611118565b6020808252601290820152712cb7ba9030b932903bb937b733903ab9b2b960711b604082015260600190565b60006020825260018060a01b0383511660208301526020830151604083015260408301516080606084015261130460a0840182611118565b9050606084015160808401528091505092915050565b90815260200190565b60405181810167ffffffffffffffff81118282101715611345576113456113cc565b604052919050565b600067ffffffffffffffff821115611367576113676113cc565b50601f01601f191660200190565b60005b83811015611390578181015183820152602001611378565b8381111561139f576000848401525b50505050565b60006000198214156113c557634e487b7160e01b81526011600452602481fd5b5060010190565b634e487b7160e01b600052604160045260246000fd5b6001600160a01b03811681146113f757600080fd5b5056fea2646970667358221220836968629cef00c7a4b91188d179a2d97df62714df994689ab01434609c0d89f64736f6c63430008000033",
  "linkReferences": {},
  "deployedLinkReferences": {}
}