{
  "_format": "hh-sol-artifact-1",
  "contractName": "User",
  "sourceName": "contracts/Users.sol",
  "abi": [
    {
      "inputs": [
        {
          "internalType": "address",
          "name": "_userAddress",
          "type": "address"
        },
        {
          "internalType": "contract NFT",
          "name": "_nftInstance",
          "type": "address"
        }
      ],
      "stateMutability": "nonpayable",
      "type": "constructor"
    },
    {
      "anonymous": false,
      "inputs": [
        {
          "indexed": false,
          "internalType": "string",
          "name": "tokenURI",
          "type": "string"
        }
      ],
      "name": "NiggaCollect",
      "type": "event"
    },
    {
      "inputs": [],
      "name": "collectNigga",
      "outputs": [],
      "stateMutability": "nonpayable",
      "type": "function"
    },
    {
      "inputs": [],
      "name": "sayHello",
      "outputs": [
        {
          "internalType": "string",
          "name": "",
          "type": "string"
        }
      ],
      "stateMutability": "pure",
      "type": "function"
    },
    {
      "inputs": [],
      "name": "userAddress",
      "outputs": [
        {
          "internalType": "address",
          "name": "",
          "type": "address"
        }
      ],
      "stateMutability": "view",
      "type": "function"
    }
  ],
  "bytecode": "0x608060405234801561001057600080fd5b5060405161045038038061045083398101604081905261002f91610060565b600080546001600160a01b039384166001600160a01b031991821617909155600180549290931691161790556100b1565b60008060408385031215610072578182fd5b825161007d81610099565b602084015190925061008e81610099565b809150509250929050565b6001600160a01b03811681146100ae57600080fd5b50565b610390806100c06000396000f3fe608060405234801561001057600080fd5b50600436106100415760003560e01c80639e69501414610046578063e4128fb314610050578063ef5fb05b1461006e575b600080fd5b61004e610083565b005b6100586101cc565b60405161006591906102c4565b60405180910390f35b6100766101db565b60405161006591906102d8565b600154600080546040516305f9620f60e21b815291926001600160a01b03908116926317e5883c926100b99216906004016102c4565b602060405180830381600087803b1580156100d357600080fd5b505af11580156100e7573d6000803e3d6000fd5b505050506040513d601f19601f8201168201806040525081019061010b91906102ac565b60015460405163c87b56dd60e01b81529192507fcbfc4dcd2e7acb06d88ce8ab931499a35fd78fb8ca65dffed66523c8f5e247a9916001600160a01b039091169063c87b56dd9061016090859060040161030b565b60006040518083038186803b15801561017857600080fd5b505afa15801561018c573d6000803e3d6000fd5b505050506040513d6000823e601f3d908101601f191682016040526101b49190810190610209565b6040516101c191906102d8565b60405180910390a150565b6000546001600160a01b031681565b60408051808201909152601481527348692c206920686176652061206e69676765722960601b602082015290565b60006020828403121561021a578081fd5b815167ffffffffffffffff80821115610231578283fd5b818401915084601f830112610244578283fd5b81518181111561025657610256610344565b604051601f8201601f19168101602001838111828210171561027a5761027a610344565b604052818152838201602001871015610291578485fd5b6102a2826020830160208701610314565b9695505050505050565b6000602082840312156102bd578081fd5b5051919050565b6001600160a01b0391909116815260200190565b60006020825282518060208401526102f7816040850160208701610314565b601f01601f19169190910160400192915050565b90815260200190565b60005b8381101561032f578181015183820152602001610317565b8381111561033e576000848401525b50505050565b634e487b7160e01b600052604160045260246000fdfea2646970667358221220bda6e08dc7681c643211c68061d06942ac64717249c90ea7005fc5f848847fa564736f6c63430008000033",
  "linkReferences": {},
  "deployedLinkReferences": {}
}