{
  "_format": "hh-sol-artifact-1",
  "contractName": "User",
  "sourceName": "contracts/Users.sol",
  "abi": [
    {
      "inputs": [
        {
          "internalType": "address",
          "name": "_userAddress",
          "type": "address"
        },
        {
          "internalType": "contract NFT",
          "name": "_nftInstance",
          "type": "address"
        },
        {
          "internalType": "contract Auctions",
          "name": "_auctionInstance",
          "type": "address"
        }
      ],
      "stateMutability": "nonpayable",
      "type": "constructor"
    },
    {
      "anonymous": false,
      "inputs": [
        {
          "indexed": false,
          "internalType": "uint256",
          "name": "auctionId",
          "type": "uint256"
        }
      ],
      "name": "AuctionCreated",
      "type": "event"
    },
    {
      "anonymous": false,
      "inputs": [
        {
          "indexed": false,
          "internalType": "bool",
          "name": "result",
          "type": "bool"
        }
      ],
      "name": "AuctionFinalazed",
      "type": "event"
    },
    {
      "anonymous": false,
      "inputs": [
        {
          "indexed": false,
          "internalType": "uint256[]",
          "name": "tokenIds",
          "type": "uint256[]"
        },
        {
          "indexed": false,
          "internalType": "string[]",
          "name": "tokenURI_list",
          "type": "string[]"
        }
      ],
      "name": "GetNiggasTokenURI_list",
      "type": "event"
    },
    {
      "anonymous": false,
      "inputs": [
        {
          "indexed": false,
          "internalType": "string",
          "name": "tokenURI",
          "type": "string"
        }
      ],
      "name": "NiggaCollect",
      "type": "event"
    },
    {
      "anonymous": false,
      "inputs": [
        {
          "indexed": false,
          "internalType": "bool",
          "name": "result",
          "type": "bool"
        }
      ],
      "name": "PlaceBid",
      "type": "event"
    },
    {
      "inputs": [],
      "name": "auctionInstance",
      "outputs": [
        {
          "internalType": "contract Auctions",
          "name": "",
          "type": "address"
        }
      ],
      "stateMutability": "view",
      "type": "function"
    },
    {
      "inputs": [],
      "name": "collectNigga",
      "outputs": [],
      "stateMutability": "nonpayable",
      "type": "function"
    },
    {
      "inputs": [
        {
          "internalType": "uint256",
          "name": "_auctionId",
          "type": "uint256"
        }
      ],
      "name": "finalizeAuction",
      "outputs": [
        {
          "internalType": "bool",
          "name": "",
          "type": "bool"
        }
      ],
      "stateMutability": "nonpayable",
      "type": "function"
    },
    {
      "inputs": [
        {
          "internalType": "uint256",
          "name": "_auctionId",
          "type": "uint256"
        }
      ],
      "name": "getAuctionApprovingData",
      "outputs": [
        {
          "internalType": "address",
          "name": "",
          "type": "address"
        },
        {
          "internalType": "address",
          "name": "",
          "type": "address"
        }
      ],
      "stateMutability": "view",
      "type": "function"
    },
    {
      "inputs": [
        {
          "internalType": "uint256",
          "name": "_id",
          "type": "uint256"
        }
      ],
      "name": "getAuctionContentById",
      "outputs": [
        {
          "components": [
            {
              "internalType": "address",
              "name": "owner",
              "type": "address"
            },
            {
              "internalType": "uint256",
              "name": "nftTokenId",
              "type": "uint256"
            },
            {
              "internalType": "string",
              "name": "message",
              "type": "string"
            },
            {
              "internalType": "uint256",
              "name": "startPrice",
              "type": "uint256"
            }
          ],
          "internalType": "struct AuctionContent",
          "name": "",
          "type": "tuple"
        }
      ],
      "stateMutability": "view",
      "type": "function"
    },
    {
      "inputs": [],
      "name": "getMyAuctionIds",
      "outputs": [
        {
          "internalType": "uint256[]",
          "name": "",
          "type": "uint256[]"
        }
      ],
      "stateMutability": "view",
      "type": "function"
    },
    {
      "inputs": [],
      "name": "getMyNiggaTokenIds",
      "outputs": [
        {
          "internalType": "uint256[]",
          "name": "",
          "type": "uint256[]"
        }
      ],
      "stateMutability": "view",
      "type": "function"
    },
    {
      "inputs": [],
      "name": "getMyNiggasTokenURI",
      "outputs": [],
      "stateMutability": "nonpayable",
      "type": "function"
    },
    {
      "inputs": [
        {
          "internalType": "uint256",
          "name": "_id",
          "type": "uint256"
        }
      ],
      "name": "getNiggaById",
      "outputs": [
        {
          "internalType": "string",
          "name": "",
          "type": "string"
        }
      ],
      "stateMutability": "view",
      "type": "function"
    },
    {
      "inputs": [
        {
          "internalType": "uint256",
          "name": "_id",
          "type": "uint256"
        }
      ],
      "name": "getNiggaTokenIdById",
      "outputs": [
        {
          "internalType": "uint256",
          "name": "",
          "type": "uint256"
        }
      ],
      "stateMutability": "view",
      "type": "function"
    },
    {
      "inputs": [],
      "name": "nftInstance",
      "outputs": [
        {
          "internalType": "contract NFT",
          "name": "",
          "type": "address"
        }
      ],
      "stateMutability": "view",
      "type": "function"
    },
    {
      "inputs": [
        {
          "internalType": "uint256",
          "name": "_auctionId",
          "type": "uint256"
        }
      ],
      "name": "placeBid",
      "outputs": [],
      "stateMutability": "payable",
      "type": "function"
    },
    {
      "inputs": [
        {
          "internalType": "uint256",
          "name": "_niggaId",
          "type": "uint256"
        },
        {
          "internalType": "string",
          "name": "_message",
          "type": "string"
        },
        {
          "internalType": "uint256",
          "name": "_startPrice",
          "type": "uint256"
        }
      ],
      "name": "sellNigga",
      "outputs": [],
      "stateMutability": "nonpayable",
      "type": "function"
    },
    {
      "inputs": [],
      "name": "userAddress",
      "outputs": [
        {
          "internalType": "address",
          "name": "",
          "type": "address"
        }
      ],
      "stateMutability": "view",
      "type": "function"
    }
  ],
  "bytecode": "0x60806040523480156200001157600080fd5b506040516200155738038062001557833981016040819052620000349162000077565b600080546001600160a01b039485166001600160a01b031991821617909155600180549385169382169390931790925560028054919093169116179055620000e3565b6000806000606084860312156200008c578283fd5b83516200009981620000ca565b6020850151909350620000ac81620000ca565b6040850151909250620000bf81620000ca565b809150509250925092565b6001600160a01b0381168114620000e057600080fd5b50565b61146480620000f36000396000f3fe6080604052600436106100dd5760003560e01c8063a582dc441161007f578063c785034911610059578063c78503491461021f578063d4d68a9e1461023f578063e4128fb31461026d578063e808386314610282576100dd565b8063a582dc44146101bb578063ac5e4dd8146101e8578063b7e8ab1a1461020a576100dd565b806395d3343e116100bb57806395d3343e146101675780639979ef451461017e5780639e69501414610191578063a20b9511146101a6576100dd565b806352ed6b69146100e257806359da64a91461010d5780637e7010f51461013a575b600080fd5b3480156100ee57600080fd5b506100f76102af565b6040516101049190611233565b60405180910390f35b34801561011957600080fd5b5061012d61012836600461107a565b610372565b6040516101049190611300565b34801561014657600080fd5b5061015a61015536600461107a565b61042e565b60405161010491906112c1565b34801561017357600080fd5b5061017c6104e5565b005b61017c61018c36600461107a565b61068a565b34801561019d57600080fd5b5061017c6107eb565b3480156101b257600080fd5b506100f76109c5565b3480156101c757600080fd5b506101db6101d636600461107a565b610a26565b604051610104919061134e565b3480156101f457600080fd5b506101fd610b07565b6040516101049190611199565b34801561021657600080fd5b506101fd610b16565b34801561022b57600080fd5b5061017c61023a3660046110aa565b610b25565b34801561024b57600080fd5b5061025f61025a36600461107a565b610c2c565b6040516101049291906111c6565b34801561027957600080fd5b506101fd610cc7565b34801561028e57600080fd5b506102a261029d36600461107a565b610cd6565b60405161010491906112b6565b6000546060906001600160a01b031633146102e55760405162461bcd60e51b81526004016102dc906112d4565b60405180910390fd5b600254600054604051631f56360360e31b81526001600160a01b039283169263fab1b0189261031992911690600401611199565b60006040518083038186803b15801561033157600080fd5b505afa158015610345573d6000803e3d6000fd5b505050506040513d6000823e601f3d908101601f1916820160405261036d9190810190610eb4565b905090565b61037a610e33565b6000546001600160a01b031633146103a45760405162461bcd60e51b81526004016102dc906112d4565b6002546040516302deb55360e21b81526001600160a01b0390911690630b7ad54c906103d490859060040161134e565b60006040518083038186803b1580156103ec57600080fd5b505afa158015610400573d6000803e3d6000fd5b505050506040513d6000823e601f3d908101601f191682016040526104289190810190610fd1565b92915050565b6000546060906001600160a01b0316331461045b5760405162461bcd60e51b81526004016102dc906112d4565b6001546001600160a01b031663c87b56dd61047584610a26565b6040518263ffffffff1660e01b8152600401610491919061134e565b60006040518083038186803b1580156104a957600080fd5b505afa1580156104bd573d6000803e3d6000fd5b505050506040513d6000823e601f3d908101601f191682016040526104289190810190610f9e565b60006104ef6109c5565b805190915060008167ffffffffffffffff81111561051d57634e487b7160e01b600052604160045260246000fd5b60405190808252806020026020018201604052801561055057816020015b606081526020019060019003908161053b5790505b50905060005b8281101561064b5760015484516001600160a01b039091169063c87b56dd9086908490811061059557634e487b7160e01b600052603260045260246000fd5b60200260200101516040518263ffffffff1660e01b81526004016105b9919061134e565b60006040518083038186803b1580156105d157600080fd5b505afa1580156105e5573d6000803e3d6000fd5b505050506040513d6000823e601f3d908101601f1916820160405261060d9190810190610f9e565b82828151811061062d57634e487b7160e01b600052603260045260246000fd5b60200260200101819052508080610643906113d9565b915050610556565b507f7cf4803c7d55374ac9ae628353b4375aedaa0450ef9b10b18dd834aed7d77980838260405161067d929190611246565b60405180910390a1505050565b6000546001600160a01b031633146106b45760405162461bcd60e51b81526004016102dc906112d4565b600254604051630c088d6d60e11b81526000916001600160a01b0316906318111ada906106e590859060040161134e565b60206040518083038186803b1580156106fd57600080fd5b505afa158015610711573d6000803e3d6000fd5b505050506040513d601f19601f820116820180604052508101906107359190610f82565b90506000816001600160a01b031663d98b9bb53433346040518463ffffffff1660e01b81526004016107689291906111ad565b6020604051808303818588803b15801561078157600080fd5b505af1158015610795573d6000803e3d6000fd5b50505050506040513d601f19601f820116820180604052508101906107ba9190610f5b565b90507fdd12842682a5074130a77d2ebd35098c916b04f5f9130d875292531a3b844b5a8160405161067d91906112b6565b6000546001600160a01b031633146108155760405162461bcd60e51b81526004016102dc906112d4565b6001805460005460405163a22cb46560e01b81526001600160a01b039283169363a22cb465936108499316916004016111e0565b600060405180830381600087803b15801561086357600080fd5b505af1158015610877573d6000803e3d6000fd5b5050600154600080546040516305f9620f60e21b81529194506001600160a01b0392831693506317e5883c926108b292911690600401611199565b602060405180830381600087803b1580156108cc57600080fd5b505af11580156108e0573d6000803e3d6000fd5b505050506040513d601f19601f820116820180604052508101906109049190611092565b60015460405163c87b56dd60e01b81529192507fcbfc4dcd2e7acb06d88ce8ab931499a35fd78fb8ca65dffed66523c8f5e247a9916001600160a01b039091169063c87b56dd9061095990859060040161134e565b60006040518083038186803b15801561097157600080fd5b505afa158015610985573d6000803e3d6000fd5b505050506040513d6000823e601f3d908101601f191682016040526109ad9190810190610f9e565b6040516109ba91906112c1565b60405180910390a150565b6000546060906001600160a01b031633146109f25760405162461bcd60e51b81526004016102dc906112d4565b600154600054604051635d81902f60e01b81526001600160a01b0392831692635d81902f9261031992911690600401611199565b600080546001600160a01b03163314610a515760405162461bcd60e51b81526004016102dc906112d4565b600154600054604051635d81902f60e01b81526001600160a01b0392831692635d81902f92610a8592911690600401611199565b60006040518083038186803b158015610a9d57600080fd5b505afa158015610ab1573d6000803e3d6000fd5b505050506040513d6000823e601f3d908101601f19168201604052610ad99190810190610eb4565b8281518110610af857634e487b7160e01b600052603260045260246000fd5b60200260200101519050919050565b6001546001600160a01b031681565b6002546001600160a01b031681565b6000546001600160a01b03163314610b4f5760405162461bcd60e51b81526004016102dc906112d4565b6000610b5a84610a26565b600254600080546040516312072a3160e21b815293945090926001600160a01b039283169263481ca8c492610b9a929116908690899089906004016111fb565b602060405180830381600087803b158015610bb457600080fd5b505af1158015610bc8573d6000803e3d6000fd5b505050506040513d601f19601f82011682018060405250810190610bec9190611092565b90507f7e0e356457a92dacd3760ddf327a24dd226c6ca01b2cc41a7fd6f28469c7ab9b81604051610c1d919061134e565b60405180910390a15050505050565b600254604051630c088d6d60e11b8152600091829182916001600160a01b0316906318111ada90610c6190879060040161134e565b60206040518083038186803b158015610c7957600080fd5b505afa158015610c8d573d6000803e3d6000fd5b505050506040513d601f19601f82011682018060405250810190610cb19190610f82565b6001546001600160a01b03169350915050915091565b6000546001600160a01b031681565b600080546001600160a01b03163314610d015760405162461bcd60e51b81526004016102dc906112d4565b600254604051630c088d6d60e11b81526000916001600160a01b0316906318111ada90610d3290869060040161134e565b60206040518083038186803b158015610d4a57600080fd5b505afa158015610d5e573d6000803e3d6000fd5b505050506040513d601f19601f82011682018060405250810190610d829190610f82565b6001600160a01b031663f77282ab6040518163ffffffff1660e01b8152600401602060405180830381600087803b158015610dbc57600080fd5b505af1158015610dd0573d6000803e3d6000fd5b505050506040513d601f19601f82011682018060405250810190610df49190610f5b565b90507fac582e96473a143b5efdb32368bad855dfe56bafa86c2171f0fd6063cf391cfe81604051610e2591906112b6565b60405180910390a192915050565b604051806080016040528060006001600160a01b031681526020016000815260200160608152602001600081525090565b600082601f830112610e74578081fd5b8151610e87610e8282611381565b611357565b818152846020838601011115610e9b578283fd5b610eac8260208301602087016113a9565b949350505050565b60006020808385031215610ec6578182fd5b825167ffffffffffffffff80821115610edd578384fd5b818501915085601f830112610ef0578384fd5b815181811115610f0257610f02611400565b8381029150610f12848301611357565b8181528481019084860184860187018a1015610f2c578788fd5b8795505b83861015610f4e578051835260019590950194918601918601610f30565b5098975050505050505050565b600060208284031215610f6c578081fd5b81518015158114610f7b578182fd5b9392505050565b600060208284031215610f93578081fd5b8151610f7b81611416565b600060208284031215610faf578081fd5b815167ffffffffffffffff811115610fc5578182fd5b610eac84828501610e64565b600060208284031215610fe2578081fd5b815167ffffffffffffffff80821115610ff9578283fd5b908301906080828603121561100c578283fd5b60405160808101818110838211171561102757611027611400565b604052825161103581611416565b815260208381015190820152604083015182811115611052578485fd5b61105e87828601610e64565b6040830152506060830151606082015280935050505092915050565b60006020828403121561108b578081fd5b5035919050565b6000602082840312156110a3578081fd5b5051919050565b6000806000606084860312156110be578182fd5b83359250602084013567ffffffffffffffff8111156110db578283fd5b8401601f810186136110eb578283fd5b80356110f9610e8282611381565b81815287602083850101111561110d578485fd5b816020840160208301378460208383010152809450505050604084013590509250925092565b6000815180845260208085019450808401835b8381101561116257815187529582019590820190600101611146565b509495945050505050565b600081518084526111858160208601602086016113a9565b601f01601f19169290920160200192915050565b6001600160a01b0391909116815260200190565b6001600160a01b03929092168252602082015260400190565b6001600160a01b0392831681529116602082015260400190565b6001600160a01b039290921682521515602082015260400190565b600060018060a01b038616825284602083015260806040830152611222608083018561116d565b905082606083015295945050505050565b600060208252610f7b6020830184611133565b6000604082526112596040830185611133565b602083820381850152818551808452828401915082838202850101838801865b838110156112a757601f1987840301855261129583835161116d565b94860194925090850190600101611279565b50909998505050505050505050565b901515815260200190565b600060208252610f7b602083018461116d565b6020808252601290820152712cb7ba9030b932903bb937b733903ab9b2b960711b604082015260600190565b60006020825260018060a01b0383511660208301526020830151604083015260408301516080606084015261133860a084018261116d565b9050606084015160808401528091505092915050565b90815260200190565b60405181810167ffffffffffffffff8111828210171561137957611379611400565b604052919050565b600067ffffffffffffffff82111561139b5761139b611400565b50601f01601f191660200190565b60005b838110156113c45781810151838201526020016113ac565b838111156113d3576000848401525b50505050565b60006000198214156113f957634e487b7160e01b81526011600452602481fd5b5060010190565b634e487b7160e01b600052604160045260246000fd5b6001600160a01b038116811461142b57600080fd5b5056fea264697066735822122054b31195d4ab92d3cd98ebbbf79286af3e2cecf29f7ccc0687089f9c02d9288a64736f6c63430008000033",
  "linkReferences": {},
  "deployedLinkReferences": {}
}