{
  "_format": "hh-sol-artifact-1",
  "contractName": "User",
  "sourceName": "contracts/Users.sol",
  "abi": [
    {
      "inputs": [
        {
          "internalType": "address",
          "name": "_userAddress",
          "type": "address"
        },
        {
          "internalType": "contract NFT",
          "name": "_nftInstance",
          "type": "address"
        }
      ],
      "stateMutability": "nonpayable",
      "type": "constructor"
    },
    {
      "inputs": [],
      "name": "collectNigga",
      "outputs": [
        {
          "internalType": "string",
          "name": "",
          "type": "string"
        }
      ],
      "stateMutability": "nonpayable",
      "type": "function"
    },
    {
      "inputs": [],
      "name": "sayHello",
      "outputs": [
        {
          "internalType": "string",
          "name": "",
          "type": "string"
        }
      ],
      "stateMutability": "pure",
      "type": "function"
    },
    {
      "inputs": [],
      "name": "userAddress",
      "outputs": [
        {
          "internalType": "address",
          "name": "",
          "type": "address"
        }
      ],
      "stateMutability": "view",
      "type": "function"
    }
  ],
  "bytecode": "0x608060405234801561001057600080fd5b5060405161041b38038061041b83398101604081905261002f91610060565b600080546001600160a01b039384166001600160a01b031991821617909155600180549290931691161790556100b1565b60008060408385031215610072578182fd5b825161007d81610099565b602084015190925061008e81610099565b809150509250929050565b6001600160a01b03811681146100ae57600080fd5b50565b61035b806100c06000396000f3fe608060405234801561001057600080fd5b50600436106100415760003560e01c80639e69501414610046578063e4128fb314610064578063ef5fb05b14610079575b600080fd5b61004e610081565b60405161005b91906102a3565b60405180910390f35b61006c610197565b60405161005b919061028f565b61004e6101a6565b600154600080546040516305f9620f60e21b81526060936001600160a01b03908116926317e5883c926100ba929091169060040161028f565b602060405180830381600087803b1580156100d457600080fd5b505af11580156100e8573d6000803e3d6000fd5b505050506040513d601f19601f8201168201806040525081019061010c9190610277565b60015460405163c87b56dd60e01b81529192506001600160a01b03169063c87b56dd9061013d9084906004016102d6565b60006040518083038186803b15801561015557600080fd5b505afa158015610169573d6000803e3d6000fd5b505050506040513d6000823e601f3d908101601f1916820160405261019191908101906101d4565b91505090565b6000546001600160a01b031681565b60408051808201909152601481527348692c206920686176652061206e69676765722960601b602082015290565b6000602082840312156101e5578081fd5b815167ffffffffffffffff808211156101fc578283fd5b818401915084601f83011261020f578283fd5b8151818111156102215761022161030f565b604051601f8201601f1916810160200183811182821017156102455761024561030f565b60405281815283820160200187101561025c578485fd5b61026d8260208301602087016102df565b9695505050505050565b600060208284031215610288578081fd5b5051919050565b6001600160a01b0391909116815260200190565b60006020825282518060208401526102c28160408501602087016102df565b601f01601f19169190910160400192915050565b90815260200190565b60005b838110156102fa5781810151838201526020016102e2565b83811115610309576000848401525b50505050565b634e487b7160e01b600052604160045260246000fdfea2646970667358221220614b49825e87ad628a2673787d1e364283414729b56d0b739d6c53b98c4c273b64736f6c63430008000033",
  "linkReferences": {},
  "deployedLinkReferences": {}
}