{
  "_format": "hh-sol-artifact-1",
  "contractName": "User",
  "sourceName": "contracts/Users.sol",
  "abi": [
    {
      "inputs": [
        {
          "internalType": "address",
          "name": "_userAddress",
          "type": "address"
        },
        {
          "internalType": "contract NFT",
          "name": "_nftInstance",
          "type": "address"
        },
        {
          "internalType": "contract Auctions",
          "name": "_auctionInstance",
          "type": "address"
        }
      ],
      "stateMutability": "nonpayable",
      "type": "constructor"
    },
    {
      "anonymous": false,
      "inputs": [
        {
          "indexed": false,
          "internalType": "uint256",
          "name": "auctionId",
          "type": "uint256"
        }
      ],
      "name": "AuctionCreated",
      "type": "event"
    },
    {
      "anonymous": false,
      "inputs": [
        {
          "indexed": false,
          "internalType": "bool",
          "name": "result",
          "type": "bool"
        }
      ],
      "name": "AuctionFinalazed",
      "type": "event"
    },
    {
      "anonymous": false,
      "inputs": [
        {
          "indexed": false,
          "internalType": "string",
          "name": "tokenURI",
          "type": "string"
        }
      ],
      "name": "NiggaCollect",
      "type": "event"
    },
    {
      "anonymous": false,
      "inputs": [
        {
          "indexed": false,
          "internalType": "bool",
          "name": "result",
          "type": "bool"
        }
      ],
      "name": "PlaceBid",
      "type": "event"
    },
    {
      "inputs": [],
      "name": "auctionInstance",
      "outputs": [
        {
          "internalType": "contract Auctions",
          "name": "",
          "type": "address"
        }
      ],
      "stateMutability": "view",
      "type": "function"
    },
    {
      "inputs": [],
      "name": "collectNigga",
      "outputs": [],
      "stateMutability": "nonpayable",
      "type": "function"
    },
    {
      "inputs": [
        {
          "internalType": "uint256",
          "name": "_auctionId",
          "type": "uint256"
        }
      ],
      "name": "finalizeAuction",
      "outputs": [
        {
          "internalType": "bool",
          "name": "",
          "type": "bool"
        }
      ],
      "stateMutability": "nonpayable",
      "type": "function"
    },
    {
      "inputs": [
        {
          "internalType": "uint256",
          "name": "_auctionId",
          "type": "uint256"
        }
      ],
      "name": "getAuctionApprovingData",
      "outputs": [
        {
          "internalType": "address",
          "name": "",
          "type": "address"
        },
        {
          "internalType": "address",
          "name": "",
          "type": "address"
        }
      ],
      "stateMutability": "view",
      "type": "function"
    },
    {
      "inputs": [
        {
          "internalType": "uint256",
          "name": "_id",
          "type": "uint256"
        }
      ],
      "name": "getAuctionContentById",
      "outputs": [
        {
          "components": [
            {
              "internalType": "address",
              "name": "owner",
              "type": "address"
            },
            {
              "internalType": "uint256",
              "name": "nftTokenId",
              "type": "uint256"
            },
            {
              "internalType": "string",
              "name": "message",
              "type": "string"
            },
            {
              "internalType": "uint256",
              "name": "startPrice",
              "type": "uint256"
            },
            {
              "internalType": "uint256",
              "name": "highestPrice",
              "type": "uint256"
            }
          ],
          "internalType": "struct AuctionContent",
          "name": "",
          "type": "tuple"
        }
      ],
      "stateMutability": "view",
      "type": "function"
    },
    {
      "inputs": [],
      "name": "getMyAuctionIds",
      "outputs": [
        {
          "internalType": "uint256[]",
          "name": "",
          "type": "uint256[]"
        }
      ],
      "stateMutability": "view",
      "type": "function"
    },
    {
      "inputs": [],
      "name": "getMyAuctionsContracts",
      "outputs": [
        {
          "internalType": "contract Auction[]",
          "name": "",
          "type": "address[]"
        }
      ],
      "stateMutability": "view",
      "type": "function"
    },
    {
      "inputs": [],
      "name": "getMyNiggaTokenIds",
      "outputs": [
        {
          "internalType": "uint256[]",
          "name": "",
          "type": "uint256[]"
        }
      ],
      "stateMutability": "view",
      "type": "function"
    },
    {
      "inputs": [],
      "name": "getMyNiggasTokenURI",
      "outputs": [
        {
          "internalType": "string[]",
          "name": "NFTs",
          "type": "string[]"
        }
      ],
      "stateMutability": "view",
      "type": "function"
    },
    {
      "inputs": [
        {
          "internalType": "uint256",
          "name": "_id",
          "type": "uint256"
        }
      ],
      "name": "getNiggaById",
      "outputs": [
        {
          "internalType": "string",
          "name": "",
          "type": "string"
        }
      ],
      "stateMutability": "view",
      "type": "function"
    },
    {
      "inputs": [
        {
          "internalType": "uint256",
          "name": "_id",
          "type": "uint256"
        }
      ],
      "name": "getNiggaTokenIdById",
      "outputs": [
        {
          "internalType": "uint256",
          "name": "",
          "type": "uint256"
        }
      ],
      "stateMutability": "view",
      "type": "function"
    },
    {
      "inputs": [],
      "name": "nftInstance",
      "outputs": [
        {
          "internalType": "contract NFT",
          "name": "",
          "type": "address"
        }
      ],
      "stateMutability": "view",
      "type": "function"
    },
    {
      "inputs": [
        {
          "internalType": "uint256",
          "name": "_auctionId",
          "type": "uint256"
        }
      ],
      "name": "placeBid",
      "outputs": [],
      "stateMutability": "payable",
      "type": "function"
    },
    {
      "inputs": [
        {
          "internalType": "uint256",
          "name": "_niggaId",
          "type": "uint256"
        },
        {
          "internalType": "string",
          "name": "_message",
          "type": "string"
        },
        {
          "internalType": "uint256",
          "name": "_startPrice",
          "type": "uint256"
        }
      ],
      "name": "sellNigga",
      "outputs": [],
      "stateMutability": "nonpayable",
      "type": "function"
    },
    {
      "inputs": [],
      "name": "userAddress",
      "outputs": [
        {
          "internalType": "address",
          "name": "",
          "type": "address"
        }
      ],
      "stateMutability": "view",
      "type": "function"
    }
  ],
  "bytecode": "0x60806040523480156200001157600080fd5b506040516200170438038062001704833981016040819052620000349162000077565b600080546001600160a01b039485166001600160a01b031991821617909155600180549385169382169390931790925560028054919093169116179055620000e3565b6000806000606084860312156200008c578283fd5b83516200009981620000ca565b6020850151909350620000ac81620000ca565b6040850151909250620000bf81620000ca565b809150509250925092565b6001600160a01b0381168114620000e057600080fd5b50565b61161180620000f36000396000f3fe6080604052600436106100e85760003560e01c8063a582dc441161008a578063c785034911610059578063c785034914610259578063d4d68a9e14610279578063e4128fb3146102a7578063e8083863146102bc576100e8565b8063a582dc44146101d3578063ac5e4dd814610200578063af98bace14610222578063b7e8ab1a14610244576100e8565b806395d3343e116100c657806395d3343e146101725780639979ef45146101945780639e695014146101a9578063a20b9511146101be576100e8565b806352ed6b69146100ed57806359da64a9146101185780637e7010f514610145575b600080fd5b3480156100f957600080fd5b506101026102e9565b60405161010f91906113fd565b60405180910390f35b34801561012457600080fd5b506101386101333660046111d1565b6103ac565b60405161010f919061147f565b34801561015157600080fd5b506101656101603660046111d1565b61046a565b60405161010f9190611440565b34801561017e57600080fd5b50610187610521565b60405161010f919061139d565b6101a76101a23660046111d1565b61068d565b005b3480156101b557600080fd5b506101a76107fb565b3480156101ca57600080fd5b506101026109d5565b3480156101df57600080fd5b506101f36101ee3660046111d1565b610a36565b60405161010f91906114d7565b34801561020c57600080fd5b50610215610b17565b60405161010f91906112b6565b34801561022e57600080fd5b50610237610b26565b60405161010f9190611350565b34801561025057600080fd5b50610215610bdd565b34801561026557600080fd5b506101a7610274366004611201565b610bec565b34801561028557600080fd5b506102996102943660046111d1565b610cf3565b60405161010f9291906112e3565b3480156102b357600080fd5b50610215610d8e565b3480156102c857600080fd5b506102dc6102d73660046111d1565b610d9d565b60405161010f9190611435565b6000546060906001600160a01b0316331461031f5760405162461bcd60e51b815260040161031690611453565b60405180910390fd5b600254600054604051631f56360360e31b81526001600160a01b039283169263fab1b01892610353929116906004016112b6565b60006040518083038186803b15801561036b57600080fd5b505afa15801561037f573d6000803e3d6000fd5b505050506040513d6000823e601f3d908101601f191682016040526103a79190810190611026565b905090565b6103b4610efa565b6000546001600160a01b031633146103de5760405162461bcd60e51b815260040161031690611453565b6002546040516302deb55360e21b81526001600160a01b0390911690630b7ad54c9061040e9085906004016114d7565b60006040518083038186803b15801561042657600080fd5b505afa15801561043a573d6000803e3d6000fd5b505050506040513d6000823e601f3d908101601f191682016040526104629190810190611120565b90505b919050565b6000546060906001600160a01b031633146104975760405162461bcd60e51b815260040161031690611453565b6001546001600160a01b031663c87b56dd6104b184610a36565b6040518263ffffffff1660e01b81526004016104cd91906114d7565b60006040518083038186803b1580156104e557600080fd5b505afa1580156104f9573d6000803e3d6000fd5b505050506040513d6000823e601f3d908101601f1916820160405261046291908101906110ed565b6060600061052d6109d5565b80519091508067ffffffffffffffff81111561055957634e487b7160e01b600052604160045260246000fd5b60405190808252806020026020018201604052801561058c57816020015b60608152602001906001900390816105775790505b50925060005b818110156106875760015483516001600160a01b039091169063c87b56dd908590849081106105d157634e487b7160e01b600052603260045260246000fd5b60200260200101516040518263ffffffff1660e01b81526004016105f591906114d7565b60006040518083038186803b15801561060d57600080fd5b505afa158015610621573d6000803e3d6000fd5b505050506040513d6000823e601f3d908101601f1916820160405261064991908101906110ed565b84828151811061066957634e487b7160e01b600052603260045260246000fd5b6020026020010181905250808061067f90611586565b915050610592565b50505090565b6000546001600160a01b031633146106b75760405162461bcd60e51b815260040161031690611453565b600254604051630c088d6d60e11b81526000916001600160a01b0316906318111ada906106e89085906004016114d7565b60206040518083038186803b15801561070057600080fd5b505afa158015610714573d6000803e3d6000fd5b505050506040513d601f19601f8201168201806040525081019061073891906110d1565b90506000816001600160a01b031663d98b9bb53433346040518463ffffffff1660e01b815260040161076b9291906112ca565b6020604051808303818588803b15801561078457600080fd5b505af1158015610798573d6000803e3d6000fd5b50505050506040513d601f19601f820116820180604052508101906107bd91906110aa565b90507fdd12842682a5074130a77d2ebd35098c916b04f5f9130d875292531a3b844b5a816040516107ee9190611435565b60405180910390a1505050565b6000546001600160a01b031633146108255760405162461bcd60e51b815260040161031690611453565b6001805460005460405163a22cb46560e01b81526001600160a01b039283169363a22cb465936108599316916004016112fd565b600060405180830381600087803b15801561087357600080fd5b505af1158015610887573d6000803e3d6000fd5b5050600154600080546040516305f9620f60e21b81529194506001600160a01b0392831693506317e5883c926108c2929116906004016112b6565b602060405180830381600087803b1580156108dc57600080fd5b505af11580156108f0573d6000803e3d6000fd5b505050506040513d601f19601f8201168201806040525081019061091491906111e9565b60015460405163c87b56dd60e01b81529192507fcbfc4dcd2e7acb06d88ce8ab931499a35fd78fb8ca65dffed66523c8f5e247a9916001600160a01b039091169063c87b56dd906109699085906004016114d7565b60006040518083038186803b15801561098157600080fd5b505afa158015610995573d6000803e3d6000fd5b505050506040513d6000823e601f3d908101601f191682016040526109bd91908101906110ed565b6040516109ca9190611440565b60405180910390a150565b6000546060906001600160a01b03163314610a025760405162461bcd60e51b815260040161031690611453565b600154600054604051635d81902f60e01b81526001600160a01b0392831692635d81902f92610353929116906004016112b6565b600080546001600160a01b03163314610a615760405162461bcd60e51b815260040161031690611453565b600154600054604051635d81902f60e01b81526001600160a01b0392831692635d81902f92610a95929116906004016112b6565b60006040518083038186803b158015610aad57600080fd5b505afa158015610ac1573d6000803e3d6000fd5b505050506040513d6000823e601f3d908101601f19168201604052610ae99190810190611026565b8281518110610b0857634e487b7160e01b600052603260045260246000fd5b60200260200101519050919050565b6001546001600160a01b031681565b6000546060906001600160a01b03163314610b535760405162461bcd60e51b815260040161031690611453565b600260009054906101000a90046001600160a01b03166001600160a01b031663d7c069196040518163ffffffff1660e01b815260040160006040518083038186803b158015610ba157600080fd5b505afa158015610bb5573d6000803e3d6000fd5b505050506040513d6000823e601f3d908101601f191682016040526103a79190810190610f8d565b6002546001600160a01b031681565b6000546001600160a01b03163314610c165760405162461bcd60e51b815260040161031690611453565b6000610c2184610a36565b600254600080546040516312072a3160e21b815293945090926001600160a01b039283169263481ca8c492610c6192911690869089908990600401611318565b602060405180830381600087803b158015610c7b57600080fd5b505af1158015610c8f573d6000803e3d6000fd5b505050506040513d601f19601f82011682018060405250810190610cb391906111e9565b90507f7e0e356457a92dacd3760ddf327a24dd226c6ca01b2cc41a7fd6f28469c7ab9b81604051610ce491906114d7565b60405180910390a15050505050565b600254604051630c088d6d60e11b8152600091829182916001600160a01b0316906318111ada90610d289087906004016114d7565b60206040518083038186803b158015610d4057600080fd5b505afa158015610d54573d6000803e3d6000fd5b505050506040513d601f19601f82011682018060405250810190610d7891906110d1565b6001546001600160a01b03169350915050915091565b6000546001600160a01b031681565b600080546001600160a01b03163314610dc85760405162461bcd60e51b815260040161031690611453565b600254604051630c088d6d60e11b81526000916001600160a01b0316906318111ada90610df99086906004016114d7565b60206040518083038186803b158015610e1157600080fd5b505afa158015610e25573d6000803e3d6000fd5b505050506040513d601f19601f82011682018060405250810190610e4991906110d1565b6001600160a01b031663f77282ab6040518163ffffffff1660e01b8152600401602060405180830381600087803b158015610e8357600080fd5b505af1158015610e97573d6000803e3d6000fd5b505050506040513d601f19601f82011682018060405250810190610ebb91906110aa565b90507fac582e96473a143b5efdb32368bad855dfe56bafa86c2171f0fd6063cf391cfe81604051610eec9190611435565b60405180910390a192915050565b6040518060a0016040528060006001600160a01b03168152602001600081526020016060815260200160008152602001600081525090565b8051610465816115c3565b600082601f830112610f4d578081fd5b8151610f60610f5b8261152e565b6114e0565b818152846020838601011115610f74578283fd5b610f85826020830160208701611556565b949350505050565b60006020808385031215610f9f578182fd5b825167ffffffffffffffff811115610fb5578283fd5b8301601f81018513610fc5578283fd5b8051610fd3610f5b8261150a565b8181528381019083850185840285018601891015610fef578687fd5b8694505b8385101561101a578051611006816115c3565b835260019490940193918501918501610ff3565b50979650505050505050565b60006020808385031215611038578182fd5b825167ffffffffffffffff81111561104e578283fd5b8301601f8101851361105e578283fd5b805161106c610f5b8261150a565b8181528381019083850185840285018601891015611088578687fd5b8694505b8385101561101a57805183526001949094019391850191850161108c565b6000602082840312156110bb578081fd5b815180151581146110ca578182fd5b9392505050565b6000602082840312156110e2578081fd5b81516110ca816115c3565b6000602082840312156110fe578081fd5b815167ffffffffffffffff811115611114578182fd5b610f8584828501610f3d565b600060208284031215611131578081fd5b815167ffffffffffffffff80821115611148578283fd5b9083019060a0828603121561115b578283fd5b60405160a081018181108382111715611176576111766115ad565b60405261118283610f32565b81526020830151602082015260408301518281111561119f578485fd5b6111ab87828601610f3d565b604083015250606083015160608201526080830151608082015280935050505092915050565b6000602082840312156111e2578081fd5b5035919050565b6000602082840312156111fa578081fd5b5051919050565b600080600060608486031215611215578182fd5b83359250602084013567ffffffffffffffff811115611232578283fd5b8401601f81018613611242578283fd5b8035611250610f5b8261152e565b818152876020838501011115611264578485fd5b816020840160208301378460208383010152809450505050604084013590509250925092565b600081518084526112a2816020860160208601611556565b601f01601f19169290920160200192915050565b6001600160a01b0391909116815260200190565b6001600160a01b03929092168252602082015260400190565b6001600160a01b0392831681529116602082015260400190565b6001600160a01b039290921682521515602082015260400190565b600060018060a01b03861682528460208301526080604083015261133f608083018561128a565b905082606083015295945050505050565b6020808252825182820181905260009190848201906040850190845b818110156113915783516001600160a01b03168352928401929184019160010161136c565b50909695505050505050565b6000602080830181845280855180835260408601915060408482028701019250838701855b828110156113f057603f198886030184526113de85835161128a565b945092850192908501906001016113c2565b5092979650505050505050565b6020808252825182820181905260009190848201906040850190845b8181101561139157835183529284019291840191600101611419565b901515815260200190565b6000602082526110ca602083018461128a565b6020808252601290820152712cb7ba9030b932903bb937b733903ab9b2b960711b604082015260600190565b60006020825260018060a01b03835116602083015260208301516040830152604083015160a060608401526114b760c084018261128a565b905060608401516080840152608084015160a08401528091505092915050565b90815260200190565b60405181810167ffffffffffffffff81118282101715611502576115026115ad565b604052919050565b600067ffffffffffffffff821115611524576115246115ad565b5060209081020190565b600067ffffffffffffffff821115611548576115486115ad565b50601f01601f191660200190565b60005b83811015611571578181015183820152602001611559565b83811115611580576000848401525b50505050565b60006000198214156115a657634e487b7160e01b81526011600452602481fd5b5060010190565b634e487b7160e01b600052604160045260246000fd5b6001600160a01b03811681146115d857600080fd5b5056fea2646970667358221220f0b4b9764f5ed7b96eba302886cc8ba1d4f0bf58eeb19f3b0484a1b01615cbb364736f6c63430008000033",
  "linkReferences": {},
  "deployedLinkReferences": {}
}