{
  "_format": "hh-sol-artifact-1",
  "contractName": "Users",
  "sourceName": "contracts/Users.sol",
  "abi": [
    {
      "inputs": [],
      "stateMutability": "nonpayable",
      "type": "constructor"
    },
    {
      "anonymous": false,
      "inputs": [
        {
          "indexed": false,
          "internalType": "contract User",
          "name": "user",
          "type": "address"
        }
      ],
      "name": "UserConnect",
      "type": "event"
    },
    {
      "inputs": [],
      "name": "connectUser",
      "outputs": [],
      "stateMutability": "nonpayable",
      "type": "function"
    },
    {
      "inputs": [],
      "name": "nftInstance",
      "outputs": [
        {
          "internalType": "contract NFT",
          "name": "",
          "type": "address"
        }
      ],
      "stateMutability": "view",
      "type": "function"
    },
    {
      "inputs": [
        {
          "internalType": "address",
          "name": "",
          "type": "address"
        }
      ],
      "name": "users",
      "outputs": [
        {
          "internalType": "contract User",
          "name": "user",
          "type": "address"
        },
        {
          "internalType": "bool",
          "name": "exists",
          "type": "bool"
        }
      ],
      "stateMutability": "view",
      "type": "function"
    }
  ],
  "bytecode": "0x608060405234801561001057600080fd5b5060405161001d9061005f565b604051809103906000f080158015610039573d6000803e3d6000fd5b50600180546001600160a01b0319166001600160a01b039290921691909117905561006c565b6127ec8061078783390190565b61070c8061007b6000396000f3fe608060405234801561001057600080fd5b50600436106100415760003560e01c8063a87430ba14610046578063ac5e4dd814610070578063bae2739b14610085575b600080fd5b61005961005436600461020f565b61008f565b60405161006792919061026b565b60405180910390f35b6100786100b6565b6040516100679190610257565b61008d6100c5565b005b6000602081905290815260409020546001600160a01b03811690600160a01b900460ff1682565b6001546001600160a01b031681565b33600081815260208190526040902054600160a01b900460ff161561013c576001600160a01b03808216600090815260208190526040908190205490517fdc71ecd0af622ffab903eb566194545a23403d3a8f2cab61e83871dde0bf5c869261012f921690610257565b60405180910390a16101ff565b60015460405160009183916001600160a01b039091169061015c90610202565b61016792919061023d565b604051809103906000f080158015610183573d6000803e3d6000fd5b506001600160a01b0380841660009081526020819052604090819020805460ff60a01b199385166001600160a01b03199091161792909216600160a01b17909155519091507fdc71ecd0af622ffab903eb566194545a23403d3a8f2cab61e83871dde0bf5c86906101f5908390610257565b60405180910390a1505b50565b6104508061028783390190565b600060208284031215610220578081fd5b81356001600160a01b0381168114610236578182fd5b9392505050565b6001600160a01b0392831681529116602082015260400190565b6001600160a01b0391909116815260200190565b6001600160a01b03929092168252151560208201526040019056fe608060405234801561001057600080fd5b5060405161045038038061045083398101604081905261002f91610060565b600080546001600160a01b039384166001600160a01b031991821617909155600180549290931691161790556100b1565b60008060408385031215610072578182fd5b825161007d81610099565b602084015190925061008e81610099565b809150509250929050565b6001600160a01b03811681146100ae57600080fd5b50565b610390806100c06000396000f3fe608060405234801561001057600080fd5b50600436106100415760003560e01c80639e69501414610046578063e4128fb314610050578063ef5fb05b1461006e575b600080fd5b61004e610083565b005b6100586101cc565b60405161006591906102c4565b60405180910390f35b6100766101db565b60405161006591906102d8565b600154600080546040516305f9620f60e21b815291926001600160a01b03908116926317e5883c926100b99216906004016102c4565b602060405180830381600087803b1580156100d357600080fd5b505af11580156100e7573d6000803e3d6000fd5b505050506040513d601f19601f8201168201806040525081019061010b91906102ac565b60015460405163c87b56dd60e01b81529192507fcbfc4dcd2e7acb06d88ce8ab931499a35fd78fb8ca65dffed66523c8f5e247a9916001600160a01b039091169063c87b56dd9061016090859060040161030b565b60006040518083038186803b15801561017857600080fd5b505afa15801561018c573d6000803e3d6000fd5b505050506040513d6000823e601f3d908101601f191682016040526101b49190810190610209565b6040516101c191906102d8565b60405180910390a150565b6000546001600160a01b031681565b60408051808201909152601481527348692c206920686176652061206e69676765722960601b602082015290565b60006020828403121561021a578081fd5b815167ffffffffffffffff80821115610231578283fd5b818401915084601f830112610244578283fd5b81518181111561025657610256610344565b604051601f8201601f19168101602001838111828210171561027a5761027a610344565b604052818152838201602001871015610291578485fd5b6102a2826020830160208701610314565b9695505050505050565b6000602082840312156102bd578081fd5b5051919050565b6001600160a01b0391909116815260200190565b60006020825282518060208401526102f7816040850160208701610314565b601f01601f19169190910160400192915050565b90815260200190565b60005b8381101561032f578181015183820152602001610317565b8381111561033e576000848401525b50505050565b634e487b7160e01b600052604160045260246000fdfea2646970667358221220bda6e08dc7681c643211c68061d06942ac64717249c90ea7005fc5f848847fa564736f6c63430008000033a2646970667358221220bb18c28fbb474f0f088e7371791a46d4d96bcf7a8b20b4a9f4c53fb5213f636164736f6c6343000800003360806040523480156200001157600080fd5b506040805180820182526009815268139a59d9d84813919560ba1b602080830191825283518085019094526008845267139a59d9d853919560c21b908401528151919291620000639160009162000193565b5080516200007990600190602084019062000193565b5050600060075550600a6009819055600590556101f4600b55604080516080810182526001818301818152604d60f81b6060840152825282518084019093528252601360fa1b602083810191909152810191909152620000de90600c90600262000222565b506040518060800160405280604051806040016040528060078152602001662366636261303360c81b8152508152602001604051806040016040528060078152602001661199989b19b2b160c91b8152508152602001604051806040016040528060078152602001660233437393930360cc1b815250815260200160405180604001604052806005815260200164626c61636b60d81b815250815250600d9060046200018c92919062000282565b506200038e565b828054620001a19062000351565b90600052602060002090601f016020900481019282620001c5576000855562000210565b82601f10620001e057805160ff191683800117855562000210565b8280016001018555821562000210579182015b8281111562000210578251825591602001919060010190620001f3565b506200021e929150620002d4565b5090565b82805482825590600052602060002090810192821562000274579160200282015b828111156200027457825180516200026391849160209091019062000193565b509160200191906001019062000243565b506200021e929150620002eb565b82805482825590600052602060002090810192821562000274579160200282015b82811115620002745782518051620002c391849160209091019062000193565b5091602001919060010190620002a3565b5b808211156200021e5760008155600101620002d5565b808211156200021e5760006200030282826200030c565b50600101620002eb565b5080546200031a9062000351565b6000825580601f106200032e57506200034e565b601f0160209004906000526020600020908101906200034e9190620002d4565b50565b6002810460018216806200036657607f821691505b602082108114156200038857634e487b7160e01b600052602260045260246000fd5b50919050565b61244e806200039e6000396000f3fe608060405234801561001057600080fd5b506004361061010b5760003560e01c80636dcee4ca116100a2578063b88d4fde11610071578063b88d4fde1461021d578063c87b56dd14610230578063d082e38114610243578063dbdff2c11461024b578063e985e9c5146102535761010b565b80636dcee4ca146101dc57806370a08231146101ef57806395d89b4114610202578063a22cb4651461020a5761010b565b806317e5883c116100de57806317e5883c1461018357806323b872dd146101a357806342842e0e146101b65780636352211e146101c95761010b565b806301ffc9a71461011057806306fdde0314610139578063081812fc1461014e578063095ea7b31461016e575b600080fd5b61012361011e3660046119be565b610266565b6040516101309190611d8a565b60405180910390f35b6101416102ae565b6040516101309190611d95565b61016161015c3660046119f6565b610340565b6040516101309190611d39565b61018161017c366004611995565b61038c565b005b610196610191366004611808565b610424565b6040516101309190612232565b6101816101b1366004611854565b6105d9565b6101816101c4366004611854565b610611565b6101616101d73660046119f6565b61062c565b6101416101ea3660046119f6565b610661565b6101966101fd366004611808565b610762565b6101416107a6565b61018161021836600461195b565b6107b5565b61018161022b36600461188f565b6107cb565b61014161023e3660046119f6565b61080a565b61019661092b565b610196610931565b610123610261366004611822565b610966565b60006001600160e01b031982166380ac58cd60e01b148061029757506001600160e01b03198216635b5e139f60e01b145b806102a657506102a682610994565b90505b919050565b6060600080546102bd90612313565b80601f01602080910402602001604051908101604052809291908181526020018280546102e990612313565b80156103365780601f1061030b57610100808354040283529160200191610336565b820191906000526020600020905b81548152906001019060200180831161031957829003601f168201915b5050505050905090565b600061034b826109ad565b6103705760405162461bcd60e51b8152600401610367906120bc565b60405180910390fd5b506000908152600460205260409020546001600160a01b031690565b60006103978261062c565b9050806001600160a01b0316836001600160a01b031614156103cb5760405162461bcd60e51b8152600401610367906121a0565b806001600160a01b03166103dd6109ca565b6001600160a01b031614806103f957506103f9816102616109ca565b6104155760405162461bcd60e51b815260040161036790611ef8565b61041f83836109ce565b505050565b60008061042f610931565b90507fd20279a427f0b9be4eafb74bd6f4373c0d47a8f79bbabd9107a5dcf40aff13a2818460405161046292919061223b565b60405180910390a161047683600754610a3c565b60075460408051808201825260058152646e6967676160d81b6020808301919091528251808401845260118152702734b3b3b0903232b9b1b934b83a34b7b760791b9181019190915291519091907fe4ce7b49ccc2eafced7b381a6077bb3c0eb7b8f2f645549a5ae835d34aea7da2906104f1908690612232565b60405180910390a1600061050485610661565b9050600061051182610b1b565b90506000610520828686610bae565b90507ff0028408428d5005eb33874c8092c62faef5a685cea20320e5e94fd6e33523bf836040516105519190611d95565b60405180910390a16105638682610bf0565b857fe883eeefa7f620d513eac93479fc9f54ce03f9f4a72c0d818311a9d19556e879826040516105939190611d95565b60405180910390a2600780549060006105ab8361234e565b9091555050506001600160a01b03881660009081526008602052604090208590555092945050505050919050565b6105ea6105e46109ca565b82610c34565b6106065760405162461bcd60e51b8152600401610367906121e1565b61041f838383610cb1565b61041f838383604051806020016040528060008152506107cb565b6000818152600260205260408120546001600160a01b0316806102a65760405162461bcd60e51b815260040161036790611f9f565b60606000600954836106739190612369565b61067e906001612260565b905061068b600b54610dde565b610696600b54610dde565b6040516020016106a7929190611c34565b604051602081830303815290604052915060005b8181101561073957600084826040516020016106d8929190612252565b6040516020818303038152906040528051906020012060001c905060006106fe82610f24565b90508481604051602001610713929190611a56565b6040516020818303038152906040529450505080806107319061234e565b9150506106bb565b508160405160200161074b9190611b47565b604051602081830303815290604052915050919050565b60006001600160a01b03821661078a5760405162461bcd60e51b815260040161036790611f55565b506001600160a01b031660009081526003602052604090205490565b6060600180546102bd90612313565b6107c76107c06109ca565b83836110ce565b5050565b6107dc6107d66109ca565b83610c34565b6107f85760405162461bcd60e51b8152600401610367906121e1565b61080484848484611171565b50505050565b6060610815826109ad565b6108315760405162461bcd60e51b81526004016103679061206b565b6000828152600660205260408120805461084a90612313565b80601f016020809104026020016040519081016040528092919081815260200182805461087690612313565b80156108c35780601f10610898576101008083540402835291602001916108c3565b820191906000526020600020905b8154815290600101906020018083116108a657829003601f168201915b5050505050905060006108d46111a4565b90508051600014156108e8575090506102a9565b81511561091a578082604051602001610902929190611a56565b604051602081830303815290604052925050506102a9565b610923846111b6565b949350505050565b60075481565b600042443360405160200161094893929190611d11565b6040516020818303038152906040528051906020012060001c905090565b6001600160a01b03918216600090815260056020908152604080832093909416825291909152205460ff1690565b6001600160e01b031981166301ffc9a760e01b14919050565b6000908152600260205260409020546001600160a01b0316151590565b3390565b600081815260046020526040902080546001600160a01b0319166001600160a01b0384169081179091558190610a038261062c565b6001600160a01b03167f8c5be1e5ebec7d5bd14f71427d1e84f3dd0314c0f7b2291e5b200ac8c7c3b92560405160405180910390a45050565b6001600160a01b038216610a625760405162461bcd60e51b815260040161036790612036565b610a6b816109ad565b15610a885760405162461bcd60e51b815260040161036790611dfa565b610a946000838361041f565b6001600160a01b0382166000908152600360205260408120805460019290610abd908490612260565b909155505060008181526002602052604080822080546001600160a01b0319166001600160a01b03861690811790915590518392907fddf252ad1be2c89b69c2b068fc378daa952ba7f163c4a11628f55a4df523b3ef908290a45050565b606060006040518060400160405280601a81526020017f646174613a696d6167652f7376672b786d6c3b6261736536342c00000000000081525090506000610b8184604051602001610b6d9190611a3a565b604051602081830303815290604052611229565b90508181604051602001610b96929190611a56565b60405160208183030381529060405292505050919050565b6060610bc8838386604051602001610b6d93929190611b71565b604051602001610bd89190611ccc565b60405160208183030381529060405290509392505050565b610bf9826109ad565b610c155760405162461bcd60e51b815260040161036790611fe8565b6000828152600660209081526040909120825161041f92840190611758565b6000610c3f826109ad565b610c5b5760405162461bcd60e51b815260040161036790611eac565b6000610c668361062c565b9050806001600160a01b0316846001600160a01b03161480610ca15750836001600160a01b0316610c9684610340565b6001600160a01b0316145b8061092357506109238185610966565b826001600160a01b0316610cc48261062c565b6001600160a01b031614610cea5760405162461bcd60e51b815260040161036790612108565b6001600160a01b038216610d105760405162461bcd60e51b815260040161036790611e31565b610d1b83838361041f565b610d266000826109ce565b6001600160a01b0383166000908152600360205260408120805460019290610d4f9084906122d0565b90915550506001600160a01b0382166000908152600360205260408120805460019290610d7d908490612260565b909155505060008181526002602052604080822080546001600160a01b0319166001600160a01b0386811691821790925591518493918716917fddf252ad1be2c89b69c2b068fc378daa952ba7f163c4a11628f55a4df523b3ef91a4505050565b606081610e0357506040805180820190915260018152600360fc1b60208201526102a9565b8160005b8115610e2d5780610e178161234e565b9150610e269050600a8361229d565b9150610e07565b60008167ffffffffffffffff811115610e5657634e487b7160e01b600052604160045260246000fd5b6040519080825280601f01601f191660200182016040528015610e80576020820181803683370190505b509050815b8515610f1b57610e966001826122d0565b90506000610ea5600a8861229d565b610eb090600a6122b1565b610eba90886122d0565b610ec5906030612278565b905060008160f81b905080848481518110610ef057634e487b7160e01b600052603260045260246000fd5b60200101906001600160f81b031916908160001a905350610f12600a8961229d565b97505050610e85565b50949350505050565b60606000600a5483610f369190612369565b610f41906001612260565b9050604051806040016040528060098152602001681e3830ba3410321e9160b91b815250915060005b81811015610ff55760008482600b54610f839190612260565b604051602001610f94929190612252565b6040516020818303038152906040528051906020012060001c90506000610fba8261139e565b90508481604051602001610fcf929190611a56565b604051602081830303815290604052945050508080610fed9061234e565b915050610f6a565b50600d8054600091906110089086612369565b8154811061102657634e487b7160e01b600052603260045260246000fd5b90600052602060002001805461103b90612313565b80601f016020809104026020016040519081016040528092919081815260200182805461106790612313565b80156110b45780601f10611089576101008083540402835291602001916110b4565b820191906000526020600020905b81548152906001019060200180831161109757829003601f168201915b505050505090508281604051602001610b96929190611adf565b816001600160a01b0316836001600160a01b031614156111005760405162461bcd60e51b815260040161036790611e75565b6001600160a01b0383811660008181526005602090815260408083209487168084529490915290819020805460ff1916851515179055517f17307eab39ab6107e8899845ad3d59bd9653f200f220920489ca2b5937696c3190611164908590611d8a565b60405180910390a3505050565b61117c848484610cb1565b6111888484848461151c565b6108045760405162461bcd60e51b815260040161036790611da8565b60408051602081019091526000815290565b60606111c1826109ad565b6111dd5760405162461bcd60e51b815260040161036790612151565b60006111e76111a4565b905060008151116112075760405180602001604052806000815250611222565b8061121184611637565b60405160200161074b929190611a56565b9392505050565b606081516000141561124a57506040805160208101909152600081526102a9565b60006040518060600160405280604081526020016123d960409139905060006003845160026112799190612260565b611283919061229d565b61128e9060046122b1565b9050600061129d826020612260565b67ffffffffffffffff8111156112c357634e487b7160e01b600052604160045260246000fd5b6040519080825280601f01601f1916602001820160405280156112ed576020820181803683370190505b509050818152600183018586518101602084015b81831015611359576003830192508251603f8160121c168501518253600182019150603f81600c1c168501518253600182019150603f8160061c168501518253600182019150603f8116850151825350600101611301565b600389510660018114611373576002811461138457611390565b613d3d60f01b600119830152611390565b603d60f81b6000198301525b509398975050505050505050565b600c8054606091906113b09084612369565b815481106113ce57634e487b7160e01b600052603260045260246000fd5b9060005260206000200180546113e390612313565b80601f016020809104026020016040519081016040528092919081815260200182805461140f90612313565b801561145c5780601f106114315761010080835404028352916020019161145c565b820191906000526020600020905b81548152906001019060200180831161143f57829003601f168201915b505050505090506000600b5483600b54600261147891906122b1565b604051602001611489929190612252565b6040516020818303038152906040528051906020012060001c6114ac9190612369565b600b54909150600090846114c18260036122b1565b6040516020016114d2929190612252565b6040516020818303038152906040528051906020012060001c6114f59190612369565b90508261150183610dde565b61150a83610dde565b604051602001610b9693929190611a85565b6000611530846001600160a01b0316611752565b1561162c57836001600160a01b031663150b7a0261154c6109ca565b8786866040518563ffffffff1660e01b815260040161156e9493929190611d4d565b602060405180830381600087803b15801561158857600080fd5b505af19250505080156115b8575060408051601f3d908101601f191682019092526115b5918101906119da565b60015b611612573d8080156115e6576040519150601f19603f3d011682016040523d82523d6000602084013e6115eb565b606091505b50805161160a5760405162461bcd60e51b815260040161036790611da8565b805181602001fd5b6001600160e01b031916630a85bd0160e11b149050610923565b506001949350505050565b60608161165c57506040805180820190915260018152600360fc1b60208201526102a9565b8160005b811561168657806116708161234e565b915061167f9050600a8361229d565b9150611660565b60008167ffffffffffffffff8111156116af57634e487b7160e01b600052604160045260246000fd5b6040519080825280601f01601f1916602001820160405280156116d9576020820181803683370190505b5090505b8415610923576116ee6001836122d0565b91506116fb600a86612369565b611706906030612260565b60f81b81838151811061172957634e487b7160e01b600052603260045260246000fd5b60200101906001600160f81b031916908160001a90535061174b600a8661229d565b94506116dd565b3b151590565b82805461176490612313565b90600052602060002090601f01602090048101928261178657600085556117cc565b82601f1061179f57805160ff19168380011785556117cc565b828001600101855582156117cc579182015b828111156117cc5782518255916020019190600101906117b1565b506117d89291506117dc565b5090565b5b808211156117d857600081556001016117dd565b80356001600160a01b03811681146102a957600080fd5b600060208284031215611819578081fd5b611222826117f1565b60008060408385031215611834578081fd5b61183d836117f1565b915061184b602084016117f1565b90509250929050565b600080600060608486031215611868578081fd5b611871846117f1565b925061187f602085016117f1565b9150604084013590509250925092565b600080600080608085870312156118a4578081fd5b6118ad856117f1565b935060206118bc8187016117f1565b935060408601359250606086013567ffffffffffffffff808211156118df578384fd5b818801915088601f8301126118f2578384fd5b813581811115611904576119046123a9565b604051601f8201601f1916810185018381118282101715611927576119276123a9565b60405281815283820185018b101561193d578586fd5b81858501868301379081019093019390935250939692955090935050565b6000806040838503121561196d578182fd5b611976836117f1565b91506020830135801515811461198a578182fd5b809150509250929050565b600080604083850312156119a7578182fd5b6119b0836117f1565b946020939093013593505050565b6000602082840312156119cf578081fd5b8135611222816123bf565b6000602082840312156119eb578081fd5b8151611222816123bf565b600060208284031215611a07578081fd5b5035919050565b60008151808452611a268160208601602086016122e7565b601f01601f19169290920160200192915050565b60008251611a4c8184602087016122e7565b9190910192915050565b60008351611a688184602088016122e7565b835190830190611a7c8183602088016122e7565b01949350505050565b60008451611a978184602089016122e7565b845190830190611aab8183602089016122e7565b600160fd1b91018181528451909190611acb8160018501602089016122e7565b600192019182015260020195945050505050565b60008351611af18184602088016122e7565b7f222066696c6c3d227472616e73706172656e7422207374726f6b653d220000009083019081528351611b2b81601d8401602088016122e7565b6211179f60e91b601d9290910191820152602001949350505050565b60008251611b598184602087016122e7565b651e17b9bb339f60d11b920191825250600601919050565b683d913730b6b2911d1160b91b81528351600090611b968160098501602089016122e7565b61088b60f21b60099184019182018190526e113232b9b1b934b83a34b7b7111d1160891b600b8301528551611bd281601a850160208a016122e7565b601a9201918201526f08985d1d1c9a589d5d195cc88e88888b60821b601c820152681134b6b0b3b2911d1160b91b602c8201528351611c188160358401602088016122e7565b61227d60f01b6035929091019182015260370195945050505050565b60007f3c73766720786d6c6e733d22687474703a2f2f7777772e77332e6f72672f323082526f181817b9bb3391103432b4b3b43a1e9160811b60208301528351611c858160308501602088016122e7565b6b19189811103bb4b23a341e9160a11b6030918401918201528351611cb181603c8401602088016122e7565b61111f60f11b603c9290910191820152603e01949350505050565b60007f646174613a6170706c69636174696f6e2f6a736f6e3b6261736536342c00000082528251611d0481601d8501602087016122e7565b91909101601d0192915050565b928352602083019190915260601b6bffffffffffffffffffffffff1916604082015260540190565b6001600160a01b0391909116815260200190565b6001600160a01b0385811682528416602082015260408101839052608060608201819052600090611d8090830184611a0e565b9695505050505050565b901515815260200190565b6000602082526112226020830184611a0e565b60208082526032908201527f4552433732313a207472616e7366657220746f206e6f6e20455243373231526560408201527131b2b4bb32b91034b6b83632b6b2b73a32b960711b606082015260800190565b6020808252601c908201527f4552433732313a20746f6b656e20616c7265616479206d696e74656400000000604082015260600190565b60208082526024908201527f4552433732313a207472616e7366657220746f20746865207a65726f206164646040820152637265737360e01b606082015260800190565b60208082526019908201527f4552433732313a20617070726f766520746f2063616c6c657200000000000000604082015260600190565b6020808252602c908201527f4552433732313a206f70657261746f7220717565727920666f72206e6f6e657860408201526b34b9ba32b73a103a37b5b2b760a11b606082015260800190565b60208082526038908201527f4552433732313a20617070726f76652063616c6c6572206973206e6f74206f7760408201527f6e6572206e6f7220617070726f76656420666f7220616c6c0000000000000000606082015260800190565b6020808252602a908201527f4552433732313a2062616c616e636520717565727920666f7220746865207a65604082015269726f206164647265737360b01b606082015260800190565b60208082526029908201527f4552433732313a206f776e657220717565727920666f72206e6f6e657869737460408201526832b73a103a37b5b2b760b91b606082015260800190565b6020808252602e908201527f45524337323155524953746f726167653a2055524920736574206f66206e6f6e60408201526d32bc34b9ba32b73a103a37b5b2b760911b606082015260800190565b6020808252818101527f4552433732313a206d696e7420746f20746865207a65726f2061646472657373604082015260600190565b60208082526031908201527f45524337323155524953746f726167653a2055524920717565727920666f72206040820152703737b732bc34b9ba32b73a103a37b5b2b760791b606082015260800190565b6020808252602c908201527f4552433732313a20617070726f76656420717565727920666f72206e6f6e657860408201526b34b9ba32b73a103a37b5b2b760a11b606082015260800190565b60208082526029908201527f4552433732313a207472616e73666572206f6620746f6b656e2074686174206960408201526839903737ba1037bbb760b91b606082015260800190565b6020808252602f908201527f4552433732314d657461646174613a2055524920717565727920666f72206e6f60408201526e3732bc34b9ba32b73a103a37b5b2b760891b606082015260800190565b60208082526021908201527f4552433732313a20617070726f76616c20746f2063757272656e74206f776e656040820152603960f91b606082015260800190565b60208082526031908201527f4552433732313a207472616e736665722063616c6c6572206973206e6f74206f6040820152701ddb995c881b9bdc88185c1c1c9bdd9959607a1b606082015260800190565b90815260200190565b9182526001600160a01b0316602082015260400190565b918252602082015260400190565b600082198211156122735761227361237d565b500190565b600060ff821660ff84168060ff038211156122955761229561237d565b019392505050565b6000826122ac576122ac612393565b500490565b60008160001904831182151516156122cb576122cb61237d565b500290565b6000828210156122e2576122e261237d565b500390565b60005b838110156123025781810151838201526020016122ea565b838111156108045750506000910152565b60028104600182168061232757607f821691505b6020821081141561234857634e487b7160e01b600052602260045260246000fd5b50919050565b60006000198214156123625761236261237d565b5060010190565b60008261237857612378612393565b500690565b634e487b7160e01b600052601160045260246000fd5b634e487b7160e01b600052601260045260246000fd5b634e487b7160e01b600052604160045260246000fd5b6001600160e01b0319811681146123d557600080fd5b5056fe4142434445464748494a4b4c4d4e4f505152535455565758595a6162636465666768696a6b6c6d6e6f707172737475767778797a303132333435363738392b2fa2646970667358221220342022fe363433f31280cbb23d6dfe145d640ffcc3b37aeda58f5be9b4e8265264736f6c63430008000033",
  "linkReferences": {},
  "deployedLinkReferences": {}
}