{
  "_format": "hh-sol-artifact-1",
  "contractName": "User",
  "sourceName": "contracts/Users.sol",
  "abi": [
    {
      "inputs": [
        {
          "internalType": "address",
          "name": "_userAddress",
          "type": "address"
        },
        {
          "internalType": "contract NFT",
          "name": "_nftInstance",
          "type": "address"
        },
        {
          "internalType": "contract Auctions",
          "name": "_auctionInstance",
          "type": "address"
        }
      ],
      "stateMutability": "nonpayable",
      "type": "constructor"
    },
    {
      "anonymous": false,
      "inputs": [
        {
          "indexed": false,
          "internalType": "uint256",
          "name": "auctionId",
          "type": "uint256"
        }
      ],
      "name": "AuctionCreated",
      "type": "event"
    },
    {
      "anonymous": false,
      "inputs": [
        {
          "indexed": false,
          "internalType": "bool",
          "name": "result",
          "type": "bool"
        }
      ],
      "name": "AuctionFinalazed",
      "type": "event"
    },
    {
      "anonymous": false,
      "inputs": [
        {
          "indexed": false,
          "internalType": "string",
          "name": "tokenURI",
          "type": "string"
        }
      ],
      "name": "NiggaCollect",
      "type": "event"
    },
    {
      "anonymous": false,
      "inputs": [
        {
          "indexed": false,
          "internalType": "bool",
          "name": "result",
          "type": "bool"
        }
      ],
      "name": "PlaceBid",
      "type": "event"
    },
    {
      "inputs": [],
      "name": "auctionInstance",
      "outputs": [
        {
          "internalType": "contract Auctions",
          "name": "",
          "type": "address"
        }
      ],
      "stateMutability": "view",
      "type": "function"
    },
    {
      "inputs": [],
      "name": "collectNigga",
      "outputs": [],
      "stateMutability": "nonpayable",
      "type": "function"
    },
    {
      "inputs": [
        {
          "internalType": "uint256",
          "name": "_auctionId",
          "type": "uint256"
        }
      ],
      "name": "finalizeAuction",
      "outputs": [
        {
          "internalType": "bool",
          "name": "",
          "type": "bool"
        }
      ],
      "stateMutability": "nonpayable",
      "type": "function"
    },
    {
      "inputs": [
        {
          "internalType": "uint256",
          "name": "_auctionId",
          "type": "uint256"
        }
      ],
      "name": "getAuctionApprovingData",
      "outputs": [
        {
          "internalType": "address",
          "name": "",
          "type": "address"
        },
        {
          "internalType": "address",
          "name": "",
          "type": "address"
        }
      ],
      "stateMutability": "view",
      "type": "function"
    },
    {
      "inputs": [
        {
          "internalType": "uint256",
          "name": "_id",
          "type": "uint256"
        }
      ],
      "name": "getAuctionContentById",
      "outputs": [
        {
          "components": [
            {
              "internalType": "address",
              "name": "owner",
              "type": "address"
            },
            {
              "internalType": "uint256",
              "name": "nftTokenId",
              "type": "uint256"
            },
            {
              "internalType": "string",
              "name": "message",
              "type": "string"
            },
            {
              "internalType": "uint256",
              "name": "startPrice",
              "type": "uint256"
            },
            {
              "internalType": "uint256",
              "name": "highestPrice",
              "type": "uint256"
            },
            {
              "internalType": "address",
              "name": "highestBidder",
              "type": "address"
            },
            {
              "internalType": "enum Auction.State",
              "name": "auctionState",
              "type": "uint8"
            }
          ],
          "internalType": "struct AuctionContent",
          "name": "",
          "type": "tuple"
        }
      ],
      "stateMutability": "view",
      "type": "function"
    },
    {
      "inputs": [],
      "name": "getMyAuctionIds",
      "outputs": [
        {
          "internalType": "uint256[]",
          "name": "",
          "type": "uint256[]"
        }
      ],
      "stateMutability": "view",
      "type": "function"
    },
    {
      "inputs": [],
      "name": "getMyAuctionsContracts",
      "outputs": [
        {
          "internalType": "contract Auction[]",
          "name": "",
          "type": "address[]"
        }
      ],
      "stateMutability": "view",
      "type": "function"
    },
    {
      "inputs": [],
      "name": "getMyNiggaTokenIds",
      "outputs": [
        {
          "internalType": "uint256[]",
          "name": "",
          "type": "uint256[]"
        }
      ],
      "stateMutability": "view",
      "type": "function"
    },
    {
      "inputs": [],
      "name": "getMyNiggasTokenURI",
      "outputs": [
        {
          "internalType": "string[]",
          "name": "NFTs",
          "type": "string[]"
        }
      ],
      "stateMutability": "view",
      "type": "function"
    },
    {
      "inputs": [
        {
          "internalType": "uint256",
          "name": "_id",
          "type": "uint256"
        }
      ],
      "name": "getNiggaById",
      "outputs": [
        {
          "internalType": "string",
          "name": "",
          "type": "string"
        }
      ],
      "stateMutability": "view",
      "type": "function"
    },
    {
      "inputs": [
        {
          "internalType": "uint256",
          "name": "_id",
          "type": "uint256"
        }
      ],
      "name": "getNiggaTokenIdById",
      "outputs": [
        {
          "internalType": "uint256",
          "name": "",
          "type": "uint256"
        }
      ],
      "stateMutability": "view",
      "type": "function"
    },
    {
      "inputs": [],
      "name": "nftInstance",
      "outputs": [
        {
          "internalType": "contract NFT",
          "name": "",
          "type": "address"
        }
      ],
      "stateMutability": "view",
      "type": "function"
    },
    {
      "inputs": [
        {
          "internalType": "uint256",
          "name": "_auctionId",
          "type": "uint256"
        }
      ],
      "name": "placeBid",
      "outputs": [],
      "stateMutability": "payable",
      "type": "function"
    },
    {
      "inputs": [
        {
          "internalType": "uint256",
          "name": "_niggaId",
          "type": "uint256"
        },
        {
          "internalType": "string",
          "name": "_message",
          "type": "string"
        },
        {
          "internalType": "uint256",
          "name": "_startPrice",
          "type": "uint256"
        }
      ],
      "name": "sellNigga",
      "outputs": [],
      "stateMutability": "nonpayable",
      "type": "function"
    },
    {
      "inputs": [],
      "name": "userAddress",
      "outputs": [
        {
          "internalType": "address",
          "name": "",
          "type": "address"
        }
      ],
      "stateMutability": "view",
      "type": "function"
    }
  ],
  "bytecode": "0x60806040523480156200001157600080fd5b506040516200186038038062001860833981016040819052620000349162000077565b600080546001600160a01b039485166001600160a01b031991821617909155600180549385169382169390931790925560028054919093169116179055620000e3565b6000806000606084860312156200008c578283fd5b83516200009981620000ca565b6020850151909350620000ac81620000ca565b6040850151909250620000bf81620000ca565b809150509250925092565b6001600160a01b0381168114620000e057600080fd5b50565b61176d80620000f36000396000f3fe6080604052600436106100e85760003560e01c8063a582dc441161008a578063c785034911610059578063c785034914610259578063d4d68a9e14610279578063e4128fb3146102a7578063e8083863146102bc576100e8565b8063a582dc44146101d3578063ac5e4dd814610200578063af98bace14610222578063b7e8ab1a14610244576100e8565b806395d3343e116100c657806395d3343e146101725780639979ef45146101945780639e695014146101a9578063a20b9511146101be576100e8565b806352ed6b69146100ed57806359da64a9146101185780637e7010f514610145575b600080fd5b3480156100f957600080fd5b506101026102e9565b60405161010f91906114ee565b60405180910390f35b34801561012457600080fd5b506101386101333660046112c2565b6103ac565b60405161010f91906115a7565b34801561015157600080fd5b506101656101603660046112c2565b61046a565b60405161010f9190611531565b34801561017e57600080fd5b50610187610521565b60405161010f919061148e565b6101a76101a23660046112c2565b61068d565b005b3480156101b557600080fd5b506101a761089d565b3480156101ca57600080fd5b50610102610a77565b3480156101df57600080fd5b506101f36101ee3660046112c2565b610ad8565b60405161010f9190611633565b34801561020c57600080fd5b50610215610bb9565b60405161010f91906113a7565b34801561022e57600080fd5b50610237610bc8565b60405161010f9190611441565b34801561025057600080fd5b50610215610c7f565b34801561026557600080fd5b506101a76102743660046112f2565b610c8e565b34801561028557600080fd5b506102996102943660046112c2565b610d95565b60405161010f9291906113d4565b3480156102b357600080fd5b50610215610e30565b3480156102c857600080fd5b506102dc6102d73660046112c2565b610e3f565b60405161010f9190611526565b6000546060906001600160a01b0316331461031f5760405162461bcd60e51b815260040161031690611544565b60405180910390fd5b600254600054604051631f56360360e31b81526001600160a01b039283169263fab1b01892610353929116906004016113a7565b60006040518083038186803b15801561036b57600080fd5b505afa15801561037f573d6000803e3d6000fd5b505050506040513d6000823e601f3d908101601f191682016040526103a7919081019061112f565b905090565b6103b4610f9c565b6000546001600160a01b031633146103de5760405162461bcd60e51b815260040161031690611544565b6002546040516302deb55360e21b81526001600160a01b0390911690630b7ad54c9061040e908590600401611633565b60006040518083038186803b15801561042657600080fd5b505afa15801561043a573d6000803e3d6000fd5b505050506040513d6000823e601f3d908101601f191682016040526104629190810190611206565b90505b919050565b6000546060906001600160a01b031633146104975760405162461bcd60e51b815260040161031690611544565b6001546001600160a01b031663c87b56dd6104b184610ad8565b6040518263ffffffff1660e01b81526004016104cd9190611633565b60006040518083038186803b1580156104e557600080fd5b505afa1580156104f9573d6000803e3d6000fd5b505050506040513d6000823e601f3d908101601f1916820160405261046291908101906111d3565b6060600061052d610a77565b80519091508067ffffffffffffffff81111561055957634e487b7160e01b600052604160045260246000fd5b60405190808252806020026020018201604052801561058c57816020015b60608152602001906001900390816105775790505b50925060005b818110156106875760015483516001600160a01b039091169063c87b56dd908590849081106105d157634e487b7160e01b600052603260045260246000fd5b60200260200101516040518263ffffffff1660e01b81526004016105f59190611633565b60006040518083038186803b15801561060d57600080fd5b505afa158015610621573d6000803e3d6000fd5b505050506040513d6000823e601f3d908101601f1916820160405261064991908101906111d3565b84828151811061066957634e487b7160e01b600052603260045260246000fd5b6020026020010181905250808061067f906116e2565b915050610592565b50505090565b6000546001600160a01b031633146106b75760405162461bcd60e51b815260040161031690611544565b600254604051630c088d6d60e11b81526000916001600160a01b0316906318111ada906106e8908590600401611633565b60206040518083038186803b15801561070057600080fd5b505afa158015610714573d6000803e3d6000fd5b505050506040513d601f19601f820116820180604052508101906107389190611073565b9050806001600160a01b0316638da5cb5b6040518163ffffffff1660e01b815260040160206040518083038186803b15801561077357600080fd5b505afa158015610787573d6000803e3d6000fd5b505050506040513d601f19601f820116820180604052508101906107ab9190611073565b6001600160a01b0316336001600160a01b031614156107dc5760405162461bcd60e51b815260040161031690611570565b6000816001600160a01b031663d98b9bb53433346040518463ffffffff1660e01b815260040161080d9291906113bb565b6020604051808303818588803b15801561082657600080fd5b505af115801561083a573d6000803e3d6000fd5b50505050506040513d601f19601f8201168201806040525081019061085f91906111b3565b90507fdd12842682a5074130a77d2ebd35098c916b04f5f9130d875292531a3b844b5a816040516108909190611526565b60405180910390a1505050565b6000546001600160a01b031633146108c75760405162461bcd60e51b815260040161031690611544565b6001805460005460405163a22cb46560e01b81526001600160a01b039283169363a22cb465936108fb9316916004016113ee565b600060405180830381600087803b15801561091557600080fd5b505af1158015610929573d6000803e3d6000fd5b5050600154600080546040516305f9620f60e21b81529194506001600160a01b0392831693506317e5883c92610964929116906004016113a7565b602060405180830381600087803b15801561097e57600080fd5b505af1158015610992573d6000803e3d6000fd5b505050506040513d601f19601f820116820180604052508101906109b691906112da565b60015460405163c87b56dd60e01b81529192507fcbfc4dcd2e7acb06d88ce8ab931499a35fd78fb8ca65dffed66523c8f5e247a9916001600160a01b039091169063c87b56dd90610a0b908590600401611633565b60006040518083038186803b158015610a2357600080fd5b505afa158015610a37573d6000803e3d6000fd5b505050506040513d6000823e601f3d908101601f19168201604052610a5f91908101906111d3565b604051610a6c9190611531565b60405180910390a150565b6000546060906001600160a01b03163314610aa45760405162461bcd60e51b815260040161031690611544565b600154600054604051635d81902f60e01b81526001600160a01b0392831692635d81902f92610353929116906004016113a7565b600080546001600160a01b03163314610b035760405162461bcd60e51b815260040161031690611544565b600154600054604051635d81902f60e01b81526001600160a01b0392831692635d81902f92610b37929116906004016113a7565b60006040518083038186803b158015610b4f57600080fd5b505afa158015610b63573d6000803e3d6000fd5b505050506040513d6000823e601f3d908101601f19168201604052610b8b919081019061112f565b8281518110610baa57634e487b7160e01b600052603260045260246000fd5b60200260200101519050919050565b6001546001600160a01b031681565b6000546060906001600160a01b03163314610bf55760405162461bcd60e51b815260040161031690611544565b600260009054906101000a90046001600160a01b03166001600160a01b031663d7c069196040518163ffffffff1660e01b815260040160006040518083038186803b158015610c4357600080fd5b505afa158015610c57573d6000803e3d6000fd5b505050506040513d6000823e601f3d908101601f191682016040526103a79190810190611096565b6002546001600160a01b031681565b6000546001600160a01b03163314610cb85760405162461bcd60e51b815260040161031690611544565b6000610cc384610ad8565b600254600080546040516312072a3160e21b815293945090926001600160a01b039283169263481ca8c492610d0392911690869089908990600401611409565b602060405180830381600087803b158015610d1d57600080fd5b505af1158015610d31573d6000803e3d6000fd5b505050506040513d601f19601f82011682018060405250810190610d5591906112da565b90507f7e0e356457a92dacd3760ddf327a24dd226c6ca01b2cc41a7fd6f28469c7ab9b81604051610d869190611633565b60405180910390a15050505050565b600254604051630c088d6d60e11b8152600091829182916001600160a01b0316906318111ada90610dca908790600401611633565b60206040518083038186803b158015610de257600080fd5b505afa158015610df6573d6000803e3d6000fd5b505050506040513d601f19601f82011682018060405250810190610e1a9190611073565b6001546001600160a01b03169350915050915091565b6000546001600160a01b031681565b600080546001600160a01b03163314610e6a5760405162461bcd60e51b815260040161031690611544565b600254604051630c088d6d60e11b81526000916001600160a01b0316906318111ada90610e9b908690600401611633565b60206040518083038186803b158015610eb357600080fd5b505afa158015610ec7573d6000803e3d6000fd5b505050506040513d601f19601f82011682018060405250810190610eeb9190611073565b6001600160a01b031663f77282ab6040518163ffffffff1660e01b8152600401602060405180830381600087803b158015610f2557600080fd5b505af1158015610f39573d6000803e3d6000fd5b505050506040513d601f19601f82011682018060405250810190610f5d91906111b3565b90507fac582e96473a143b5efdb32368bad855dfe56bafa86c2171f0fd6063cf391cfe81604051610f8e9190611526565b60405180910390a192915050565b6040518060e0016040528060006001600160a01b031681526020016000815260200160608152602001600081526020016000815260200160006001600160a01b031681526020016000600181111561100457634e487b7160e01b600052602160045260246000fd5b905290565b80516104658161171f565b80516002811061046557600080fd5b600082601f830112611033578081fd5b81516110466110418261168a565b61163c565b81815284602083860101111561105a578283fd5b61106b8260208301602087016116b2565b949350505050565b600060208284031215611084578081fd5b815161108f8161171f565b9392505050565b600060208083850312156110a8578182fd5b825167ffffffffffffffff8111156110be578283fd5b8301601f810185136110ce578283fd5b80516110dc61104182611666565b81815283810190838501858402850186018910156110f8578687fd5b8694505b8385101561112357805161110f8161171f565b8352600194909401939185019185016110fc565b50979650505050505050565b60006020808385031215611141578182fd5b825167ffffffffffffffff811115611157578283fd5b8301601f81018513611167578283fd5b805161117561104182611666565b8181528381019083850185840285018601891015611191578687fd5b8694505b83851015611123578051835260019490940193918501918501611195565b6000602082840312156111c4578081fd5b8151801515811461108f578182fd5b6000602082840312156111e4578081fd5b815167ffffffffffffffff8111156111fa578182fd5b61106b84828501611023565b600060208284031215611217578081fd5b815167ffffffffffffffff8082111561122e578283fd5b9083019060e08286031215611241578283fd5b61124b60e061163c565b61125483611009565b815260208301516020820152604083015182811115611271578485fd5b61127d87828601611023565b60408301525060608301516060820152608083015160808201526112a360a08401611009565b60a08201526112b460c08401611014565b60c082015295945050505050565b6000602082840312156112d3578081fd5b5035919050565b6000602082840312156112eb578081fd5b5051919050565b600080600060608486031215611306578182fd5b83359250602084013567ffffffffffffffff811115611323578283fd5b8401601f81018613611333578283fd5b80356113416110418261168a565b818152876020838501011115611355578485fd5b816020840160208301378460208383010152809450505050604084013590509250925092565b600081518084526113938160208601602086016116b2565b601f01601f19169290920160200192915050565b6001600160a01b0391909116815260200190565b6001600160a01b03929092168252602082015260400190565b6001600160a01b0392831681529116602082015260400190565b6001600160a01b039290921682521515602082015260400190565b600060018060a01b038616825284602083015260806040830152611430608083018561137b565b905082606083015295945050505050565b6020808252825182820181905260009190848201906040850190845b818110156114825783516001600160a01b03168352928401929184019160010161145d565b50909695505050505050565b6000602080830181845280855180835260408601915060408482028701019250838701855b828110156114e157603f198886030184526114cf85835161137b565b945092850192908501906001016114b3565b5092979650505050505050565b6020808252825182820181905260009190848201906040850190845b818110156114825783518352928401929184019160010161150a565b901515815260200190565b60006020825261108f602083018461137b565b6020808252601290820152712cb7ba9030b932903bb937b733903ab9b2b960711b604082015260600190565b60208082526018908201527f596f7520617265206f776e6572206f662061756374696f6e0000000000000000604082015260600190565b60006020825260018060a01b0380845116602084015260208401516040840152604084015160e060608501526115e161010085018261137b565b905060608501516080850152608085015160a08501528160a08601511660c085015260c085015191506002821061162657634e487b7160e01b83526021600452602483fd5b60e0939093015250919050565b90815260200190565b60405181810167ffffffffffffffff8111828210171561165e5761165e611709565b604052919050565b600067ffffffffffffffff82111561168057611680611709565b5060209081020190565b600067ffffffffffffffff8211156116a4576116a4611709565b50601f01601f191660200190565b60005b838110156116cd5781810151838201526020016116b5565b838111156116dc576000848401525b50505050565b600060001982141561170257634e487b7160e01b81526011600452602481fd5b5060010190565b634e487b7160e01b600052604160045260246000fd5b6001600160a01b038116811461173457600080fd5b5056fea26469706673582212200d82b0b3f0df299d1d84653a5d0ae280a27b5ef37490170563abca2a59b91da164736f6c63430008000033",
  "linkReferences": {},
  "deployedLinkReferences": {}
}